:100000000C94F0040C940D050C940D050C940D0546
:100010000C940D050C940D050C940D050C940D0518
:100020000C940D050C940D050C94FD280C94D1290D
:100030000C941C240C940D050C940D050C940D05CA
:100040000C940D050C940D050C940D050C940D05E8
:100050000C940D050C94A3240C940D050C940D0523
:100060000C940D050C940D050C940D050C940D05C8
:100070000C940D050C940D050C940D050C940D05B8
:100080000C940D050C940D050C940D050C940D05A8
:100090000C940D050C940D050C940D050C940D0598
:1000A0000C940D050C940D050C940D05556E6465AE
:1000B00066696E656400524742204C4544205445B1
:1000C00053540A004B455920544553540A004C617F
:1000D0007965723A200014001A0008001500170014
:1000E000000004001600070009000A0000001D00BF
:1000F0001B00060019000500000001501E001F0033
:1001000020002100095DC35CC65CC75CC85CC95C9B
:100110000000C45CB25DCA5CCB5C00000000000063
:10012000000000000000000000000050000000007F
:1001300000000000095D808182838485868788892C
:100140008A8B8C8D8E8F9091929394A0A1A2A3A460
:10015000A5A6A7A8A9AAABACADAEAFB0B1B2B3B4D7
:10016000C0C1C2C3C4C5C6C7C8C9CACBCCCDCECF17
:10017000D0D1D2D3D40000047F3F1F643214643244
:1001800014783C1E1E140A052223252628292A2C11
:100190002D2F3032333536383A3B3D3E40424345D1
:1001A00047494A4C4E5051535557595A5C5E60620C
:1001B000646668696B6D6F71737577797B7D7F811C
:1001C000838587898A8C8E90929496989A9C9E9F1C
:1001D000A1A3A5A7A8AAACAEAFB1B3B4B6B8B9BB3A
:1001E000BCBEBFC1C2C3C5C6C7C9CACBCCCDCED0A9
:1001F000D1D2D2D3D4D5D6D7D7D8D9D9DADADBDB96
:10020000DBDCDCDCDCDCDDDDDDDDDCDCDCDCDCDB2C
:10021000DBDBDADAD9D9D8D7D7D6D5D4D3D2D2D175
:10022000D0CECDCCCBCAC9C7C6C5C3C2C1BFBEBC68
:10023000BBB9B8B6B4B3B1AFAEACAAA8A7A5A3A1D9
:100240009F9E9C9A98969492908E8C8A898785839B
:10025000817F7D7B79777573716F6D6B696866647B
:1002600062605E5C5A5957555351504E4C4A49474B
:10027000454342403E3D3B3A3836353332302F2DF0
:100280002C2A292826252322FFAA7F554000010178
:100290000101010101010102020202020202020245
:1002A0000303030303030303040404040404040515
:1002B00005050505060606060607070707070808D9
:1002C0000808090909090A0A0A0B0B0B0C0C0C0D8A
:1002D0000D0D0E0E0E0F0F0F101011111112121323
:1002E000131414151516161717181819191A1A1B9E
:1002F0001B1C1D1D1E1E1F202021222223242425FD
:100300002626272829292A2B2C2D2D2E2F30313235
:1003100032333435363738393A3B3C3D3E3F404145
:1003200042434445464748494A4C4D4E4F5051532D
:1003300054555658595A5B5D5E5F616264656668E4
:10034000696B6C6D6F7072737577787A7B7D7E8068
:1003500082838587888A8C8E8F91939596989A9CB4
:100360009EA0A2A3A5A7A9ABADAFB1B3B5B7BABCC8
:10037000BEC0C2C4C6C9CBCDCFD1D4D6D8DBDDDF99
:10038000E2E4E7E9EBEEF0F3F5F8FAFDFF00AE008A
:10039000AF00DA0281FFD9F1DB20A4A62EAF00A0C6
:1003A000C000A1C800AED580A81FD300408D142086
:1003B000000000000000003E5B4F5B3E003E6B4FC4
:1003C0006B3E001C3E7C3E1C00183C7E3C18001C12
:1003D000577D571C001C5E7F5E1C0000183C1800F7
:1003E00000FFE7C3E7FF00001824180000FFE7DB69
:1003F000E7FF0030483A060E0026297929260040FA
:100400007F05050700407F05253F005A3CE73C5A21
:10041000007F3E1C1C0800081C1C3E7F0014227F2D
:100420002214005F5F005F5F0006097F017F00000C
:100430006689956A0060606060600094A2FFA29483
:100440000008047E04080010207E20100008082AFE
:100450001C0800081C2A0808001E10101010000CB0
:100460001E0C1E0C0030383E383000060E3E0E06C4
:100470000000000000000000005F00000000070016
:10048000070000147F147F1400242A7F2A120023FF
:100490001308646200364956205000000807030024
:1004A00000001C224100000041221C00002A1C7F89
:1004B0001C2A0008083E0808000080703000000870
:1004C000080808080000006060000020100804020E
:1004D000003E5149453E0000427F400000724949BC
:1004E0004946002141494D33001814127F1000275E
:1004F00045454539003C4A49493100412111090728
:1005000000364949493600464949291E0000001471
:1005100000000000403400000000081422410014D4
:100520001414141400004122140800020159090691
:10053000003E415D594E007C1211127C007F4949FA
:100540004936003E41414122007F4141413E007F0A
:1005500049494941007F09090901003E4141517360
:10056000007F0808087F0000417F410000204041D3
:100570003F01007F08142241007F40404040007F3F
:10058000021C027F007F0408107F003E4141413E73
:10059000007F09090906003E4151215E007F0919CB
:1005A00029460026494949320003017F0103003FE3
:1005B0004040403F001F2040201F003F4038403F48
:1005C00000631408146300030478040300615949AC
:1005D0004D4300007F41414100020408102000000B
:1005E0004141417F0004020102040040404040407C
:1005F000000003070800002054547840007F28447E
:10060000443800384444442800384444287F0038A3
:10061000545454180000087E09020018A4A49C78C1
:10062000007F080404780000447D40000020404022
:100630003D00007F102844000000417F4000007C06
:1006400004780478007C0804047800384444443872
:1006500000FC182424180018242418FC007C08042A
:1006600004080048545454240004043F4424003C2B
:100670004040207C001C2040201C003C4030403C7E
:10068000004428102844004C9090907C004464540E
:100690004C440000083641000000007700000000D4
:1006A00041360800000201020402003C2623263CD9
:1006B00000000000C0E0E0E0C08000007CFEFFFF22
:1006C000FE7C0000C0E0F0F0E0C00000FEFEFEFE98
:1006D000FEFE0000000000FEFEFEFEFEFE0000FE2C
:1006E000FEFEFEFE0000FEFEFEFEFE1E1EFEFEFCE8
:1006F000F80000707078F8FCFEFEFEFE00000000BE
:10070000E0F8FE7EFEFEFEFEFE000000000000801F
:100710008080800000000080808080000000000059
:10072000000000000000000000000000000000E0E9
:10073000F0F0F0E0ECEEF7F37020007C7C7C7E00C3
:100740007E7E7E7F7F7F000080C0E07E5B4F5BFE11
:10075000C00000C000DCD7DEDEDED7DC00C0000059
:100760000000000000000000000000000000000089
:100770000080C0C0C3C7CF8F0F0F07E0F0F8F9F9B2
:10078000F8F0E0E0C7CF8F0F07030000FFFFFFFF87
:10079000FFFF0000000000FFFFFFFFFFFF3E3EFFE6
:1007A000FFFFFFFF0000FFFFFFFFFF3C3C3F3F1F3D
:1007B0000F0000000000FFFFFFFFFFFF0080F8FFB9
:1007C000FFFF8780FFFFFFFFFF808000000000FF2A
:1007D000FFFFFF00000000FDFDFDFD001CFFFFFF0F
:1007E000FF1C00FCFEFEFE8E8EFEFEFC0000000FD5
:1007F0001F3F7F7F7F7F7F3F1E0C001F1F1F3F001B
:100800003F3F3F7F7F7F00307B7F783020203078F4
:100810007F3B0003000F7F0F0F0F7F0F00030000CF
:1008200000000000000000000000000000000000C8
:100830000003070F0F0F0F0703007FFFFFFFFFFFEE
:10084000FF7F3F3F3F1F1F07000000007F7F7F7F2C
:100850007F7F78787878007F7F7F7F7F7F00007F41
:100860007F7F7F7F00007F7F7F7F7F000000000011
:100870000000000000007F7F7F7F7F7F0007070769
:10088000070707077F7F7F7F7F0707000000007F44
:100890007F7F7F707070007F7F7F7F00003F7F7F52
:1008A0007F70003F7F7F7F70707C7C3C0000000089
:1008B0000000000000000000000000000000000038
:1008C0000000000000000000000000000000000028
:1008D0000000000000000000000000000000000018
:1008E0000000000000000000000000000000000008
:1008F0000014034C0048005000310034004C0069E3
:100900000074006500000016034E0065006F00547F
:1009100000720069006E0069007400790000000434
:1009200003090409023B00020100A0FA09040000C7
:100930000103010100092111010001224000070506
:1009400081030800010904010001030000000921DE
:100950001101000122300007058203080001120185
:1009600000020000000814FF07000100010200015E
:1009700005010904A101A100050109300931158112
:10098000257F9502750881020509190129011500C5
:100990002501950175018102950775018101C0C08E
:1009A00005010906A101050719E029E71500250140
:1009B00095087501810295017508810105071900E7
:1009C00029FF150026FF0095067508810005081906
:1009D000012905950575019102950175039101C0E5
:1009E00011241FBECFEFDAE0DEBFCDBF11E0A0E0E3
:1009F000B1E0EAEEF9E502C005900D92A437B10727
:100A0000D9F724E0A4E7B1E001C01D92A23AB207F1
:100A1000E1F70E94A3130C94DD2C0C94000082E0FB
:100A20000895823B9D4541F4FB018281882321F09A
:100A30000E948D140E94FD1881E0089560E080E01E
:100A40000E94711B60E086E391E00E94531C63E00A
:100A500080E00E94711B60E08EEC90E00E94531CCD
:100A600080918801909189010E945806882341F065
:100A7000813091F060E08CEA90E00E94651C0AC031
:100A800060E084EC90E00E94531C44EB6FEF80E048
:100A90000E94661680E0089560E086EB90E00E9478
:100AA000531CF8CF0E94791D089584E90E946421A7
:100AB00097FD039695958795959587959195819541
:100AC000910980589F4F909327028093260284EFCC
:100AD0000E94642197FD0396959587959595879536
:100AE00080589109909329028093280280912A02CC
:100AF000826080932A02089581E008950E94110582
:100B0000089508950E9481050895A5E0B0E0EBE8FE
:100B1000F5E00C94412C49835A8330917B01898103
:100B20009A81311119C0662399F0222389F00E941D
:100B3000E50A182F682F89819A810E94C10A69816C
:100B40007A81812F0E9435112596E3E00C945D2C6B
:100B50000E94D30A182FF3CF0E94E50A69817A8197
:100B6000F1CFFC01262F4081518162817381848104
:100B70000E948505089581E00895CF93DF93EC01ED
:100B800060E00E94B105BE010E948205DF91CF9115
:100B900008950E945C1208950E945F1208950895BE
:100BA0000E948C090E94CF052FEF84E39CE0215026
:100BB00080409040E1F700C0000008950E94D005F9
:100BC0000E94C72408950E94D0050E94D824089549
:100BD0000F931F93CF93DF938C0161E00E94B105C7
:100BE000EC01B8010E947E05811106C080E0DF9112
:100BF000CF911F910F910895B801CE010E94F72166
:100C00008823A1F3B801CE010E94A41D882371F3AB
:100C1000B801CE010E946921882341F3B801CE01B9
:100C20000E94031A882311F3B801CE010E94121FFB
:100C30008823E1F2F8018281882361F0CB35FDE55C
:100C4000DF0701F158F4C115ECE5DE0791F0CF3D67
:100C5000DC4591F0C8010E947C05C9CFCD358DE5FA
:100C6000D80769F090F0C83ADD45A1F70E94E30586
:100C7000BDCF0E94DE05BACF0E94980FF7CF0E9429
:100C8000DD0EE8CF0E94E70EE5CF0E94EB0EE2CF2B
:100C90000E94F9230E948F060E9479180E94791DF4
:100CA00008950E9493060E9450190E94FE23089501
:100CB000292F332740E02115310511F0C90148E003
:100CC0009C0164E0369527956A95E1F72115310579
:100CD00011F04C5FC9019C013695279536952795F3
:100CE0002115310511F04E5FC90196958795892B25
:100CF00009F04F5F842F089508950E947C0608959F
:100D000081E008950E94800608950895CF93C82F2A
:100D10000E947D068C2F0E948206CF91089580E06C
:100D20000E94860608950E943F230E948606089529
:100D3000CF930E943F23C82F809176018C1779F0C2
:100D4000C09376010E9488246093770170937801A4
:100D50008093790190937A018C2F0E948606CF911F
:100D60000895ABE0B0E0E7EBF6E00C94422C4F8343
:100D7000588769877A878B8761110E94280E1E82A7
:100D80001D8285E0FE013796DE01119601900D92DD
:100D90008A95E1F78C819D81892B61F449815A8183
:100DA0006B817C818D819E810E94510D2B96E2E0AA
:100DB0000C945E2C89819A8189238F3F79F3CE012F
:100DC00001960E94BB058111E9CFF0CFFC01808123
:100DD00091810E94170B0895CF93C82F8823B9F0F3
:100DE0008CEF8C0F813AA8F46C2F809112019091B6
:100DF00013010E949523882329F08C2F0E94E80D6F
:100E00000E94490E8C2F0E94E00D0E94490ECF9146
:100E1000089580E28C0F8830D0F7C77081E001C060
:100E2000880FCA95EAF70E940B0EEFCF882339F19D
:100E30009CEF980F913A28F40E94E80D0E94490E09
:100E4000089590E2980F983050F4877091E001C0B7
:100E5000990F8A95EAF7892F0E94110EEFCF9BE533
:100E6000980F933028F490E080E00E945723089573
:100E7000885A873120F490E080E00E946D23089525
:100E80001F93CF93DF93182FEB010E94EC0620975E
:100E900039F4812F0E941607DF91CF911F91089599
:100EA0008FE99FE00197F1F700C000002197EFCF95
:100EB00070E060E0893311F460E570E00E94400763
:100EC0000895882321F00E940B0E0E94490E089578
:100ED000882321F00E94110E0E94490E0895B0E06F
:100EE000A0E0E5E7F7E00C943B2C6C01D62FC72F70
:100EF000FC011281F580F2949FE0F9220E94010E1C
:100F0000E82E8823B9F0E12E1123A1F08C2F807FE9
:100F1000803421F080E28D0F8830D0F0809145023E
:100F200082FF16C082E00E94AC0E0E94010E91E08A
:100F3000E82EE926BC2EB2948FE0B822FBE0FB1528
:100F400008F468C0EB2DF0E0E152F34D0C94FB2B5C
:100F5000E12CF0CF0C2F0F70C07F11F00295007FB5
:100F6000112399F0002359F080E28D0F883010F0A2
:100F7000D11107C0802F0E940B0E0E94490E8D2FA9
:100F800041C0802F0E941B0EF8CF8D2F0E941607A4
:100F9000002309F43FC080E28D0F883010F0D1119A
:100FA00004C0802F0E94110E03C0802F0E94210ECA
:100FB0000E94490E2FC00C2F0F70C07FC03211F05D
:100FC0000295007FDD2381F0D13009F463C0112345
:100FD00009F46DC0FF2009F463C0F601858180FF2C
:100FE000CECF8F7085835CC08091450282FD33C077
:100FF000112359F0002329F0802F0E940B0E0E942C
:10100000490E80E00E94EC0605C080E00E941607B1
:101010000111C7CFEB2DE850FF0B349720F40E944D
:101020003F230E948606EE2089F00E94FD0D80FD80
:101030000DC0F60112820E94F70D0E941F0AC60120
:101040000E9458090E94F70D0E942F0ACDB7DEB703
:10105000E9E00C94572C112389F0F11006C00E948E
:101060002B0E802B0E946107D5CF21E0F212F7CF23
:101070000E942B0E802B0E94320ECCCFF11006C0A6
:101080000E943F0E802F0E946807C4CF31E0F31604
:1010900009F2F6CF112331F085E08F1508F4BACFAD
:1010A000802FE0CF94E09F1508F4B4CFEBCFFF2062
:1010B00049F3D93349F4FFEF27EE33E0F1502040F4
:1010C0003040E1F700C000008D2F0E941607A2CF2C
:1010D0008C2F8370A1F511119DCF4D2F4295469510
:1010E0004770440F440F2D2F2F7030E0042E02C0A4
:1010F000220F331F0A94E2F790E080E0D4FF09C08A
:101100008FE090E002C0880F991F4A95E2F7809522
:101110009095C695C695C370822B932BC23049F02B
:1011200058F4C13019F00E94ED0974CF0E94E4090F
:1011300071CF0E94F6096ECF0E94E1096BCF8695B0
:10114000112311F08C2F8170882309F463CF4D2F68
:10115000429546954770440F440F2D2F2F7030E075
:10116000042E02C0220F331F0A94E2F790E080E0C1
:10117000D4FF09C08FE090E002C0880F991F4A9504
:10118000E2F780959095C695C695C370822B932BF8
:10119000C23049F058F4C13019F00E945A0A3ACFCF
:1011A0000E94510A37CF0E94630A34CF0E94050A79
:1011B00031CFCF70112329F08C2F0E941F0A8D2F61
:1011C00051CF8D2F0E9468078C2F0E942F0A22CFAB
:1011D000D23F51F160F4D03FB9F0D13F81F01123FB
:1011E00009F449C0F110CBCE8C2F8F7121C0D33FB1
:1011F00011F1D43FA1F78091450282FD26C08C2FCA
:101200008F71112311F314C0112349F084E08F155D
:1012100008F400CF8C2F8F710E94410AFBCE95E01D
:101220009F1508F4F7CEF6CF8C2F8F711111CDCF0B
:101230000E941F0AEFCE112329F08C2F8F710E947C
:10124000130AE8CE0E940E0AE5CE112349F0CF71B1
:101250008C2F0E941F0A63E08C2F0E948E0EDACE24
:1012600081E00E94AC0EE1E0EF1508F0D3CE82E001
:101270000E94AC0ECFCEF1101CCF8C2F8F71A5CF5A
:101280000F931F93CF93DF93EC01688179818A815B
:101290000E94220B8C010E946C0A0E94E009B80196
:1012A000CE010E946F07DF91CF911F910F9108959A
:1012B000CF93DF93EC018B819C81892B29F088816E
:1012C000998189238F3F51F4DF91CF910895CE0109
:1012D0000E944009CE010E94BD05F6CFCE010E94BA
:1012E000E8058111F4CF0E94010E882369F38A81F9
:1012F000882351F38091450282FFE6CF82E00E946D
:10130000AC0EE2CF0E94280E0E94490E08950E9462
:10131000F00D0E94820908950E94180E0E9487090C
:10132000089592959F70963091F058F4925F9F7057
:10133000923058F4803F19F030F4883E30F481E068
:1013400008959A5FF4CF843FD1F380E00895883EFA
:10135000B0F3813FD1F7F3CFFC0183819481892BD6
:1013600029F08081918189238F3F11F480E00895D5
:10137000808191810E94170B0E9491090895A5E038
:10138000B0E0E5ECF9E00C94422C2596E2E00C94F8
:101390005E2CA6E0B0E0EFECF9E00C94422C26962F
:1013A000E2E00C945E2C08950E94D30908950E94F7
:1013B000D40990938B0180938A010E948209089539
:1013C00008950E94D709089520918A0130918B01D8
:1013D000822B932B0E94D709089520918A01309186
:1013E0008B01822393230E94D709089520918A01BB
:1013F00030918B01822793270E94D70908950E947C
:10140000D30908950E94FF0908950E94020A90934B
:101410008901809388010E948209089590E080E00C
:101420000E94050A089521E030E0A90102C0440F9E
:10143000551F8A95E2F7CA010E94050A089521E026
:1014400030E002C0220F331F8A95E2F780918801B5
:1014500090918901822B932B0E94050A089521E027
:1014600030E002C0220F331F8A95E2F720953095B5
:101470008091880190918901822393230E94050A1B
:10148000089521E030E002C0220F331F8A95E2F771
:101490008091880190918901822793270E94050AF3
:1014A00008952091880130918901822B932B0E940D
:1014B000050A0895209188013091890182239323A0
:1014C0000E94050A089520918801309189018227A0
:1014D00093270E94050A08950895262F277091E00A
:1014E00001C0990F2A95EAF723E0769567952A952A
:1014F000E1F7660F771F660F771FFA01E60FF71FF8
:1015000050E040E0682F70E08191DF0111979B016E
:10151000042E02C0369527950A94E2F72170219592
:101520002827292328272C934F5F5F4F44305105EC
:1015300059F70895A82FA77023E0969587952A95C7
:10154000E1F7880F991F880F991FFB01E80FF91F1A
:1015500050E040E080E0219130E00A2E02C0369554
:1015600027950A94E2F721703327042E01C0220F39
:101570000A94EAF7822B4F5F5F4F4430510559F7C9
:101580000895262F943070F4863060F4682F70E050
:1015900086E0989F600D711D11244CE751E0822F69
:1015A0000E946D0A0895292F943068F4863058F40B
:1015B00090E06CE771E036E0239F800D911D1124CF
:1015C0000E949A0A089580E00895B0E0A0E0EBEE52
:1015D000FAE00C943B2C7C01009188011091890168
:1015E00080918A0190918B01082B192BCFE0D0E0DC
:1015F000CC24C394D12CBC2EC6010C2E02C0880F63
:10160000991F0A94E2F780239123892B49F42197AB
:1016100090F7B12C8B2DCDB7DEB7E9E00C94572CA9
:10162000B7018C2F0E945011019789F3F3CFCF930C
:10163000DF93EC010E94E50ABE010E945011DF9188
:10164000CF9108951F93CF93DF93EB0190917B018E
:10165000992339F0CB010E94170BDF91CF911F9195
:101660000895882369F0CB010E94E50A182F682F9E
:10167000CE010E94C10ABE01812F0E945011EDCF00
:10168000CB010E94D30A182FF6CF1F93CF93DF937D
:10169000C0918C0116E080918D018C1304C0DF9104
:1016A000CF911F910895D0E01C9FF0011D9FF00D78
:1016B0001124E257FE4F4081518162817381848100
:1016C00095810E94C9092196C770E5CF4091BE015E
:1016D0005091BF016091C0017091C1018091C20120
:1016E0009091C3010E94C90908951F93CF93DF937E
:1016F0008091C301807F09F049C08091C001882397
:1017000009F444C080918C01C0918D016091BE01AB
:101710007091BF01A091C101B091C201D62FD72312
:1017200016E0C81799F190E0109711F0DF3F19F417
:1017300001968770F6CF189F9001199F300D1124E4
:10174000F901E257FE4F41814713F2CF4081461322
:10175000EFCF42814111ECCF438154814A1B5B0B97
:10176000483C510528F78091C3018F7080618093B8
:10177000C301F901ED56FE4F80818F708061808337
:101780008EEB91E00E9458090E94450BDF91CF91AA
:101790001F910895A1E1B0E0E0EDFBE00C943A2C3C
:1017A0008C0185E0F801DE011D9601900D928A956D
:1017B000E1F7F801E2808EEBC82E81E0D82E60912F
:1017C000C1017091C2016115710509F44EC190917A
:1017D000BE012091BF01892F82238F3F09F445C1AB
:1017E00040815181A380B480F090C001F501E61BD7
:1017F000F70BFF2009F4EAC08091C301382F307F36
:10180000E83CF10508F0A3C031116DC0FE2C251392
:1018100016C0941314C0E11012C08F7080618093C1
:10182000C3010E94660BC6010E9458098091C30142
:10183000F80185838F2D6196EAE00C94562CA11453
:10184000B10429F0842F85238F3F09F027C180E060
:10185000F82FF170DF2E80FF3CC080918C01209129
:101860008D0136E0821315C04D875E878D859E857C
:101870000E94170B292F22952F702230F0F0243070
:1018800018F59F70F1F0F8019581907FD1F4D12C7B
:101890001EC090E0389FF001399FF00D1124E257EF
:1018A000FE4F6181651306C06081641303C06281CD
:1018B000E6120FC001968770D5CF9F7011F0882374
:1018C00031F3805E883018F3C8010E945809FD2C5E
:1018D000B1CFEE2009F4AECF8091C3018160809337
:1018E000C301F12CA7CF251306C0941304C0F8013F
:1018F000EE2009F487C0C8010E94AC09882319F1C1
:10190000EE2009F18091C301803270F02091BE0178
:101910003091BF0138872F831986BB86AA868C87B2
:10192000CE0107960E94580986E0F801AEEBB1E0BF
:1019300001900D928A95E1F70E94750B0E94660B4B
:10194000FF24F39477CFC8010E945809F9CF3111D1
:1019500013C07A2DB98AA88A6E2D89890E94BF0981
:101960008EEB91E00E94580986E0F60111928A956B
:10197000E9F70E94660BB5CF25130FC094130DC075
:10198000E1100BC0F8018583C8010E94580986E068
:10199000F60111928A95E9F74DCFC8010E94AC0972
:1019A000882389F2EE2079F28091C301803208F415
:1019B000BBCF2091BE013091BF013A8329831B82A6
:1019C000BD82AC828E83CE010196ACCFE83CF1059E
:1019D00008F03EC0FE2CEE2009F4B5CF25132AC036
:1019E000941328C08091C30180FD1BC0982F907F65
:1019F000C1F0F8018583903F31F0982F907F905F80
:101A00008F70892B8583C8010E94580986E0F801F0
:101A1000AEEBB1E001900D928A95E1F70E94660B62
:101A200009CF86E0F801AEEBB1E001900D928A9506
:101A3000E1F700CFC8010E94AC09811175CF8091F8
:101A4000C30181608093C301C8010E945809F2CE8E
:101A50007A2DB98AA88A6E2D89890E94BF0986E0ED
:101A6000F60111928A95E9F7D9CFEE2009F46BCFF0
:101A7000C8010E94AC09F82E882309F464CF86E0DF
:101A8000F801AEEBB1E001900D928A95E1F78EEB93
:101A900091E00E94E6060E94750BC0CF81E08E2582
:101AA000D7CEACE0B0E0E7E5FDE00C94412C4F83ED
:101AB000588769877A878B879C87CE0107960E9413
:101AC000CA0B882369F08A859B85892B39F04F8161
:101AD0005885842F85238F3F09F06BC016E05FC0C7
:101AE00086E0FE013796DE01119601900D928A95EF
:101AF000E1F78A859B85892B89F38F8198858923D6
:101B00008F3F61F320918D0130E0C901019687700C
:101B1000992740918C014817190671F40E948C098D
:101B200010928D0110928C0186E0EEEBF1E0DF0166
:101B30001D928A95E9F7D2CF96E0929FD001939FAC
:101B4000B00D1124A257BE4FFE01319601900D92A7
:101B50009A95E1F780938D010E94450BBFCF819F3D
:101B6000C001112482579E4F0E94CA0B8823E9F0BE
:101B7000E0918C011E9FF0011124E257FE4F40813D
:101B8000518162817381848195810E94C90980910C
:101B90008C0190E001968770992780938C01809149
:101BA0008C0190918D018913DACF2C96E3E00C948F
:101BB0005D2C69857A858B859C850E94C9098ECFAD
:101BC000682F80911201909113010E94CB230895F8
:101BD000682F80911201909113010E94CE230895E5
:101BE00080911201909113010E94D1230895809158
:101BF000CC0185958595859508958091CC01877058
:101C000008959091CC01977081E009F480E00895E7
:101C10008091D70108959091D701892B8093D701A6
:101C2000089580959091D70198239093D7010895B6
:101C30001092D70108959091D601892B8093D601F7
:101C4000089580959091D60198239093D601089598
:101C50001092D60108958091CD01089508950E94B3
:101C60002E0E08959091450292FF08C09091CD01EB
:101C7000981721F08093CD010E942F0E0895809136
:101C8000CD01882329F01092CD0180E00E942F0E13
:101C90000895CF93DF93E0911201F09113018091A9
:101CA000D7018083E0911201F0911301808190911E
:101CB000D601892B80839091CD01992381F0E09109
:101CC0001201F09113018081892B80838091120190
:101CD000909113010E94832381110E943F0EC091B5
:101CE0001201D091130148E050E064EC71E0CE01A4
:101CF0000E947F2C892B59F088E0FE01A4ECB1E012
:101D000001900D928A95E1F7CE010E944C23DF915C
:101D1000CF91089508950E948A0E089590914502EA
:101D200092FF11C098E0899F90011124622B60936B
:101D3000CC010E941F0A8091CC01859585958595DF
:101D40000E948B0E08950E941F0A08951092CC01E4
:101D500080E00E948B0E08959091CC01809589239C
:101D60008093CC01282F277091F4282F082E000C87
:101D7000330B9217130659F09091450292FF07C05A
:101D80008595859585950E942F0A0E94A60E089537
:101D90009091450292FB222720F9281769F080FBD9
:101DA00092F99093450280914402909145020E94DD
:101DB000120F82E00E94AC0E08958091450282FBD2
:101DC000882780F991E089270E94C80E089581E054
:101DD0000E94C80E089580E00E94C80E089590E009
:101DE00080E00E94A32C21E0883E9E4F09F020E075
:101DF000822F089582E090E00E94952C089583E060
:101E000090E00E94952C0895CF9384E090E00E948A
:101E1000952CC82F82E290E00E94952C982F8C2F51
:101E2000CF910895CF93C92F682F84E090E00E944E
:101E3000A92C6C2F82E290E00E94A92CCF910895EA
:101E4000AB01BC018FE090E00E94BB2C0895AB0178
:101E5000BC0183E190E00E94BB2C089560E070E03B
:101E6000CB010E94270F089560E070E0CB010E9433
:101E7000200F0E942E0F089568EE7EEF90E080E024
:101E80000E94C72C60E082E090E00E94A92C60E0F4
:101E900083E090E00E94A92C10928B0110928A019D
:101EA00060E084E090E00E94A92C64E082E290E08F
:101EB0000E94A92C60E085E090E00E94A92C60E0DF
:101EC00086E090E00E94A92C6FEF87E090E00E94EE
:101ED000A92C40E050E0BA0188E090E00E94BB2CC1
:101EE00060E08DE090E00E94A92C40E050E0BA0153
:101EF00088E190E00E94BB2C60E087E190E00E94C6
:101F0000A92C40E050E0BA018CE190E00E94BB2C8B
:101F100070E060E080E290E00E94C72C40E050E07A
:101F2000BA0188E190E00E94BB2C0E94340F089512
:101F30000E943C0F0895682F8EE090E00E94A92C2B
:101F400008950E9488246093E2017093E3018093D6
:101F5000E4019093E5016093DE017093DF018093CB
:101F6000E0019093E1010895089508950E94B50F4E
:101F7000089508950E94B90F08958AE392E10E949E
:101F800035230E94B40F0E94B60F089581E0089592
:101F90000E94C60F0895089508950E94CB0F0E94D5
:101FA000CC0F08950E943D120E94850608950E945C
:101FB00073240E9404130E94D20F80E00E94371BFA
:101FC0000E9414190E94BA0F0895AAE0B0E0EBEE47
:101FD000FFE00C943A2C0E941A138AEDA82E81E09F
:101FE000B82E750110E0F70101917F01812F0E9449
:101FF00062121F5F143009F440C00817A1F38091EA
:10200000E60181FD0E9468120E94C80FC82E10E0F0
:10201000812F0E946212082FF50181915F0108173C
:1020200031F1D02ED826F12CEE24E3948D2D8E2183
:10203000B1F0CC20A1F0FE821F8391E0802F8E2191
:1020400009F490E098870E947C248160782F9A8719
:1020500089874E815F8168858A850E94B106F394E5
:10206000EE0CF6E0FF12E2CFF501319700831F5F1F
:10207000143071F60E94A10F20C00813C0CF0E9437
:102080007C248C018091D8019091D90108171907FF
:10209000A1F08FEF89838A831B820E947C24816058
:1020A000782F9D838C8349815A816B818D810E9419
:1020B000B1061093D9010093D8010E945A190E94C9
:1020C000971D0E94C6200E9498062A96EAE00C946A
:1020D000562CCF93DF930E945511EC01811523E517
:1020E000920790F5811532E5930708F08DC08115B0
:1020F00040E29407C8F4C11581E0D80788F4C53AD6
:10210000D10548F4C430D10558F4C130D10541F0AF
:10211000D0E0C0E005C0CE01805E91090897C0F70D
:10212000CE01DF91CF910895811521E5920708F046
:1021300066C0811530E5930708F04EC081159044C4
:1021400038F3DF70D06AECCFC11586E5D807F0F41C
:10215000C11525E5D20708F06FC0C11534E5D307D6
:1021600008F065C0CE018370992721E030E002C0FD
:10217000220F331F8A95E2F7C695C69540E2C49FA9
:10218000E0011124C22BD32BDA68CACFC1154AE56E
:10219000D40778F4C11589E5D80708F058C0C115EF
:1021A00028E5D20708F4B4CFDC2FCC27C06FD06A63
:1021B000B7CFCE0190568115904208F0A9CF8D2F50
:1021C0008F710E94F71190E0982F882788279F71C0
:1021D0009C012C2BE90139C08370992721E030E064
:1021E00002C0220F331F8A95E2F7C695C69540E2DA
:1021F000C49FE0011124C22BD32BDD6891CFD82FCF
:10220000CC27C16FD06A8CCF8370992721E030E052
:1022100002C0220F331F8A95E2F7C695C69580E269
:10222000C89FE0011124C22BD32BDC6879CFDC2FAF
:10223000CC27C46FD06A74CF8C2F0E94F711C82F9F
:10224000D0E0DC2FCC27CC27DF71D06269CF8C2F78
:102250008F700E94F71134E0D695C7953A95E1F753
:10226000CF709C2FEC01D0695BCF972F7430A8F40E
:10227000663098F470E026E0929F600D711D112485
:10228000FB0198E1899FE00DF11D1124EE0FFF1F66
:10229000EA52FF4F85919491089580E090E008956F
:1022A0000E9435110E946910089582389105B9F194
:1022B000B0F48133910509F47DC048F48932910569
:1022C00009F46DC08A32910509F47BC00895853305
:1022D000910509F45FC08933910509F10895833EA2
:1022E0009105D9F138F4803E910529F1823E91059E
:1022F00079F10895863E9105D9F1873E910509F45B
:102300003EC0843E910541F52091450221FF24C045
:102310008091440284FD19C087EE90E008952091D9
:102320004402237009F05AC02091450223FF14C0D3
:1023300089E290E008952091440220FD38C0309158
:10234000450230FF09C024FF43C090E080E00895BB
:102350002091440222FDF7CF08952091440222FDEE
:102360003AC03091450230FD39C024FFF5CFEDCFA2
:102370002091440223FFF0CF24FDE7CFCDCF209161
:10238000440223FD2EC03091450231FFEECF84EE92
:1023900090E008952091440225FFDECFC9CF20911F
:1023A000440225FD21C02091450223FFD5CF89E3BA
:1023B00090E0D2CF2091440226FFCECF8AE290E077
:1023C00008952091440226FFC7CF81E390E008954D
:1023D00083EE90E0089582EE90E0089580EE90E024
:1023E000089586EE90E0089585E390E00895909139
:1023F000440292FF06C0282F28712830F9F4877F05
:10240000846093FF06C0282F28712831F1F4877E5D
:1024100084612091450220FF06C0382F3871383082
:10242000D9F4877F816021FF06C0282F28712831C9
:10243000D1F4877E816194FD877E0895282F2471D1
:102440002430F9F68B7F8860DCCF282F247124316B
:1024500001F78B7E8861DDCF382F3171313019F76C
:102460008E7F8860E0CF282F2171213121F78E7E69
:102470008861E1CF80E0089508950E94EF0E8111F8
:1024800002C00E94980F0E94FA0E8093E6010E94FB
:10249000040F90934502809344020E943C120E94D4
:1024A000FF0E90E00E94E1098091880190918901DE
:1024B0000E94020A089508950E945B1208950E94E6
:1024C00055050895E82FF0E0E65BFD4F8081089503
:1024D000089580EA8A95F1F7089500C008950E9452
:1024E00069120895F894E82FE295EF70F0E031A1B9
:1024F000282F2F7081E090E001C0880F2A95EAF71D
:10250000982F9095932391A392A1892B82A37894DD
:102510000895CF93DF9386E60E94721287E90E94A6
:10252000721286EC0E94721284E30E947212CCE353
:10253000D1E089918F3F11F00E94721281E0C23484
:10254000D807B9F7DF91CF910895B0E0A0E0EBEAAA
:10255000F2E10C943C2CEC01D62E062F10E0C801C1
:102560008E5B9E4F7C01FC0180818F3F09F445C04A
:10257000F894E82FE295EF70F0E091A18F7021E0E0
:1025800030E001C0220F8A95EAF7892F822B81A3C0
:1025900082A12095282322A378940E946D12ECE357
:1025A000F1E042E451E031E0C12C21912F3F51F1A3
:1025B000A22FA295AF70B0E090968C9190E02F7012
:1025C00002C0959587952A95E2F780FD1BC0832F61
:1025D000C82A330F4E175F0741F7F70180818F3FFD
:1025E00011F00E94721261E0C11001C060E08D2DF7
:1025F0000E946F12C00FD11FC882CDB7DEB7E8E0CE
:102600000C94582C80E0E4CF0E94891284E0EAE424
:10261000F2E0DF01982F1D929A95E9F7E6E4F2E0E7
:10262000DF011D928A95E9F784E00E9457130E940A
:10263000C9050895A4E0B0E0E0E2F3E10C94412C78
:1026400019821A821B821C8210E0612FCE01019632
:102650000E94A5121F5F1430C1F744E050E0BE0194
:102660006F5F7F4F86E492E00E947F2C21E000970D
:1026700009F420E0892B61F089819A81AB81BC81CA
:102680008093460290934702A0934802B093490278
:1026900044E06AE472E086E492E00E945813182F46
:1026A0000E94CC05812F2496E3E00C945D2C0895C4
:1026B000CF92DF92EF92FF920F931F93CF936C0113
:1026C0007B01042F222349F081E08093E9010E94DD
:1026D0007C249093E8018093E701C091E901C11146
:1026E0000AC0C0E08C2FCF911F910F91FF90EF9007
:1026F000DF90CF9008958091E7019091E8010E94CA
:102700009424059770F310E0A801B601C7010E9458
:102710007F2C892B41F0A801B601C7010E948C2CA7
:102720001092E901DFCFC0E0FBCF0E9453260E9448
:10273000D70F0E94602608950E9465260E94E50F2B
:102740000E947F2608950E9415240E9439260E9427
:10275000BD0F0E9495130E949C130E94CD0FFBCFCA
:10276000EF92FF920F931F93CF93DF93EB01E82F2C
:10277000D1110EC0442321F0F0E0E357FD4FE49166
:102780006E2F7E2F8E2FCDB7DEB7E6E00C945A2C3D
:102790000D2F10E0282F30E0442329F023573D4F20
:1027A000F901249130E0F6E0CF9FC0011124EFEF52
:1027B000F0E0BF010E94922BAB018C2F90E0880FBC
:1027C000991FA5E5A49FB001A59F700D1124861B3C
:1027D000970B982F990F980FBF01601B710B629F89
:1027E000D001639FB00D729FB00D11248B2F9D9F60
:1027F000B0011124672F7727EF01C61BD70BBE014D
:10280000629FE001639FD00D729FD00D11247F0164
:10281000E91AF108E09EB001E19E700DF09E700D86
:102820001124672F7727E61BF70BE29F8001E39FB8
:10283000100DF29F100D1124E12F722F423051051F
:1028400099F048F44115510569F04130510581F086
:10285000EB2F8D2F07C04430510569F080F04630D2
:102860005105B1F76E2F8FCFE22F7B2F812FFACF3B
:10287000E22F7D2FF7CFEB2F822F712FF3CF7B2FFE
:10288000822FED2FEFCF41E00E94B01308950895FD
:102890000E9443140895CF93DF93762FE901682FA8
:1028A000842F0E944814798368838A83DF91CF91B3
:1028B0000895493708F048E70E944B140895809125
:1028C0004E02982F9E7F61F48170826080934E0249
:1028D00080915102893718F088E78093510208955A
:1028E0008A34B0F381708864F1CF88E090E00E9470
:1028F0009D2C0895CF92DF92EF92FF926B017C01A5
:102900000E945F14B701A60188E090E00E94BB2CF2
:10291000FF90EF90DF90CF900895EEE4F2E083E037
:10292000808311828FEF828388E7838314826081A2
:102930007181828193810E947A14089580914E0260
:1029400080FF02C08695089580E00895909152021C
:10295000933018F49F5F90935202882351F0609156
:102960004E0270914F0280915002909151020E944C
:102970007A14089581E00E94A6140895909152025D
:10298000992319F0915090935202882351F060914D
:102990004E0270914F0280915002909151020E941C
:1029A0007A14089581E00E94BE14089570E00E9498
:1029B000CB1A08956091180180914E0280FF0BC0E0
:1029C0008091170123E0829FC00111248D5A9D4FF1
:1029D0000E94D61408958091190190911A0123E064
:1029E000829FF0011124ED5AFD4F891748F711829B
:1029F000108212828F5F3396F8CF90914E0290FF33
:102A00000EC09091190120911A0133E0939FF001BB
:102A10001124ED5AFD4F921718F00E94DA14089510
:102A20008183608342839F5F3396F5CFA3E0B0E05C
:102A3000ECE1F5E10C94422C90914E0290FF0AC01B
:102A40009E012F5F3F4F0E9459144B8169818A81FB
:102A50000E94FD142396E2E00C945E2CCF93DF934A
:102A6000EC01EC81F0E0E857FE4F4491EEE4F2E037
:102A7000628181810E9416158C818F5F8C83DF912A
:102A8000CF910895CF93DF93EC01EEE4F2E0438120
:102A900062818C810E9416158C818F5F8C83DF91FF
:102AA000CF910895A3E0B0E0E8E5F5E10C94402C67
:102AB0008C018091EA0181110AC09E012F5F3F4F76
:102AC00048E76FEF0E9459148A818093EA01F80168
:102AD0006481613069F08091EA0140E0662361F031
:102AE00040E0623011F44091EA0180E060E004C00F
:102AF0006091EA0140E080E00E94FD14F8018481C9
:102B000090E0019663E070E00E94A62B84832396F8
:102B1000E4E00C945C2CA3E0B0E0E1E9F5E10C9476
:102B20003B2C082FD62EE42EC22E90914E0290FF01
:102B300029C0E92FE695AE2FB0E0AA5BBE4F8C917D
:102B40008093F6019E7F923009F59E012F5F3F4FE3
:102B5000802F0E9459144B8169818A810E94FD1443
:102B600000934F02D0925002E0925102CC2051F0DB
:102B700060914E0270914F028091500290915102EB
:102B80000E947A142396E9E00C94572C823019F4B1
:102B9000E0905102E5CF863019F400914F02E0CF6A
:102BA0008930D9F38931E1F6E9516E2F6170B62E83
:102BB000E695F0E0E857FD4F1491F12C60911B0170
:102BC000F61618F00E94DA14CBCFF19EC001112442
:102BD00070E00E94922B802FB11014C0860F2091BC
:102BE0001901622F6F0D7727771F9B01220F331F6B
:102BF000260F371F2D5A3D4F4E2D6D2D0E94591413
:102C0000F394DCCF861BEBCFEEE4F2E09181282F2A
:102C10004381628188E0890F0E948B15089581E0CD
:102C20000E9404160895EEE4F2E09181282F43817A
:102C3000628188EF890F0E948B15089581E00E94C0
:102C400013160895EEE4F2E0628128E0620F08F4C2
:102C50006FEF282F438181810E948B15089581E0B9
:102C60000E9422160895EEE4F2E0628128E0621BE1
:102C700008F460E0282F438181810E948B1508951C
:102C800081E00E9433160895EEE4F2E0438128E0EB
:102C9000420F08F44FEF282F628181810E948B152B
:102CA000089581E00E9444160895EEE4F2E0438125
:102CB00028E0421B08F440E0282F628181810E94B5
:102CC0008B15089581E00E945516089521E00E9419
:102CD0008B15089520E00E948B150895EF92FF92C6
:102CE0001F93CF93DF93EC0110E0EE24EA94F12CD4
:102CF00060911B01161770F00E94DA149A818C8182
:102D000090FF27C08F5F8C83DF91CF911F91FF9041
:102D1000EF90089520911901422F410F5527551F1B
:102D2000CA019A01220F331F280F391F2D5A3D4F18
:102D300070E0C7010E94A62B962F8C814091510212
:102D400060915002199F800D11240E9459141F5F39
:102D5000CFCF8150D8CFB0E0A0E0E1EBF6E10C940A
:102D60003A2CFC0182810FEF80FF01E010E044E18A
:102D7000A42E80911B01181798F00E94DA148091FC
:102D8000EC01013009F04FC0811102C080911B019C
:102D900081508093EC01CDB7DEB7EAE00C94562C5D
:102DA000C0911901C12ED12CCC0DDD2DD11DCE012C
:102DB000880F991FC80FD91FCD5ADD4F198218826D
:102DC0001A8234E0E32EF12CB12C8091EC018B0DB2
:102DD00085311CF16A2D0E94842B892F082E000C4E
:102DE000990BC816D90691F4809151028E9DA001CD
:102DF0008F9D500D112455954795559547959E01EA
:102E00006091500280914F020E945914B00EF1E07F
:102E1000EF1AF108D1F61F5FACCF87FFDFCF90919B
:102E20001B01890FDBCF90E0019660911B0170E0E0
:102E30000E94A62BAECF0F931F93CF93DF93809169
:102E4000190190911A0123E0829FF0011124ED5A9B
:102E5000FD4F891740F1C0E0D3E060911B01C61718
:102E600040F10E94DA14209115018091EB01820F4C
:102E70008093EB0190911601920F90931601191611
:102E800054F4082E000C990B40911B014150550B36
:102E9000841795071CF0219520931501DF91CF91A0
:102EA0001F910F9108951182108212828F5F3396C5
:102EB000D0CF0C2F10E070E0C8010E94A62B20910B
:102EC0001901820F482F50E02091EB01022E000CD7
:102ED000330B02171307BCF020911601022E000CD1
:102EE000330B201731077CF08D9F900111242D5A50
:102EF0003D4F409151026091500280914F020E94DB
:102F00005914CF5FAACFFA01EE0FFF1FE40FF51F90
:102F1000ED5AFD4F118210821282F3CFB0E0A0E093
:102F2000E4E9F7E10C94382CEC014C81042F10E01B
:102F30009801D8010E94092C9B01AC010E941F2C12
:102F40004B015C01E0E2F0E0E01BF10BA5E5B0E035
:102F5000AC019B010E941F2C6B017C019F01DF01D2
:102F60000E94012C9B01AC010E942A2C9B01AC0108
:102F7000280D391D4A1D5B1DC701B6010E94BA2BE1
:102F8000F22E822F90E039E23F1520F143E0249F9A
:102F90009001112435952795122F109500E085E5B5
:102FA000E82EEF1880911B01081718F10E94DA141F
:102FB0009C8181E0992319F0903219F48FEF80936E
:102FC000140180911401890F8C83CDB7DEB7ECE03A
:102FD0000C94542C25E530E0B901681B790B9B015A
:102FE000220F331F260F371F37FFD4CF2F5F3F4FDE
:102FF000D1CF8E2D01FD8F2D20911901622F600FF1
:103000007727771F9B01220F331F260F371F2D5A5B
:103010003D4F412F609150020E9459140F5FC2CF63
:103020000F931F93CF93DF93EC0110E000E090919A
:103030001B019017110609F06CF40E94DA148C81C0
:1030400090E00196817099278C83DF91CF911F9139
:103050000F91089520911901A801420F511D9A0165
:10306000220F331F240F351F2D5A3D4F4C81609185
:10307000500280914F0296959017110651F04CF036
:10308000442349F0409151020E9459140F5F1F4F91
:10309000CECF4423B9F340E0F7CFEEE4F2E08081F5
:1030A0008E7F808360817181828193810E947A14F6
:1030B0001092F7012FEF80E792E02150804090407E
:1030C000E1F700C000000E94DA140895EEE4F2E097
:1030D00080818E7F80831092F7012FEF80E792E04E
:1030E000215080409040E1F700C000000E94DA14B7
:1030F00008951092F7018091F40181110AC081E0D6
:103100008093F40180914E0281708093F3010E94BC
:103110006618089560914E02669570E04BE050E0AD
:103120008CE191E00E94722C892B19F481E080934C
:10313000F7010E947C249093EE018093ED010895A5
:1031400090914E0290FF2BC09170811129C0926026
:1031500090934E02662351F060914E0270914F029F
:1031600080915002909151020E947A1460914E0217
:10317000669570E04BE050E08CE191E00E94722C8B
:10318000892BA9F01092F70181E08093F001409122
:1031900051026091500280914F020E946A16089578
:1031A000853210F09864D4CF880F982BD1CF0E942D
:1031B0008A18EACF682F90914E02969581E0890F88
:1031C000853208F081E00E94A018089581E00E94F5
:1031D000DA180895682F90914E0296958FEF890F17
:1031E00009F484E20E94A018089581E00E94EA1880
:1031F000089561E00E94A0180895EEE4F2E0808155
:103200008160808386950E94F918089580914E020E
:1032100080FF03C00E944D1808950E94FD18089574
:1032200060E00E94A01808958091F50181112EC0E0
:103230000E94EF0E811104C00E94980F0E948D140D
:103240000E94751460934E0270934F028093500257
:10325000909351026E7F61F40E948D140E94751448
:1032600060934E0270934F028093500290935102EC
:103270000E945F141092F70180914E0280FF03C0FC
:1032800086950E94101981E08093F5010895EEE47F
:10329000F2E080818160808386950E9410190895F4
:1032A0001092F4018091F30181110E9447190E944C
:1032B0008A1808950F931F93CF93DF938091F7019E
:1032C0008823B9F18091F601E0914E02E695E81B62
:1032D000E093EF01823091F5F0E0EC57FE4FE4917E
:1032E000CE2FD0E00EE215E18091F001882361F04D
:1032F0001092F0010E947C249093EE018093ED01E6
:103300001092F2011092F1010E947C24E091ED01F3
:10331000F091EE018E1B9F0B8F3F9F4750F4EC0FF7
:10332000FD1FF093EE01E093ED018DEE91E0F801C9
:103330000995DF91CF911F910F910895863049F43F
:10334000F0E0EF57FE4FE491CE2FD0E002E415E11C
:10335000CBCF893051F4E695F0E0E258FE4FE4918E
:10336000CE2FD0E00EE616E1BFCF8F3051F4E695B8
:10337000F0E0E558FE4FE491CE2FD0E00BEA16E1E5
:10338000B3CF853149F4F0E0E858FE4FE491CE2FF9
:10339000D0E00BE117E1A8CFC8E2D0E00EE817E1DA
:1033A000883109F4A1CF833239F4E6E7F1E0C59121
:1033B000D49102E515E198CFC4EFD1E000E118E126
:1033C000843209F491CFC0EDD7E007E414E18CCF4B
:1033D000FA01811101C0FB0109950895CF93DF9394
:1033E000C82FD62F0E949E148C1748F00E949E145E
:1033F0008D1728F40E94E618DF91CF9108958C2F45
:103400000E94F918F9CF1F93CF93DF93EC01FB01D2
:10341000128111117EC00E94080E8272CD3CFCE523
:10342000DF0709F49CC008F041C0C73CECE5DE07AB
:1034300009F481C0D8F4C43C9CE5D90709F471C0F3
:1034400030F4C33CDC4509F469C011E062C0C53CFE
:103450009CE5D90709F46AC04EE156E16FE076E1D8
:10346000C63CDC4591F70E94E81953C0CA3CFCE514
:10347000DF0709F46AC068F4C83CECE5DE0709F42C
:103480005FC04FE256E160E476E1C93CDC4559F3A8
:10349000DCCFCB3C9CE5D90709F45CC042ED54E19C
:1034A0006AEB74E1CC3CDC45F1F2CFCFC23DFCE5E8
:1034B000DF0709F465C098F4CF3C9CE5D90709F40F
:1034C00057C008F451C0C03DFCE5DF0709F455C002
:1034D000C13DDC4509F0B9CF6EE089E04BC0C53D88
:1034E0009CE5D90709F452C058F4C33DFCE5DF0759
:1034F00009F449C0C43DDC4509F0A7CF88E135C0D7
:10350000C63D9CE5D90709F444C0CE35DD4509F038
:103510009CCF812FDF91CF911F9108950E940619B2
:10352000F8CF45EF58E166EE78E19DCF46EE58E1E1
:1035300065EF78E198CF4FE056E16EE176E193CF09
:1035400040E456E16FE276E18ECF42E656E161E576
:1035500076E189CF41E556E162E676E184CF4AEB38
:1035600054E162ED74E17FCF81E00E94F918D1CF80
:1035700065E082E00E94EE19CCCF68E086E0FACFE9
:1035800064E18FE0F7CF67E185E1F4CF62E289E1A2
:10359000F1CF83E2EACF539A4BB1477F5BB15860DA
:1035A000EFB7F8949B01220F331F260F371F280F08
:1035B000391F2817390741F4EFBF8FE594E00197D1
:1035C000F1F700C000000895DC016D91CD0178E0B5
:1035D0005BB9000000C067FF4BB9660F000000C078
:1035E00000C000C04BB900C07A9591F7E2CFB0E0BF
:1035F000A0E0EDEFFAE10C943C2C6C017B0164E659
:1036000070E088E70E944F22EC0197FD12C010E0A5
:1036100000E0F601E00FF11F849164E670E00E9483
:10362000BB22EC01892B29F40F5F1F4F0E151F05DC
:1036300081F70E943123CE01CDB7DEB7E8E00C94CC
:10364000582C0895EFE8F2E080E092E0DF019C0161
:103650001D9221503040E1F7F0939004E0938F04E5
:103660008FEF9FEF909324028093230208950E948E
:10367000211B0E940F0580931F0280FD0FC080E870
:1036800080931E020E9449226DE070E084EA93E07C
:103690000E94F71A892B21F080E0089580E2F0CF94
:1036A00080911F0263E070E081FD18C081EA93E021
:1036B0000E94F71A892B81F76DE070E081E993E0B1
:1036C0000E94F71A892B41F70E94221B81E0809308
:1036D0002202809321021092200208958EE993E045
:1036E000E7CF20911E0236E0839FC0011124629F24
:1036F000800D911D1124811522E0920714F090E0B5
:1037000080E081579D4F9093900480938F0408959B
:1037100020918F04309190042958324040911E022C
:10372000642F70E0C9010E94922B481B463010F4B0
:10373000240F311D211582E0380710F030E020E021
:1037400021573D4F3093900420938F0408951F9389
:10375000CF93DF93162F8A3039F481E00E94201C2A
:10376000DF91CF911F9108958D3011F480E0F6CF55
:10377000C0918F04D091900496E0FE01A8EFB1E0D3
:1037800001900D929A95E1F7803EB8F086E0FE0137
:1037900011928A95E9F711111CC0C0918F04D09144
:1037A000900446E050E0BE0188EF91E00E947F2C3B
:1037B000892BE9F40E94881BD3CFF6E08F9FB001DC
:1037C00011246F547C4F46E050E0CE010E94692CDA
:1037D000E2CFE0918F04F09190049F012A5F3F4F68
:1037E0002E173F07D1F2808180958193F9CFCF5872
:1037F000D240CE0125E0969587952A95E1F721E004
:1038000030E0A90102C0440F551F8A95E2F7CA01B2
:103810004091230250912402842B952B259645E05C
:10382000D695C7954A95E1F702C0220F331FCA9576
:10383000E2F7822B932B9093240280932302BACF3A
:10384000CF93382FE0918F04F0919004EF58F2401D
:1038500020911E02622F70E0CF010E94922B281B44
:10386000822F332369F066E00E94782BC82FC15065
:1038700010F4CF91089560E080E20E94A71BF7CF7B
:103880009F01280F311D2115324018F080E0F0E033
:10389000E0E08E0F9F2F911D81579D4F90939004D4
:1038A00080938F04E6CF1F93CF93DF93EC01162F05
:1038B000FE018491811104C0DF91CF911F91089581
:1038C000612F0E94A71B2196F3CF0E94531C81E019
:1038D0000E94201C08958091210290912202992338
:1038E00061F0811108C062E070E08FE893E00E940F
:1038F000F71A892B19F080912102089581E08093B5
:103900002102F9CF2F923F925F926F927F928F9216
:103910009F92AF92BF92CF92DF92EF92FF920F935E
:103920001F93CF93DF9380912202882369F0209127
:103930002302309124022115310531F080912002BB
:1039400061E070E0882399F0DF91CF911F910F9192
:10395000FF90EF90DF90CF90BF90AF909F908F90AF
:103960007F906F905F903F902F9008958F5F082F0A
:1039700010E01B01082E02C0220C331C0A94E2F74F
:10398000A90142215321452B89F390911F0290FDFB
:1039900044C08295880F80768093290198013695DE
:1039A00027953695279520932C01815E80932A01D7
:1039B00010922D0124E630E047E050E067E271E02C
:1039C00088E70E94E922892B09F0BECFA80125E0F3
:1039D000440F551F2A95E1F780911F0280FD2BC0EF
:1039E00041575D4F04E610E020E230E060E488E7F4
:1039F0000E940A23892B09F0A7CF0E946B1CE101CA
:103A0000C095D0958091230290912402C823D92398
:103A1000D0932402C093230297CF880F880F880F7A
:103A20008093290110922C01895F80932A0183E001
:103A300080932D01BFCFEEEFF1E080E2DF011D9218
:103A40008A95E9F7AFE6B1E00BE611E083E7C82E0F
:103A500081E0D82E97E0592E772473948D91E80158
:103A600029918E01240F352F311D21573D4FE82F0D
:103A7000F0E0E250FE4F90E080E0652C681A872C61
:103A8000082E01C0880C0A94EAF77901A12CE701FD
:103A9000B9907E01B820662D6A196770962E062EA1
:103AA000000C770BDB2D01C0DD0F9A94EAF77195BE
:103AB000619571096770772701C0B6946A95EAF736
:103AC000BD2A6081962E9B289082A39468E0A6125E
:103AD000DECF019631968830910579F6CA16DB065D
:103AE00009F0BCCF04E610E020E230E04EEF51E0F8
:103AF0007DCF8091210290912202911103C091E02B
:103B000089270895882369F062E070E08DE893E0EA
:103B10000E94F71A892B19F08091210208951092C2
:103B2000210280912102EBCF0E941E050895809111
:103B30002202882341F060E080E00E94711B0E9415
:103B4000941D0E94821C0895CF93DF93EC01FB012A
:103B50008281882309F464C1C430FDE5DF07E0F504
:103B6000CB3F9CE5D90730F49E0122503C452431DF
:103B70003105D8F50E94040F9093450280934402CA
:103B8000C231ECE5DE0709F41FC108F06EC0C93090
:103B90008CE5D80709F4F2C008F03FC0C530ECE569
:103BA000DE0709F4DBC058F5C3308CE5D80709F40B
:103BB000CDC008F0CFC0809144028160C230DC45A6
:103BC00009F4AEC080914402909145020E94120F08
:103BD0000E948C0980E009C0C63AEDE5DE0751F28B
:103BE00038F4C2369DE5D90729F2DF91CF910895C7
:103BF0009E012E5A3D4523303105B8F7BBCF809149
:103C000044028062C730FCE5DF0709F489C008F48C
:103C1000B1C080914402806483C0CD309CE5D90757
:103C200009F4BAC070F4809144028E7FCB30FCE579
:103C3000DF0709F475C008F4A7C0809144028D7FA6
:103C40006FC0CF309CE5D90709F4B6C008F4A8C00E
:103C5000C031FCE5DF0709F4B3C0C131DC4509F030
:103C6000B1CF809144028F7B5BC0C1159DE5D90720
:103C700009F4B4C098F5CB3FFCE5DF0709F472C046
:103C8000B8F4C4319CE5D90709F4B6C008F4A2C061
:103C9000C531DC4509F096CF8091440282FB99271B
:103CA00090F921E0922790FB82F990FB83F938C0CC
:103CB000CD3F8CE5D80709F477C008F457C0CE3F54
:103CC000ECE5DE0709F474C0809145028360CF3FC4
:103CD000DC4509F077CF8093450274CFC2368DE57D
:103CE000D80709F496C068F4C230EDE5DE0709F4A0
:103CF0008CC008F477C0C330DD4509F063CF80E0A5
:103D000085C0CE3A9DE5D907E9F068F49091440268
:103D1000892F8E7F90FF8160C63ADD4509F052CF32
:103D2000809344024FCFCF3A8DE5D80789F1C03B4D
:103D3000DD4509F047CF90914502892F877F93FF9A
:103D40008860C9CF809145028860C5CF80914402C8
:103D50008260E6CF809144028460E2CF8091440289
:103D60008860DECF809145028160B5CF80914502A9
:103D70008260B1CF809144028061D2CF0E948C09D1
:103D8000809144028068CCCF809144028C60C8CF7F
:103D900080914502877F9FCF809144028B7FC0CF67
:103DA00080914402877FBCCF809145028E7F93CF64
:103DB000809145028D7F8FCF809144028F7EB0CF5E
:103DC000809144028F7DACCF0E948C098091440287
:103DD0008F77A6CF80914402837FA2CF8091450246
:103DE0008C7F79CF80914502982F909591708E7F2E
:103DF000892B90FB81F96FCF0E948C09909144022E
:103E0000892F97FB87F980588BCF81E00E949B0F09
:103E1000D9CE90914402892F8F7E94FF806180CF0C
:103E200081E0E3CECF939C0129503D45C1E0203293
:103E3000310540F4FB01C2818950CC2331F00E944E
:103E4000DA20C0E08C2FCF9108950E94F320FACFA2
:103E5000E82FE295EF70F0E022A1482F4F7081A18A
:103E600030E0042E02C0359527950A94E2F7220F20
:103E7000331F2270332790E002C0959587954A95AD
:103E8000E2F781709927822B932B0895E82FE29512
:103E9000EF70F0E092A18F7021E030E0082E01C0B9
:103EA000220F0A94EAF7209561FB442740F9082E77
:103EB00001C0440F0A94EAF79223942B92A391A194
:103EC0006170772701C0660F8A95EAF72923622B74
:103ED00061A30895A4E0B0E0E0E7FFE10C94322C88
:103EE00040E051E05C834B8385E2E82E82E0F82ECF
:103EF00001E010E0EB81FC8181818F3F09F42FC14B
:103F00000E94281F9A838983EB81FC819181E92F8C
:103F1000E295EF70F0E022A19F70A80102C0440F6B
:103F2000551F9A95E2F7CA018095822382A3EB81FF
:103F3000FC818181E82FE295EF70F0E091A18F7014
:103F4000980101C0220F8A95EAF7892F822B81A35D
:103F5000F5E3FA95F1F70000EB81FC818081D12C2B
:103F6000C12C8F3F29F10E94281F6C01EB81FC813D
:103F70008081E82FE295EF70F0E091A18F709801B9
:103F800001C0220F8A95EAF7892F822B81A3EB814A
:103F9000FC818081E82FE295EF70F0E092A18F70B4
:103FA000980101C0220F8A95EAF7892F822B82A3FC
:103FB000EB81FC818281312C212C8F3F39F10E94D1
:103FC000281F1C01EB81FC818281E82FE295EF70B4
:103FD000F0E091A18F70980101C0220F8A95EAF755
:103FE000892F822B81A3EB81FC819281E92FE295BD
:103FF000EF70F0E022A19F70A80102C0440F551F8E
:104000009A95E2F7CA018095822382A355E35A95D7
:10401000F1F70000EB81FC819181E92FE295EF70CF
:10402000F0E021A19F70A80102C0440F551F9A958E
:10403000E2F7CA018095822381A3EB81FC81918103
:10404000E92FE295EF70F0E022A19F70A80102C075
:10405000440F551F9A95E2F7CA018095822382A3E7
:1040600055E35A95F1F70000EB81FC8181810E94B4
:104070006421EB81FC8145805680712C612C092ED6
:10408000000CAA0BBB0B4C015D0184189508A60817
:10409000B708A1E8BFEFA50194010E942D2C238150
:1040A000348150E040E024193509460957090E943F
:1040B000DC2B121613061406150694F4AFE7B0E0D5
:1040C000A50194010E941F2CEB81FC812781308582
:1040D00050E040E024193509460957090E94DC2BBD
:1040E000DA01C9018138FFEF9F07AF07BF0724F44A
:1040F00081E89FEFAFEFBFEF80389105A105B105D3
:1041000024F08FE790E0A0E0B0E0F7014181528118
:10411000052E000C660B770B481759076A077B07BB
:1041200039F09283818380912A02826080932A02EF
:10413000EB81FC8180818F3F19F0B6010E94461F00
:10414000EB81FC8182818F3F19F0B1010E94461FF3
:1041500069817A81EB81FC8181810E94461F4B81BC
:104160005C81475F5F4F5C834B8352E0E50EF11C3F
:104170008B819C818251914009F0BCCE81E02496D4
:10418000E2E10C944E2C0E946A1F08950E94C32005
:1041900081110E94CC20089580912A0281FF09C0DC
:1041A00085E292E00E94172580912A028D7F8093FC
:1041B0002A020895E82FE695E695E695F0E0EB5D96
:1041C000FD4F877021E030E001C0220F8A95EAF7A9
:1041D0008081822B8083EAE2F2E0808182608083AA
:1041E0000E94CC200895E82FE695E695E695F0E04C
:1041F000EB5DFD4F282F277081E090E001C0880F14
:104200002A95EAF78095908189238083EAE2F2E09B
:104210008081826080830E94CC200895873901F1DB
:1042200078F48633F9F030F48433F1F08533F1F02B
:104230008FE108958439E1F08639D1F781E208955C
:10424000843FC1F030F4803FB9F0813F89F781E0CD
:104250000895863F99F0A0F0873F51F787E00895D1
:1042600082E2089585E2089583E2089584E2089544
:1042700080E2089584E0089580E0089586E008953E
:1042800085E0089596E890937A00982F9072906850
:1042900090937B008F7190912E01892B80937C00ED
:1042A00080917A00806480937A0080917A0086FD04
:1042B000FCCF809178002091790090917A009F77CF
:1042C00090937A00922F08950E940E210E9442211D
:1042D0000895CF93DF93EB0186319C4511F50E9441
:1042E000080E9A81992399F08A7A91E009F490E076
:1042F00090932B02811109C089E20E94E00D0E9477
:10430000490E80E0DF91CF91089585E3F6CF80914B
:104310002B02811104C089E20E94E80DF0CF85E3F1
:10432000FBCF81E0EFCF0F931F93CF93DF93C42F89
:10433000D22FFC0182818823C9F040932E020E9473
:104340007C2490932D0280932C0280E28C0F883085
:1043500040F4C77081E001C0880FCA95EAF70E9457
:104360006107DF91CF911F910F91089510912E0257
:10437000141332C080912C0290912D020E9494243B
:10438000883C910548F5C0E2CD0F1D17B9F080E2D9
:10439000810F883040F4177081E001C0880F1A95B2
:1043A000EAF70E946807C83048F481E09D2F9770B3
:1043B00001C0880F9A95EAF70E946107802F0E943A
:1043C0005807C83070F6D77081E001C0880FDA95C1
:1043D000EAF70E946807C5CF80E28C0F883008F6A4
:1043E000C77081E001C0880FCA95EAF7F2CF0F933A
:1043F0009C01CB01243F4CE5340759F1A8F4293D39
:10440000FCE53F0701F12A3D4CE53407D1F1283D99
:104410003C4591F406E221EE41EE68ED7CE50E9418
:10442000932180E00F910895263FFCE53F07E9F0D6
:10443000B0F0273F3C45F9F0FC018281882339F137
:1044400010922E02EFCF07E225EE45EE69ED7CE5F6
:10445000E6CF06E221EE40EE64EF7CE5E0CF07E236
:1044600025EE44EE65EF7CE5DACF06E221EE42EE82
:1044700066EF7CE5D4CF07E225EE46EE67EF7CE5FC
:10448000CECF08E221E045EE6AED7CE5C8CF81E0C1
:10449000C9CF1092B9008CE08093B8000895B0E0C5
:1044A000A0E0E5E5F2E20C94392CB82EEB010E9475
:1044B0007C246C01EE24E394F12CC431D10560F02E
:1044C00025E0E22EF12CCF3FDC0731F0CE0164E194
:1044D00070E00E94922B7B0184EAA82E94E8992E2A
:1044E0001092BC00A092BC000E947C248C018091A0
:1044F000BC0087FF0DC08091B900887F8830F9F03B
:104500008091B900887F8031D1F00FEF1FEF08C094
:10451000C8010E949424E816F90648F70EEF1FEF31
:10452000CF3FDC07E9F2C6010E949424C817D907DF
:10453000B8F6C801CDB7DEB7EBE00C94552CB092BD
:10454000BB009092BC000E947C248C018091BC0036
:1045500087FF0AC08091B900887F883111F08034CC
:10456000A1F610E000E0E5CFC8010E949424E8160F
:10457000F90660F7D3CF0F931F93CF93DF93EB012F
:104580008093BB0084E88093BC000E947C248C0153
:104590008091BC0087FF11C02091B900287F81E085
:1045A00090E0283211F490E080E091958195910996
:1045B000DF91CF911F910F910895CF3FDC0741F319
:1045C000C8010E949424C817D90710F78EEF9FEFF7
:1045D000EFCFB0E0A0E0EFEEF2E20C943C2C6B01E8
:1045E0008A017901B9010E944F22E6010C0D1D1DBF
:1045F000C017D10711F097FF08C024E92093BC0031
:10460000CDB7DEB7E8E00C94582CB70189910E9431
:10461000BB22EECFB0E0A0E0E0E1F3E20C943C2C52
:10462000C62F6A017901B8010E944F2297FD0CC084
:10463000B8018C2F0E94BB22E601EC0CFD1CCE15AC
:10464000DF0511F097FF08C024E92093BC00CDB727
:10465000DEB7E8E00C94582CB80189910E94BB2287
:10466000EECF84E98093BC00089590937501809308
:104670007401089590933402809333020895E09179
:104680003302F0913402309729F00190F081E02D4F
:104690000995089580E00895E0913302F091340285
:1046A000309721F00280F381E02D09950895209143
:1046B0003102309132022817390771F0909332029B
:1046C00080933102E0913302F0913402309721F06F
:1046D0000680F781E02D0995089520912F023091F1
:1046E00030022817390771F09093300280932F021F
:1046F000E0913302F0913402309721F00084F1858B
:10470000E02D099508959C012E5F3F4FAC01485F55
:104710005F4F80E02417350709F40895F90191915E
:104720009F019923B9F38F5FF5CF662349F0FC0110
:10473000329608962191261729F0E817F907D1F744
:1047400080E0089581E008959C01FC0132969FEF7E
:1047500080E04191461751F09F3F19F4411101C08B
:10476000982F8F5F8630A9F79F3F09F40895290F8E
:10477000311D97FD3A95F90162830895FC01329647
:1047800008962191261303C0DF0111971C92E817A8
:10479000F907B9F708950E94A42308950E94BE2343
:1047A0000895029626E0FC0111922A95E9F70895F2
:1047B00008950E94D8230895811106C081E0809356
:1047C00035020E94D923089582E0F9CF83E08093D7
:1047D00035020E94D92308950E94DC23089581E0C8
:1047E000809335020E94D92308950E94EF230895F3
:1047F00008950E9452050895089508950E94F8238F
:104800000895CF930E94FC230E941A130E94FD2357
:10481000C0E08C2F0E946212811105C0CF5FC430AE
:10482000C1F7CF91089581E0FCCF85B7806885BF3F
:1048300085B7806885BF08951F921FB61F92112407
:104840008F939F93AF93BF9380913602811113C0D2
:104850008091910490919204A0919304B09194045A
:104860004196A11DB11D8093910490939204A09351
:104870009304B0939404BF91AF919F918F911F9037
:104880001FBE1F90189580919904843031F10E94C9
:1048900048061092360288E190E020E40FB6F894C2
:1048A000A895809360000FBE2093600083B7817F3E
:1048B000846083BF83B7816083BF7894889583B712
:1048C0008E7F83BF0FB6F894A895809160008861B1
:1048D00080936000109260000FBE08950E948C09C2
:1048E0000E945106089582E084BD93E095BD9AEF41
:1048F00097BD80936E0008952FB7F894809191042E
:1049000090919204A0919304B09194042FBF0895C4
:104910002FB7F89460919104709192048091930460
:10492000909194042FBF08959C014FB7F894809103
:10493000910490919204A0919304B09194044FBF7C
:10494000821B930B089578941F921FB61F92112417
:104950008F939F93AF93BF93809191049091920412
:10496000A0919304B09194040196A11DB11D809370
:10497000910490939204A0939304B0939404BF91F4
:10498000AF919F918F911F901FBE1F90189587E741
:1049900097E7909301088093000888E19AE00FB6AA
:1049A000F894A895809360000FBE90936000FFCFAD
:1049B00088E19AE00FB6F894A895809360000FBE46
:1049C00090936000FFCF809142020895089508956A
:1049D000CF93DF93EC0181E08093E9008FEF90911A
:1049E000E800815095FD06C095ED9A95F1F700001D
:1049F0008111F5CF8091E80085FF14C050E040E0C0
:104A000068E070E0CE010E94F1268091E8008E7788
:104A10008093E80088E0FE01AAE3B2E001900D92E5
:104A20008A95E1F7DF91CF91089508950895FC01EB
:104A30009381808121812093370290933802809363
:104A4000390282E08093E9008FEF9091E800815075
:104A500095FD06C095ED9A95F1F700008111F5CF0F
:104A60008091E80085FF0DC050E040E063E070E019
:104A700087E392E00E94F1268091E8008E77809390
:104A8000E800089580919804811109C00E9481284E
:104A90000E94DE288091E20084608093E200089505
:104AA0001092980408950E94EF2308956091950450
:104AB00081E0611101C080E00E94E6230895909199
:104AC000990481E0943009F080E0609195040E949F
:104AD000EC23089542E061EC81E00E94FD2742E072
:104AE00061EC82E00E94FD279091990481E094306E
:104AF00009F080E0609195040E94DC230895809184
:104B00009B04833009F461C030F48130D1F18230EC
:104B100009F49EC008958A3009F48AC08B3009F4E4
:104B20006FC0893009F050C080919A04813209F039
:104B30004BC080919E0490919F04892B09F044C042
:104B40008091E800877F8093E8008091E80082FFF1
:104B500037C09091F3008091F200029731F4809178
:104B6000F100813011F0863021F48091F1008093C2
:104B700042028091E8008B778093E8000E94312800
:104B800023C080919A04813AF9F48091E800877FEC
:104B90008093E80080919E0490919F04892B61F49A
:104BA00068E08AE392E070E00E9440278091E8008C
:104BB0008B778093E800089560E090E080E0F3CF89
:104BC000809199048111C1CF089580919A04813A0E
:104BD000D9F780919E0490919F04892BA9F7809129
:104BE000E800877F8093E8008091E80080FFFCCF99
:104BF00080913B018093F1008091E8008E77BCCFDB
:104C000080919A04813201F780919E0490919F04D3
:104C1000892BD1F68091E800877F8093E8000E947D
:104C2000312880919C0480933B010E948C09089557
:104C300080919A04813241F68091E800877F8093C9
:104C4000E8000E94312880919D04809343020895DA
:104C500080919A04813A09F0B7CF8091E800877F6C
:104C60008093E8008091E80080FFFCCF80914302B0
:104C7000C1CF84B7877F84BF0FB6F894A895809181
:104C80006000886180936000109260000FBE80E831
:104C900090E00FB6F89480936100909361000FBE8E
:104CA0000E94F52308950E9481280E94DE28E2EEEA
:104CB000F0E080818460808378940E945D2B089569
:104CC0008FE291E00E943A23089580919904853003
:104CD00031F480919904853019F00E946E24089572
:104CE0000E94432480919704882399F30E94012411
:104CF000882379F30E94DB260E948C09EACF08956D
:104D00000E9483260895292F33272330310519F176
:104D100068F42130310509F444C02230310509F42A
:104D200045C090E080E030E020E025C02132310530
:104D300049F122323105A9F780E490E020EA39E018
:104D400061157105C1F080E390E020E739E0613042
:104D5000710589F0E6CF99278130910581F00097A0
:104D600029F00297F1F6E1EFF8E002C0EFE1F9E097
:104D7000849190E09F01FA01318320830895E7E058
:104D8000F9E0F6CF89E090E025E339E0611571059F
:104D900091F389E090E02EE439E06130710559F338
:104DA000C0CF82E190E02EE539E0E5CF8BE390E0E3
:104DB00023E239E0E0CF80E189BD82E189BD09B419
:104DC00000FEFDCF8091D8008F7D8093D800809128
:104DD000E00082608093E0008091E00081FDFCCFE4
:104DE0000895AF92BF92CF92DF92FF920F931F93DD
:104DF000CF93DF936C01EB018A010E945028F82EBB
:104E0000811123C00115110539F0F80180819181CC
:104E1000C81BD90BC80ED91EB12CA12C2097A9F004
:104E20008091E80085FD22C08091E8008E77809314
:104E3000E80001151105A1F0F80180819181A80E0B
:104E4000B91EB182A08285E0F82E8F2DDF91CF911F
:104E50001F910F91FF90DF90CF90BF90AF9008957A
:104E60000E9450288823D1F2F82EEFCFF6018191CD
:104E70006F018093F1002197FFEFAF1ABF0ACECFE9
:104E8000FC018091A0049091A10486179707A0F0DF
:104E90006115710529F49091E8009E779093E800E0
:104EA00090E06115710551F4911108C08091E800FE
:104EB00082FF34C080E00895BC01F2CF8091990454
:104EC0008823C1F18530C1F18091E80083FD30C0B5
:104ED0008091E80082FDEACF8091E80080FFE1CF79
:104EE0008091F3002091F200382F6115710519F0BF
:104EF0002830310558F091E02830310509F090E074
:104F00002091E8002E772093E800CBCF8191809309
:104F1000F100615071092F5F3F4FE7CF80919904F5
:104F2000882341F0853041F08091E80083FFBECFB7
:104F300081E0089582E0089583E00895FC01809166
:104F4000A0049091A10486179707A0F06115710540
:104F500029F48091E8008E778093E80090E0611555
:104F6000710551F4911108C08091E80082FF35C0AD
:104F700080E00895BC01F2CF809199048823C9F1A3
:104F80008530C9F18091E80083FD31C08091E8004F
:104F900082FDEACF8091E80080FFE1CF8091F300AD
:104FA0002091F200382F6115710519F02830310574
:104FB00058F091E02830310509F090E08091E80048
:104FC0008E778093E800CBCF84918093F100319667
:104FD000615071092F5F3F4FE6CF8091990488237C
:104FE00041F0853041F08091E80083FFBDCF81E042
:104FF000089582E0089583E00895982F973028F06F
:105000008F708093E90081E008959093E900242F48
:10501000762F50E0981731F07091EC002091ED0060
:105020005091F00021FD02C09F5FE8CF3091EB006E
:105030003E7F3093EB003091ED003D7F3093ED00EB
:105040003091EB0031603093EB007093EC002093D3
:10505000ED005093F0002091EE0027FDE5CF80E0B9
:10506000089580919A0487FF13C08091E80082FF21
:1050700006C08091E8008B778093E80004C080919F
:1050800099048111F2CF0895809199048823D9F36E
:105090008091E80080FFF8CF8091E8008E77ECCF18
:1050A0002091E4003091E50095E6A9012091EC0003
:1050B000822F817020FF06C08091E80080FF06C02B
:1050C00080E008952091E80022FD1AC080919904A3
:1050D000882389F0853089F08091EB0085FD0FC031
:1050E0002091E4003091E50042175307F9F2915006
:1050F000E1F684E0089582E0089583E0089581E078
:1051000008950E94F0280E94F828E0EEF0E08081E7
:1051100081608083E8EDF0E080818F77808319BC27
:10512000A7EDB0E08C918E7F8C9380818F7E808301
:105130001092980408950F931F93CF93DF930E94CA
:10514000F0280E94F828C8EDD0E088818F77888306
:1051500088818068888388818F7D888319BC1092BC
:10516000990410929504109297041092960400EE00
:1051700010E0F80180818B7F808388818160888343
:1051800042E060E080E00E94FD27E1EEF0E08081F7
:105190008E7F8083E2EEF0E0808181608083808179
:1051A00088608083F80180818E7F80838881806120
:1051B0008883DF91CF911F910F910895E8EDF0E082
:1051C00080818F7E8083E7EDF0E080818160808345
:1051D00084E082BF81E0809398040E949B28089518
:1051E000E8EDF0E080818E7F80831092E2000895E8
:1051F0001092DA001092E10008951F920F920FB6FC
:105200000F9211242F933F934F935F936F937F934C
:105210008F939F93AF93BF93EF93FF938091E100A0
:1052200082FF0BC08091E20082FF07C08091E10005
:105230008B7F8093E1000E945C2B8091DA0080FFDD
:1052400019C08091D80080FF15C08091DA008E7F50
:105250008093DA008091D90080FF96C080E189BDFB
:1052600082E189BD09B400FEFDCF81E080939904FD
:105270000E9442258091E10080FF19C08091E200E8
:1052800080FF15C08091E2008E7F8093E2008091C4
:10529000E20080618093E2008091D8008062809378
:1052A000D80019BC85E0809399040E94562580910E
:1052B000E10084FF2BC08091E20084FF27C080E1E1
:1052C00089BD82E189BD89B5982F917080FFFBCFA0
:1052D0008091D8008F7D8093D8008091E1008F7EEF
:1052E0008093E1008091E2008F7E8093E2008091C4
:1052F000E20081608093E20080919504882309F4A4
:1053000049C084E0809399040E945F258091E10068
:1053100083FF29C08091E20083FF25C08091E100D6
:10532000877F8093E10082E0809399041092950436
:105330008091E1008E7F8093E1008091E2008E7F7A
:105340008093E2008091E20080618093E20042E07D
:1053500060E080E00E94FD278091F00088608093EB
:10536000F0000E945325FF91EF91BF91AF919F9163
:105370008F917F916F915F914F913F912F910F90FE
:105380000FBE0F901F90189519BC109299040E949F
:10539000502570CF8091E30087FD93E090939904AE
:1053A000B3CF1F920F920FB60F9211242F933F93FA
:1053B0004F935F936F937F938F939F93AF93BF931D
:1053C000CF93DF93EF93FF93D091E900DF7080914B
:1053D000EC00C82FC17080FDC0E81092E9008091F8
:1053E000F000877F8093F00078940E94152A109235
:1053F000E9008091F00088608093F000CD2BCF70A1
:10540000C093E900FF91EF91DF91CF91BF91AF91F0
:105410009F918F917F916F915F914F913F912F91CC
:105420000F900FBE0F901F901895AAE2B0E0EBE12D
:10543000FAE20C94412C8AE994E02091F100FC01FD
:105440002193CF01F4E0823A9F07B9F70E947F25AC
:105450008091E80083FF1EC180919A0490919B0483
:105460009A3008F017C1E92FF0E0E551F34D0C94A4
:10547000FB2B803899F0823809F00CC180919E0492
:105480008F70873008F006C18093E9008091EB00AF
:1054900085FB882780F91092E90006C08091960468
:1054A00090919704911182609091E800977F90937A
:1054B000E8008093F1001092F1008091E8008E776F
:1054C000E5C0882309F4D3C0823009F0E3C080919D
:1054D0009C048111D6C080919E048F702FEF280FFD
:1054E000263008F0D7C08093E9002091EB0020FF20
:1054F000C8C0933031F48091EB0080628093EB0060
:10550000C0C09091EB0090619093EB0021E030E0FF
:1055100001C0220F8A95EAF72093EA001092EA0070
:105520008091EB008860EACF8111B4C010919C0497
:105530001F778091E3008078812B8093E300809136
:10554000E800877F8093E8000E9431288091E8007E
:1055500080FFFCCF8091E30080688093E30082E0CD
:10556000111183E08093990495C08058823008F02F
:1055700091C080919C0490919D048C3D23E0920702
:10558000A1F583E08A838AE289834FB7F894DE012C
:10559000139620E03EE051E2E32FF0E050935700F5
:1055A000E49120FF03C0E295EF703F5FEF708E2F14
:1055B00090E0EA30C0F0C7968D939D932F5F243121
:1055C00059F74FBF8091E800877F8093E8006AE237
:1055D00070E0CE0101960E9440278091E8008B7711
:1055E0008093E80057C0C096E7CF60919E04709109
:1055F0009F04AE014F5F5F4F0E948026BC01892B44
:1056000009F448C09091E800977F9093E800898161
:105610009A810E949E27E1CF8038E1F58091E800D1
:10562000877F8093E800809195048093F10045CFB7
:10563000811130C090919C04923060F58091E80017
:10564000877F8093E800909395040E943128809191
:105650009504882311F084E005C08091E30087FD64
:10566000FACF81E0809399040E946A2513C080914B
:105670009C04813079F481E0933009F080E08093DC
:1056800097041092E9008091E800877F8093E800FA
:105690000E9431288091E80083FF0AC08091E800D1
:1056A000877F8093E8008091EB0080628093EB001D
:1056B000AA96E3E00C945D2C0895CF938091990411
:1056C0008823A1F0C091E900CF709091EC00892F60
:1056D000817090FD80E8C82B1092E9008091E8006D
:1056E00083FD0E94152ACF70C093E900CF910895E1
:1056F000991B79E004C0991F961708F0961B881F24
:105700007A95C9F78095089587FB082E062687FDB0
:10571000819567FD61950E94782B0EF4919507FCA9
:1057200081950895AA1BBB1B51E107C0AA1FBB1F8F
:10573000A617B70710F0A61BB70B881F991F5A951D
:10574000A9F780959095BC01CD01089597FB072E90
:1057500016F4009407D077FD09D00E94922B07FC25
:1057600005D03EF4909581959F4F08957095619571
:105770007F4F0895A1E21A2EAA1BBB1BFD010DC08D
:10578000AA1FBB1FEE1FFF1FA217B307E407F507F1
:1057900020F0A21BB30BE40BF50B661F771F881FCD
:1057A000991F1A9469F760957095809590959B0163
:1057B000AC01BD01CF010895052E97FB1EF40094A6
:1057C0000E94F32B57FD07D00E94BA2B07FC03D091
:1057D0004EF40C94F32B50954095309521953F4F06
:1057E0004F4F5F4F089590958095709561957F4FCD
:1057F0008F4F9F4F0895EE0FFF1F0590F491E02DFE
:1058000009940E94092C332312F48A1B9B0B0C94DD
:105810001A2CA29FB001B39FC001A39F700D811DE0
:105820001124911DB29F700D811D1124911D0895A9
:105830000E94092CB7FF0895821B930B08950E94C4
:10584000092CA59F900DB49F900DA49F800D911DD4
:1058500011240895B7FF0C941F2C0E941F2C821B4B
:10586000930B08952F923F924F925F926F927F9287
:105870008F929F92AF92BF92CF92DF92EF92FF9260
:105880000F931F93CF93DF93CDB7DEB7CA1BDB0B0C
:105890000FB6F894DEBF0FBECDBF09942A883988B1
:1058A00048885F846E847D848C849B84AA84B984B8
:1058B000C884DF80EE80FD800C811B81AA81B981C4
:1058C000CE0FD11D0FB6F894DEBF0FBECDBFED01D8
:1058D0000895FB01DC0102C005900D92415050403B
:1058E000D8F70895FC014150504030F00190061661
:1058F000D1F73197CF010895882799270895FB01A3
:10590000DC0104C08D910190801921F44150504078
:10591000C8F7881B990B0895FB01DC0102C00190B8
:105920000D9241505040D8F70895F999FECF92BD9D
:1059300081BDF89A992780B50895A6E1B0E044E0CA
:1059400050E00C94CF2CA8E1B0E042E050E00C9481
:10595000CF2C262FF999FECF92BD81BDF89A0197E1
:1059600000B4021639F01FBA20BD0FB6F894FA9AA7
:10597000F99A0FBE08950396272F0E94AA2C0E9421
:10598000A92C252F0E94AA2C242F0C94AA2C019616
:10599000272F0E94AA2C0C94A92CDC01CB01FC011E
:1059A000F999FECF06C0F2BDE1BDF89A319600B478
:1059B0000D9241505040B8F70895F894FFCFAA07D0
:1059C000AA07DB07DB070A080A080A080A086808AA
:1059D000D908E808E808392A612A4A2B612A4A2BA3
:0A59E000942AB52A4A2B0C2B182B31
:1059EA00FFFFFF0000FF030000FFFFFF0000FF03AF
:1059FA000000CE01010102001400141401191A1B3F
:105A0A001C1D1E1F2021220021007F22000340E3CB
:105A1A0024E8241525E6241625E72401F5F6F731AE
:105A2A0033326697C63400010202020206060609EC
:105A3A0009090909090F0F0F0F0F0F151515181965
:105A4A0019191919191919191923240008101818DC
:045A5A001008000030
:00000001FF
