:100000000C9491040C94AE040C94AE040C94AE04C5
:100010000C94AE040C94AE040C94AE040C94AE0498
:100020000C94AE040C94AE040C94E6260C94BA27FF
:100030000C9420220C94AE040C94AE040C94AE04E8
:100040000C94AE040C94AE040C94AE040C94AE0468
:100050000C94AE040C94A7220C94AE040C94AE0441
:100060000C94AE040C94AE040C94AE040C94AE0448
:100070000C94AE040C94AE040C94AE040C94AE0438
:100080000C94AE040C94AE040C94AE040C94AE0428
:100090000C94AE040C94AE040C94AE040C94AE0418
:1000A0000C94AE040C94AE040C94AE04556E6465CE
:1000B00066696E6564004C454420504152414D458F
:1000C0005445520A00524742264B45592054455345
:1000D000540A004C617965723A200014001A000835
:1000E00000150017001C0018000000000004001696
:1000F00000070009000A000B000D00000000001DB1
:10010000001B00060019000500110010000000008F
:10011000001F0020002100220023002400250000F1
:100120007401522078237824782578267827782837
:1001300078000000002178007E0000000000000030
:1001400000000000000000000000000000000000AF
:10015000000000000000000000000000000000009F
:10016000000000000000000074005280818283843F
:1001700085868788898A8B8C8D8E8F9091929394B7
:10018000A0A1A2A3A4A5A6A7A8A9AAABACADAEAFF7
:10019000B0B1B2B3B4C0C1C2C3C4C5C6C7C8C9CA6E
:1001A000CBCCCDCECFD0D1D2D3D40000047F3F1F53
:1001B000643214643214783C1E0605040302010004
:1001C0000708090A0B0C0D14131211100F0E151647
:1001D0001718191A1B000101010101010101010297
:1001E00002020202020202020303030303030303E7
:1001F00004040404040404050505050506060606B2
:1002000006070707070708080808090909090A0A6D
:100210000A0B0B0B0C0C0C0D0D0D0E0E0E0F0F0F11
:10022000101011111112121313141415151616179C
:1002300017181819191A1A1B1B1C1D1D1E1E1F200A
:1002400020212222232424252626272829292A2B57
:100250002C2D2D2E2F30313232333435363738397C
:100260003A3B3C3D3E3F4041424344454647484976
:100270004A4C4D4E4F50515354555658595A5B5D48
:100280005E5F616264656668696B6C6D6F707273E6
:100290007577787A7B7D7E8082838587888A8C8E4D
:1002A0008F91939596989A9C9EA0A2A3A5A7A9AB7F
:1002B000ADAFB1B3B5B7BABCBEC0C2C4C6C9CBCD71
:1002C000CFD1D4D6D8DBDDDFE2E4E7E9EBEEF0F323
:1002D000F5F8FAFDFF00AE00AF00DA0281FFD9F1B8
:1002E000DB20A4A62EAF00A0C000A1C800AED58020
:1002F000A81FD300408D1420000000000000003E25
:100300005B4F5B3E003E6B4F6B3E001C3E7C3E1CD9
:1003100000183C7E3C18001C577D571C001C5E7F5B
:100320005E1C0000183C180000FFE7C3E7FF000058
:100330001824180000FFE7DBE7FF0030483A060EFC
:1003400000262979292600407F05050700407F0502
:10035000253F005A3CE73C5A007F3E1C1C08000821
:100360001C1C3E7F0014227F2214005F5F005F5F31
:100370000006097F017F00006689956A0060606061
:1003800060600094A2FFA2940008047E040800109C
:10039000207E20100008082A1C0800081C2A0808D3
:1003A000001E10101010000C1E0C1E0C0030383EE9
:1003B000383000060E3E0E0600000000000000006F
:1003C000005F000000000700070000147F147F1486
:1003D00000242A7F2A12002313086462003649563B
:1003E000205000000807030000001C22410000000C
:1003F00041221C00002A1C7F1C2A0008083E080815
:100400000000807030000008080808080000006044
:100410006000002010080402003E5149453E0000E3
:10042000427F4000007249494946002141494D330D
:10043000001814127F10002745454539003C4A49F1
:100440004931004121110907003649494936004622
:100450004949291E0000001400000000403400003B
:100460000000081422410014141414140000412246
:100470001408000201590906003E415D594E007CF6
:100480001211127C007F49494936003E4141412208
:10049000007F4141413E007F49494941007F0909B0
:1004A0000901003E41415173007F0808087F0000A8
:1004B000417F4100002040413F01007F081422415C
:1004C000007F40404040007F021C027F007F040804
:1004D000107F003E4141413E007F09090906003E70
:1004E0004151215E007F09192946002649494932B8
:1004F0000003017F0103003F4040403F001F2040B8
:10050000201F003F4038403F00631408146300037D
:1005100004780403006159494D4300007F41414183
:1005200000020408102000004141417F0004020144
:100530000204004040404040000003070800002043
:1005400054547840007F28444438003844444428B8
:1005500000384444287F0038545454180000087E62
:1005600009020018A4A49C78007F08040478000005
:10057000447D4000002040403D00007F10284400A2
:100580000000417F4000007C04780478007C08046F
:10059000047800384444443800FC18242418001817
:1005A000242418FC007C08040408004854545424F3
:1005B0000004043F4424003C4040207C001C2040B8
:1005C000201C003C4030403C004428102844004C93
:1005D0009090907C004464544C44000008364100E4
:1005E0000000007700000000413608000002010210
:1005F0000402003C2623263C00000000000000000E
:10060000000000000000000000C0E0E0E0C080004A
:10061000007CFEFFFFFE7C0000C0E0F0F0E0C000C8
:1006200000000000FEFEFEFEFEFE0000000000FED8
:10063000FEFEFEFEFE0000FEFEFEFEFE000000FED0
:10064000FEFEFEFE1E1EFEFEFEFCF8000000007018
:100650007078F8FCFEFEFEFE00000000E0F8FE7E72
:10066000FEFEFEFEFE000000000000000000000094
:1006700000000000000000E0F0F0F0E0ECEEF7F326
:100680007020007C7C7C7E007E7E7E7F7F7F0000F1
:1006900080C0E07E5B4F5BFEC00000C000DCD7DEA8
:1006A000DEDED7DC00C0000000000000000000001B
:1006B000000000000000000000000000000000003A
:1006C00000000000000080C0C0C3C7CF8F0F0F071D
:1006D000E0F0F8F9F9F8F0E0E0C7CF8F0F0703007A
:1006E00000000000FFFFFFFFFFFF0000000000FF11
:1006F000FFFFFFFFFF3E3EFFFFFFFFFF000000FF89
:10070000FFFFFFFF3C3C3F3F3F1F0F00000000008A
:100710000000FFFFFFFFFFFF0080F8FFFFFF878063
:10072000FFFFFFFFFF8080000000000000000000CE
:10073000000000000000000F1F3F7F7F7F7F7F3F92
:100740001E0C001F1F1F3F003F3F3F7F7F7F003079
:100750007B7F7830202030787F3B0003000F7F0FB5
:100760000F0F7F0F000300000000000000000000DA
:100770000000000000000000000000000000000079
:1007800000000000000003070F0F0F0F0703007F9A
:10079000FFFFFFFFFFFF7F3F3F3F1F1F07000000DE
:1007A000000000007F7F7F7F7F7F78787878007FF0
:1007B0007F7F7F7F7F00007F7F7F7F7F0000007FC4
:1007C0007F7F7F7F0000000000000000000000002D
:1007D00000007F7F7F7F7F7F0007070707070707EE
:1007E0007F7F7F7F7F070700000000000000000080
:1007F00000000000000000000000000000000000F9
:1008000000000000000000000000000000000000E8
:1008100000000000000000000000000000000000D8
:1008200000000000000000000000000000000000C8
:100830000000000000000000000E034C00480050C3
:1008400000310034006A00000016034E0065006F9E
:10085000005400720069006E0069007400790000A5
:10086000000403090409023B00020100A0FA090484
:1008700000000103010100092111010001224000D3
:1008800007058103080001090401000103000000BD
:10089000092111010001223000070582030800012F
:1008A000120100020000000814FF0900010001020B
:1008B000000105010904A101A10005010930093168
:1008C0001581257F95027508810205091901290105
:1008D00015002501950175018102950775018101BA
:1008E000C0C005010906A101050719E029E71500A7
:1008F000250195087501810295017508810105079B
:10090000190029FF150026FF0095067508810005CE
:100910000819012905950575019102950175039145
:1009200001C011241FBECFEFDAE0DEBFCDBF11E062
:10093000A0E0B1E0EAE1F6E502C005900D92A8352D
:10094000B107D9F724E0A8E5B1E001C01D92A43BAE
:10095000B207E1F70E9443140C94B72A0C940000EC
:100960000E94041984E10E94CD18089560E080E09F
:100970000E94B71A60E08BE691E00E94991B0895EF
:1009800081159E4741F4FB018281882321F00E945A
:100990002D150E94BA1881E0089563E080E00E945E
:1009A000B71A60E083ED90E00E94991B6091790195
:1009B00070917A0180917B0190917C010E941C06CC
:1009C000882341F0813061F060E08CEA90E00E9481
:1009D000AB1B089560E085EC90E00E94991B0895A0
:1009E00060E086EB90E0F9CF0E94B6040E94CD044F
:1009F00080E008950E94B01C08950E94B11B0895E4
:100A000084EF0E948D1F97FD039695958795959588
:100A10008795BC016058710980E00E94081F85EF2E
:100A20000E948D1F97FD03969595879595958795BF
:100A3000BC016058710981E00E94081F089582304E
:100A4000B8F46430A8F4493098F450E099E0699F14
:100A5000400D511D1124FA0194E2899FE00DF11D12
:100A60001124EE0FFF1FE552FF4F859194910895D9
:100A700080E090E008950E941F05089581E00895A8
:100A80000E94C004089508950E9443050895A5E0BA
:100A9000B0E0EDE4F5E00C940C2A49835A833091E0
:100AA0005F0189819A81311119C0662399F022234F
:100AB00089F00E94710B182F682F89819A810E94FA
:100AC0004D0B69817A81812F0E94C9112596E3E03F
:100AD0000C94282A0E945F0B182FF3CF0E94710BF1
:100AE00069817A81F1CFFC01262F40815181628199
:100AF000738184810E944705089581E00895CF9312
:100B0000DF93EC0160E00E947305BE010E94440582
:100B1000DF91CF9108950E94E81208950E94EB1290
:100B2000089508950E9495090E9491052FEF84E38E
:100B30009CE0215080409040E1F700C00000089503
:100B40000E9492050E94CB2208950E9492050E9465
:100B5000DC2208950F931F93CF93DF938C0161E004
:100B60000E947305EC01B8010E944005811106C086
:100B700080E0DF91CF911F910F910895B801CE01D0
:100B80000E9420208823A1F3B801CE010E94DB1C23
:100B9000882371F3B801CE010E94921F882341F38C
:100BA000B801CE010E94A719882311F3B801CE0124
:100BB0000E94B71D8823E1F2F8018281882361F049
:100BC000C330FCE7DF07E9F058F4C115ECE7DE07B6
:100BD000A9F0C130DC47B9F0C8010E943E05C9CF79
:100BE000CB358CE7D807A9F0CC35ECE7DE0771F000
:100BF000CA35DC4789F70E947B0FEECF0E94A00523
:100C0000B7CF0E94830F0E94A505B2CF0E94710F3B
:100C1000E3CF0E947F0FE0CF0E94FA040E94890672
:100C20000E9436180E94B01C08950E948D060E94F2
:100C30000D190E94FD040895CF92DF92EF92FF926A
:100C40006C01EE24FF2420E0C114D104E104F1047E
:100C500019F0C701B60120E1C72ED82EE92EFF24D6
:100C6000C114D104E104F10419F0285FC701B601F1
:100C70006B017C0154E0F694E794D794C7945A959D
:100C8000D1F7C114D104E104F10419F02C5FC701BC
:100C9000B6016B017C0142E0F694E794D794C794C7
:100CA0004A95D1F7C114D104E104F10419F02E5F83
:100CB000C701B6019695879577956795672B682B41
:100CC000692B09F02F5F822FFF90EF90DF90CF907C
:100CD000089508950E946906089581E00895089591
:100CE000CF93DF93D82F0E946D06C82F882319F069
:100CF0008D2F0E946F068C2FDF91CF91089508955C
:100D0000CF93C82F0E946A068C2F0E947006CF9145
:100D1000089580E00E94800608950E945A210E9452
:100D200080060895CF930E945A21C82F80915A01BE
:100D30008C1779F0C0935A010E948C2260935B015A
:100D400070935C0180935D0190935E018C2F0E94F3
:100D50008006CF910895ABE0B0E0E1EBF6E00C94B3
:100D60000D2A4F83588769877A878B8761110E9484
:100D7000BC0E1E821D8285E0FE013796DE011196B3
:100D800001900D928A95E1F78C819D81892B61F408
:100D900049815A816B817C818D819E810E94E50D04
:100DA0002B96E2E00C94292A89819A8189238F3F2E
:100DB00079F3CE0101960E947D058111E9CFF0CF34
:100DC000FC01808191810E94AB0B0895CF93C82FC5
:100DD0008823B9F08CEF8C0F813AA8F46C2F8091A6
:100DE0001201909113010E949F21882329F08C2FDA
:100DF0000E947C0E0E94DD0E8C2F0E94740E0E94B9
:100E0000DD0ECF91089580E28C0F8830D0F7C77047
:100E100081E001C0880FCA95EAF70E949F0EEFCFCC
:100E2000882341F09CEF980F913A28F40E947C0EA1
:100E30000E94DD0E089590E2980F9830D8F78770E1
:100E400091E001C0990F8A95EAF7892F0E94A50EBB
:100E5000EFCF1F93CF93DF93182FEB010E94E6068D
:100E6000209739F4812F0E941007DF91CF911F91B5
:100E700008958FE99FE00197F1F700C000002197E6
:100E8000EFCF70E060E0893311F460E570E00E941C
:100E900029070895882321F00E949F0E0E94DD0EED
:100EA0000895882321F00E94A50E0E94DD0E08956A
:100EB000B0E0A0E0EEE5F7E00C94062A6C01D62F36
:100EC000C72FFC011281F580F2949FE0F9220E9465
:100ED000950EE82E8823B9F0E12E1123A1F08C2F76
:100EE000807F803421F080E28D0F8830D0F08091B7
:100EF000370282FF16C082E00E94400F0E94950ECA
:100F000091E0E82EE926BC2EB2948FE0B822FBE0F7
:100F1000FB1508F468C0EB2DF0E0E754F54D0C9498
:100F2000E429E12CF0CF0C2F0F70C07F11F0029557
:100F3000007F112399F0002359F080E28D0F883053
:100F400010F0D11107C0802F0E949F0E0E94DD0E6D
:100F50008D2F41C0802F0E94AF0EF8CF8D2F0E94A1
:100F60001007002309F43FC080E28D0F883010F095
:100F7000D11104C0802F0E94A50E03C0802F0E94B3
:100F8000B50E0E94DD0E2FC00C2F0F70C07FC03237
:100F900011F00295007FDD2381F0D13009F468C0A3
:100FA000112309F472C0FF2009F468C0F60185819D
:100FB00080FFCECF8F70858361C08091370282FD24
:100FC00033C0112359F0002329F0802F0E949F0E77
:100FD0000E94DD0E80E00E94E60605C080E00E94CF
:100FE00010070111C7CFEB2DE850FF0B349720F409
:100FF0000E945A210E948006EE2089F00E94910EE4
:1010000080FD0DC0F60112820E948B0E0E94550ACF
:10101000C6010E9461090E948B0E0E94770ACDB71B
:10102000DEB7E9E00C94222A112389F0F11006C002
:101030000E94BF0E802B0E944A07D5CF21E0F212FA
:10104000F7CF0E94BF0E802B0E94C60ECCCFF110AE
:1010500006C00E94D30E802F0E945107C4CF31E0FA
:10106000F31609F2802F0E9451070E94D30EBBCFC6
:10107000112331F085E08F1508F4B5CF802FDBCF39
:1010800094E09F1508F4AFCFE6CFFF2021F3D933CA
:1010900049F4FFEF27EE33E0F15020403040E1F714
:1010A00000C000008D2F0E9410079DCF8C2F8370F1
:1010B00009F041C0111197CF4D2F429546954770C9
:1010C000440F440F0D2F0F7010E030E020E0042E8D
:1010D00004C0000F111F221F331F0A94D2F760E0D3
:1010E00070E0CB01D4FF0FC06FE070E080E090E0D3
:1010F00004C0660F771F881F991F4A95D2F7609525
:10110000709580959095C695C695C370602B712B90
:10111000822B932BC23049F058F4C13019F00E9451
:10112000020A61CF0E94EF095ECF0E94150A5BCFD1
:101130000E94EC0958CF8695112311F08C2F8170F5
:10114000882309F450CF4D2F429546954770440FA0
:10115000440F0D2F0F7010E030E020E0042E04C08B
:10116000000F111F221F331F0A94D2F760E070E0B6
:10117000CB01D4FF0FC06FE070E080E090E004C0CE
:10118000660F771F881F991F4A95D2F76095709553
:1011900080959095C695C695C370602B712B822B58
:1011A000932BC23049F058F4C13019F00E94D00A94
:1011B0001ACF0E94BD0A17CF0E94E30A14CF0E94E3
:1011C0002E0A11CFCF70112329F08C2F0E94550ABF
:1011D0008D2F31CF8D2F0E9451078C2F0E94770ABF
:1011E00002CFD23F51F160F4D03FB9F0D13F81F04E
:1011F000112309F449C0F110ABCE8C2F8F7121C09F
:10120000D33F11F1D43FA1F78091370282FD26C070
:101210008C2F8F71112311F314C0112349F084E036
:101220008F1508F4E0CE8C2F8F710E949B0ADBCEC5
:1012300095E09F1508F4D7CEF6CF8C2F8F71111142
:10124000CDCF0E94550ACFCE112329F08C2F8F715C
:101250000E943F0AC8CE0E94390AC5CE112349F028
:10126000CF718C2F0E94550A63E08C2F0E94220FB1
:10127000BACE81E00E94400FE1E0EF1508F0B3CE56
:1012800082E00E94400FAFCEF11001CF8C2F8F7102
:10129000A5CF0F931F93CF93DF93EC0168817981E2
:1012A0008A810E94B60B8C010E94F60A0E94EB090B
:1012B000B801CE010E945807DF91CF911F910F9185
:1012C0000895CF93DF93EC018B819C81892B29F0CA
:1012D0008881998189238F3F51F4DF91CF910895BF
:1012E000CE010E944909CE010E947F05F6CFCE01B2
:1012F0000E94AA058111F4CF0E94950E882369F3FC
:101300008A81882351F38091370282FFE6CF82E001
:101310000E94400FE2CF0E94BC0E0E94DD0E089595
:101320000E94840E0E948B0908950E94AC0E0E94B8
:101330009009089592959F70963091F058F4925FBD
:101340009F70923058F4803F19F030F4883E30F4AA
:1013500081E008959A5FF4CF843FD1F380E008954F
:10136000883EB0F3813FD1F7F3CFFC0183819481B4
:10137000892B29F08081918189238F3F11F480E0AE
:101380000895808191810E94AB0B0E949A09089573
:10139000A5E0B0E0EEECF9E00C940D2A2596E2E031
:1013A0000C94292AA6E0B0E0E8EDF9E00C940D2AAF
:1013B0002696E2E00C94292A08950E94DC090895FB
:1013C0000E94DD0960937D0170937E0180937F010F
:1013D00090938001089508950E94E00908950F9365
:1013E0001F9300917D0110917E0120917F0130912A
:1013F0008001602B712B822B932B0E94E0091F919F
:101400000F9108950F931F9300917D0110917E011C
:1014100020917F01309180016023712382239323E7
:101420000E94E0091F910F9108950F931F9300915F
:101430007D0110917E0120917F0130918001602714
:101440007127822793270E94E0091F910F91089529
:101450000E94DC0908950E94280A08950E942B0A20
:101460006093790170937A0180937B0190937C0162
:10147000089560E070E0CB010E942E0A08950F935A
:101480001F9341E050E060E070E08A019B0104C0DE
:10149000000F111F221F331F8A95D2F7C901B8010F
:1014A0000E942E0A1F910F9108950F931F9341E000
:1014B00050E060E070E004C0440F551F661F771FC6
:1014C0008A95D2F78091790190917A01A0917B0160
:1014D000B0917C018A019B01082B192B2A2B3B2BF5
:1014E000C901B8010E942E0A1F910F9108950F9310
:1014F0001F9341E050E060E070E004C0440F551FCE
:10150000661F771F8A95D2F7CB01BA016095709557
:10151000809590950091790110917A0120917B013D
:1015200030917C0160237123822393230E942E0A31
:101530001F910F9108950F931F9341E050E060E0D9
:1015400070E004C0440F551F661F771F8A95D2F7BD
:101550008091790190917A01A0917B01B0917C01F9
:101560008A019B01082719272A273B27C901B801AF
:101570000E942E0A1F910F9108950F931F930091BF
:10158000790110917A0120917B0130917C01602BCF
:10159000712B822B932B0E942E0A1F910F9108957D
:1015A0000F931F930091790110917A0120917B0193
:1015B00030917C0160237123822393230E942E0AA1
:1015C0001F910F9108950F931F930091790110912E
:1015D0007A0120917B0130917C016027712782275D
:1015E00093270E942E0A1F910F9108950895262F88
:1015F000277091E001C0990F2A95EAF723E07695CC
:1016000067952A95E1F725E0269FF001279FF00DC9
:101610001124E40FF51F50E040E0682F70E0819145
:10162000DF0111979B01042E02C0369527950A947D
:10163000E2F7217021952827292328272C934F5F33
:101640005F4F4530510559F70895A82FA77023E043
:10165000969587952A95E1F725E0289FF001299F27
:10166000F00D1124E60FF71F50E040E080E02191DB
:1016700030E00A2E02C0369527950A94E2F72170D1
:101680003327042E01C0220F0A94EAF7822B4F5F02
:101690005F4F4530510559F70895262F943070F467
:1016A000893060F4682F70E089E0989F600D711DAB
:1016B000112440E651E0822F0E94F70A0895292F55
:1016C000943068F4893058F490E060E671E039E0D5
:1016D000239F800D911D11240E94250B089580E009
:1016E0000895B0E0A0E0E7E7FBE00C94062A8C0147
:1016F000C0907901D0907A01E0907B01F0907C015C
:1017000080917D0190917E01A0917F01B091800137
:10171000C82AD92AEA2AFB2ACFE1D0E0BC2ED70179
:10172000C6010C2E04C0B695A795979587950A9487
:10173000D2F780FD09C0219788F7B12C8B2DCDB74A
:10174000DEB7E9E00C94222AB8018C2F0E94D51153
:10175000019789F3F3CFCF93DF93EC010E94710BD4
:10176000BE010E94D511DF91CF9108951F93CF93B1
:10177000DF93EB0190915F01992339F0CB010E9437
:10178000AB0BDF91CF911F910895882369F0CB01B6
:101790000E94710B182F682FCE010E944D0BBE01C5
:1017A000812F0E94D511EDCFCB010E945F0B182F26
:1017B000F6CF1F93CF93DF93C091810116E0809104
:1017C00082018C1304C0DF91CF911F910895D0E066
:1017D0001C9FF0011D9FF00D1124ED57FE4F40811D
:1017E000518162817381848195810E94D209219601
:1017F000C770E5CF4091B3015091B4016091B5013C
:101800007091B6018091B7019091B8010E94D20900
:1018100008951F93CF93DF938091B801807F09F0E3
:1018200049C08091B501882309F444C080918101A9
:10183000C09182016091B3017091B401A091B60191
:10184000B091B701D62FD72316E0C81799F190E0D1
:10185000109711F0DF3F19F401968770F6CF189FAB
:101860009001199F300D1124F901ED57FE4F418170
:101870004713F2CF40814613EFCF42814111ECCFA5
:10188000438154814A1B5B0B483C510528F78091EA
:10189000B8018F7080618093B801F901E857FE4F5D
:1018A00080818F708061808383EB91E00E94610969
:1018B0000E94D90BDF91CF911F910895A1E1B0E073
:1018C000E4E6FCE00C94052A8C0185E0F801DE01D9
:1018D0001D9601900D928A95E1F7F801E28083EB65
:1018E000C82E81E0D82E6091B6017091B7016115C4
:1018F000710509F44EC19091B3012091B401892F73
:1019000082238F3F09F445C140815181A380B48077
:10191000F090B501F501E61BF70BFF2009F4EAC0D2
:101920008091B801382F307FE83CF10508F0A3C062
:1019300031116DC0FE2C251316C0941314C0E11094
:1019400012C08F7080618093B8010E94FA0BC601AB
:101950000E9461098091B801F80185838F2D6196FD
:10196000EAE00C94212AA114B10429F0842F8523E4
:101970008F3F09F027C180E0F82FF170DF2E80FF44
:101980003CC0809181012091820136E0821315C014
:101990004D875E878D859E850E94AB0B292F2295F2
:1019A0002F702230F0F0243018F59F70F1F0F8011C
:1019B0009581907FD1F4D12C1EC090E0389FF0012A
:1019C000399FF00D1124ED57FE4F6181651306C05C
:1019D0006081641303C06281E6120FC001968770B4
:1019E000D5CF9F7011F0882331F3805E883018F3D3
:1019F000C8010E946109FD2CB1CFEE2009F4AECFE1
:101A00008091B80181608093B801F12CA7CF251394
:101A100006C0941304C0F801EE2009F487C0C80181
:101A20000E94B509882319F1EE2009F18091B801CF
:101A3000803270F02091B3013091B40138872F8348
:101A40001986BB86AA868C87CE0107960E946109FB
:101A500086E0F801A3EBB1E001900D928A95E1F7E1
:101A60000E94090C0E94FA0BFF24F39477CFC8015F
:101A70000E946109F9CF311113C07A2DB98AA88A61
:101A80006E2D89890E94C80983EB91E00E9461094B
:101A900086E0F60111928A95E9F70E94FA0BB5CF1C
:101AA00025130FC094130DC0E1100BC0F8018583FE
:101AB000C8010E94610986E0F60111928A95E9F752
:101AC0004DCFC8010E94B509882389F2EE2079F232
:101AD0008091B801803208F4BBCF2091B3013091DE
:101AE000B4013A8329831B82BD82AC828E83CE01EE
:101AF0000196ACCFE83CF10508F03EC0FE2CEE208C
:101B000009F4B5CF25132AC0941328C08091B801D9
:101B100080FD1BC0982F907FC1F0F8018583903F16
:101B200031F0982F907F905F8F70892B8583C8014B
:101B30000E94610986E0F801A3EBB1E001900D92EB
:101B40008A95E1F70E94FA0B09CF86E0F801A3EB32
:101B5000B1E001900D928A95E1F700CFC8010E9493
:101B6000B509811175CF8091B80181608093B8016A
:101B7000C8010E946109F2CE7A2DB98AA88A6E2D19
:101B800089890E94C80986E0F60111928A95E9F7D1
:101B9000D9CFEE2009F46BCFC8010E94B509F82E09
:101BA000882309F464CF86E0F801A3EBB1E001904B
:101BB0000D928A95E1F783EB91E00E94E0060E9486
:101BC000090CC0CF81E08E25D7CEACE0B0E0EBEEC3
:101BD000FDE00C940C2A4F83588769877A878B879E
:101BE0009C87CE0107960E945E0C882369F08A8547
:101BF0009B85892B39F04F815885842F85238F3F12
:101C000009F06BC016E05FC086E0FE013796DE018A
:101C1000119601900D928A95E1F78A859B85892B13
:101C200089F38F81988589238F3F61F32091820109
:101C300030E0C901019687709927409181014817CA
:101C4000190671F40E949509109282011092810187
:101C500086E0E3EBF1E0DF011D928A95E9F7D2CF50
:101C600096E0929FD001939FB00D1124AD57BE4FC7
:101C7000FE01319601900D929A95E1F780938201D1
:101C80000E94D90BBFCF819FC00111248D579E4F59
:101C90000E945E0C8823E9F0E09181011E9FF00113
:101CA0001124ED57FE4F40815181628173818481FF
:101CB00095810E94D2098091810190E00196877000
:101CC00099278093810180918101909182018913EC
:101CD000DACF2C96E3E00C94282A69857A858B85E7
:101CE0009C850E94D2098ECF682F8091120190911D
:101CF00013010E94D5210895682F809112019091BF
:101D000013010E94D821089580911201909113012E
:101D10000E94DB2108958091C10185958595859567
:101D200008958091C101877008959091C1019770C5
:101D300081E009F480E008958091CC0108959091AC
:101D4000CC01892B8093CC01089580959091CC0192
:101D500098239093CC0108951092CC01089590910E
:101D6000CB01892B8093CB01089580959091CB0175
:101D700098239093CB0108951092CB010895809100
:101D8000C201089508950E94C20E089590913702ED
:101D900092FF08C09091C201981721F08093C20170
:101DA0000E94C30E08958091C201882329F01092E9
:101DB000C20180E00E94C30E0895CF93DF93E091AB
:101DC0001201F09113018091CC018083E091120106
:101DD000F091130180819091CB01892B80839091A8
:101DE000C201992381F0E0911201F09113018081E9
:101DF000892B808380911201909113010E948D2183
:101E000081110E94D30EC0911201D091130148E0BC
:101E100050E069EB71E0CE010E94592A892B59F0FC
:101E200088E0FE01A9EBB1E001900D928A95E1F7FF
:101E3000CE010E946721DF91CF91089508950E94FD
:101E40001E0F08959091370292FF11C098E0899F6C
:101E500090011124622B6093C1010E94550A809168
:101E6000C1018595859585950E941F0F08950E9453
:101E7000550A08951092C10180E00E941F0F089535
:101E80009091C101809589238093C101282F2770EB
:101E900091F4282F082E000C330B9217130659F0DB
:101EA0009091370292FF07C08595859585950E9490
:101EB000770A0E943A0F08959091370292FB2227E9
:101EC00020F9281769F080FB92F9909337028091EE
:101ED0003602909137020E94A40F82E00E94400FC8
:101EE00008958091370282FB882780F991E0892745
:101EF0000E945C0F089581E00E945C0F089580E0CD
:101F00000E945C0F08956FEF7FEF90E080E00E94E9
:101F1000A12A089590E080E00E947D2A21E0873E7A
:101F20009E4F09F020E0822F089582E090E00E9409
:101F30006F2A089583E090E00E946F2A089584E05C
:101F400090E00E947D2A0895BC0184E090E00E9408
:101F5000A12A0895AB01BC018FE090E00E94952A70
:101F60000895AB01BC0183E190E00E94952A089599
:101F700060E070E0CB010E94B10F089560E070E076
:101F8000CB010E94AA0F0E94B80F089567EE7EEF62
:101F900090E080E00E94A12A60E082E090E00E9450
:101FA000832A60E083E090E00E94832A10927D0102
:101FB00010927E0110927F011092800160E074E126
:101FC00084E090E00E94A12A60E086E090E00E9418
:101FD000832A6FEF87E090E00E94832A40E050E080
:101FE000BA0188E090E00E94952A60E08DE090E0E0
:101FF0000E94832A40E050E0BA0188E190E00E940C
:10200000952A60E087E190E00E94832A40E050E05A
:10201000BA018CE190E00E94952A70E060E080E2D5
:1020200090E00E94A12A40E050E0BA0188E190E0EF
:102030000E94952A0E94BE0F08950E94C60F08951F
:10204000682F8EE090E00E94832A08950E948C22DF
:102050006093DB017093DC018093DD019093DE01DE
:102060006093D7017093D8018093D9019093DA01DE
:102070000895089508950E943A1008950E94B004AA
:1020800008958FEB92E10E9450210E9439100E9426
:102090003B10089581E008950E944A100895089524
:1020A00008950E944F100E94501008950E94C2127D
:1020B0000E947F0608950E9477220E94A4130E9426
:1020C000561080E00E947D1A0E94D1180E943E1096
:1020D0000895AAE0B0E0EFE6F0E10C94022A0E9435
:1020E000BA132FEC822E21E0922E640110E0F6014B
:1020F000E190F1906F01812F0E94EE121F5F14306A
:1021000009F449C0E816F90691F38091DF0181FDD9
:102110000E94F7120E944C10782E10E0812F0E942E
:10212000EE127C01F401A190B1904F018A159B053C
:1021300061F1A826BF2400E0CC24C394D12CC501B2
:102140008C219D21892BC1F07720B1F00E831F8354
:1021500021E0C7018C219D21892B09F420E02887EB
:102160000E9480228160782F9A8789874E815F81C3
:1021700068858A850E94AB060F5FCC0CDD1C093098
:10218000F1F6F4013297F182E0821F5F143031F6EC
:102190000E94261022C0E816F90609F0B6CF0E9468
:1021A00080228C018091CD019091CE0108171907F2
:1021B000A1F08FEF89838A831B820E948022816035
:1021C000782F9D838C8349815A816B818D810E94F8
:1021D000AB061093CE010093CD010E9417190E9407
:1021E000CE1C0E94341F0E9492062A96EDE00C94A9
:1021F0001E2ACF93DF930E94DA11EC01811522E5AC
:10220000920760F5811530E5930708F0A8C0883E75
:10221000910598F4803E9105E8F4853A910540F4E3
:1022200084309105B8F40197A9F0D0E0C0E012C065
:102230008D3C9105D0F3D0650DC08115904408F018
:1022400046C0C11580E2D80708F096C0C11591E0DC
:10225000D90758F3CE01DF91CF910895803822E558
:102260009207A8F4803632E5930708F05CC080340A
:1022700042E5940708F042C0C03282E5D80750F129
:10228000CF71D0E0DC2FCC27C16FD06AE3CFC03C48
:1022900092E5D90780F48C2F8F71C03AD24508F4AB
:1022A00057C00E947C12C82FD0E0DC2FCC27CC274F
:1022B000DF71D062CFCFC03E32E5D30708F0B5CF93
:1022C000DC2FCC27CC27DF71C06FD06AC3CFDF7083
:1022D000D06AC0CF2C2F2695269540E2249F9001EE
:1022E00011248C2F8370C1E0D0E002C0CC0FDD1F21
:1022F0008A95E2F7C22BD32BDD68ACCF282F269529
:102300002695277080E2289F900111248C2F8370DE
:10231000C1E0D0E002C0CC0FDD1F8A95E2F7C22BEE
:10232000D32BDC6897CF282F26952695277090E22F
:10233000299F900111248C2F8370C1E0D0E002C04E
:10234000CC0FDD1F8A95E2F7C22BD32BDA6882CF40
:10235000C82FD0E0DC2FCC27C46FD06A7BCF8F7121
:102360000E947C1235E0D695C7953A95E1F7CF707B
:102370009C2FEC01D0696ECF8D2F8F710E947C1243
:1023800090E0982F882788279F719C012C2BE901CA
:1023900090CF462F743030F4693020F4672F0E94BC
:1023A0003B05089590E080E008950E94C9110E94C5
:1023B000F910089582389105B9F1B0F4813391058F
:1023C00009F47DC048F48932910509F46DC08A3260
:1023D000910509F47BC008958533910509F45FC028
:1023E0008933910509F10895833E9105D9F138F4B7
:1023F000803E910529F1823E910579F10895863E4E
:102400009105D9F1873E910509F43EC0843E9105BE
:1024100041F52091370221FF24C08091360284FDCE
:1024200019C087EE90E0089520913602237009F0DC
:102430005AC02091370223FF14C089E290E008952A
:102440002091360220FD38C03091370230FF09C09C
:1024500024FF43C090E080E008952091360222FDE1
:10246000F7CF08952091360222FD3AC0309137020D
:1024700030FD39C024FFF5CFEDCF2091360223FF88
:10248000F0CF24FDE7CFCDCF2091360223FD2EC023
:102490003091370231FFEECF84EE90E00895209125
:1024A000360225FFDECFC9CF2091360225FD21C09F
:1024B0002091370223FFD5CF89E390E0D2CF20913E
:1024C000360226FFCECF8AE290E0089520913602B0
:1024D00026FFC7CF81E390E0089583EE90E0089552
:1024E00082EE90E0089580EE90E0089586EE90E010
:1024F000089585E390E008959091360292FF06C01A
:10250000282F28712830F9F4877F846093FF06C054
:10251000282F28712831F1F4877E846120913702B9
:1025200020FF06C0382F38713830D9F4877F81609A
:1025300021FF06C0282F28712831D1F4877E8161C0
:1025400094FD877E0895282F24712430F9F68B7F1F
:102550008860DCCF282F2471243101F78B7E8861BD
:10256000DDCF382F3171313019F78E7F8860E0CFA1
:10257000282F2171213121F78E7E8861E1CF80E003
:10258000089508950E948A0F811102C00E941D10B3
:102590000E94950F8093DF010E949F0F9093370256
:1025A000809336020E94C1120E949A0F682F70E039
:1025B00090E080E00E94EC096091790170917A01CD
:1025C00080917B0190917C010E942B0A08950895CF
:1025D0000E94E71208950E9400050895E82FF0E098
:1025E000EE0FFF1FE05CFD4F8081918108950895FB
:1025F00080EA8A95F1F7089500C008950E94F812C4
:102600000895F894E82FE295EF70F0E031A1282FBB
:102610002F7081E090E001C0880F2A95EAF7982F8B
:102620009095932391A392A1892B82A378940895E6
:10263000CF93DF9387E90E94011386EC0E94011378
:1026400084E30E94011385E30E940113CDE2D1E0EF
:1026500089918F3F11F00E94011381E0C633D807A2
:10266000B9F7DF91CF910895AF92BF92DF92EF92C9
:10267000FF920F931F93CF93DF938C01D62EC62F1B
:10268000D0E0CE018A5C9E4F7C01FC0120812F3F6F
:1026900009F44DC0F894E22FE295EF70F0E031A11B
:1026A0002F7081E090E001C0880F2A95EAF7932F00
:1026B000982B91A392A18095892382A378940E945C
:1026C000FC12EDE2F1E046E351E021E030E0B12C14
:1026D000A12C61916F3FA9F1A62FA295AF70B0E038
:1026E00090968C9190E06F7002C0959587956A9551
:1026F000E2F780FD26C0C901A82AB92A220F331F9C
:102700004E175F0731F7F70180818F3F11F00E946C
:10271000011361E0A114B10409F460E08D2D0E9461
:10272000FE12CC0FDD1FC00FD11FB982A882DF912E
:10273000CF911F910F91FF90EF90DF90BF90AF90DE
:10274000089590E080E0D8CF0E94181388E0E0E47C
:10275000F2E0DF01982F1D929A95E9F7E8E3F2E0A5
:10276000DF011D928A95E9F784E00E94F5130E942B
:102770008B050895A8E0B0E0E0ECF3E10C940A2AA0
:102780008E010F5F1F4F88E0F80111928A95E9F7DB
:10279000F12C6F2DC8010E943413F394F4E0FF1262
:1027A000F8CF48E050E0B80188E392E00E94592A4F
:1027B00021E0009709F420E0892B41F088E0F8013E
:1027C000A8E3B2E001900D928A95E1F744E060E45D
:1027D00072E088E392E00E94F613182F0E948E05A3
:1027E000812F2896E5E00C94262A0895CF92DF9257
:1027F000EF92FF921F93CF93DF936C017B01C42F65
:10280000222349F081E08093E2010E94802290938C
:10281000E1018093E0011091E20111110AC010E082
:10282000812FDF91CF911F91FF90EF90DF90CF909C
:1028300008958091E0019091E1010E94982205970E
:1028400070F3D0E0CC0FDD1FAE01B601C7010E94CE
:10285000592A892B41F0AE01B601C7010E94662AB0
:102860001092E201DDCF10E0FBCF0E943C240E94D9
:102870005B100E94492408950E944E240E94691012
:102880000E94682408950E9419220E9422240E9416
:1028900041100E9435140E943C140E945110FBCF3D
:1028A000EF92FF920F931F93CF93DF93EB01E82FEB
:1028B000D1110EC0442321F0F0E0EB52FE4FE49121
:1028C0006E2F7E2F8E2FCDB7DEB7E6E00C94252A33
:1028D0000D2F10E0282F30E0442329F02B523E4FDB
:1028E000F901249130E0F6E0CF9FC0011124EFEF11
:1028F000F0E0BF010E947B29AB018C2F90E0880F94
:10290000991FA5E5A49FB001A59F700D1124861BFA
:10291000970B982F990F980FBF01601B710B629F47
:10292000D001639FB00D729FB00D11248B2F9D9F1E
:10293000B0011124672F7727EF01C61BD70BBE010B
:10294000629FE001639FD00D729FD00D11247F0123
:10295000E91AF108E09EB001E19E700DF09E700D45
:102960001124672F7727E61BF70BE29F8001E39F77
:10297000100DF29F100D1124E12F722F42305105DE
:1029800099F048F44115510569F04130510581F045
:10299000EB2F8D2F07C04430510569F080F0463091
:1029A0005105B1F76E2F8FCFE22F7B2F812FFACFFA
:1029B000E22F7D2FF7CFEB2F822F712FF3CF7B2FBD
:1029C000822FED2FEFCF41E00E945014089508951B
:1029D0000E94E3140895CF93DF93762FE901682FC7
:1029E000842F0E94E814798368838A83DF91CF91D2
:1029F0000895493708F048E70E94EB140895809144
:102A00004802982F9E7F61F4817082608093480213
:102A100080914B02893718F088E780934B02089524
:102A20008A32B0F381708862F1CF88E090E00E9432
:102A3000772A0895CF92DF92EF92FF926B017C018B
:102A40000E94FF14B701A60188E090E00E94952A39
:102A5000FF90EF90DF90CF900895E8E4F2E083E0FC
:102A6000808311828FEF828388E783831482608161
:102A70007181828193810E941A1508958091480284
:102A800080FF02C08695089580E0089590914C02E1
:102A9000933018F49F5F90934C02882351F060911B
:102AA00048027091490280914A0290914B020E9423
:102AB0001A15089581E00E944615089590914C02E0
:102AC000992319F0915090934C02882351F0609112
:102AD00048027091490280914A0290914B020E94F3
:102AE0001A15089581E00E945E15089570E00E9415
:102AF0000E1A0895CF92DF92EF920F931F93CF9308
:102B0000DF93CDB7DEB7C455D1090FB6F894DEBF59
:102B10000FBECDBF609117018091480280FF37C082
:102B2000E9EBF1E09E012F5F3F4F8E010B5A1F4FE3
:102B3000C901A4914A2F50E0DA01AA0FBB1FA40FCC
:102B4000B51FA35BBD4FCD90DD90EC90D901CD9228
:102B5000DD92ED929D013196A017B10751F72091BA
:102B60001601B3E02B9F800D911D11240E94761554
:102B7000CC5ADF4F0FB6F894DEBF0FBECDBFDF914A
:102B8000CF911F910F91EF90DF90CF90089580919A
:102B900018019091190123E0829FF0011124E35B59
:102BA000FD4F891708F0BCCF1182108212828F5F0F
:102BB0003396F7CF9091480290FF0EC09091180184
:102BC0002091190133E0939FF0011124E35BFD4F45
:102BD000921718F00E947A150895818360834283CA
:102BE0009F5F3396F5CFA3E0B0E0E9EFF5E10C94F9
:102BF0000D2A9091480290FF0AC09E012F5F3F4F1F
:102C00000E94F9144B8169818A810E94DA1523960A
:102C1000E2E00C94292ACF93DF93EC01E8E4F2E0A0
:102C2000438162818C810E94F3158C818F5F8C833C
:102C3000DF91CF910895A3E0B0E0E1E2F6E10C94DA
:102C4000092A182FF62E042FE22E8091480280FFC9
:102C500028C0E82FE695F0E0E65CFE4F9081909367
:102C6000EF018E7F823009F59E012F5F3F4F812F4C
:102C70000E94F9144B8169818A810E94DA151093B0
:102C80004902F0924A0200934B02EE2051F060910B
:102C900048027091490280914A0290914B020E9431
:102CA0001A152396E6E00C94252A923019F4109117
:102CB0004902E5CF953019F7FACFE8E4F2E09181C7
:102CC000282F4381628188E0890F0E941B16089596
:102CD00081E00E945D160895E8E4F2E09181282FDA
:102CE0004381628188EF890F0E941B16089581E05D
:102CF0000E946C160895E8E4F2E0628128E0620F19
:102D000008F46FEF282F438181810E941B160895DC
:102D100081E00E947B160895E8E4F2E0628128E0F9
:102D2000621B08F460E0282F438181810E941B16FA
:102D3000089581E00E948C160895E8E4F2E0438152
:102D400028E0420F08F44FEF282F628181810E9412
:102D50001B16089581E00E949D160895E8E4F2E0B4
:102D6000438128E0421B08F440E0282F62818181E2
:102D70000E941B16089581E00E94AE16089520E07F
:102D80000E941B160895A3E0B0E0E9ECF6E10C9474
:102D90000B2A8C018091E30181110AC09E012F5FF3
:102DA0003F4F48E76FEF0E94F9148A818093E30157
:102DB000F8016481613069F08091E30140E06623AD
:102DC00061F040E0623011F44091E30180E060E0A6
:102DD00004C06091E30140E080E00E94DA15F80150
:102DE000848190E0019663E070E00E948F298483E3
:102DF0002396E4E00C94272AEF92FF921F93CF933F
:102E0000DF93EC0110E0EE24EA94F12C60911A01BA
:102E1000161770F00E947A159A818C8190FF27C056
:102E20008F5F8C83DF91CF911F91FF90EF9008957A
:102E300020911801422F410F5527551FCA019A01B1
:102E4000220F331F280F391F235B3D4F70E0C7014E
:102E50000E948F29962F8C8140914B0260914A02EB
:102E6000199F800D11240E94F9141F5FCFCF81504C
:102E7000D8CFB0E0A0E0EFE3F7E10C94052AFC0125
:102E800082810FEF80FF01E010E04CE1A42E8091E1
:102E90001A01181798F00E947A158091E501013007
:102EA00009F04FC0811102C080911A0181508093B6
:102EB000E501CDB7DEB7EAE00C94212AC0911801F4
:102EC000C12ED12CCC0DDD2DD11DCE01880F991F27
:102ED000C80FD91FC35BDD4F198218821A8234E0F4
:102EE000E32EF12CB12C8091E5018B0D8D311CF17D
:102EF0006A2D0E946D29892F082E000C990BC81687
:102F0000D90691F480914B028E9DA0018F9D500DAA
:102F1000112455954795559547959E0160914A0214
:102F2000809149020E94F914B00EF1E0EF1AF10805
:102F3000D1F61F5FACCF87FFDFCF90911A01890FC9
:102F4000DBCF90E0019660911A0170E00E948F291A
:102F5000AECF0F931F93CF93DF9380911801909181
:102F6000190123E0829FF0011124E35BFD4F8917D3
:102F700040F1C0E0D3E060911A01C61740F10E9411
:102F80007A15209114018091E401820F8093E4016D
:102F900090911501920F90931501191654F4082E73
:102FA000000C990B40911A014150550B841795075D
:102FB0001CF0219520931401DF91CF911F910F9167
:102FC00008951182108212828F5F3396D0CF0C2F1A
:102FD00010E070E0C8010E948F2920911801820F33
:102FE000482F50E02091E401022E000C330B021711
:102FF0001307BCF020911501022E000C330B201793
:1030000031077CF08D9F90011124235B3D4F40914F
:103010004B0260914A02809149020E94F914CF5FED
:10302000AACFFA01EE0FFF1FE40FF51FE35BFD4F80
:10303000118210821282F3CFE8E4F2E080818E7F69
:10304000808360817181828193810E941A15109220
:10305000F0010E947A150895E8E4F2E080818E7F05
:1030600080831092F0010E947A1508951092F00169
:103070008091ED0181110AC081E08093ED01809182
:10308000480281708093EC010E942C180895609191
:103090004802669570E041E050E08BE191E00E94CB
:1030A0004C2A892B19F481E08093F0010E94802240
:1030B0009093E7018093E60108959091480290FF74
:1030C0002BC09170811129C09260909348026623B1
:1030D00051F0609148027091490280914A029091AA
:1030E0004B020E941A1560914802669570E041E01B
:1030F00050E08BE191E00E944C2A892BA9F01092BC
:10310000F00181E08093E90140914B0260914A0215
:10311000809149020E94BF160895853110F098628F
:10312000D4CF880F982BD1CF0E944718EACF682FB1
:1031300090914802969581E0890F853108F081E0F1
:103140000E945D18089581E00E9497180895682FE5
:103150009091480296958FEF890F09F484E10E94BF
:103160005D18089581E00E94A718089561E00E940B
:103170005D180895E8E4F2E080818160808386959F
:103180000E94B61808958091480280FF03C00E94F3
:103190001C1808950E94BA18089560E00E945D18F6
:1031A00008958091EE0181112EC00E948A0F811135
:1031B00004C00E941D100E942D150E9415156093D9
:1031C00048027093490280934A0290934B026E7FAB
:1031D00061F40E942D150E941515609348027093AA
:1031E000490280934A0290934B020E94FF1410926E
:1031F000F0018091480280FF03C086950E94CD189F
:1032000081E08093EE010895E8E4F2E0808181603E
:10321000808386950E94CD1808951092ED018091CB
:10322000EC0181110E9404190E94471808950F9320
:103230001F93CF93DF938091F0018823B9F18091A0
:10324000EF01E0914802E695E81BE093E801823047
:1032500091F5F0E0EA54FE4FE491CE2FD0E00BE080
:1032600016E18091E901882361F01092E9010E9442
:1032700080229093E7018093E6011092EB01109277
:10328000EA010E948022E091E601F091E7018E1BA5
:103290009F0B8F3F9F4750F4EC0FFD1FF093E7010A
:1032A000E093E60186EE91E0F8010995DF91CF9178
:1032B0001F910F910895853051F4E695F0E0ED549B
:1032C000FE4FE491CE2FD0E00CEF16E1CACF8B3049
:1032D00051F4E695F0E0E055FE4FE491CE2FD0E0BA
:1032E00009E317E1BECF813149F4F0E0E355FE4F29
:1032F000E491CE2FD0E009EA17E1B3CFC0EDD7E0DB
:1033000007EE14E1843109F0ACCFEBEAF1E0C591AE
:10331000D49103EC16E1A5CFFA01811101C0FB01A4
:1033200009950895CF93DF93C82FD62F0E943E159D
:103330008C1748F00E943E158D1728F40E94A318A0
:10334000DF91CF9108958C2F0E94B618F9CF1F936B
:10335000CF93DF93EC01FB011281111110C00E9489
:103360009C0E8272FE01E052F847E531F10508F04B
:1033700053C0EB53F54D0C94E4290E94C318812FE0
:10338000DF91CF911F91089542EB58E163EA78E114
:103390000E948C19F4CF43EA58E162EB78E1F8CF50
:1033A00047E756E168E676E1F3CF48E656E167E79E
:1033B00076E1EECF49E956E168E876E1E9CF48E801
:1033C00056E169E976E1E4CF4BEB56E16AEA76E152
:1033D000DFCF4AEA56E16BEB76E1DACF42E755E11F
:1033E0006AE575E1D5CF4AE555E162E775E1D0CFF1
:1033F00081E00E94B618C3CF64E082E00E94921977
:10340000BECF6AE085E0FACF60E18BE0F7CF63E101
:1034100081E1F4CF84E1EDCF11E0B1CF539A4BB10C
:10342000477F5BB15860EFB7F8949B01220F331FC1
:10343000260F371F280F391F2817390741F4EFBF10
:103440008FE594E00197F1F700C000000895DC01DA
:103450006D91CD0178E05BB9000000C067FF4BB90A
:10346000660F000000C000C000C04BB900C07A95D4
:1034700091F7E2CFB0E0A0E0E0E4FAE10C94072A93
:103480006C017B0164E670E088E70E946A20EC0131
:1034900097FD12C010E000E0F601E00FF11F8491EB
:1034A00064E670E00E94D620EC01892B29F40F5FBE
:1034B0001F4F0E151F0581F70E944C21CE01CDB77D
:1034C000DEB7E8E00C94232A08950E94641A089558
:1034D000E1EAF2E080E092E0DF019C011D922150E0
:1034E0003040E1F7F093A204E093A1048FEF9FEF47
:1034F00090931D0280931C0208950E94641A0E94FA
:10350000651A8093180280FD0FC080E8809317022F
:103510000E9464206DE070E08CEE92E00E943A1A06
:10352000892B21F080E0089580E2F0CF809118028D
:1035300063E070E081FD18C089EE92E00E943A1AC3
:10354000892B81F76DE070E089ED92E00E943A1AD4
:10355000892B41F70E94681A81E080931B028093B7
:103560001A0210921902089586EE92E0E7CF209198
:10357000170236E0839FC0011124629F800D911DC8
:103580001124811522E0920714F090E080E08F551D
:103590009D4F9093A2048093A10408952091A104CB
:1035A0003091A2042B59324040911702642F70E0F1
:1035B000C9010E947B29481B463010F4240F311D9D
:1035C000211582E0380710F030E020E02F553D4F04
:1035D0003093A2042093A10408951F93CF93DF9307
:1035E000162F8A3039F481E00E94661BDF91CF915B
:1035F0001F9108958D3011F480E0F6CFC091A104A1
:10360000D091A20496E0FE01A1EFB1E001900D92ED
:103610009A95E1F7803EB8F086E0FE0111928A9516
:10362000E9F711111CC0C091A104D091A20446E099
:1036300050E0BE0181EF91E00E94592A892BE9F404
:103640000E94CE1AD3CFF6E08F9FB00111246750AD
:103650007D4F46E050E0CE010E94432AE2CFE09148
:10366000A104F091A2049F012A5F3F4F2E173F074C
:10367000D1F2808180958193F9CFC15AD240CE0199
:1036800025E0969587952A95E1F721E030E0A9019C
:1036900002C0440F551F8A95E2F7CA0140911C02EF
:1036A00050911D02842B952B259645E0D695C79504
:1036B0004A95E1F702C0220F331FCA95E2F7822B29
:1036C000932B90931D0280931C02BACFCF93382F77
:1036D000E091A104F091A204E15AF2402091170276
:1036E000622F70E0CF010E947B29281B822F332399
:1036F00069F066E00E946129C82FC15010F4CF9193
:10370000089560E080E20E94ED1AF7CF9F01280F34
:10371000311D2115324018F080E0F0E0E0E08E0F1E
:103720009F2F911D8F559D4F9093A2048093A104CC
:10373000E6CF1F93CF93DF93EC01162FFE01849108
:10374000811104C0DF91CF911F910895612F0E94D4
:10375000ED1A2196F3CF0E94991B81E00E94661B0F
:10376000089580911A0290911B02992361F08111B2
:1037700008C062E070E087ED92E00E943A1A892B5F
:1037800019F080911A02089581E080931A02F9CF0E
:10379000B0E0A0E0EEECFBE10C94012A80911C0269
:1037A00090911D02892B09F4BDC080911B028823D2
:1037B00009F4B8C0809119028111B4C00E94B11BF4
:1037C00020911C0230911D022115310509F4AAC077
:1037D00080E041E050E0082F10E0EA01082E02C02E
:1037E000CC0FDD1F0A94E2F7BE0162237323672B1F
:1037F00011F48F5FF0CF9091180290FF98C0880F5E
:10380000880F880F80931E0110922101895F809399
:103810001F0183E08093220124E630E047E050E07E
:103820006CE171E088E70E940421892B09F07AC0DD
:10383000A80125E0440F551F2A95E1F78091180251
:1038400080FF87C0E7EFF1E080E2DF011D928A95FB
:10385000E9F703E511E08FE4E82E81E0F82E97E028
:10386000992E88248394D801ED918D01D7016D9113
:103870007D01640F752F711D6F557D4FF0E0E9508C
:10388000FE4F30E020E0792C721AA82C022E01C0E5
:10389000AA0C0A94EAF76B0190E0D6018D916D01B4
:1038A0008A21A72DA91BA770BA2E0A2E000CBB0BCC
:1038B000682E01C0660CBA94EAF7B62CB195A195B2
:1038C000B109A770BB2701C08695AA95EAF7A62D76
:1038D000A82B80818A2B80839F5F9830F1F62F5F21
:1038E0003F4F31962830310571F681E007351807D2
:1038F00009F0B9CF04E610E020E230E047EF51E0F4
:1039000060E488E70E942521892B61F4C095D09559
:1039100080911C0290911D02C823D923D0931D02CF
:10392000C0931C02CDB7DEB7EEE00C941D2A829541
:10393000880F807680931E019801369527953695DD
:10394000279520932101815E80931F01109222010F
:1039500063CF4F555D4F04E610E020E230E0D0CF5A
:1039600080911A0290911B02911103C091E0892766
:103970000895882369F062E070E085ED92E00E948E
:103980003A1A892B19F080911A02089510921A029E
:1039900080911A02EBCF0E94F404089580911B02DB
:1039A000882341F060E080E00E94B71A0E94CB1C9F
:1039B0000E94C81B0895CF93DF93EC01FB01828125
:1039C000882309F4D2C09E0130572332310508F014
:1039D000B2C00E949F0F9093370280933602FE017F
:1039E000E150F047E232F10520F4E652F54D0C9437
:1039F000E4298091360281608093360293C08091E1
:103A000037028860809337028DC0809136028260D1
:103A1000F3CF809136028460EFCF809136028860C8
:103A2000EBCF809137028160EDCF809137028260C9
:103A3000E9CF809136028061DFCF809136028062CB
:103A4000DBCF809136028064D7CF0E9495098091A8
:103A500036028068D1CF809136028C60CDCF8091C4
:103A600037028360CFCF809136028E7FC5CF8091A1
:103A70003702877FC7CF809136028D7FBDCF80917F
:103A800036028B7FB9CF80913602877FB5CF809188
:103A900037028E7FB7CF809137028D7FB3CF809171
:103AA00036028F7EA9CF809136028F7DA5CF80917F
:103AB00036028F7BA1CF0E949509809136028F77C5
:103AC0009BCF80913602837F97CF809137028C7F86
:103AD00099CF8091360282FB992790F921E09227B5
:103AE00090FB82F990FB83F987CF80913702982F62
:103AF000909591708E7F892B90FB81F983CF909167
:103B00003602892F8F7B96FF806476CF0E949509BD
:103B100090913602892F97FB87F980586DCF81E00D
:103B20000E94201080913602909137020E94A40FCB
:103B30000E94950980E0DF91CF91089580E0F0CF59
:103B400090913602892F8F7E94FF806155CF90919E
:103B50003602892F8E7F90FF81604ECF9091370281
:103B6000892F877F93FF88604DCF81E0E4CFCF938B
:103B70009C013457C1E02034310538F4FB01C28187
:103B8000CC2331F00E94D61DC0E08C2FCF91089538
:103B90000E94E31DFACF80912302882331F08EE149
:103BA00092E00E94722110922302089581110AC0AE
:103BB00080911E02816080931E0281E08093230227
:103BC0000E94CB1D089581110AC080911E028E7F34
:103BD00080931E0281E0809323020E94CB1D0895F2
:103BE0008F929F92AF92BF92CF92DF92EF92FF920D
:103BF000CF93DF93823008F008C1482F50E029E0CE
:103C0000829FF0011124E050FF4F8181A82FA295DF
:103C1000AF70B0E092969C9192978F7061E070E0E7
:103C20009B0101C0220F8A95EAF7209529239296DD
:103C30002C938181A82FA295AF70B0E091969C91B2
:103C400091978F709B0101C0220F8A95EAF7892F07
:103C5000822B91968C9385E38A95F1F700009081F1
:103C60009F3F01F1A92FA295AF70B0E091968C9182
:103C700091979F709B0101C0220F9A95EAF7822BC2
:103C800091968C939081E92FE295EF70F0E022A15C
:103C90009F70DB0102C0AA0FBB1F9A95E2F7CD010E
:103CA000822B82A389E0849FF001859FF00D11246F
:103CB000E050FF4F22812F3F09F1A22FA295AF7054
:103CC000B0E091963C9191972F7081E090E0BC011B
:103CD00001C0660F2A95EAF7232F262B91962C9385
:103CE0002281E22FE295EF70F0E032A12F7001C047
:103CF000880F2A95EAF78095832382A3B5E3BA95C6
:103D0000F1F7000089E0849FE001859FD00D112428
:103D1000C050DF4F3981E32FE295EF70F0E041A111
:103D20003F7081E090E0BC0102C0660F771F3A95BA
:103D3000E2F79B012095242321A32981E22FE2951C
:103D4000EF70F0E032A12F7001C0880F2A95EAF7DA
:103D50008095832382A375E37A95F1F7000089812A
:103D60000E948D1F8D809E80B12CA12C092E000CED
:103D7000AA0BBB0B6C017D01C818D908EA08FB0827
:103D8000A1E8BFEFA70196010E94F8292B813C8191
:103D900050E040E0281939094A095B090E94C52909
:103DA000121613061406150684F4AFE7B0E0A70157
:103DB00096010E94EA292F81388550E040E02819B9
:103DC00039094A095B090E94C529DA01C90181380C
:103DD0002FEF9207A207B20724F481E89FEFAFEF1D
:103DE000BFEF80389105A105B10524F08FE790E081
:103DF000A0E0B0E0DF91CF91FF90EF90DF90CF9007
:103E0000BF90AF909F908F90089590E080E0F2CFA8
:103E1000823080F4E82FF0E0EE0FFF1FE25EFD4FEE
:103E2000818192818617970729F07283618381E0EF
:103E3000809323020895809101018F3F39F080E043
:103E40000E94F01DBC0180E00E94081F80910A01C1
:103E50008F3F39F081E00E94F01DBC0181E00E949B
:103E6000081F0E94CB1D08950E941B1F08958739CB
:103E700001F178F48633F9F030F48433F1F08533CE
:103E8000F1F08FE108958439E1F08639D1F781E2CC
:103E90000895843FC1F030F4803FB9F0813F89F745
:103EA00081E00895863F99F0A0F0873F51F787E0C1
:103EB000089582E2089585E2089583E2089584E2F8
:103EC000089580E2089584E0089580E0089586E0F2
:103ED000089585E0089596E890937A00982F90725F
:103EE000906890937B008F7190912301892B809330
:103EF0007C0080917A00806480937A0080917A00BF
:103F000086FDFCCF809178002091790090917A0015
:103F10009F7790937A00922F08950E94371F0E94F6
:103F20006B1F0895CF93DF93EB0186319C4711F50A
:103F30000E949C0E9A81992399F08A7A91E009F463
:103F400090E090932402811109C089E20E94740ECE
:103F50000E94DD0E80E0DF91CF91089585E3F6CFDA
:103F600080912402811104C089E20E947C0EF0CF6E
:103F700085E3FBCF81E0EFCF0F931F93CF93DF93C8
:103F8000C42FD22FFC0182818823C9F040932702DD
:103F90000E948022909326028093250280E28C0F5B
:103FA000883040F4C77081E001C0880FCA95EAF7F5
:103FB0000E944A07DF91CF911F910F9108951091B0
:103FC0002702141332C080912502909126020E948C
:103FD0009822883C910548F5C0E2CD0F1D17B9F035
:103FE00080E2810F883040F4177081E001C0880FB3
:103FF0001A95EAF70E945107C83048F481E09D2FD6
:10400000977001C0880F9A95EAF70E944A07802F9F
:104010000E944107C83070F6D77081E001C0880F58
:10402000DA95EAF70E945107C5CF80E28C0F8830FD
:1040300008F6C77081E001C0880FCA95EAF7F2CF91
:104040000F93DB0188519C4787309105A0F5FC0157
:10405000E450F54D0C94E42906E221EE41EE6AE1CC
:104060007CE7CD010E94BC1F80E00F91089507E21C
:1040700025EE45EE6BE17CE7F4CF06E221EE40EE63
:1040800068E17CE7EECF07E225EE44EE69E17CE7EC
:10409000E8CF06E221EE42EE6CE17CE7E2CF07E2F8
:1040A00025EE46EE6DE17CE7DCCF08E221E045EE4F
:1040B0006EE17CE7D6CF12968C91882319F010928E
:1040C0002702D3CF81E0D1CF1092B9008CE080934A
:1040D000B8000895B0E0A0E0E0E7F0E20C94042A14
:1040E000B82EEB010E9480226C01EE24E394F12CA7
:1040F000C431D10560F025E0E22EF12CCF3FDC0782
:1041000031F0CE0164E170E00E947B297B0184EAFA
:10411000A82E94E8992E1092BC00A092BC000E9498
:1041200080228C018091BC0087FF0DC08091B90076
:10413000887F8830F9F08091B900887F8031D1F094
:104140000FEF1FEF08C0C8010E949822E816F90679
:1041500048F70EEF1FEFCF3FDC07E9F2C6010E94E0
:104160009822C817D907B8F6C801CDB7DEB7EBE07B
:104170000C94202AB092BB009092BC000E94802236
:104180008C018091BC0087FF0AC08091B900887FB4
:10419000883111F08034A1F610E000E0E5CFC801CD
:1041A0000E949822E816F90660F7D3CF0F931F9369
:1041B000CF93DF93EB018093BB0084E88093BC0036
:1041C0000E9480228C018091BC0087FF11C0209149
:1041D000B900287F81E090E0283211F490E080E07F
:1041E000919581959109DF91CF911F910F9108953C
:1041F000CF3FDC0741F3C8010E949822C817D907B6
:1042000010F78EEF9FEFEFCFB0E0A0E0EAE0F1E231
:104210000C94072A6B018A017901B9010E946A2076
:10422000E6010C0D1D1DC017D10711F097FF08C046
:1042300024E92093BC00CDB7DEB7E8E00C94232A34
:10424000B70189910E94D620EECFB0E0A0E0EBE26A
:10425000F1E20C94072AC62F6A017901B8010E9485
:104260006A2097FD0CC0B8018C2F0E94D620E60171
:10427000EC0CFD1CCE15DF0511F097FF08C024E9FA
:104280002093BC00CDB7DEB7E8E00C94232AB80138
:1042900089910E94D620EECF84E98093BC000895D6
:1042A0009093590180935801089590932902809327
:1042B00028020895E0912802F0912902309729F010
:1042C0000190F081E02D0995089580E00895E09136
:1042D0002802F0912902309721F00280F381E02D2D
:1042E00009950895A3E0B0E0E8E7F1E20C940D2A07
:1042F000FC018091280290912902892B51F0818143
:10430000898383818A8380818B83CE0101960E9479
:104310001B242396E2E00C94292A9C012E5F3F4F38
:10432000AC01485F5F4F80E02417350709F408951A
:10433000F90191919F019923B9F38F5FF5CF66231E
:1043400049F0FC01329608962191261729F0E817CA
:10435000F907D1F780E0089581E008959C01FC0100
:1043600032969FEF80E04191461751F09F3F19F43C
:10437000411101C0982F8F5F8630A9F79F3F09F444
:104380000895290F311D97FD3A95F901628308952B
:10439000FC01329608962191261303C0DF01119784
:1043A0001C92E817F907B9F708950E94AE21089505
:1043B0000E94C8210895029626E0FC0111922A95D8
:1043C000E9F7089508950E94E2210895811106C039
:1043D00081E080932A020E94E321089582E0F9CFD0
:1043E00083E080932A020E94E32108950E94E6213F
:1043F000089581E080932A020E94E32108950E949B
:10440000F921089508950895CF930E9402220E94F1
:10441000BA130E940322C0E08C2F0E94EE12892B57
:1044200031F4CF5FC430C1F780E0CF91089581E0CF
:10443000FCCF85B7806885BF85B7806885BF089544
:104440001F921FB61F9211248F939F93AF93BF9318
:1044500080912B02811113C08091A3049091A40438
:10446000A091A504B091A6044196A11DB11D809311
:10447000A3049093A404A093A504B093A604BF91B1
:10448000AF919F918F911F901FBE1F9018958091A3
:10449000AB04843031F10E940C0610922B0288E1AB
:1044A00090E020E40FB6F894A895809360000FBECA
:1044B0002093600083B7817F846083BF83B781606E
:1044C00083BF7894889583B78E7F83BF0FB6F894A7
:1044D000A8958091600088618093600010926000D0
:1044E0000FBE08950E9495090E941506089582E066
:1044F00084BD93E095BD9AEF97BD80936E000895BB
:104500002FB7F8948091A3049091A404A091A504DE
:10451000B091A6042FBF08952FB7F8946091A3041B
:104520007091A4048091A5049091A6042FBF0895D2
:104530009C014FB7F8948091A3049091A404A0919A
:10454000A504B091A6044FBF821B930B08957894E5
:104550001F921FB61F9211248F939F93AF93BF9307
:104560008091A3049091A404A091A504B091A60405
:104570000196A11DB11D8093A3049093A404A09360
:10458000A504B093A604BF91AF919F918F911F9006
:104590001FBE1F90189587E797E7909301088093B7
:1045A000000888E19AE00FB6F894A895809360001F
:1045B0000FBE90936000FFCF88E19AE00FB6F894A9
:1045C000A895809360000FBE90936000FFCF80910C
:1045D00034020895089508959B01BA019091AB04A7
:1045E0009430E9F48F708093E9009FEF8091E800A8
:1045F000915085FD06C085ED8A95F1F70000911177
:10460000F5CF8091E80085FF0AC050E040E0C90185
:104610000E94DA248091E8008E778093E800089564
:10462000CF93DF93EC0148E050E0BC0181E00E94B1
:10463000EC2288E0FE01ACE2B2E001900D928A9596
:10464000E1F7DF91CF9108958091AA04811109C00B
:104650000E946A260E94C7268091E20084608093AF
:10466000E20008951092AA0408950E94F921089585
:104670006091A70481E0611101C080E00E94F021F7
:1046800008959091AB0481E0943009F080E060914E
:10469000A7040E94F621089542E061EC81E00E94A7
:1046A000E62542E061EC82E00E94E6259091AB04B1
:1046B00081E0943009F080E06091A7040E94E62137
:1046C00008958091AD04833009F461C030F48130E5
:1046D000D1F1823009F49EC008958A3009F48AC06D
:1046E0008B3009F46FC0893009F050C08091AC0460
:1046F000813209F04BC08091B0049091B104892BB4
:1047000009F044C08091E800877F8093E8008091A1
:10471000E80082FF37C09091F3008091F200029789
:1047200031F48091F100813011F0863021F48091D4
:10473000F100809334028091E8008B778093E80049
:104740000E941A2623C08091AC04813AF9F480912A
:10475000E800877F8093E8008091B0049091B104D5
:10476000892B61F468E08CE292E070E00E942925D8
:104770008091E8008B778093E800089560E090E0F6
:1047800080E0F3CF8091AB048111C1CF0895809177
:10479000AC04813AD9F78091B0049091B104892B8F
:1047A000A9F78091E800877F8093E8008091E80076
:1047B00080FFFCCF80912C018093F1008091E80074
:1047C0008E77BCCF8091AC04813201F78091B00428
:1047D0009091B104892BD1F68091E800877F809376
:1047E000E8000E941A268091AE0480932C010E945A
:1047F000950908958091AC04813241F68091E800DA
:10480000877F8093E8000E941A268091AF048093EE
:10481000350208958091AC04813A09F0B7CF8091B8
:10482000E800877F8093E8008091E80080FFFCCF5C
:1048300080913502C1CF43E050E0BC0182E00E948C
:10484000EC22089584B7877F84BF0FB6F894A895AB
:1048500080916000886180936000109260000FBEBC
:1048600080E890E00FB6F894809361009093610027
:104870000FBE0E94FF2108950E946A260E94C7264B
:10488000E2EEF0E080818460808378940E94462983
:10489000089584E291E00E94552108958091AB042F
:1048A000853031F48091AB04853019F00E9472227A
:1048B00008950E9447228091A904882399F30E94B9
:1048C0000422882379F30E94C4240E949509EACF28
:1048D00008950E946C240895292F33272330310531
:1048E00019F168F42130310509F444C02230310552
:1048F00009F445C090E080E030E020E025C021329E
:10490000310549F122323105A9F780E490E022EE29
:1049100038E061157105C1F080E390E022EB38E0EA
:104920006130710589F0E6CF99278130910581F0DA
:10493000009729F00297F1F6E9E3F8E002C0E1E61A
:10494000F8E0849190E09F01FA013183208308957B
:10495000E9E4F8E0F6CF89E090E027E738E0611578
:10496000710591F389E090E020E938E0613071054C
:1049700059F3C0CF82E190E020EA38E0E5CF8BE345
:1049800090E025E638E0E0CF80E189BD82E189BD95
:1049900009B400FEFDCF8091D8008F7D8093D800B0
:1049A0008091E00082608093E0008091E00081FDD2
:1049B000FCCF0895AF92BF92CF92DF92FF920F93F8
:1049C0001F93CF93DF936C01EB018A010E9439267C
:1049D000F82E811123C00115110539F0F8018081ED
:1049E0009181C81BD90BC80ED91EB12CA12C2097C0
:1049F000A9F08091E80085FD22C08091E8008E77C3
:104A00008093E80001151105A1F0F80180819181E2
:104A1000A80EB91EB182A08285E0F82E8F2DDF91FD
:104A2000CF911F910F91FF90DF90CF90BF90AF90EB
:104A300008950E9439268823D1F2F82EEFCFF6018F
:104A400081916F018093F1002197FFEFAF1ABF0AA8
:104A5000CECFFC018091B2049091B30486179707E2
:104A6000A0F06115710529F49091E8009E7790936C
:104A7000E80090E06115710551F4911108C0809132
:104A8000E80082FF34C080E00895BC01F2CF80913D
:104A9000AB048823C1F18530C1F18091E80083FD2A
:104AA00030C08091E80082FDEACF8091E80080FF6D
:104AB000E1CF8091F3002091F200382F611571054C
:104AC00019F02830310558F091E02830310509F00F
:104AD00090E02091E8002E772093E800CBCF8191E1
:104AE0008093F100615071092F5F3F4FE7CF8091B4
:104AF000AB04882341F0853041F08091E80083FFCA
:104B0000BECF81E0089582E0089583E00895FC011E
:104B10008091B2049091B30486179707A0F06115B5
:104B2000710529F48091E8008E778093E80090E089
:104B30006115710551F4911108C08091E80082FF60
:104B400035C080E00895BC01F2CF8091AB0488238A
:104B5000C9F18530C9F18091E80083FD31C08091B1
:104B6000E80082FDEACF8091E80080FFE1CF8091EC
:104B7000F3002091F200382F6115710519F02830EB
:104B8000310558F091E02830310509F090E080912E
:104B9000E8008E778093E800CBCF84918093F1007A
:104BA0003196615071092F5F3F4FE6CF8091AB0482
:104BB000882341F0853041F08091E80083FFBDCF2C
:104BC00081E0089582E0089583E00895982F97305A
:104BD00028F08F708093E90081E008959093E900B8
:104BE000242F762F50E0981731F07091EC0020912F
:104BF000ED005091F00021FD02C09F5FE8CF3091A1
:104C0000EB003E7F3093EB003091ED003D7F309321
:104C1000ED003091EB0031603093EB007093EC00CD
:104C20002093ED005093F0002091EE0027FDE5CF9A
:104C300080E008958091AC0487FF13C08091E80064
:104C400082FF06C08091E8008B778093E80004C063
:104C50008091AB048111F2CF08958091AB04882339
:104C6000D9F38091E80080FFF8CF8091E8008E773B
:104C7000ECCF2091E4003091E50095E6A901209168
:104C8000EC00822F817020FF06C08091E80080FF39
:104C900006C080E008952091E80022FD1AC08091AE
:104CA000AB04882389F0853089F08091EB0085FD85
:104CB0000FC02091E4003091E50042175307F9F24C
:104CC0009150E1F684E0089582E0089583E008952C
:104CD00081E008950E94D9260E94E126E0EEF0E0EE
:104CE000808181608083E8EDF0E080818F77808330
:104CF00019BCA7EDB0E08C918E7F8C9380818F7E64
:104D000080831092AA0408950F931F93CF93DF938B
:104D10000E94D9260E94E126C8EDD0E088818F77D5
:104D2000888388818068888388818F7D888319BC87
:104D30001092AB041092A7041092A9041092A80438
:104D400000EE10E0F80180818B7F80838881816094
:104D5000888342E060E080E00E94E625E1EEF0E03A
:104D600080818E7F8083E2EEF0E0808181608083AD
:104D7000808188608083F80180818E7F8083888134
:104D800080618883DF91CF911F910F910895E8EDA5
:104D9000F0E080818F7E8083E7EDF0E080818160AC
:104DA000808384E082BF81E08093AA040E948426ED
:104DB0000895E8EDF0E080818E7F80831092E2001C
:104DC00008951092DA001092E10008951F920F9258
:104DD0000FB60F9211242F933F934F935F936F93CE
:104DE0007F938F939F93AF93BF93EF93FF938091A4
:104DF000E10082FF0BC08091E20082FF07C080913A
:104E0000E1008B7F8093E1000E9445298091DA00C8
:104E100080FF19C08091D80080FF15C08091DA0012
:104E20008E7F8093DA008091D90080FF96C080E168
:104E300089BD82E189BD09B400FEFDCF81E0809388
:104E4000AB040E9424238091E10080FF19C080916F
:104E5000E20080FF15C08091E2008E7F8093E20027
:104E60008091E20080618093E2008091D8008062AE
:104E70008093D80019BC85E08093AB040E9438234E
:104E80008091E10084FF2BC08091E20084FF27C065
:104E900080E189BD82E189BD89B5982F917080FF3D
:104EA000FBCF8091D8008F7D8093D8008091E10066
:104EB0008F7E8093E1008091E2008F7E8093E200FC
:104EC0008091E20081608093E2008091A7048823B2
:104ED00009F449C084E08093AB040E94412380918F
:104EE000E10083FF29C08091E20083FF25C080910B
:104EF000E100877F8093E10082E08093AB04109211
:104F0000A7048091E1008E7F8093E1008091E20010
:104F10008E7F8093E2008091E20080618093E200C6
:104F200042E060E080E00E94E6258091F000886029
:104F30008093F0000E943523FF91EF91BF91AF91D4
:104F40009F918F917F916F915F914F913F912F91A1
:104F50000F900FBE0F901F90189519BC1092AB04C4
:104F60000E94322370CF8091E30087FD93E09093FD
:104F7000AB04B3CF1F920F920FB60F9211242F9351
:104F80003F934F935F936F937F938F939F93AF93D1
:104F9000BF93CF93DF93EF93FF93D091E900DF703E
:104FA0008091EC00C82FC17080FDC0E81092E9002C
:104FB0008091F000877F8093F00078940E94FE2714
:104FC0001092E9008091F00088608093F000CD2B72
:104FD000CF70C093E900FF91EF91DF91CF91BF9126
:104FE000AF919F918F917F916F915F914F913F9181
:104FF0002F910F900FBE0F901F901895AAE2B0E06E
:10500000E4E0F8E20C940C2A8CEA94E02091F100A0
:10501000FC012193CF01F4E0843B9F07B9F70E9484
:1050200061238091E80083FF1EC18091AC049091C0
:10503000AD049A3008F017C1E92FF0E0ED5FF44DB0
:105040000C94E429803899F0823809F00CC18091E1
:10505000B0048F70873008F006C18093E90080911A
:10506000EB0085FB882780F91092E90006C080914B
:10507000A8049091A904911182609091E800977F13
:105080009093E8008093F1001092F1008091E80085
:105090008E77E5C0882309F4D3C0823009F0E3C0DD
:1050A0008091AE048111D6C08091B0048F702FEF33
:1050B000280F263008F0D7C08093E9002091EB003C
:1050C00020FFC8C0933031F48091EB008062809360
:1050D000EB00C0C09091EB0090619093EB0021E059
:1050E00030E001C0220F8A95EAF72093EA0010927F
:1050F000EA008091EB008860EACF8111B4C0109182
:10510000AE041F778091E3008078812B8093E300C9
:105110008091E800877F8093E8000E941A268091A2
:10512000E80080FFFCCF8091E30080688093E3007B
:1051300082E0111183E08093AB0495C080588230E7
:1051400008F091C08091AE049091AF048C3D23E0B3
:105150009207A1F583E08A838AE289834FB7F894A6
:10516000DE01139620E03EE051E2E32FF0E05093A1
:105170005700E49120FF03C0E295EF703F5FEF70AE
:105180008E2F90E0EA30C0F0C7968D939D932F5FED
:10519000243159F74FBF8091E800877F8093E80062
:1051A0006AE270E0CE0101960E9429258091E80014
:1051B0008B778093E80057C0C096E7CF6091B0042A
:1051C0007091B104AE014F5F5F4F0E946924BC0132
:1051D000892B09F448C09091E800977F9093E800EC
:1051E00089819A810E948725E1CF8038E1F58091FD
:1051F000E800877F8093E8008091A7048093F10006
:1052000045CF811130C09091AE04923060F580910D
:10521000E800877F8093E8009093A7040E941A26F5
:105220008091A704882311F084E005C08091E300F9
:1052300087FDFACF81E08093AB040E944C2313C01A
:105240008091AE04813079F481E0933009F080E000
:105250008093A9041092E9008091E800877F8093F1
:10526000E8000E941A268091E80083FF0AC080911E
:10527000E800877F8093E8008091EB008062809354
:10528000EB00AA96E3E00C94282A0895CF9380912E
:10529000AB048823A1F0C091E900CF709091EC009D
:1052A000892F817090FD80E8C82B1092E9008091D1
:1052B000E80083FD0E94FE27CF70C093E900CF91E4
:1052C0000895991B79E004C0991F961708F0961B62
:1052D000881F7A95C9F78095089587FB082E0626C2
:1052E00087FD819567FD61950E9461290EF4919576
:1052F00007FC81950895AA1BBB1B51E107C0AA1F9B
:10530000BB1FA617B70710F0A61BB70B881F991F66
:105310005A95A9F780959095BC01CD01089597FB0A
:10532000072E16F4009407D077FD09D00E947B2940
:1053300007FC05D03EF4909581959F4F0895709598
:1053400061957F4F0895A1E21A2EAA1BBB1BFD0198
:105350000DC0AA1FBB1FEE1FFF1FA217B307E40754
:10536000F50720F0A21BB30BE40BF50B661F771FAC
:10537000881F991F1A9469F760957095809590958C
:105380009B01AC01BD01CF010895052E97FB1EF4D2
:1053900000940E94DC2957FD07D00E94A32907FC36
:1053A00003D04EF40C94DC2950954095309521950E
:1053B0003F4F4F4F5F4F0895909580957095619541
:1053C0007F4F8F4F9F4F0895EE0FFF1F0590F49171
:1053D000E02D09940E94342AA59F900DB49F900D52
:1053E000A49F800D911D11240895B7FF0C94EA2904
:1053F0000E94EA29821B930B08952F923F924F92AD
:105400005F926F927F928F929F92AF92BF92CF9254
:10541000DF92EF92FF920F931F93CF93DF93CDB75D
:10542000DEB7CA1BDB0B0FB6F894DEBF0FBECDBFD5
:1054300009942A88398848885F846E847D848C84A6
:105440009B84AA84B984C884DF80EE80FD800C81AF
:105450001B81AA81B981CE0FD11D0FB6F894DEBF92
:105460000FBECDBFED010895A29FB001B39FC00153
:10547000A39F700D811D1124911DB29F700D811D80
:105480001124911D0895FB01DC0102C005900D92CD
:1054900041505040D8F70895FC014150504030F041
:1054A00001900616D1F73197CF01089588279927E3
:1054B0000895FB01DC0104C08D910190801921F455
:1054C00041505040C8F7881B990B0895FB01DC013F
:1054D00002C001900D9241505040D8F70895F999BB
:1054E000FECF92BD81BDF89A992780B50895A6E1B7
:1054F000B0E044E050E00C94A92AA8E1B0E042E01A
:1055000050E00C94A92A262FF999FECF92BD81BDB7
:10551000F89A019700B4021639F01FBA20BD0FB6F1
:10552000F894FA9AF99A0FBE08950396272F0E94CD
:10553000842A0E94832A252F0E94842A242F0C94D7
:10554000842A0196272F0E94842A0C94832ADC0146
:10555000CB01FC01F999FECF06C0F2BDE1BDF89A7E
:10556000319600B40D9241505040B8F70895F89428
:10557000FFCF93079307C407C407F307F307F307A5
:10558000F3075608E208F108F108BD19C419CB1950
:10559000D019D519DA19DF19E419E919EE19F31937
:1055A000F819BF19FC19011A041A071ABF19BF19F3
:1055B0000A1ABF19331DA71D3B1D051D091D3F1DDF
:1055C0000D1D431D4F1D191DA01D1D1D531D211D0A
:1055D000571D7F1D251D5B1D861D2B1D611D691D12
:1055E000111D471D151D4B1D2F1D651D751D8F1D83
:1055F0009E1DFF1C371DAE1D3D2043202C20372053
:1056000049204F20552022284A2833294A28332967
:0A5610007D289E283329F528012982
:10561A00FFFFFF0000FF030000FFFFFF0000FF0382
:10562A000000C3010102001C001C1C010021007FB4
:10563A0022000340E7221023EB22EA220194F6F724
:10564A0031333236669297C63435000102020205BA
:10565A0005050505050B0B0B0B0B0B11111114009E
:08566A000810181810080000D8
:00000001FF
