:100000000C94F0040C9437050C9437050C943705C8
:100010000C9437050C9437050C9437050C94370570
:100020000C9437050C9437050C944D270C9421281B
:100030000C9499220C9437050C9437050C943705D1
:100040000C9437050C9437050C9437050C94370540
:100050000C9437050C94F0220C9437050C9437055A
:100060000C9437050C9437050C9437050C94370520
:100070000C9437050C9437050C9437050C94370510
:100080000C9437050C9437050C9437050C94370500
:100090000C9437050C9437050C9437050C943705F0
:1000A0000C9437050C9437050C943705556E646530
:1000B00066696E656400524742204C4544205445B1
:1000C00053540A004B455920544553540A004C617F
:1000D0007965723A200014001A0008001500170014
:1000E000000004001600070009000A0000001D00BF
:1000F0001B00060019000500000011501E001F0023
:1001000020002100105DC35CC65CC75CC85CC95C94
:100110000000C45C295DCA5CCB5C000000000000EC
:10012000000000000000000000001050000000006F
:1001300000000000105D8081828384858687888925
:100140008A8B8C8D8E8F9091929394A0A1A2A3A460
:10015000A5A6A7A8A9AAABACADAEAFB0B1B2B3B4D7
:10016000C0C1C2C3C4C5C6C7C8C9CACBCCCDCECF17
:10017000D0D1D2D3D40000047F3F1F643214643244
:1001800014783C1E1E140A052223252628292A2C11
:100190002D2F3032333536383A3B3D3E40424345D1
:1001A00047494A4C4E5051535557595A5C5E60620C
:1001B000646668696B6D6F71737577797B7D7F811C
:1001C000838587898A8C8E90929496989A9C9E9F1C
:1001D000A1A3A5A7A8AAACAEAFB1B3B4B6B8B9BB3A
:1001E000BCBEBFC1C2C3C5C6C7C9CACBCCCDCED0A9
:1001F000D1D2D2D3D4D5D6D7D7D8D9D9DADADBDB96
:10020000DBDCDCDCDCDCDDDDDDDDDCDCDCDCDCDB2C
:10021000DBDBDADAD9D9D8D7D7D6D5D4D3D2D2D175
:10022000D0CECDCCCBCAC9C7C6C5C3C2C1BFBEBC68
:10023000BBB9B8B6B4B3B1AFAEACAAA8A7A5A3A1D9
:100240009F9E9C9A98969492908E8C8A898785839B
:10025000817F7D7B79777573716F6D6B696866647B
:1002600062605E5C5A5957555351504E4C4A49474B
:10027000454342403E3D3B3A3836353332302F2DF0
:100280002C2A292826252322FFAA7F554000010178
:100290000101010101010102020202020202020245
:1002A0000303030303030303040404040404040515
:1002B00005050505060606060607070707070808D9
:1002C0000808090909090A0A0A0B0B0B0C0C0C0D8A
:1002D0000D0D0E0E0E0F0F0F101011111112121323
:1002E000131414151516161717181819191A1A1B9E
:1002F0001B1C1D1D1E1E1F202021222223242425FD
:100300002626272829292A2B2C2D2D2E2F30313235
:1003100032333435363738393A3B3C3D3E3F404145
:1003200042434445464748494A4C4D4E4F5051532D
:1003300054555658595A5B5D5E5F616264656668E4
:10034000696B6C6D6F7072737577787A7B7D7E8068
:1003500082838587888A8C8E8F91939596989A9CB4
:100360009EA0A2A3A5A7A9ABADAFB1B3B5B7BABCC8
:10037000BEC0C2C4C6C9CBCDCFD1D4D6D8DBDDDF99
:10038000E2E4E7E9EBEEF0F3F5F8FAFDFF00AE008A
:10039000AF00DA0281FFD9F1DB20A4A62EAF00A0C6
:1003A000C000A1C800AED580A81FD300408D142086
:1003B000000000000000003E5B4F5B3E003E6B4FC4
:1003C0006B3E001C3E7C3E1C00183C7E3C18001C12
:1003D000577D571C001C5E7F5E1C0000183C1800F7
:1003E00000FFE7C3E7FF00001824180000FFE7DB69
:1003F000E7FF0030483A060E0026297929260040FA
:100400007F05050700407F05253F005A3CE73C5A21
:10041000007F3E1C1C0800081C1C3E7F0014227F2D
:100420002214005F5F005F5F0006097F017F00000C
:100430006689956A0060606060600094A2FFA29483
:100440000008047E04080010207E20100008082AFE
:100450001C0800081C2A0808001E10101010000CB0
:100460001E0C1E0C0030383E383000060E3E0E06C4
:100470000000000000000000005F00000000070016
:10048000070000147F147F1400242A7F2A120023FF
:100490001308646200364956205000000807030024
:1004A00000001C224100000041221C00002A1C7F89
:1004B0001C2A0008083E0808000080703000000870
:1004C000080808080000006060000020100804020E
:1004D000003E5149453E0000427F400000724949BC
:1004E0004946002141494D33001814127F1000275E
:1004F00045454539003C4A49493100412111090728
:1005000000364949493600464949291E0000001471
:1005100000000000403400000000081422410014D4
:100520001414141400004122140800020159090691
:10053000003E415D594E007C1211127C007F4949FA
:100540004936003E41414122007F4141413E007F0A
:1005500049494941007F09090901003E4141517360
:10056000007F0808087F0000417F410000204041D3
:100570003F01007F08142241007F40404040007F3F
:10058000021C027F007F0408107F003E4141413E73
:10059000007F09090906003E4151215E007F0919CB
:1005A00029460026494949320003017F0103003FE3
:1005B0004040403F001F2040201F003F4038403F48
:1005C00000631408146300030478040300615949AC
:1005D0004D4300007F41414100020408102000000B
:1005E0004141417F0004020102040040404040407C
:1005F000000003070800002054547840007F28447E
:10060000443800384444442800384444287F0038A3
:10061000545454180000087E09020018A4A49C78C1
:10062000007F080404780000447D40000020404022
:100630003D00007F102844000000417F4000007C06
:1006400004780478007C0804047800384444443872
:1006500000FC182424180018242418FC007C08042A
:1006600004080048545454240004043F4424003C2B
:100670004040207C001C2040201C003C4030403C7E
:10068000004428102844004C9090907C004464540E
:100690004C440000083641000000007700000000D4
:1006A00041360800000201020402003C2623263CD9
:1006B00000000000C0E0E0E0C08000007CFEFFFF22
:1006C000FE7C0000C0E0F0F0E0C00000FEFEFEFE98
:1006D000FEFE0000000000FEFEFEFEFEFE0000FE2C
:1006E000FEFEFEFE0000FEFEFEFEFE1E1EFEFEFCE8
:1006F000F80000707078F8FCFEFEFEFE00000000BE
:10070000E0F8FE7EFEFEFEFEFE000000000000801F
:100710008080800000000080808080000000000059
:10072000000000000000000000000000000000E0E9
:10073000F0F0F0E0ECEEF7F37020007C7C7C7E00C3
:100740007E7E7E7F7F7F000080C0E07E5B4F5BFE11
:10075000C00000C000DCD7DEDEDED7DC00C0000059
:100760000000000000000000000000000000000089
:100770000080C0C0C3C7CF8F0F0F07E0F0F8F9F9B2
:10078000F8F0E0E0C7CF8F0F07030000FFFFFFFF87
:10079000FFFF0000000000FFFFFFFFFFFF3E3EFFE6
:1007A000FFFFFFFF0000FFFFFFFFFF3C3C3F3F1F3D
:1007B0000F0000000000FFFFFFFFFFFF0080F8FFB9
:1007C000FFFF8780FFFFFFFFFF808000000000FF2A
:1007D000FFFFFF00000000FDFDFDFD001CFFFFFF0F
:1007E000FF1C00FCFEFEFE8E8EFEFEFC0000000FD5
:1007F0001F3F7F7F7F7F7F3F1E0C001F1F1F3F001B
:100800003F3F3F7F7F7F00307B7F783020203078F4
:100810007F3B0003000F7F0F0F0F7F0F00030000CF
:1008200000000000000000000000000000000000C8
:100830000003070F0F0F0F0703007FFFFFFFFFFFEE
:10084000FF7F3F3F3F1F1F07000000007F7F7F7F2C
:100850007F7F78787878007F7F7F7F7F7F00007F41
:100860007F7F7F7F00007F7F7F7F7F000000000011
:100870000000000000007F7F7F7F7F7F0007070769
:10088000070707077F7F7F7F7F0707000000007F44
:100890007F7F7F707070007F7F7F7F00003F7F7F52
:1008A0007F70003F7F7F7F70707C7C3C0000000089
:1008B0000000000000000000000000000000000038
:1008C0000000000000000000000000000000000028
:1008D0000000000000000000000000000000000018
:1008E0000000000000000000000000000000000008
:1008F0000014034C0048005000310034004C0069E3
:100900000074006500000016034E0065006F00547F
:1009100000720069006E0069007400790000000434
:1009200003090409023B00020100A0FA09040000C7
:100930000103010100092111010001224000070506
:10094000810308000A0904010001030000000921D5
:10095000110100012230000705820308000A12017C
:1009600010010000000814FF07000100010200014F
:1009700005010904A101A100050109300931158112
:10098000257F9502750881020509190129011500C5
:100990002501950175018102950775018101C0C08E
:1009A00005010906A101050719E029E71500250140
:1009B00095087501810295017508810105071900E7
:1009C00029FF150026FF0095067508810005081906
:1009D000012905950575019102950175039101C0E5
:1009E00011241FBECFEFDAE0DEBFCDBF04B603FE99
:1009F00027C08091840490918504A0918604B091D1
:100A000087048730904BA740B04BD1F410928404F8
:100A100010928504109286041092870414BE84B745
:100A2000877F84BF0FB6F894A89580916000886195
:100A300080936000109260000FBEE0E0F8E309953B
:100A400011E0A0E0B1E0EEE2F6E502C005900D9203
:100A5000A036B107D9F724E0A0E6B1E001C01D92AD
:100A6000A438B207E1F70E9487240C94D92A0C9489
:100A70000000873901F178F48633F9F030F48433DB
:100A8000F1F08533F1F08FE108958439E1F0863992
:100A9000D1F781E20895843FC1F030F4803FB9F08E
:100AA000813F89F781E00895863F99F0A0F0873F64
:100AB00051F787E0089582E2089585E2089583E280
:100AC000089584E2089580E2089584E0089580E026
:100AD000089586E0089585E0089596E890937A0059
:100AE000982F9072906890937B008F719091000185
:100AF000892B80937C0080917A00806480937A00B7
:100B000080917A0086FDFCCF809178002091790059
:100B100090917A009F7790937A00922F08950E9487
:100B200039050C946D0582E0089560E080E00E9434
:100B3000921160E086E391E00C94751289329D4534
:100B400041F4FB018281882321F00E94E60A0E9481
:100B5000750F81E0089563E080E00E94921160E0EB
:100B60008EEC90E00E947512609105027091060271
:100B700080910702909108020E94B106882339F003
:100B8000813079F060E08CEA90E00C94871260E0AC
:100B900084EC90E00E94751244EB6FEF80E00C94BF
:100BA000CF0C60E086EB90E00C9475120E949505E6
:100BB0000C94AB050C949A1384E90E948F0597FD61
:100BC000039695958795959587959195819591092A
:100BD00080589F4F9093A6018093A50184EF0E94B7
:100BE0008F0597FD039695958795959587958058E0
:100BF00091099093A8018093A70184EA91E00C9455
:100C00007F2381E008950C949E0508950C940506B9
:100C10001F93CF93DF9300D000D00F92CDB7DEB7F4
:100C200049835A836B833091BD0189819A81311147
:100C30001DC06623B9F02223A9F00E940020182FBE
:100C4000682F89819A810E94A91F69817A81812FE9
:100C50000F900F900F900F900F90DF91CF911F91F9
:100C60000C9411070E94D71F182FEFCF0E9400206D
:100C700069817A81EDCFFC01262F4081518162810B
:100C8000738184810C940806CF93DF93EC0160E0BC
:100C90000E943B06BE01DF91CF910C9406060E9494
:100CA0004621811102C00E94EA210C94FB080C9499
:100CB000FE0808950E94131B0E9459062FEF84E33B
:100CC0009CE0215080409040E1F700C000000C946F
:100CD00014230F931F93CF93DF93EC0161E00E94E5
:100CE0003B068C01BE010E940306882389F1BE01E8
:100CF000C8010E942E14882359F1BE01C8010E9428
:100D00008014882329F1BE01C8010E94A3158823FD
:100D1000F9F0BE01C8010E9479108823C9F0BE0114
:100D2000C8010E94F515882399F08A81882339F03B
:100D300001158CE5180751F00F3D1C4579F0CE01E7
:100D4000DF91CF911F910F910C9401060E945A06DA
:100D500080E0DF91CF911F910F9108950E94EA21C9
:100D6000F7CFCF92DF92EF92FF926C01EE24FF2437
:100D700020E0C114D104E104F10419F0C701B60167
:100D800020E1C72ED82EE92EFF24C114D104E1049E
:100D9000F10419F0285FC701B6016B017C0154E032
:100DA000F694E794D794C7945A95D1F7C114D10417
:100DB000E104F10419F02C5FC701B6016B017C015D
:100DC00042E0F694E794D794C7944A95D1F7C114BA
:100DD000D104E104F10419F02E5FC701B601969524
:100DE000879577956795672B682B692B09F02F5F9F
:100DF000822FFF90EF90DF90CF90089508950C948C
:100E0000FE0681E008950C940107CF93C82F0E943D
:100E1000FF068C2FCF910C94030790E080E008959B
:100E20000895972F70E026E0929F600D711D1124A8
:100E3000FB0198E1899FE00DF11D1124EE0FFF1FCA
:100E4000EA52FF4F859194910895FC01EE0FFF1F28
:100E5000EA58FE4F859194910895CF93DF930E94B5
:100E600011070E942008EC01811521E59207D0F5B9
:100E7000811530E5930708F096C081159042F8F48B
:100E8000C11581E0D807B8F4C03ED10588F4C03C54
:100E9000D10508F07BC0C130D10569F0209759F029
:100EA000CE010497813A910530F0D0E0C0E003C054
:100EB000C83ED105D0F7CE01DF91CF910895C1157D
:100EC00090E4D90708F06CC0CE019F70C11520E3F3
:100ED000D20708F45EC0CE019927D3FF5EC0EC01B3
:100EE000D86CE9CF811535E5930700F5811544E508
:100EF000940708F08DC0C11583E5D80708F074C0C9
:100F0000C11592E5D90708F46AC0CE01837099270C
:100F100021E030E002C0220F331F8A95E2F7C69528
:100F2000C69580E2C89FE001112455C0811529E5CE
:100F30009207A0F4811538E5930708F06EC081157B
:100F400046E5940708F0B1CF0E94B708C82FD0E05B
:100F5000DC2FCC27CC27DF71D062ADCFC1158AE55D
:100F6000D80708F45FC0CE0190568115904208F072
:100F70009CCF8D2F8F710E94B70890E0982F882703
:100F800088279F719C012C2BE901E6CFCE01805C64
:100F900091090E942507EC018ECFEC01D06C8BCF1C
:100FA000DF70D06A88CFE4E096958795EA95E1F7FF
:100FB00083702C2F26952695237040E2249F900164
:100FC0001124382B8C2F8370C1E0D0E002C0CC0FED
:100FD000DD1F8A95E2F7C22BD32BDC686CCFDC2FA8
:100FE000CC27C16FD06A67CFCE018370992721E0EB
:100FF00030E002C0220F331F8A95E2F7C695C695EE
:1010000090E2C99FE0011124C22BD32BDA6853CFA1
:10101000D82FCC27C46FD06A4ECFD82FCC27C06F23
:10102000D06A49CF8C2F8F700E94B70834E0D695D4
:10103000C7953A95E1F7CF709C2FEC01D0693BCF73
:1010400082389105B1F1B0F48133910509F475C08E
:1010500048F48932910509F469C08A32910509F48E
:1010600073C008958533910509F459C089339105FA
:1010700001F10895833E9105A9F138F4803E910570
:10108000F9F0823E910549F10895863E9105A9F156
:10109000873E9105C9F1843E910519F520917604AA
:1010A00021FF1FC08091750484FD14C087EE90E07D
:1010B0000895209175042370A1F080EE90E00895CA
:1010C0002091750420FD47C03091760430FF09C09F
:1010D00024FF44C090E080E004C02091750422FD0C
:1010E000F7CF08952091750422FD3BC0309176041E
:1010F00030FDE3CF24FFF5CFEDCF2091750423FF22
:10110000F0CF24FDE7CFD2CF2091750423FD2CC072
:101110003091760431FFEECF84EE90E00895209177
:10112000750425FFDECF89E290E0089520917504D3
:1011300025FFD7CF85E390E008952091750426FF21
:10114000D0CF8AE290E008952091750426FFC9CFA0
:1011500081E390E0089589E390E0089583EE90E0C4
:10116000089582EE90E0089586EE90E008959091C3
:10117000750492FF06C0282F28712830F9F4877F64
:10118000846093FF06C0282F28712831F1F4877EF0
:1011900084612091760420FF06C0382F38713830E2
:1011A000D9F4877F816021FF06C0282F287128315C
:1011B000D1F4877E816194FD877E0895282F247164
:1011C0002430F9F68B7F8860DCCF282F24712431FE
:1011D00001F78B7E8861DDCF382F3171313019F7FF
:1011E0008E7F8860E0CF282F2171213121F78E7EFC
:1011F0008861E1CF08950C94FA0808950C94FD08D5
:10120000E82FF0E0E65DFD4F80810895089580EAC3
:101210008A95F1F7089500C008950C940709F89491
:10122000E82FE295EF70F0E031A1282F2F7081E0D8
:1012300090E001C0880F2A95EAF7982F90959323A4
:1012400091A392A1892B82A37894089586E60E94A7
:101250000F0987E90E940F0986EC0E940F0984E3B9
:101260000E940F0985EF0E940F0986EF0E940F0967
:1012700087EF0E940F0981E30E940F0983E30E9418
:101280000F0982E30E940F09A6E2B2E01C92EAE293
:10129000F2E0108211961C921197118212961C9204
:1012A0001297128213961C92138284E00E94D50931
:1012B0000C944F06BF92CF92DF92EF92FF920F9362
:1012C0001F93CF93DF930EE211E0C6E2D2E0C12C70
:1012D000D12CEE24E394F12CF80181918F01F89444
:1012E000E82FE295EF70F0E021A18F70A70102C016
:1012F000440F551F8A95E2F7CA01922F982B91A3AC
:1013000092A18095892382A378940E940B09E8E238
:10131000F1E030E020E0B12C4191A42FA295AF7014
:10132000B0E090968C9190E04F7002C095958795B3
:101330004A95E2F780FD35C08E2D022E01C0880F40
:101340000A94EAF7B82A2F5F3F4F2630310521F77C
:10135000F801319780810E940F0953E0C5120E9465
:101360000D098881B816F9F0B88281E0D82AC394B3
:10137000219684E0C812B0CF2D2D44E06AE272E0DD
:1013800086E292E00E94D6090E9457068D2DDF91D9
:10139000CF911F910F91FF90EF90DF90CF90BF9072
:1013A000089580E0CFCF80E0E1CF0895FF920F93C2
:1013B0001F93CF93DF93F82E092F162FD72FC42F0B
:1013C000222349F081E0809364010E94C922909316
:1013D000630180936201809164018823A1F0809170
:1013E0006201909163010E94E122069760F0EF2D67
:1013F000F02FA12FBD2FCE0FDF2FD11DEC17FD0732
:1014000041F410926401DF91CF911F910F91FF90F1
:10141000089581918D93F2CFEF92FF920F931F93D6
:10142000CF93DF93EB01E82FD11110C0442321F0BB
:10143000F0E0E357FD4FE4916E2F7E2F8E2FDF916A
:10144000CF911F910F91FF90EF9008950D2F10E015
:10145000282F30E0442329F023573D4FF9012491F0
:1014600030E0F6E0CF9FC0011124EFEFF0E0BF01C4
:101470000E94ED29AB018C2F90E0880F991FA5E504
:10148000A49FB001A59F700D1124861B970B982F68
:10149000990F980FBF01601B710B629FD001639F72
:1014A000B00D729FB00D11248B2F9D9FB0011124A0
:1014B000672F7727EF01C61BD70BBE01629FE001A4
:1014C000639FD00D729FD00D11247F01E91AF1089E
:1014D000E09EB001E19E700DF09E700D1124672F0B
:1014E0007727E61BF70BE29F8001E39F100DF29F29
:1014F000100D1124E12F722F4230510599F048F45C
:101500004115510569F04130510581F0EB2F8D2FC8
:1015100007C04430510569F080F046305105B1F7FD
:101520006E2F8DCFE22F7B2F812FFACFE22F7D2FD1
:10153000F7CFEB2F822F712FF3CF7B2F822FED2F41
:10154000EFCF41E00C940C0A08950C94A10ACF93BC
:10155000DF93762FE901682F842F0E94A50A7983F3
:1015600068838A83DF91CF910895493708F048E76F
:101570000C94A70A80912E02982F9E7F61F48170AF
:10158000826080932E0280913102893718F088E7BB
:101590008093310208958A34B0F381708864F1CF6A
:1015A00088E090E00C94992ACF92DF92EF92FF921C
:1015B0006B017C010E94BA0AB701A60188E090E0A5
:1015C000FF90EF90DF90CF900C94B72AEEE2F2E01C
:1015D00083E0808311828FEF828388E78383148284
:1015E00060817181828193810C94D40A80912E0252
:1015F00080FF02C08695089580E0089590913202A0
:10160000933018F49F5F90933202882351F06091D9
:101610002E0270912F0280913002909131020C9431
:10162000D40A089581E00C94FE0A90913202992325
:1016300019F0915090933202882351F060912E025C
:1016400070912F0280913002909131020C94D40A53
:10165000089581E00C94150B70E00C94E9106091F2
:10166000050180912E0280FF0AC08091040123E0D1
:10167000829FC00111248D5C9D4F0C942C0B809196
:1016800006019091070123E0829FF0011124ED5C97
:10169000FD4F891750F71182108212828F5F3396A7
:1016A000F8CF90912E0290FF14C0909106012091E6
:1016B000070133E0939FF0011124ED5CFD4F921779
:1016C00010F00C942F0B8183608342839F5F3396CD
:1016D000F6CF0895CF93DF9300D00F92CDB7DEB74A
:1016E00090912E0290FF0AC09E012F5F3F4F0E94F3
:1016F000B50A4B8169818A810E94510B0F900F902E
:101700000F90DF91CF910895CF93DF93EC01EC819F
:10171000F0E0E857FE4F4491EEE2F2E06281818111
:101720000E946A0B8C818F5F8C83DF91CF9108952B
:10173000CF93DF93EC01EEE2F2E0438162818C8192
:101740000E946A0B8C818F5F8C83DF91CF9108950B
:101750000F931F93CF93DF9300D00F92CDB7DEB7D7
:101760008C018091650181110AC09E012F5F3F4F5E
:1017700048E76FEF0E94B50A8A8180936501F801FE
:101780006481613069F08091650140E0662361F019
:1017900040E0623011F44091650180E060E004C0F7
:1017A0006091650140E080E00E94510BF801848166
:1017B00090E0019663E070E00E94012A84830F901C
:1017C0000F900F90DF91CF911F910F910895AF92DD
:1017D000BF92CF92DF92EF92FF920F931F93CF931E
:1017E000DF9300D00F92CDB7DEB7182FF62E042F5F
:1017F000E22E90912E0290FF29C0E92FE695AE2FA0
:10180000B0E0AE5CBE4F8C91809371019E7F9230B0
:1018100059F59E012F5F3F4F812F0E94B50A4B81E2
:1018200069818A810E94510B10932F02F09230023D
:1018300000933102EE2051F060912E0270912F0240
:1018400080913002909131020E94D40A0F900F9043
:101850000F90DF91CF911F910F91FF90EF90DF904C
:10186000CF90BF90AF900895823019F4009131026B
:10187000DBCF863019F410912F02D6CF8930D9F3FF
:10188000893191F6E9518E2F8170D82EE695F0E0DE
:10189000E857FD4FA590B490C12CBB24609108017E
:1018A000C61618F00E942F0BBFCF2C2D30E0A29E41
:1018B000C001A39E900DB29E900D112470E00E9475
:1018C000ED29812FD11013C0860F40910601420FE0
:1018D000532F511D9A01220F331F240F351F2D5CEA
:1018E0003D4F402F6F2D0E94B50AC394D7CF861B62
:1018F000ECCFEEE2F2E09181282F4381628188E013
:10190000890F0C94E70B81E00C94790CEEE2F2E085
:101910009181282F4381628188EF890F0C94E70B16
:1019200081E00C94860CEEE2F2E0628128E0620F26
:1019300008F46FEF282F438181810C94E70B81E03D
:101940000C94930CEEE2F2E0628128E0621B08F452
:1019500060E0282F438181810C94E70B81E00C9497
:10196000A20CEEE2F2E0438128E0420F08F44FEFD0
:10197000282F628181810C94E70B81E00C94B10CDB
:10198000EEE2F2E0438128E0421B08F440E0282F19
:10199000628181810C94E70B81E00C94C00C21E002
:1019A0000C94E70B20E00C94E70BEF92FF921F934F
:1019B000CF93DF93EC0110E0EE24EA94F12C6091D8
:1019C0000801161770F00E942F0B9A818C8190FFEE
:1019D00027C08F5F8C83DF91CF911F91FF90EF9095
:1019E000089520910601422F410F5527551FCA0126
:1019F0009A01220F331F280F391F2D5C3D4F70E0D5
:101A0000C7010E94012A962F8C814091310260917A
:101A10003002199F800D11240E94B50A1F5FCFCF9D
:101A20008150D8CFAF92BF92CF92DF92EF92FF92C8
:101A30000F931F93CF93DF93FC0182810FEF80FF01
:101A400001E010E044E1A42E809108011817C8F0CD
:101A50000E942F0B80916701013009F055C0811160
:101A600002C080910801815080936701DF91CF917E
:101A70001F910F91FF90EF90DF90CF90BF90AF90AC
:101A80000895C0910601C12ED12CCC0DDD2DD11DA4
:101A9000CE01880F991FC80FD91FCD5CDD4F198269
:101AA00018821A8234E0E32EF12CB12C8091670168
:101AB0008B0D85311CF16A2D0E94DF29892F082E9C
:101AC000000C990BC816D90691F4809131028E9DB5
:101AD000A0018F9D500D112455954795559547951B
:101AE0009E016091300280912F020E94B50AB00ED3
:101AF000F1E0EF1AF108D1F61F5FA6CF87FFDFCF25
:101B000090910801890FDBCF90E001966091080168
:101B100070E00E94012AA8CF0F931F93CF93DF9309
:101B2000809106019091070123E0829FF00111242A
:101B3000ED5CFD4F891740F1C0E0D3E060910801F2
:101B4000C61740F10E942F0B20910201809166017F
:101B5000820F8093660190910301920F909303018D
:101B6000191654F4082E000C990B409108014150AD
:101B7000550B841795071CF0219520930201DF91E6
:101B8000CF911F910F9108951182108212828F5F61
:101B90003396D0CF0C2F10E070E0C8010E94012ACC
:101BA00020910601820F482F50E020916601022EFD
:101BB000000C330B02171307BCF020910301022E17
:101BC000000C330B201731077CF08D9F90011124FE
:101BD0002D5C3D4F409131026091300280912F0287
:101BE0000E94B50ACF5FAACFFA01EE0FFF1FE40FE4
:101BF000F51FED5CFD4F118210821282F3CF8F92A0
:101C00009F92AF92BF92CF92DF92EF92FF920F938B
:101C10001F93CF93DF93EC014C81042F10E09801C8
:101C2000D8010E94452A9B01AC010E945B2A4B010E
:101C30005C01E0E2F0E0E01BF10BA5E5B0E0AC01F7
:101C40009B010E945B2A6B017C019F01DF010E94C6
:101C50003D2A9B01AC010E94662A9B01AC01280D24
:101C6000391D4A1D5B1DC701B6010E94152AF22EBF
:101C7000822F90E039E23F1560F143E0249F90010C
:101C8000112435952795122F109500E085E5E82E53
:101C9000EF1880910801081758F10E942F0B9C81C2
:101CA00081E0992319F0903219F48FEF80930101AC
:101CB00080910101890F8C83DF91CF911F910F914A
:101CC000FF90EF90DF90CF90BF90AF909F908F905C
:101CD000089525E530E0B901681B790B9B01220FBF
:101CE000331F260F371F37FFCCCF2F5F3F4FC9CF92
:101CF0008E2D01FD8F2D20910601622F600F772719
:101D0000771F9B01220F331F260F371F2D5C3D4F7E
:101D1000412F609130020E94B50A0F5FBACF0F9336
:101D20001F93CF93DF93EC0110E000E09091080146
:101D30009017110609F06CF40E942F0B8C8190E033
:101D40000196817099278C83DF91CF911F910F911C
:101D5000089520910601A801420F511D9A01220FFA
:101D6000331F240F351F2D5C3D4F4C816091300295
:101D700080912F0296959017110651F04CF0442354
:101D800049F0409131020E94B50A0F5F1F4FCECF3C
:101D90004423B9F340E0F7CFEEE2F2E080818E7F9A
:101DA000808360817181828193810E94D40A109224
:101DB00072012FEF80E792E0215080409040E1F7E0
:101DC00000C000000C942F0BEEE2F2E080818E7FC9
:101DD0008083109272012FEF80E792E021508040C3
:101DE0009040E1F700C000000C942F0B109272019C
:101DF00080916F0181110AC081E080936F01809111
:101E00002E02817080936E010C94E40E089560910F
:101E10002E02669570E04BE050E089E091E00E9470
:101E2000772A892B19F481E0809372010E94C922DC
:101E30009093690180936801089590912E0290FF1C
:101E400035C09170811128C0926090932E02662354
:101E500051F060912E0270912F028091300290918A
:101E600031020E94D40A60912E02669570E04BE028
:101E700050E089E091E00E94772A892BA1F010922E
:101E8000720181E080936B014091310260913002D8
:101E900080912F020C94D20C853210F09864D5CF2B
:101EA000880F982BD2CF0E94070FEBCF0895682F91
:101EB00090912E02969581E0890F853208F081E09D
:101EC0000C941D0F81E00C94570F682F90912E02F7
:101ED00096958FEF890F09F484E20C941D0F81E031
:101EE0000C94650F61E00C941D0FEEE2F2E080812E
:101EF0008160808386950C94720F80912E0280FD04
:101F00000C94CC0E0C94750F60E00C941D0F809116
:101F1000700181112EC00E944621811104C00E94CF
:101F2000EA210E94E60A0E94D00A60932E02709372
:101F30002F0280933002909331026E7F61F40E94F1
:101F4000E60A0E94D00A60932E0270932F028093BB
:101F50003002909331020E94BA0A1092720180916D
:101F60002E0280FF03C086950E94840F81E080933B
:101F700070010895EEE2F2E08081816080838695B1
:101F80000C94840F10926F0180916E0181110E9458
:101F9000BA0F0C94070F0F931F93CF93DF93809189
:101FA0007201882309F486C080917101E0912E02AC
:101FB000E695E81BE0936A01823091F5F0E0EC577A
:101FC000FE4FE491CE2FD0E004E81BE080916B013E
:101FD000882361F010926B010E94C92290936901DD
:101FE0008093680110926D0110926C010E94C922C9
:101FF000E0916801F09169018E1B9F0B8F3F9F4715
:1020000008F058C0EC0FFD1FF0936901E0936801E0
:1020100088E691E0F801DF91CF911F910F9109942B
:10202000863049F4F0E0EF57FE4FE491CE2FD0E038
:1020300008E91BE0CBCF893051F4E695F0E0E25897
:10204000FE4FE491CE2FD0E005ED1CE0BFCF8F30E6
:1020500051F4E695F0E0E558FE4FE491CE2FD0E044
:1020600002E11DE0B3CF853149F4F0E0E858FE4FBE
:10207000E491CE2FD0E00CE81DE0A8CFC8E2D0E07C
:102080000FEF1DE0883109F4A1CF833239F4E6E780
:10209000F1E0C591D49108EA1BE098CFC4EFD1E0FC
:1020A0000FE81EE0843209F491CFC0EDD7E004EAD6
:1020B0001AE08CCFDF91CF911F910F910895FA0113
:1020C000811101C0FB010994CF93DF93C82FD62F54
:1020D0000E94F60A8C1740F00E94F60A8D1720F431
:1020E000DF91CF910C94620F8C2FDF91CF910C94E4
:1020F000720F0F931F93CF938C01FB01C281CC23EE
:1021000009F465C00E9495208272F801E35CFC45E9
:10211000E431F10538F4E552F54D0C94372A0E946C
:102120007D0FC0E08C2FCF911F910F9108954FE646
:102130005FE062E67FE00E945F10F3CF42E65FE07F
:102140006FE67FE0F8CF40E95CE063E87CE0F3CF46
:1021500043E85CE060E97CE0EECF4EEA5CE06FE9EA
:102160007CE0E9CF4FE95CE06EEA7CE0E4CF4CEC48
:102170005CE06DEB7CE0DFCF4DEB5CE06CEC7CE099
:10218000DACF49E25BE062E17BE0D5CF42E15BE0A0
:1021900069E27BE0D0CF81E00E94720FC2CF65E0A0
:1021A00082E00E946410BDCF68E086E0FACF6EE066
:1021B00089E0F7CF64E18FE0F4CF67E185E1F1CF0B
:1021C00088E1EACF62E289E1ECCF83E2E5CFC1E0CA
:1021D000A9CF539A4BB1477F5BB15860EFB7F894E2
:1021E0009B01220F331F260F371F280F391F281777
:1021F000390741F4EFBF8FE594E00197F1F700C094
:1022000000000895DC016D91CD0178E05BB900001C
:1022100000C067FF4BB9660F000000C000C000C0DF
:102220004BB900C07A9591F7E2CFCF92DF92EF924F
:10223000FF920F931F93CF93DF936C017B0164E6B2
:1022400070E088E70E940E16EC0197FD12C010E0C6
:1022500000E0F601E00FF11F849164E670E00E9457
:102260006A16EC01892B29F40F5F1F4F0E151F050D
:1022700081F70E94ED16CE01DF91CF911F910F9152
:10228000FF90EF90DF90CF900895EFE6F2E080E0CE
:1022900092E0DF019C011D9221503040E1F7F09364
:1022A0007004E0936F048FEF9FEF90939F018093F2
:1022B0009E0108950E94930580939A0180FD0FC0AE
:1022C00080E8809399010E9408166DE070E084EA2E
:1022D00093E00E941511892B21F080E0089580E29F
:1022E000F0CF80919A0163E070E081FD18C081EA2F
:1022F00093E00E941511892B81F76DE070E081E970
:1023000093E00E941511892B41F70E94451181E04D
:1023100080939D0180939C0110929B0108958EE90A
:1023200093E0E7CF2091990136E0839FC00111240B
:10233000629F800D911D1124811522E0920714F0F7
:1023400090E080E081599D4F9093700480936F04DA
:10235000089520916F0430917004295632404091C5
:102360009901642F70E0C9010E94ED29481B463095
:1023700010F4240F311D211582E0380710F030E0F1
:1023800020E021593D4F3093700420936F0408954D
:102390001F93CF93DF93162F8A3031F481E0DF91C2
:1023A000CF911F910C9442128D3011F480E0F7CF41
:1023B000C0916F04D091700496E0FE01A3E7B1E0F4
:1023C00001900D929A95E1F7803EC8F086E0FE01FB
:1023D00011928A95E9F711111EC0C0916F04D09136
:1023E000700446E050E0BE0183E791E00E94842A39
:1023F000892BF9F4DF91CF911F910C94A911F6E08C
:102400008F9FB00111246F547C4F46E050E0CE0105
:102410000E946E2AE0CFE0916F04F09170049F015A
:102420002A5F3F4F2E173F07C1F28081809581932D
:10243000F9CFCF56D240CE0125E0969587952A95C3
:10244000E1F721E030E0A90102C0440F551F8A9551
:10245000E2F7CA0140919E0150919F01842B952B78
:10246000259645E0D695C7954A95E1F702C0220F1B
:10247000331FCA95E2F7822B932B90939F01809391
:102480009E01B8CFCF93382FE0916F04F091700484
:10249000EF56F24020919901622F70E0CF010E9427
:1024A000ED29281B822F332369F066E00E94D3298F
:1024B000C82FC15010F4CF91089560E080E20E94CF
:1024C000C811F7CF9F01280F311D2115324018F098
:1024D00080E0F0E0E0E08E0F9F2F911D81599D4F2D
:1024E0009093700480936F04E6CF1F93CF93DF9394
:1024F000EC01162FFE018491811104C0DF91CF9170
:102500001F910895612F0E94C8112196F3CF0E9458
:10251000751281E00C94421280919C0190919D0172
:10252000992361F0811108C062E070E08FE893E0C8
:102530000E941511892B19F080919C01089581E06A
:1025400080939C01F9CF2F923F925F926F927F927E
:102550008F929F92AF92BF92CF92DF92EF92FF92B3
:102560000F931F93CF93DF9380919D01882369F090
:1025700020919E0130919F012115310531F080910C
:102580009B0161E070E0882399F0DF91CF911F916A
:102590000F91FF90EF90DF90CF90BF90AF909F9002
:1025A0008F907F906F905F903F902F9008958F5FF6
:1025B000082F10E01B01082E02C0220C331C0A94C5
:1025C000E2F7A90142215321452B89F390919A0109
:1025D00090FD44C08295880F807680931601980103
:1025E000369527953695279520931901815E80931E
:1025F000170110921A0124E630E047E050E064E150
:1026000071E088E70E949916892B09F0BECFA801D6
:1026100025E0440F551F2A95E1F780919A0180FD2E
:102620002BC041595D4F04E610E020E230E060E449
:1026300088E70E94C016892B09F0A7CF0E948C1250
:10264000E101C095D09580919E0190919F01C82392
:10265000D923D0939F01C0939E0197CF880F880FF5
:10266000880F8093160110921901895F80931701DA
:1026700083E080931A01BFCFE9E7F1E080E2DF0158
:102680001D928A95E9F7ABE5B1E007E511E08FE52A
:10269000C82E81E0D82E97E0592E772473948D911F
:1026A000E80129918E01240F352F311D21593D4F0D
:1026B000E82FF0E0E758FE4F90E080E0652C681AC4
:1026C000872C082E01C0880C0A94EAF77901A12C06
:1026D000E701B9907E01B820662D6A196770962EC1
:1026E000062E000C770BDB2D01C0DD0F9A94EAF764
:1026F0007195619571096770772701C0B6946A95E5
:10270000EAF7BD2A6081962E9B289082A39468E008
:10271000A612DECF019631968830910579F6CA1659
:10272000DB0609F0BCCF04E610E020E230E049E728
:1027300051E07DCF80919C0190919D01911103C04A
:1027400091E089270895882369F062E070E08DE8C0
:1027500093E00E941511892B19F080919C01089536
:1027600010929C0180919C01EBCF80919D01882368
:1027700041F060E080E00E9492110E94D6050C9426
:10278000A31208950F931F93CF93DF93C42FD22FDB
:10279000FC0182818823C9F04093A2010E94C922D2
:1027A0009093A1018093A00180E28C0F883008F003
:1027B00050C0C77081E001C0880FCA95EAF7DF9169
:1027C000CF911F910F910C94CD181091A201141369
:1027D00035C08091A0019091A1010E94E122883C26
:1027E000910560F5C0E2CD0F1D17B9F080E2810FB1
:1027F000883040F4177081E001C0880F1A95EAF71D
:102800000E94D418C83048F481E09D2F977001C011
:10281000880F9A95EAF70E94CD18802F0E94C5185C
:10282000C830B8F4D77081E001C0880FDA95EAF7B4
:10283000DF91CF911F910F910C94D41880E28C0FEF
:10284000883038F4C77081E001C0880FCA95EAF774
:10285000EFCFDF91CF911F910F9108950F939C01BE
:10286000CB01243F4CE5340759F1A8F4293DFCE5A0
:102870003F0701F12A3D4CE53407D1F1283D3C45A5
:1028800091F406E221EE41EE68ED7CE50E94C21370
:1028900080E00F910895263FFCE53F07E9F0B0F096
:1028A000273F3C45F9F0FC018281882339F11092E1
:1028B000A201EFCF07E225EE45EE69ED7CE5E6CF1C
:1028C00006E221EE40EE64EF7CE5E0CF07E225EE84
:1028D00044EE65EF7CE5DACF06E221EE42EE66EFEC
:1028E0007CE5D4CF07E225EE46EE67EF7CE5CECF60
:1028F00008E221E045EE6AED7CE5C8CF81E0C9CF72
:10290000CF93DF93EC01FB018281882309F419C185
:10291000C230FCE5DF07C0F1C6319CE5D90730F0D5
:102920009E012B5F3C452930310570F50E945921ED
:102930009093760480937504C031ECE5DE0709F4CA
:10294000CFC008F05BC0C8308CE5D80709F4B6C02A
:1029500088F5C430ECE5DE0709F4A8C0C0F4C23045
:102960008CE5D80709F49CC0809175048260C3305F
:10297000DC4509F498C080917504909176040E941A
:1029800067210E94131B80E0DF91CF910895809111
:1029900075048061C630ECE5DE0709F484C08091DF
:1029A00075048860C730DC4508F47DC080917504EB
:1029B000806279C0CC308CE5D80709F489C070F406
:1029C000809175048C60CA30ECE5DE0709F46BC0B9
:1029D00008F478C0809175048E7F65C0CE308CE598
:1029E000D80709F479C0809175048B7FCF30DC451E
:1029F00008F459C0809175048F7E55C0CC3FECE53A
:102A0000DE0709F457C030F5C3318CE5D80709F467
:102A10006FC078F4C131ECE5DE0709F465C0C2315E
:102A2000DC4509F0A8CF0E94131B809175048F77B5
:102A30003AC0C5318CE5D80709F462C008F476C005
:102A4000809176048160CB3FDC4509F094CF809380
:102A5000760491CFC115FDE5DF0709F44DC088F478
:102A6000809176048D7FCE3F9CE5D90781F38091DC
:102A700076048E7FCF3FDC4550F3809176048360EF
:102A8000E6CFC230FDE5DF0709F459C008F444C0C1
:102A900080E0C330DD4509F06ECF0E94EC216BCFA2
:102AA0008091750481608093750465CF8091750471
:102AB0008460F9CF809176048260C9CF80917504DB
:102AC0008064F1CF0E94131B809175048068EBCF66
:102AD000809175048D7FE7CF80917504877FE3CF68
:102AE000809175048F7DDFCF809175048F7BDBCF64
:102AF00080917504837FD7CF809176048C7FA7CF98
:102B00008091750482FB992790F921E0922790FB30
:102B100082F990FB83F9C7CF80917604982F909526
:102B200091708E7F892B90FB81F991CF0E94131BAE
:102B300090917504892F97FB87F98058B4CF81E075
:102B4000ACCF81E021CFCF93DF93EB0186319C4561
:102B500011F50E9495209A81992399F08A7A91E043
:102B600009F490E09093A301811109C089E20E94C9
:102B700070200E94E12080E0DF91CF91089585E3ED
:102B8000F6CF8091A301811104C089E20E947720D1
:102B9000F0CF85E3FBCF81E0EFCFFC01E950FD45AD
:102BA000E032F105E8F423E0F695E7952A95E1F7A0
:102BB000EC55FE4F2081AC014770552781E090E035
:102BC00001C0880F4A95EAF7DB0112963C91332346
:102BD00049F0822B80838091A90182608093A901B2
:102BE00081E0089580958223F5CF0E94CD1588233A
:102BF00069F08091A90181FF09C084EA91E00E94F7
:102C00007F238091A9018D7F8093A90181E00895A0
:102C10001092B9008CE08093B8000895EF92FF9273
:102C20000F931F93CF93DF93182FEB011092BC00EB
:102C300084EA8093BC000E94C9227C018091BC0080
:102C400087FF27C08091B900887F883029F0809164
:102C5000B900887F8031D9F51093BB0084E8809358
:102C6000BC000E94C9228C018091BC0087FF24C057
:102C70002091B900287F90E080E02831B1F081E018
:102C800090E0203411F490E080E0919581959109D5
:102C90000CC0CF3FDC0791F20E94C9228E199F0918
:102CA0008C179D0758F28EEF9FEFDF91CF911F9108
:102CB0000F91FF90EF900895CF3FDC07A9F20E949B
:102CC000C922801B910B8C179D0770F2ECCF8FEF00
:102CD0009FEFEBCF0F931F93CF93DF93EB01809385
:102CE000BB0084E88093BC000E94C9228C018091C3
:102CF000BC0087FF11C02091B900287F81E090E0DF
:102D0000283211F490E080E0919581959109DF914E
:102D1000CF911F910F910895CF3FDC0741F30E949F
:102D2000C922801B910B8C179D0708F38EEF9FEF34
:102D3000EECFCF92DF92EF92FF920F931F93CF933C
:102D4000DF936B018A017901B9010E940E16E60139
:102D50000C0D1D1DC017D10761F424E92093BC00A0
:102D6000DF91CF911F910F91FF90EF90DF90CF9067
:102D7000089597FDF2CFB70189910E946A16EACFB4
:102D8000CF92DF92EF92FF920F931F93CF93DF9337
:102D9000C62F6A017901B8010E940E1697FD0CC07A
:102DA000B8018C2F0E946A16E601EC0CFD1CCE15B2
:102DB000DF0511F097FF0CC024E92093BC00DF91E0
:102DC000CF911F910F91FF90EF90DF90CF900895DA
:102DD000B80189910E946A16EACF84E98093BC0009
:102DE00008959093AF018093AE010895E091AE01F4
:102DF000F091AF01309721F00190F081E02D09941E
:102E000080E00895E091AE01F091AF01309721F09C
:102E10000280F381E02D099408952091AC01309156
:102E2000AD012817390771F09093AD018093AC0183
:102E3000E091AE01F091AF01309721F00680F7816B
:102E4000E02D099408952091AA013091AB01281733
:102E5000390771F09093AB018093AA01E091AE0124
:102E6000F091AF01309721F00084F185E02D0994B5
:102E700008950E94D5226093B9017093BA0180939E
:102E8000BB019093BC016093B5017093B601809330
:102E9000B7019093B801089585B7806885BF85B75D
:102EA000806885BF0895089508950C945317089578
:102EB0000C9457170E944C1784E491E20E9425233A
:102EC0000E9454170C94551781E008950C946417D0
:102ED000089508950E94C0220E94260980E00E9461
:102EE0005A110E942A230E94870F0C9458179F9210
:102EF000AF92BF92CF92DF92EF92FF920F931F9308
:102F0000CF93DF93CDB7DEB72A970FB6F894DEBF25
:102F10000FBECDBF0E9468170E9469170E945A0910
:102F2000C82E81110E94391781EBA82E81E0B82E9E
:102F300010E000E0902E802F0E940009E82EF5019D
:102F4000F1905F01F81609F456C080911A0281FDD4
:102F50000E9406098F2D8E25D12CFF24F394982FE3
:102F60009F2109F443C00E946617882399F0DE82EE
:102F70009F82EF2081E009F480E088870E94C922C7
:102F80008160782F9A8789874E815F8168858A85DD
:102F90000E942418F801EF54FE4F8081F826F08239
:102FA0000E94CB0F0E94B513C1100E948C120E9488
:102FB000DC050E94F6169091B001891799F10E94E4
:102FC000F6168093B0012A960FB6F894DEBF0FBEB6
:102FD000CDBFDF91CF911F910F91FF90EF90DF90C8
:102FE000CF90BF90AF909F900C940507D394FF0CA7
:102FF000F6E0DF12B4CF0F5F1F4F0430110509F068
:1030000099CF8FEF89838A831B820E94C9228160B6
:10301000782F9D838C8349815A816B818D810E9499
:103020002418BECF2A960FB6F894DEBF0FBECDBFD0
:10303000DF91CF911F910F91FF90EF90DF90CF9094
:10304000BF90AF909F900895DF92EF92FF920F9301
:103050001F93CF93DF93CDB7DEB72B970FB6F894BE
:10306000DEBF0FBECDBF7A878B87F42E052F162FBC
:10307000E72ED82E61110E94B5201E821D827E2D62
:10308000EC82DD824F2D502F612F8D2D9E812B964E
:103090000FB6F894DEBF0FBECDBFDF91CF911F9169
:1030A0000F91FF90EF90DF900C94891DFC018081BF
:1030B00091810C944220CF93C82F882329F18CEF63
:1030C0008C0F813AA0F46C2F80911B0190911C0110
:1030D0000E940322882329F08C2F0E9477200E94CF
:1030E000E1208C2F0E947020CF910C94E12080E28F
:1030F0008C0F883048F4C77081E001C0880FCA95F2
:10310000EAF70E949820F0CFCF910895882329F103
:103110009CEF980F913A20F40E9477200C94E120C4
:1031200090E2980F983050F4877091E001C0990FA9
:103130008A95EAF7892F0E949E20F0CF9BE5980F91
:10314000933020F490E080E00C940D17885A87317A
:1031500020F490E080E00C94231708951F93CF9300
:10316000DF93182FEB010E945B18209731F4812F19
:10317000DF91CF911F910C9486188FE99FE0019702
:10318000F1F700C000002197F0CF70E060E08933D4
:1031900011F460E570E00C94AE18882321F00E94D1
:1031A00098200C94E1200895882321F00E949E200D
:1031B0000C94E1200895BF92CF92DF92EF92FF929C
:1031C0000F931F93CF93DF936C01D62FC72FFC0172
:1031D0000281158112951F700E948E20E82E88238F
:1031E000A1F0E02E002389F08C2F807F803429F01D
:1031F00080E28D0FE12C883040F082E00E942C218B
:103200000E948E2091E0E82EE926BC2EB2949FE029
:10321000B922EB2DF0E0E151F54D0C94372A1C2F2B
:103220001F70C07F11F01295107F0023A9F01123A9
:1032300059F080E28D0F883010F0D11109C0812F34
:103240000E9498200E94E1208D2F0E945B1814C0DC
:10325000812F0E94A820F6CF8D2F0E94861811235F
:1032600059F080E28D0F883010F0D1112CC0812FE1
:103270000E949E200E94E1202B2D2850330B2430E9
:10328000310520F40E94F6160E940507EE2009F48D
:1032900077C10E948A2080FD73C1F60112820E94CC
:1032A00084200E940D1FC6010E94E11A0E94842002
:1032B000DF91CF911F910F91FF90EF90DF90CF9012
:1032C000BF900C942E1F812F0E94AE20D3CFFC2FD5
:1032D000FF70FF2EC07FC03219F0F29480EFF82209
:1032E000DD2369F0D13049F1002391F1112351F12F
:1032F000F601858180FFA8CF8F70858323C00023CE
:1033000081F0111106C00E94C8208F290E94CD189B
:10331000B3CF1130C1F70E94C8208F290E94CE2060
:10332000ABCF111106C00E94D7208F2D0E94D41858
:10333000A3CF113009F4A0CFF6CF002329F0163027
:1033400008F09ACF8F2DE2CF153008F095CFEDCF52
:10335000112359F3D93349F4FFEF27EE33E0F1504D
:1033600020403040E1F700C000008D2F0E948618F9
:1033700083CF8C2F837009F041C001117DCF4D2F79
:10338000429546954770440F440F0D2F0F7010E083
:1033900030E020E0042E04C0000F111F221F331F55
:1033A0000A94D2F760E070E0CB01D4FF0FC06FE069
:1033B00070E080E090E004C0660F771F881F991FBF
:1033C0004A95D2F76095709580959095C695C6956B
:1033D000C370602B712B822B932BC23049F058F4B1
:1033E000C13019F00E94BF1E47CF0E94AD1E44CFCE
:1033F0000E94D11E41CF0E94AB1E3ECF8695002376
:1034000011F08C2F8170882309F436CF4D2F42950F
:1034100046954770440F440F0D2F0F7010E030E0B9
:1034200020E0042E04C0000F111F221F331F0A9436
:10343000D2F760E070E0CB01D4FF0FC06FE070E026
:1034400080E090E004C0660F771F881F991F4A959F
:10345000D2F76095709580959095C695C695C37086
:10346000602B712B822B932BC23049F058F4C13062
:1034700019F00E94841F00CF0E94721FFDCE0E948F
:10348000961FFACE0E94E71EF7CECF70002329F0D8
:103490008C2F0E940D1F8D2F39CF8D2F0E94D41895
:1034A0008C2F0E942E1FE8CED23F89F160F4D03FCE
:1034B000C9F0D13F29F1002309F442C01111C4CE53
:1034C0008C2F8F7121C0D33F39F1D43FA1F7002356
:1034D00069F1CF718C2F0E940D1F63E08C2F0E9429
:1034E0001721CACE002341F0153008F0C5CE8C2F2D
:1034F0008F710E94511FC0CE163008F0BDCEF7CF9D
:103500008C2F8F71002369F20E940D1FB5CE8C2F76
:103510008F710023C9F3C5CF002329F08C2F8F7141
:103520000E94F81EA9CE0E94F31EA6CE81E00E9442
:103530002C21123008F4A0CE82E00E942C219CCED7
:10354000112359F0D93309F010CF8FEF97EEE3E054
:1035500081509040E040E1F706CF8C2F8F71A1CFD2
:103560004C2F4F706D2FC6010E940D070E94231E25
:1035700083CE4C2F4F706D2FC6010E9410077CCE5A
:10358000DF91CF911F910F91FF90EF90DF90CF903F
:10359000BF9008950F931F93CF93DF93EC01688141
:1035A00079818A810E944C208C010E94A81F0E9470
:1035B000AA1EB801CE01DF91CF911F910F910C94FB
:1035C000DB18CF93DF93EC018B819C81892B29F051
:1035D0008881998189238F3F59F4DF91CF91089594
:1035E000CE010E94CA1ACE01DF91CF910C944406FD
:1035F000CE010E9469068111F3CF0E948E2088239C
:1036000061F38A81882349F382E0DF91CF910C94A2
:103610002C210E94B5200E94C5200C94E1200E941C
:103620007E200C94091B0E94A5200C940F1BE92FEF
:10363000E295EF70E250EE3070F4F0E0E150F54DBD
:103640000C94372A803F19F020F4883E20F481E062
:103650000895843FE1F380E00895883EC0F3813F00
:10366000D1F7F5CF93FB882780F908950E94422077
:103670000C94171BCF93DF9300D000D00F92CDB7DF
:10368000DEB70F900F900F900F900F90DF91CF91BA
:103690000895CF93DF9300D000D000D0CDB7DEB730
:1036A00026960FB6F894DEBF0FBECDBFDF91CF9147
:1036B00008951F93CF93DF93C091BE0116E08091D0
:1036C000BF018C1304C0DF91CF911F910895D0E00A
:1036D0001C9FF0011D9FF00D1124E054FE4F40810E
:1036E000518162817381848195810E94491B219659
:1036F000C770E5CF4091F0015091F1016091F20166
:103700007091F3018091F4019091F5010C94491BA3
:103710001F93CF93DF938091F501807FA9F480916F
:10372000F201882389F08091BE01C091BF016091B0
:10373000F0017091F101A091F301B091F401D62F45
:10374000D72316E0C81304C0DF91CF911F910895CD
:1037500090E0109711F0DF3F19F401968770F2CFD7
:10376000189F9001199F300D1124F901E054FE4F6C
:1037700041814713F2CF40814613EFCF428141117F
:10378000ECCF438154814A1B5B0B483C510528F721
:103790008091F5018F7080618093F501F901EB5301
:1037A000FE4F80818F708061808380EF91E00E9466
:1037B000E11ADF91CF911F910C94591BAF92BF92E8
:1037C000CF92DF92EF92FF920F931F93CF93DF93ED
:1037D000CDB7DEB761970FB6F894DEBF0FBECDBF91
:1037E0008C0185E0F801DE011D9601900D928A950D
:1037F000E1F7F80140815181E28080EFC82E81E03D
:10380000D82E6091F3017091F4016115710509F4EE
:1038100061C19091F0012091F101892F82238F3FA6
:1038200009F458C1A380B480F090F201F501E61BC1
:10383000F70BFF2009F4FCC08091F501382F307F91
:10384000E83CF10508F0B2C0311179C0FE2C251317
:1038500023C0941321C0E1101FC08F70806180933A
:10386000F5010E947A1BC6010E94E11A8091F501C0
:10387000F80185838F2D61960FB6F894DEBF0FBED9
:10388000CDBFDF91CF911F910F91FF90EF90DF900F
:10389000CF90BF90AF900895AB2829F0842F852357
:1038A0008F3F09F033C180E0F82FF170DF2E80FFE9
:1038B0003CC08091BE012091BF0136E0821315C04B
:1038C0004D875E878D859E850E944220292F2295F7
:1038D0002F702230F0F0243018F59F70F1F0F801CD
:1038E0009581907FD1F4D12C1EC090E0389FF001DB
:1038F000399FF00D1124E054FE4F6181651306C01D
:103900006081641303C062816E110FC001968770DD
:10391000D5CF9F7011F0882331F3805E883018F383
:10392000C8010E94E11AFD2CA5CFEE2009F4A2CF18
:103930008091F50181608093F501F12C9BCF2513D7
:1039400006C0941304C0F801EE2009F48DC04D8721
:103950005E878D859E850E94361B882319F1EE2097
:1039600009F18091F501803270F02091F0013091E1
:10397000F10138872F831986BB86AA868C87CE01F2
:1039800007960E94E11A86E0F801A0EFB1E00190ED
:103990000D928A95E1F70E94881B0E947A1BFF24F2
:1039A000F39468CFC8010E94E11AF9CF311113C016
:1039B0007A2DB98AA88A6E2D89890E943A1B80EFD8
:1039C00091E00E94E11A86E0F60111928A95E9F7EA
:1039D0000E947A1BB2CF25130FC094130DC0E110C3
:1039E0000BC0F8018583C8010E94E11A86E0F60148
:1039F00011928A95E9F73ECF4D875E878D859E852A
:103A00000E94361B882371F2EE2061F28091F5014D
:103A1000803208F4B8CF2091F0013091F1013A835F
:103A200029831B82BD82AC828E83CE010196A9CFF1
:103A3000E83CF10508F041C0FE2CEE2009F4B2CFBD
:103A400025132AC0941328C08091F50180FD1BC066
:103A5000982F907FC1F0F8018583903F31F0982F27
:103A6000907F905F8F70892B8583C8010E94E11A37
:103A700086E0F801A0EFB1E001900D928A95E1F7A0
:103A80000E947A1BF7CE86E0F801A0EFB1E001902A
:103A90000D928A95E1F7EECE4D875E878D859E85E6
:103AA0000E94361B81116FCF8091F5018160809358
:103AB000F501C8010E94E11ADDCE7A2DB98AA88AE3
:103AC0006E2D89890E943A1B86E0F60111928A9533
:103AD000E9F7D6CFEE2009F465CF4D875E878D8557
:103AE0009E850E94361BF82E882309F45BCF86E062
:103AF000F801A0EFB1E001900D928A95E1F780EF17
:103B000091E00E9456180E94881BBACF81E08E2552
:103B1000CBCE1F93CF93DF93CDB7DEB72C970FB6E5
:103B2000F894DEBF0FBECDBF4F83588769877A8771
:103B30008B879C87CE0107960E94DE1B882369F045
:103B40008A859B85892B39F04F815885842F852361
:103B50008F3F09F071C016E05FC086E0FE01379626
:103B6000DE01119601900D928A95E1F78A859B8579
:103B7000892B89F38F81988589238F3F61F3209169
:103B8000BF0130E0C9010196877099274091BE01BD
:103B90004817190671F40E94131B1092BF0110926E
:103BA000BE0186E0E0EFF1E0DF011D928A95E9F7C2
:103BB000D2CF96E0929FD001939FB00D1124A054D4
:103BC000BE4FFE01319601900D929A95E1F78093D8
:103BD000BF010E94591BBFCF819FC0011124805497
:103BE0009E4F0E94DE1B8823E9F0E091BE011E9FDC
:103BF000F0011124E054FE4F4081518162817381B4
:103C0000848195810E94491B8091BE0190E00196BC
:103C1000877099278093BE018091BE019091BF016A
:103C20008913DACF2C960FB6F894DEBF0FBECDBF46
:103C3000DF91CF911F91089569857A858B859C8549
:103C40000E94491B88CFEF92FF920F931F93CF934F
:103C5000DF938C01892B81F0F12CEE24E394E801B1
:103C60002196F8018491843770F4843008F05FC0A5
:103C70008130B1F08230A1F1DF91CF911F910F918E
:103C8000FF90EF900895853709F44CC008F43DC0CB
:103C90009CE7980F903780F78F770E94861849C06D
:103CA0000E5F1F4FFE01849190E2980F983060F4F0
:103CB0008770FE2D01C0FF0F8A95EAF78F2F0E94B3
:103CC000B8200E94E12002C00E945B188F2D815015
:103CD00030F2EFE9FFE03197F1F700C00000F7CFD5
:103CE0000E5F1F4FFE01849190E2980F983050F4C0
:103CF0008770FE2D01C0FF0F8A95EAF78F2F0E9473
:103D0000BE20DFCF0E948618E1CF0E5F1F4FFE015D
:103D1000C491C150D8F28FE99FE00197F1F700C03C
:103D20000000F7CF0E5F1F4FFE01F490CFCF0E942F
:103D30005B188E01CBCF08950C949B1E0E949C1E95
:103D40006093090270930A0280930B0290930C0215
:103D50000C94091B08950C949E1E0F931F930091C1
:103D6000090210910A0220910B0230910C02602B83
:103D7000712B822B932B1F910F910C949E1E0F93EE
:103D80001F930091090210910A0220910B023091B9
:103D90000C0260237123822393231F910F910C94B3
:103DA0009E1E0F931F930091090210910A02209109
:103DB0000B0230910C0260277127822793271F91F5
:103DC0000F910C949E1E0C949B1E0C94E31E0E945B
:103DD000E51E60930502709306028093070290939C
:103DE00008020C94091B60E070E0CB010C94E71E04
:103DF0000F931F9341E050E060E070E08A019B0167
:103E000004C0000F111F221F331F8A95D2F7C9016A
:103E1000B8011F910F910C94E71E0F931F9341E07F
:103E200050E060E070E004C0440F551F661F771F2C
:103E30008A95D2F78091050290910602A09107021F
:103E4000B09108028A019B01082B192B2A2B3B2BCE
:103E5000C901B8011F910F910C94E71E0F931F9396
:103E600041E050E060E070E004C0440F551F661F61
:103E7000771F8A95D2F7CB01BA016095709580952E
:103E80009095009105021091060220910702309151
:103E9000080260237123822393231F910F910C94B6
:103EA000E71E0F931F9341E050E060E070E004C014
:103EB000440F551F661F771F8A95D2F78091050220
:103EC00090910602A0910702B09108028A019B011D
:103ED000082719272A273B27C901B8011F910F91ED
:103EE0000C94E71E0F931F93009105021091060298
:103EF0002091070230910802602B712B822B932BAB
:103F00001F910F910C94E71E0F931F9300910502D0
:103F1000109106022091070230910802602371235C
:103F2000822393231F910F910C94E71E0F931F93ED
:103F300000910502109106022091070230910802BB
:103F400060277127822793271F910F910C94E71EFA
:103F50000895E92FEE0FE90FEE0F8E0F982F97704F
:103F600041E001C0440F9A95EAF7869586958695BB
:103F700095E0899FF0011124EA50FE4F30E020E0E7
:103F800070E05191DF011197CB01022E02C096958E
:103F900087950A94E2F78170819585278423852788
:103FA0008C932F5F3F4F2530310559F70895E92F46
:103FB000EE0FE90FEE0F8E0F982F9770869586956E
:103FC000869525E0829FF0011124EA50FE4F50E0D3
:103FD00040E080E0219130E0092E02C0369527951F
:103FE0000A94E2F721703327042E01C0220F0A94AD
:103FF000EAF7822B4F5F5F4F4530510559F708951F
:10400000BF92CF92DF92EF92FF920F931F93CF93C5
:10401000DF938C01C0900502D0900602E090070269
:10402000F09008028091090290910A02A0910B027F
:10403000B0910C02C82AD92AEA2AFB2ACFE1D0E0A3
:10404000BC2ED701C6010C2E04C0B695A795979536
:1040500087950A94D2F780FD0EC0219788F7B12C7E
:104060008B2DDF91CF911F910F91FF90EF90DF90FB
:10407000CF90BF900895B8018C2F0E942D07019713
:1040800061F3EECFCF93DF93EC010E940020BE01DD
:10409000DF91CF910C942D071F93CF93DF93EB010A
:1040A0009091BD01992331F0CB01DF91CF911F9108
:1040B0000C944220882379F0CB010E940020182F15
:1040C000682FCE010E94A91FBE01812FDF91CF91E1
:1040D0001F910C942D07CB010E94D71F182FF4CFEE
:1040E000682F80911B0190911C010C943922682F3C
:1040F00080911B0190911C010C943B2280911B012B
:1041000090911C010C943D2280910D02859585951E
:104110008595089580910D028770089590910D0204
:10412000977081E009F480E0089580911902089564
:1041300090911902892B809319020895809590918E
:104140001902982390931902089510921902089564
:1041500090911802892B8093180208958095909170
:104160001802982390931802089510921802089547
:1041700090911702892B8093170208958095909152
:10418000170298239093170208951092170208952A
:1041900080910E02089508950C94CB2090910E0208
:1041A000981721F080930E020C94CC2008958091F2
:1041B0000E02882329F010920E0280E00C94CC208D
:1041C0000895E0911B01F0911C01809119028083F8
:1041D000E0911B01F0911C01808190911802892BC4
:1041E0008083E0911B01F0911C0180819091170266
:1041F000892B808390910E02992381F0E0911B011D
:10420000F0911C018081892B808380911B0190910A
:104210001C010E94F12181110E94D72080911B0175
:1042200090911C010C94021708950C94142198E0AD
:10423000899F90011124622B60930D020E940D1F33
:1042400080910D028595859585950C941521109288
:104250000D0280E00C94152190910D028095892328
:1042600080930D02282F277071F4282F082E000C40
:10427000330B9217130639F08595859585950E9425
:104280002E1F0C942721089580E0089590E080E08F
:104290000E949F2A21E08B3E9E4F09F020E0822F52
:1042A000089582E090E00C94912A83E090E00C94D1
:1042B000912ACF9384E090E00E94912AC82F81E256
:1042C00090E00E94912A982F8C2FCF910895CF9340
:1042D000C92F682F84E090E00E94A52A6C2F81E20C
:1042E00090E0CF910C94A52AAB01BC018FE090E047
:1042F0000C94B72AAB01BC0183E190E00C94B72A7F
:1043000060E070E0CB010C947A2160E070E0CB01BA
:104310000E9474210C9480216BEE7EEF90E080E08F
:104320000E94C32A60E082E090E00E94A52A60E03B
:1043300083E090E00E94A52A1092090210920A02DE
:1043400010920B0210920C0260E084E090E00E9458
:10435000A52A60E081E290E00E94A52A60E085E065
:1043600090E00E94A52A60E086E090E00E94A52AE5
:104370006FEF87E090E00E94A52A40E050E0BA018C
:1043800088E090E00E94B72A60E08DE090E00E9413
:10439000A52A40E050E0BA0188E190E00E94B72AE7
:1043A00060E087E190E00E94A52A40E050E0BA0179
:1043B0008CE190E00E94B72A60E080E290E00E94E9
:1043C000A52A40E050E0BA0188E190E00E94B72AB7
:1043D0000C9485210C948C21682F8EE090E00C9435
:1043E000A52A9C012E5F3F4FAC01485F5F4F80E0E4
:1043F0002417350709F40895F90191919F01992334
:10440000B9F38F5FF5CF662349F0FC013296089629
:104410002191261729F0E817F907D1F780E00895D0
:1044200081E008959C01FC0132969FEF80E041916C
:10443000461751F09F3F19F4411101C0982F8F5F2B
:104440008630A9F79F3F09F40895290F311D97FD84
:104450003A95F90162830895FC01329608962191FC
:10446000261303C0DF0111971C92E817F907B9F76B
:1044700008950C9412220C942C22029626E0FC0142
:1044800011922A95E9F7089508950C94DA05809120
:104490007B04843059F10E94452280E00E94050788
:1044A0000E94F60E10921B0288E190E020E40FB605
:1044B000F894A895809360000FBE2093600083B7A6
:1044C000817F846083BF83B7816083BF7894889540
:1044D00083B78E7F83BF0FB6F894A8958091600054
:1044E000886180936000109260000FBE0895089567
:1044F000CF930E9444220E945A090E947722C0E072
:104500008C2F0E940009811105C0CF5FC430C1F714
:10451000CF91089581E0FCCF08950C948C220E94E5
:10452000131B0E94F6160E9405070E94C20F0C94EE
:104530008D221F921FB61F9211248F939F93AF93CA
:10454000BF9380911B02811113C0809171049091DF
:104550007204A0917304B09174044196A11DB11D21
:104560008093710490937204A0937304B0937404C5
:10457000BF91AF919F918F911F901FBE1F90189573
:1045800082E084BD93E095BD9AEF97BD80936E0065
:1045900008952FB7F8948091710490917204A091BE
:1045A0007304B09174042FBF08952FB7F8946091ED
:1045B00071047091720480917304909174042FBF00
:1045C00008959C014FB7F894809171049091720402
:1045D000A0917304B09174044FBF821B930B089594
:1045E00078941F921FB61F9211248F939F93AF93BD
:1045F000BF938091710490917204A0917304B09163
:1046000074040196A11DB11D8093710490937204EE
:10461000A0937304B0937404BF91AF919F918F9155
:104620001F901FBE1F90189587E797E7909301088A
:104630008093000888E19AE00FB6F894A8958093DB
:1046400060000FBE90936000FFCF90936101809354
:10465000600108950E944621811102C00E94EA2152
:104660000E94512180931A020E945921909376044E
:10467000809375040E945521682F70E090E080E0DF
:104680000E94AB1E609105027091060280910702A4
:10469000909108020C94E51E8091240208950895DB
:1046A0000895CF93DF93EC0181E08093E9008FEFD1
:1046B0009091E800815095FD06C095ED9A95F1F72F
:1046C00000008111F5CF8091E80085FF14C050E013
:1046D00040E068E070E0CE010E9442258091E80051
:1046E0008E778093E80088E0FE01ACE1B2E00190B3
:1046F0000D928A95E1F7DF91CF9108950895CF93B8
:10470000DF9300D00F92CDB7DEB7FC0181818983A2
:1047100083818A8380818B8382E08093E9008FEF9D
:104720009091E800815095FD06C095ED9A95F1F7BE
:1047300000008111F5CF8091E80085FF0DC050E0A9
:1047400040E063E070E0CE0101960E944225809136
:10475000E8008E778093E8000F900F900F90DF9124
:10476000CF91089580917A04811109C00E94D226C8
:104770000E942F278091E20084608093E2000895D8
:1047800010927A04089508950895089542E061EC26
:1047900081E00E944E2642E061EC82E00C944E26BD
:1047A00080917D04833009F45FC030F48130C1F121
:1047B000823009F49BC008958A3009F487C08B3099
:1047C00009F46DC0893009F04EC080917C048132BB
:1047D00009F049C08091800490918104892B09F0EF
:1047E00042C08091E800877F8093E8008091E800D4
:1047F00082FF35C09091F3008091F200029729F476
:104800008091F1008B7F813021F48091F1008093C1
:1048100024028091E8008B778093E8000C94822634
:1048200080917C04813AF9F48091E800877F80933D
:10483000E8008091800490918104892B61F468E004
:104840008CE192E070E00E9491258091E8008B77E6
:104850008093E800089560E090E080E0F3CF8091DD
:104860007B048111C3CF089580917C04813AD9F7EC
:104870008091800490918104892BA9F78091E800B0
:10488000877F8093E8008091E80080FFFCCF8091D3
:1048900027018093F1008091E8008E77BDCF809151
:1048A0007C04813201F78091800490918104892BEE
:1048B000D1F68091E800877F8093E8000E948226ED
:1048C00080917E04809327010C94131B80917C04BB
:1048D000813249F68091E800877F8093E8000E944A
:1048E000822680917F0480932502089580917C0424
:1048F000813A09F0B8CF8091E800877F8093E80083
:104900008091E80080FFFCCF80912502C2CF84B760
:10491000877F84BF0FB6F894A89580916000886166
:1049200080936000109260000FBE80E890E00FB6A8
:10493000F89480936100909361000FBE0E945A1713
:104940000E94D2260E942F278091E20084608093EB
:10495000E20078940E94B8290E946A178DE191E0E4
:104960000E94F11680917B048530A9F00E94771790
:104970000E9468170E946917F5CF0E944722809114
:104980007904882341F00E947822882321F00E9434
:104990002C250E94131B80917B04853071F30E94AB
:1049A0008F22E4CF0C94D424292F332723303105D0
:1049B00019F168F42130310509F444C02230310581
:1049C00009F445C090E080E030E020E025C02132CD
:1049D000310549F122323105A9F780E490E020EA5F
:1049E00039E061157105C1F080E390E020E739E01E
:1049F0006130710589F0E6CF99278130910581F00A
:104A0000009729F00297F1F6E1EFF8E002C0EFE13C
:104A1000F9E0849190E09F01FA01318320830895A9
:104A2000E7E0F9E0F6CF89E090E025E339E06115B1
:104A3000710591F389E090E02EE439E06130710571
:104A400059F3C0CF82E190E02EE539E0E5CF8BE36A
:104A500090E023E239E0E0CF80E189BD82E189BDC9
:104A600009B400FEFDCF8091D8008F7D8093D800DF
:104A70008091E00082608093E0008091E00081FD01
:104A8000FCCF0895AF92BF92CF92DF92FF920F9327
:104A90001F93CF93DF936C01EB018A010E94A12643
:104AA000F82E811123C00115110539F0F80180811C
:104AB0009181C81BD90BC80ED91EB12CA12C2097EF
:104AC000A9F08091E80085FD22C08091E8008E77F2
:104AD0008093E80001151105A1F0F8018081918112
:104AE000A80EB91EB182A08285E0F82E8F2DDF912D
:104AF000CF911F910F91FF90DF90CF90BF90AF901B
:104B000008950E94A1268823D1F2F82EEFCFF60156
:104B100081916F018093F1002197FFEFAF1ABF0AD7
:104B2000CECFFC0180918204909183048617970771
:104B3000A0F06115710529F49091E8009E7790939B
:104B4000E80090E06115710551F4911108C0809161
:104B5000E80082FF34C080E00895BC01F2CF80916C
:104B60007B048823C1F18530C1F18091E80083FD89
:104B700030C08091E80082FDEACF8091E80080FF9C
:104B8000E1CF8091F3002091F200382F611571057B
:104B900019F02830310558F091E02830310509F03E
:104BA00090E02091E8002E772093E800CBCF819110
:104BB0008093F100615071092F5F3F4FE7CF8091E3
:104BC0007B04882341F0853041F08091E80083FF29
:104BD000BECF81E0089582E0089583E00895FC014E
:104BE000809182049091830486179707A0F0611545
:104BF000710529F48091E8008E778093E80090E0B9
:104C00006115710551F4911108C08091E80082FF8F
:104C100035C080E00895BC01F2CF80917B048823E9
:104C2000C9F18530C9F18091E80083FD31C08091E0
:104C3000E80082FDEACF8091E80080FFE1CF80911B
:104C4000F3002091F200382F6115710519F028301A
:104C5000310558F091E02830310509F090E080915D
:104C6000E8008E778093E800CBCF84918093F100A9
:104C70003196615071092F5F3F4FE6CF80917B04E1
:104C8000882341F0853041F08091E80083FFBDCF5B
:104C900081E0089582E0089583E00895982F973089
:104CA00028F08F708093E90081E008959093E900E7
:104CB000242F762F50E0981731F07091EC0020915E
:104CC000ED005091F00021FD02C09F5FE8CF3091D0
:104CD000EB003E7F3093EB003091ED003D7F309351
:104CE000ED003091EB0031603093EB007093EC00FD
:104CF0002093ED005093F0002091EE0027FDE5CFCA
:104D000080E0089580917C0487FF13C08091E800C3
:104D100082FF06C08091E8008B778093E80004C092
:104D200080917B048111F2CF089580917B048823C8
:104D3000D9F38091E80080FFF8CF8091E8008E776A
:104D4000ECCF2091E4003091E50095E6A901209197
:104D5000EC00822F817020FF06C08091E80080FF68
:104D600006C080E008952091E80022FD1AC08091DD
:104D70007B04882389F0853089F08091EB0085FDE4
:104D80000FC02091E4003091E50042175307F9F27B
:104D90009150E1F684E0089582E0089583E008955B
:104DA00081E008950E9440270E944827E0EEF0E04D
:104DB000808181608083E8EDF0E080818F7780835F
:104DC00019BCA7EDB0E08C918E7F8C9380818F7E93
:104DD000808310927A0408950F931F93CF93DF93EB
:104DE0000E9440270E944827C8EDD0E088818F7735
:104DF000888388818068888388818F7D888319BCB7
:104E000010927B0410927704109279041092780427
:104E100000EE10E0F80180818B7F808388818160C3
:104E2000888342E060E080E00E944E26E1EEF0E000
:104E300080818E7F8083E2EEF0E0808181608083DC
:104E4000808188608083F80180818E7F8083888163
:104E500080618883DF91CF911F910F910895E8EDD4
:104E6000F0E080818F7E8083E7EDF0E080818160DB
:104E7000808384E082BF81E080937A040C94EC26E6
:104E8000E8EDF0E080818E7F80831092E20008954B
:104E90001092DA001092E10008951F920F920FB65F
:104EA0000F9211242F933F934F935F936F937F93B0
:104EB0008F939F93AF93BF93EF93FF938091E10004
:104EC00082FF0BC08091E20082FF07C08091E10069
:104ED0008B7F8093E1000E94B7298091DA0080FFE8
:104EE00019C08091D80080FF15C08091DA008E7FB4
:104EF0008093DA008091D90080FF96C080E189BD5F
:104F000082E189BD09B400FEFDCF81E080937B047E
:104F10000E94B2238091E10080FF19C08091E200DD
:104F200080FF15C08091E2008E7F8093E200809127
:104F3000E20080618093E2008091D80080628093DB
:104F4000D80019BC85E080937B040E94C423809123
:104F5000E10084FF2BC08091E20084FF27C080E144
:104F600089BD82E189BD89B5982F917080FFFBCF03
:104F70008091D8008F7D8093D8008091E1008F7E52
:104F80008093E1008091E2008F7E8093E200809127
:104F9000E20081608093E20080917704882309F425
:104FA00049C084E080937B040E94C5238091E10086
:104FB00083FF29C08091E20083FF25C08091E1003A
:104FC000877F8093E10082E080937B0410927704D6
:104FD0008091E1008E7F8093E1008091E2008E7FDE
:104FE0008093E2008091E20080618093E20042E0E1
:104FF00060E080E00E944E268091F00088608093FF
:10500000F0000E94C323FF91EF91BF91AF919F9158
:105010008F917F916F915F914F913F912F910F9061
:105020000FBE0F901F90189519BC10927B040E9420
:10503000C02370CF8091E30087FD93E090937B04C1
:10504000B3CF1F920F920FB60F9211242F933F935D
:105050004F935F936F937F938F939F93AF93BF9380
:10506000CF93DF93EF93FF93D091E900DF708091AE
:10507000EC00C82FC17080FDC0E81092E90080915B
:10508000F000877F8093F00078940E94652810924A
:10509000E9008091F00088608093F000CD2BCF7004
:1050A000C093E900FF91EF91DF91CF91BF91AF9154
:1050B0009F918F917F916F915F914F913F912F9130
:1050C0000F900FBE0F901F9018951F93CF93DF93F3
:1050D000CDB7DEB7AA970FB6F894DEBF0FBECDBF2F
:1050E0008CE794E02091F100FC012193CF01F4E0E2
:1050F00084389F07B9F70E94D0238091E80083FF8E
:105100001EC180917C0490917D049A3008F017C1F3
:10511000E92FF0E0E35FF44D0C94372A803899F0E2
:10512000823809F00CC1809180048F70873008F0BC
:1051300006C18093E9008091EB0085FB882780F908
:105140001092E90006C08091780490917904911141
:1051500082609091E800977F9093E8008093F1003F
:105160001092F1008091E8008E77E5C0882309F461
:10517000D3C0823009F0E3C080917E048111D6C093
:10518000809180048F702FEF280F263008F0D7C051
:105190008093E9002091EB0020FFC8C0933031F4E8
:1051A0008091EB0080628093EB00C0C09091EB0097
:1051B00090619093EB0021E030E001C0220F8A95CE
:1051C000EAF72093EA001092EA008091EB008860F1
:1051D000EACF8111B4C010917E041F778091E30063
:1051E0008078812B8093E3008091E800877F809313
:1051F000E8000E9482268091E80080FFFCCF809129
:10520000E30080688093E30082E0111183E08093E3
:105210007B0495C08058823008F091C080917E0454
:1052200090917F048C3D23E09207A1F583E08A836F
:105230008AE289834FB7F894DE01139620E03EE0BE
:1052400051E2E32FF0E050935700E49120FF03C0B8
:10525000E295EF703F5FEF708E2F90E0EA30C0F084
:10526000C7968D939D932F5F243159F74FBF80913F
:10527000E800877F8093E8006AE270E0CE01019643
:105280000E9491258091E8008B778093E80057C0B9
:10529000C096E7CF6091800470918104AE014F5FAA
:1052A0005F4F0E94D224BC01892B09F448C0909121
:1052B000E800977F9093E80089819A810E94EF250A
:1052C000E1CF8038E1F58091E800877F8093E800A6
:1052D000809177048093F10045CF811130C0909187
:1052E0007E04923060F58091E800877F8093E8002B
:1052F000909377040E94822680917704882311F08E
:1053000084E005C08091E30087FDFACF81E08093BF
:105310007B040E94C62313C080917E04813079F4FF
:1053200081E0933009F080E0809379041092E900E5
:105330008091E800877F8093E8000E948226809118
:10534000E80083FF0AC08091E800877F8093E8002F
:105350008091EB0080628093EB00AA960FB6F894E0
:10536000DEBF0FBECDBFDF91CF911F91089508958D
:10537000CF9380917B048823A1F0C091E900CF7086
:105380009091EC00892F817090FD80E8C82B1092DD
:10539000E9008091E80083FD0E946528CF70C093EA
:1053A000E900CF910895991B79E004C0991F9617E1
:1053B00008F0961B881F7A95C9F78095089587FB9A
:1053C000082E062687FD819567FD61950E94D329E9
:1053D0000EF4919507FC81950895AA1BBB1B51E122
:1053E00007C0AA1FBB1FA617B70710F0A61BB70B55
:1053F000881F991F5A95A9F780959095BC01CD01FA
:10540000089597FB072E16F4009407D077FD09D076
:105410000E94ED2907FC05D03EF4909581959F4FA1
:105420000895709561957F4F0895A1E21A2EAA1BE9
:10543000BB1BFD010DC0AA1FBB1FEE1FFF1FA21744
:10544000B307E407F50720F0A21BB30BE40BF50B41
:10545000661F771F881F991F1A9469F760957095CA
:10546000809590959B01AC01BD01CF010895EE0F91
:10547000FF1F0590F491E02D09940E94452A3323E3
:1054800012F48A1B9B0B0C94562AA29FB001B39F67
:10549000C001A39F700D811D1124911DB29F700D3D
:1054A000811D1124911D08950E94452AB7FF08957A
:1054B000821B930B08950E94452AA59F900DB49FCF
:1054C000900DA49F800D911D11240895B7FF0C9499
:1054D0005B2A0E945B2A821B930B0895FB01DC016F
:1054E00002C005900D9241505040D8F70895FC013C
:1054F0004150504030F001900616D1F73197CF015E
:105500000895882799270895FB01DC0104C08D9137
:105510000190801921F441505040C8F7881B990B25
:105520000895F999FECF92BD81BDF89A992780B56B
:105530000895A6E1B0E044E050E00C94CB2AA8E145
:10554000B0E042E050E00C94CB2A262FF999FECF30
:1055500092BD81BDF89A019700B4021639F01FBAC6
:1055600020BD0FB6F894FA9AF99A0FBE08950396E3
:10557000272F0E94A62A0E94A52A252F0E94A62A2C
:10558000242F0C94A62A0196272F0E94A62A0C9459
:10559000A52ADC01CB01FC01F999FECF06C0F2BDC2
:1055A000E1BDF89A319600B40D9241505040B8F7E1
:1055B0000895F894FFCF8F1097109E10A310A81095
:1055C000AD10B210B710BC10C110C610CB10CF1068
:1055D000D410D710DA10DD10E010E210E5100F192A
:1055E0000F19671967193C193C193C193C19B9196D
:1055F000451A541A541AB01A3C193C19B91A221BEC
:10560000221B2B1B2B1B2D1B2B1B2B1B2B1B221B7A
:10561000221B321B2B1B2B1B321B8E28B6289F29CB
:0E562000B6289F29E9280A299F2961296D29AA
:10562E0040010102001400141401191A1B1C1D1E46
:10563E001F2021220021007F2200030F024C235144
:10564E00234F2350237E2301F5F6F731333266972D
:10565E00C6340001020202020606060909090909FA
:10566E00090F0F0F0F0F0F151515181919191919F5
:10567E0019191919192324000810181810080000F8
:00000001FF
