:100000008BC40000A6C40000A4C40000A2C4000069
:10001000A0C400009EC400009CC400009AC400005C
:1000200098C4000096C400000C946F220C945723CF
:100030000C94420F8EC400008CC400008AC40000DF
:1000400088C4000086C4000084C4000082C400008C
:1000500080C400000C944B227CC400007AC40000D1
:1000600078C4000076C4000074C4000072C40000AC
:1000700070C400006EC400006CC400006AC40000BC
:1000800068C4000066C4000064C4000062C40000CC
:1000900060C400005EC400005CC400005AC40000DC
:1000A00058C4000056C4000054C4000000AF00AEA5
:1000B0000000000000003E5B4F5B3E003E6B4F6B5C
:1000C0003E001C3E7C3E1C00183C7E3C18001C5729
:1000D0007D571C001C5E7F5E1C0000183C18000051
:1000E000FFE7C3E7FF00001824180000FFE7DBE785
:1000F000FF0030483A060E00262979292600407F65
:1001000005050700407F05253F005A3CE73C5A00A3
:100110007F3E1C1C0800081C1C3E7F0014227F220E
:1001200014005F5F005F5F0006097F017F000066CB
:1001300089956A0060606060600094A2FFA29400EC
:1001400008047E04080010207E20100008082A1CE5
:100150000800081C2A0808001E10101010000C1EB1
:100160000C1E0C0030383E383000060E3E0E0600E5
:1001700000000000000000005F0000000007000712
:100180000000147F147F1400242A7F2A12002313F6
:10019000086462003649562050000008070300003A
:1001A000001C224100000041221C00002A1C7F1C70
:1001B0002A0008083E080800008070300000080887
:1001C0000808080000006060000020100804020019
:1001D0003E5149453E0000427F4000007249494976
:1001E00046002141494D33001814127F1000274565
:1001F000454539003C4A4949310041211109070070
:10020000364949493600464949291E000000140074
:1002100000000040340000000008142241001414C3
:1002200014141400004122140800020159090600A8
:100230003E415D594E007C1211127C007F494949B4
:1002400036003E41414122007F4141413E007F490D
:10025000494941007F09090901003E4141517300AC
:100260007F0808087F0000417F4100002040413F97
:1002700001007F08142241007F40404040007F027F
:100280001C027F007F0408107F003E4141413E0078
:100290007F09090906003E4151215E007F091929A5
:1002A000460026494949320003017F0103003F40CF
:1002B00040403F001F2040201F003F4038403F008B
:1002C0006314081463000304780403006159494D62
:1002D0004300007F4141410002040810200000411A
:1002E00041417F00040201020400404040404000C0
:1002F0000003070800002054547840007F2844443D
:100300003800384444442800384444287F00385496
:100310005454180000087E09020018A4A49C780018
:100320007F080404780000447D4000002040403DE8
:1003300000007F102844000000417F4000007C0442
:10034000780478007C080404780038444444380079
:10035000FC182424180018242418FC007C08040429
:10036000080048545454240004043F4424003C40F2
:1003700040207C001C2040201C003C4030403C00C1
:100380004428102844004C9090907C004464544CC5
:1003900044000008364100000000770000000041E2
:1003A000360800000201020402003C2623263C001D
:1003B000000000C0E0E0E0C08000007CFEFFFFFE27
:1003C0007C0000C0E0F0F0E0C00000FEFEFEFEFE9B
:1003D000FE0000000000FEFEFEFEFEFE0000FEFE2F
:1003E000FEFEFE0000FEFEFEFEFE1E1EFEFEFCF8F1
:1003F0000000707078F8FCFEFEFEFE00000000E0D9
:10040000F8FE7EFEFEFEFEFE000000000000808082
:1004100080800000000080808080000000000000DC
:100420000000000000000000000000000000E0F0FC
:10043000F0F0E0ECEEF7F37020007C7C7C7E007E38
:100440007E7E7F7F7F000080C0E07E5B4F5BFEC0D2
:100450000000C000DCD7DEDEDED7DC00C00000001C
:10046000000000000000000000000000000000008C
:1004700080C0C0C3C7CF8F0F0F07E0F0F8F9F9F8BD
:10048000F0E0E0C7CF8F0F07030000FFFFFFFFFF83
:10049000FF0000000000FFFFFFFFFFFF3E3EFFFFE9
:1004A000FFFFFF0000FFFFFFFFFF3C3C3F3F1F0F30
:1004B0000000000000FFFFFFFFFFFF0080F8FFFFCC
:1004C000FF8780FFFFFFFFFF808000000000FFFF2D
:1004D000FFFF00000000FDFDFDFD001CFFFFFFFF12
:1004E0001C00FCFEFEFE8E8EFEFEFC0000000F1FB8
:1004F0003F7F7F7F7F7F3F1E0C001F1F1F3F003FFE
:100500003F3F7F7F7F00307B7F7830202030787FB7
:100510003B0003000F7F0F0F0F7F0F000300000051
:1005200000000000000000000000000000000000CB
:1005300003070F0F0F0F0703007FFFFFFFFFFFFFF2
:100540007F3F3F3F1F1F07000000007F7F7F7F7FAF
:100550007F78787878007F7F7F7F7F7F00007F7F44
:100560007F7F7F00007F7F7F7F7F00000000000093
:1005700000000000007F7F7F7F7F7F000707070765
:100580000707077F7F7F7F7F0707000000007F7FCF
:100590007F7F707070007F7F7F7F00003F7F7F7F55
:1005A00070003F7F7F7F70707C7C3C00000000000B
:1005B000000000000000000000000000000000003B
:1005C000000000000000000000000000000000002B
:1005D000000000000000000000000000000000001B
:1005E000000000000000000000000000000000000B
:1005F00005010902A10185020901A10005091901EE
:1006000029081500250195087501810205010930A9
:1006100009311581257F95027508810609381581F4
:10062000257F950175088106050C0A38021581257C
:100630007F950175088106C0C005010904A10185E7
:1006400007A1000501093009311581257F95027543
:100650000881020509190129011500250195017577
:10066000018102950775018101C0C005010906A13C
:1006700001050719E029E715002501950875018195
:10068000029501750881010507190029FF1500264B
:10069000FF00950675088100050819012905150058
:1006A0002501950575019102950175039101C00918
:1006B000023B00020100A0FA09040000010301014D
:1006C00000092111010001224400070581030800EF
:1006D00001090401000103000000092111010001CA
:1006E000227B0007058203200001120100020000A6
:1006F000000814FF0C0001000102000114034C006B
:1007000048005000310034004C006900740065005E
:10071000000022035400720069006E00690074003A
:100720007900490072006F006E0077006F00720060
:100730006B007300000004030904000102030409B4
:10074000080706050A0B0C0D0E131211100F0001FD
:100750000101010101010101020202020202020281
:100760000203030303030303030404040404040453
:100770000505050505060606060607070707070817
:10078000080808090909090A0A0A0B0B0B0C0C0CCA
:100790000D0D0D0E0E0E0F0F0F1010111111121264
:1007A00013131414151516161717181819191A1AE1
:1007B0001B1B1C1D1D1E1E1F202021222223242442
:1007C000252626272829292A2B2C2D2D2E2F30317E
:1007D0003232333435363738393A3B3C3D3E3F4090
:1007E0004142434445464748494A4C4D4E4F50517B
:1007F0005354555658595A5B5D5E5F616264656635
:1008000068696B6C6D6F7072737577787A7B7D7EBB
:100810008082838587888A8C8E8F91939596989A0B
:100820009C9EA0A2A3A5A7A9ABADAFB1B3B5B7BA23
:10083000BCBEC0C2C4C6C9CBCDCFD1D4D6D8DBDDF7
:10084000DFE2E4E7E9EBEEF0F3F5F8FAFDFF00DABA
:100850000281FFD9F1DB20A4A62EAF00A0C0D300F7
:1008600000A1C8D30000AED580A81F408D14200081
:1008700000047F3F1F643214643214783C1E556EAE
:10088000646566696E656400524742204C454420A9
:10089000544553540A004B455920544553540A00BB
:1008A0004C617965723A200014001A0008001500A6
:1008B00017000000000004001600070009000A00ED
:1008C000000000001D001B000600190005000000CC
:1008D00000001E001F0020002100220000740152B1
:1008E0002078237824782578267800000000217865
:1008F000407E2778287800000000000000000000FB
:1009000000000000000000000000000000000000E7
:10091000000000000074005211241FBECFEFDAE087
:10092000DEBFCDBF11E0A0E0B1E0EEE4F3E502C030
:1009300005900D92A436B107D9F724E0A4E6B1E002
:1009400001C01D92A43AB207E1F70E941D1C0C944D
:10095000542956CB609357047093580480935904DC
:1009600090935A04089560935B0470935C048093A1
:100970005D0490935E0408950F931F93282F61E008
:1009800070E080E090E004C0660F771F881F991F19
:100990002A95D2F700915B0410915C0420915D04CC
:1009A00030915E04602B712B822B932BDCDF1F9127
:1009B0000F9108950F931F9341E050E060E070E0C5
:1009C00004C0440F551F661F771F8A95D2F7CB01CD
:1009D000BA01609570958095909500915B04109197
:1009E0005C0420915D0430915E04602371238223B6
:1009F0009323B9DF1F910F910895292F943098F513
:100A0000873088F590E037E0239F800D911D1124F9
:100A1000282F277041E001C0440F2A95EAF723E010
:100A2000969587952A95E1F725E0289FF001299F63
:100A3000F00D1124EB5DFB4F20E030E070E05191B0
:100A4000DF01CB01022E02C0969587950A94E2F74A
:100A5000817081958527842385278E932F5F3F4F53
:100A60002530310561F70895292F943080F58730BE
:100A700070F590E037E0239F800D911D1124682FC1
:100A8000677023E0969587952A95E1F725E0289FE2
:100A9000F001299FF00D1124EB5DFB4F40E050E089
:100AA00080E0219130E0062E02C0369527950A9409
:100AB000E2F721703327042E01C0220F0A94EAF7CF
:100AC000822B4F5F5F4F4530510559F7089580E005
:100AD00008958091640490916304981301C008956F
:100AE0008F5F8770FACF90915F0480958923809300
:100AF0005F04282F277021110CC0891751F09091A5
:100B0000610492FF06C086958695869553DF109204
:100B10005F040895982F90958091540489238093C1
:100B2000540408957430D0F46730C0F48230C8F4AF
:100B3000E62FF0E097E0799FE00DF11D112490E0A1
:100B40009195819591098C719927E80FF91FEE0F06
:100B5000FF1FE855F74F85919491089580E090E04C
:100B6000089581E0FCCF9C01803E910509F448C0C6
:100B7000D8F48133910509F47DC048F48932910598
:100B800009F46DC08A9709F47CC0C90108958933BE
:100B9000910551F18238910539F1C597B1F78091EE
:100BA000600485FFF2CF29C0843E910509F447C057
:100BB00048F4823E910599F1833E9105A9F121EE19
:100BC00030E0E3CF863E910509F444C0873E9105AD
:100BD000E1F68091600483FD61C09091610491FF12
:100BE0002BC024EE30E0D1CF80916004837081115E
:100BF00052C08091610483FFC8CF29E230E0C5CFA5
:100C00008091600480FD33C09091610490FFBDCF5E
:100C100023EE30E084FFB9CF20E030E0B6CF809102
:100C2000600482FDF5CFB1CF8091600482FD30C0B9
:100C30009091610490FD2FC084FFA7CFEDCF8091EC
:100C4000610481FFA2CF8091600427EE30E084FD33
:100C5000E3CF9BCF8091600483FDF7CF96CF809147
:100C6000600485FD1EC08091610483FF8ECF29E35F
:100C700030E08BCF8091600486FF87CF2AE230E09E
:100C800084CF8091600486FF80CF21E330E07DCF68
:100C900022EE30E07ACF20EE30E077CF26EE30E063
:100CA00074CF25E330E071CF9091600492FF10C0C3
:100CB00041E0282F2471243009F040E031E0282F52
:100CC0002871283009F030E0431711F02CE082271A
:100CD00093FF10C041E0282F2471243109F040E037
:100CE00031E0282F2871283109F030E0431711F046
:100CF0002CE082273091610430FF10C051E0282F92
:100D00002171213009F050E041E0282F287128306E
:100D100009F040E0541711F029E0822731FF10C09C
:100D200041E0282F2171213109F040E031E0282FE6
:100D30002871283109F030E0431711F029E08227AB
:100D400094FD877E08951F93CF93DF930CDFEC0112
:100D5000811522E5920708F044C0811540E594070B
:100D600008F0BAC0883E9105E0F4803E910560F439
:100D7000853A910570F4049738F481E0219709F0E1
:100D800080E0C82F50E0D52FCE01DF91CF911F9189
:100D900008958D5C9109D0654397B0F3C0E0D0E031
:100DA000F3CFC11580E4D80798F4C11590E2D907B4
:100DB00008F0A8C0CE019A9581159F4178F78D2F34
:100DC00073DF182FCE019927CEDEEC01D12BDCCFBB
:100DD000CE019927C8DECC27DF70C82BD92BD06A6B
:100DE000D3CF803842E59407C8F5803652E59507A1
:100DF00008F056C0C03482E5D807D0F4C03292E57E
:100E0000D90708F046C08C2F8695869520E2829FF0
:100E1000C0011124C37021E030E0A90102C0440FD9
:100E2000551FCA95E2F7EA01C82BD92BDD68ACCF74
:100E30008C2F86958695877050E2859FC00111247E
:100E4000C37021E030E0A90102C0440F551FCA95CC
:100E5000E2F7EA01C82BD92BDC6896CF803C52E53B
:100E6000950758F48F71C03AD24578F590E0982FE5
:100E70008827EC01C46FD06A87CF805C9245809749
:100E800008F08CCFDC2FCC27CC27DF71C06FD06A65
:100E90007BCFCF71D0E0DC2FCC27C16FD06A74CF6D
:100EA00086958695877020E2829FC0011124C370C9
:100EB00021E030E0A90102C0440F551FCA95E2F7B6
:100EC000EA01C82BD92BDA685FCFEEDEC82FD0E05D
:100ED000DC2FCC27D06258CF8F71E6DE93E0CC0FA9
:100EE000DD1F9A95E1F7CC27DF70282F30E084FFD3
:100EF00005C050E1859F900111243327C22BD32BCD
:100F0000D06942CF8D2F8F71CFDE182FCE01992758
:100F10002ADEEC01D12BDECFA0E0B0E0E2E9F7E081
:100F20000C947E258C01C0905B04D0905C04E09012
:100F30005D04F0905E048091570490915804A09154
:100F40005904B0915A04C82AD92AEA2AFB2ACFE1C7
:100F5000D0E0D701C6010C2E04C0B695A795979591
:100F600087950A94D2F780FD09C0219790F7B12C9C
:100F70008B2DCDB7DEB7E9E00C949A25BC2EB801D5
:100F80008C2FD0DDE0DE019781F3F2CF0F931F931A
:100F9000CF93FC01858100811181811579F0611564
:100FA00069F0C801B9DFC82F682FC80126DDB80174
:100FB0008C2FB8DDCF911F910F910895C80154DD9A
:100FC000C82FF5CFCF93DF93D82FC92FA5DF6D2F73
:100FD0007C2FA8DDB8DEDF91CF910895FC018481DC
:100FE000811599F080819181EDDF282F92959F7076
:100FF000963099F060F4925F9F70923030F4203F09
:10100000B1F038F481E0283E38F080E008959A5F2E
:10101000F3CF81E0243FC9F7089591E0213F09F023
:1010200090E081E0283E08F080E0892B089581E07F
:10103000089580E00895F894E82FE295EF70F0E0CD
:1010400041A18F7021E030E0B90102C0660F771F27
:101050008A95E2F7CB01962F9095942391A392A1C4
:10106000892B82A3789408950895CF92DF92EF920E
:10107000FF921F93CF93DF93172FE82FF0E0E25BEF
:10108000F84F71110CC0E4918E2F7E2F6E2FDF91DF
:10109000CF911F91FF90EF90DF90CF900895E62EB3
:1010A000F12CC72ED12CF491EF2F86E0689F900190
:1010B0001124CFEFD0E0C901BE010E946125AB0130
:1010C000EE0CFF1C65E5649FC001659F900D112427
:1010D000E81AF90A6E2D660F6E0D7E01EC18FD08F8
:1010E000FE9DD001FF9DB00D11248B2F169F700126
:1010F0001124EF2CFF246E01CE18DF087601FE9D2F
:101100006001FF9DD00C11247E01E61AF108B701A1
:10111000169F7001179FF00C1124EF2CFF24CE199D
:10112000DF09FC9F7001FD9FF00C11247F2D4330DF
:101130005105C1F02C3F334058F441305105B1F016
:101140004230510509F0A2CFEB2F8F2D7F2F9ECF7C
:101150004430510571F04630510509F497CF7B2F8B
:101160008D2D94CF7D2DEB2F8F2F90CF7F2FED2DB9
:101170008DCFEF2D7B2FF8CFCF93DF93982F762F46
:10118000842FE901692F71DF472F282FFE01FF27E8
:10119000E65CF84FE4918E2F90E055D1DF91CF912E
:1011A0000895CF93DF938091460480FD0EC0CAE37B
:1011B000D7E0FE01849120E040E060E090E043D180
:1011C0002196F7E0CE34DF07A1F75BD3DF91CF9113
:1011D0000895FF920F931F93CF93DF93182F062F3D
:1011E000F42E8091460480FF0FC0CAE3D7E0FE01D1
:1011F00084912F2D402F612F90E025D12196F7E08B
:10120000CE34DF07A1F7CDDFCDB7DEB7E5E00C9434
:101210009E25CF93DF93EC018091460480FF0EC0A2
:101220007091480480914904893708F088E76C81FF
:101230001CDF962F672F482F892FCBDF8C818F5F84
:101240008C83DF91CF910895FF920F931F93CF93DB
:10125000DF93EC01F12C00E010E0409149044937A4
:1012600008F048E78C819801609148048F0D84DF75
:101270000F5F1F4F8CE0F80E0431110571F791DFFD
:101280008C819A8190FF07C08F5F8C83CDB7DEB7CA
:10129000E5E00C949E258150F8CFEF92FF920F93DA
:1012A0001F93CF93DF93FC018281FF24F39480FF8F
:1012B00002C0FF24FA94C0E0D0E0FE01E65CF84FE3
:1012C000849120E040E060E090E0BDD004E010E0D8
:1012D000E12C8091C9018E0D8531A4F164E10E9459
:1012E000B825892F082E001C00088C170D0691F4D4
:1012F000409149040403A001112455954795559543
:101300004795493708F048E79E016091480480916D
:10131000470432DFEF0C01501040D9F62196C4315A
:10132000D10559F63EDF8091C901F1E0FF120EC0F0
:10133000811591F081508093C901CDB7DEB7E6E009
:101340000C949D2587FFCECF8C5ECCCF90E001968C
:10135000BE010E94C525EFCF83E1EDCF0F931F9310
:10136000CF93DF930EE417E0CAE3D7E0FE01849148
:1013700020E040E060E090E066D021960C171D0769
:10138000A9F7C0E0D0E08091C801082E001C000839
:10139000C817D00584F180910101082E001C0008B7
:1013A0008C170D0644F140914904493708F048E78D
:1013B0009E016091480480914704DEDE2196C4318D
:1013C000D10509F7EEDE809100019091C801980FD8
:1013D0009093C80120910101280F2093010112165A
:1013E00014F493311CF0819580930001DF91CF912B
:1013F0001F910F910895FE01E65CF84F849120E063
:1014000040E060E090E01FD0D9CFCF93DF93EC01B4
:10141000209149049C81892F817090FD822F692F32
:10142000627091FD622F492F447092FD422FD1DEF0
:101430008C8190E00196877099278C83DF91CF9102
:101440000895539A0895FC01EE0FFF1FE80FF91F4E
:10145000E457FE4F6183408322830895282F35EBA4
:101460002303C001112497FF04C080589109892FDC
:10147000089580589F4FFBCF80913B0480FD14C09E
:1014800081FD14C082FD16C080913A04811581F05F
:101490008E3180F420E5829FC00111246EE170E05E
:1014A0000E94C525862F089584E1089588E2089555
:1014B00088E0089580E5089580913B0480FD17C081
:1014C00081FD17C082FD19C080913904811599F002
:1014D000883298F428E0829FC001112468E270E00D
:1014E0000E94C5256115710551F0862F089562E0AF
:1014F000FCCF64E0FACF61E0F8CF68E0F6CF81E09E
:101500000895E0911B04F0911C04309739F001908C
:10151000F081E02D309711F00995089580E008954D
:101520009C01FC0132968FEF90E04191461751F0FB
:101530008F3F19F4411101C0892F9F5F9630A9F7A1
:101540008F3F09F40895280F311D87FD3A95F90161
:10155000628308959C01FC013296285F3F4F819180
:10156000861302C0DF011E92E217F307C1F7089548
:1015700080910401089508950895FC019B018091D4
:101580008201909183018617970740F0672B29F419
:101590008091E8008E778093E800C90140E00097D1
:1015A00041F4411106C08091E80082FF2FC080E025
:1015B00008952091D7012115A9F12530A9F1209195
:1015C000E80023FD2DC02091E80022FDECCF209102
:1015D000E80020FFE4CF3091F3002091F200009763
:1015E00019F02830310558F041E02830310509F074
:1015F00040E02091E8002E772093E800D0CF419181
:101600004093F10001972F5F3F4FE9CF8091D701C1
:10161000811541F0853041F08091E80083FFC3CF10
:1016200081E0089582E0089583E0089580917C012F
:1016300087FF13C08091E80082FF06C08091E80018
:101640008B778093E80008958091D7018111F2CFC4
:1016500008958091D7018115D9F38091E80080FF2A
:10166000F8CF8091E8008E77ECCF2091E4003091A4
:10167000E50095E6A9012091EC00822F817020FF02
:1016800006C08091E80080FF06C080E008952091A8
:10169000E80022FD1AC08091D701811589F08530BC
:1016A00089F08091EB0085FD0FC02091E40030911E
:1016B000E50042175307F9F29A95E1F684E00895A0
:1016C00082E0089583E0089581E00895E8EDF0E078
:1016D00080818E7F80831092E2001092DA00109257
:1016E000E100A0EEB0E08C9181608C9380818F77D7
:1016F000808319BCA7EDB0E08C918E7F8C938081A4
:101700008F7E808310927B0108952091D101382F24
:101710003203C0011124811522E0920714F080E009
:1017200090E0855F9D4F9093CF018093CE01089507
:10173000982F9093E900891771F07091EC00209137
:10174000ED005091F00021FD09C09F5F973089F7AF
:101750008093E9000895762F242F50E03091EB001C
:101760003E7F3093EB003091ED003D7F3093ED00F4
:101770003091EB0031603093EB007093EC002093DC
:10178000ED005093F0002091EE0027FDDECF08958C
:10179000A0E0B0E0EEECFBE00C947F25C8EDD0E0DB
:1017A00088818F7E8883E7EDF0E08081816080838F
:1017B00084E082BF81E080937B0188818E7F888373
:1017C00002EE10E0F80110821092DA0081EEC82ECD
:1017D000D12CF601108288818F7788838881806878
:1017E000888388818F7D888319BC1092D7011092DD
:1017F0007A011092D6011092790190EEE92EF12C27
:10180000F70180818B7F808388818160888342E0BB
:1018100060E080E08DDFF60180818E7F8083F801BB
:10182000808181608083808188608083F7018081EE
:101830008E7F8083888180618883CDB7DEB7E8E0C2
:101840000C949B25E09164049091630427E0E913D4
:1018500002C080E00895AE2FB0E02E9FF001112469
:10186000EB59FB4F3181361306C03081381303C06A
:101870003581341304C0FD013196E770E8CF81E073
:1018800008953BB1377F2BB128604FB7F8948CE8AF
:1018900091E0FC010196508168E02BB9000000C086
:1018A00057FF3BB9550F000000C000C000C03BB956
:1018B00000C06A9591F751E0883C950751F74FBFFA
:1018C0008FE594E00197F1F700C0000008950F93B1
:1018D0001F93CF93DF938B01EA019091D70194304E
:1018E00051F58093E9008FEF9091E80095FD06C0D7
:1018F00095ED9A95F1F700008A95B1F78091E8008F
:1019000085FF19C0B2DE811111C08091E80085FD0C
:1019100006C08091E8008E778093E800F3CFF8014D
:1019200081918F018093F100219779F78091E800F0
:101930008E778093E800DF91CF911F910F910895EA
:10194000A4E0B0E0E6EAFCE00C9485258091530425
:101950008115D1F080911B0490911C04892B91F08A
:1019600087E0898380914F048A83809151048B831F
:1019700080914E048C8344E050E0BE016F5F7F4F46
:1019800082E0A5DF109253042496E2E00C94A12596
:10199000CF93DF93D82FC92F48E050E0682F792FDD
:1019A00081E095DF88E0ED2FFC2FA4E8B1E0019005
:1019B0000D928A95E1F7DF91CF910895BC0146E041
:1019C00050E082E084CF9091610492FB222720F9BD
:1019D000281771F080FB92F9909361046091600484
:1019E0007091610484E090E00E94402982E07BC80D
:1019F00008958091540490916204892B409155047C
:101A0000411589F090E028E631E0F90150812F5F1F
:101A10003F4F51119F5F51E02E363507B1F79111BD
:101A200010925504842B8093660148E050E06DE1EC
:101A300074E086E691E00E948726892BB9F088E061
:101A4000E6E6F1E0ADE1B4E001900D928A95E1F7B0
:101A5000E0911B04F0911C04309741F00280F38167
:101A6000E02D309719F086E691E0099508958115EB
:101A700031F090915404892B80935404BACF089587
:101A8000811511F047D8B5CF08950F93CF93DF9309
:101A9000C6E4D4E0488159816A817B8188E090E086
:101AA0000E943829288139814A815B816C817D813E
:101AB0008E819F8100E20E942526622F83E290E0C2
:101AC0000E942629DF91CF910F910895E6E4F4E07A
:101AD00085E0808311828FEF828388E7838314827D
:101AE000CF01D3CF80914A04833018F48F5F809365
:101AF0004A0486E494E0C9CF80914A04811519F024
:101B0000815080934A0486E494E0BFCF0F931F93E3
:101B1000CF93DF93D82F162FC42F022F8091460426
:101B200080FF23C0E82FE695E695F0E0E45CFE4FE9
:101B30009081909344048C7F8430E1F4842F493762
:101B400008F088E76D2F712F90DA962F672F482FB6
:101B5000892F3FDBD093470410934804C093490476
:101B6000011519F086E494E090DFDF91CF911F9189
:101B70000F910895923019F4D0914704EBCF95302E
:101B800049F7FACFE6E4F4E0818121E04381628104
:101B9000885FBCCFE6E4F4E0818121E0438162818B
:101BA0008850B4CFE6E4F4E0628128E0620F08F4E4
:101BB0006FEF21E043818181A9CFE6E4F4E0628107
:101BC00028E0621B08F460E021E0438181819ECF20
:101BD000E6E4F4E0438128E0420F08F44FEF21E00F
:101BE0006281818193CFE6E4F4E0438128E0421BE7
:101BF00008F440E021E06281818188CFAB0124E6D6
:101C000030E0BC0188E70E94CF249C0181E0232BB7
:101C100009F080E0089580910F04811561F08091B2
:101C2000D001811541F062E070E08EEA90E0E6DFDD
:101C300081111092D001089580910F04811571F0E7
:101C40008091D00181110AC062E070E08CEA90E0DE
:101C5000D5DF811519F081E08093D00108958F922E
:101C60009F92AF92BF92CF92DF92EF92FF920F932B
:101C7000CF93DF9388E090E00E941C294B015C0128
:101C8000C6E4D4E068839982AA82BB821C821D824A
:101C90001E821F8283E290E00E941429282F30E0E8
:101CA00040E050E060E070E080E090E000E20E9400
:101CB0000A26282939294A295B29288339834A8316
:101CC0005B836C837D838E839F83DF91CF910F91A4
:101CD000FF90EF90DF90CF90BF90AF909F908F904C
:101CE0000895CF93DF93682F81E06A3019F06D304B
:101CF00029F480E075D0DF91CF9108958091CE01D5
:101D00009091CF0126E0FC01A3E7B1E001900D9294
:101D10002A95E1F7603E08F458C026E0FC011192D4
:101D20002A95E9F7C091CE01D091CF0146E050E06D
:101D3000BE0183E791E00E9487269E012B5032402E
:101D4000892B41F1C90145E0969587954A95E1F7C0
:101D500041E050E0BA0102C0660F771F8A95E2F7B2
:101D6000CB0160910D0470910E04862B972BB90165
:101D70006B5F7F4FE5E076956795EA95E1F702C0E6
:101D8000440F551F6A95E2F7842B952B90930E0410
:101D900080930D042A5F3F4F4091D101642F70E082
:101DA000C9010E946125481B463010F4240F311DE3
:101DB000211572E0370710F020E030E0255F3D4F3D
:101DC0003093CF012093CE0196CFF6E06F9FB00104
:101DD000112460557F4F46E050E00E947126A2CF4B
:101DE000CF93382FE091CE01F091CF01EB50F2402C
:101DF0002091D101622F70E0CF010E946125281B44
:101E0000822F311559F066E00E94AC25C82FC150D1
:101E100010F4CF91089580E264DFF9CF8E0F9F2FE9
:101E2000911D811522E0920710F080E090E0855F1F
:101E30009D4F9093CF018093CE01EBCF0F931F93D3
:101E4000CF93DF93EC01FC0101900020E9F78F01B3
:101E500001501109C017D10728F0DF91CF911F91D0
:101E60000F91089589913DDFF5CFCF93DF93EC017A
:101E7000FE018491811103C0DF91CF91089531DF7C
:101E80002196F6CF1F921FB61F9211248F939F9316
:101E9000AF93BF938091D301811113C0809114043B
:101EA00090911504A0911604B09117044196A11DBC
:101EB000B11D8093140490931504A0931604B0935D
:101EC0001704BF91AF919F918F911F901FBE1F90DC
:101ED00018952FB7F8948091140490911504A0914F
:101EE0001604B09117042FBF0895CF93DF93EC0130
:101EF000F0DF8C1B9D0BDF91CF910895609146041C
:101F00006695669570E041E050E082E091E00E94C5
:101F10007A26892B19F481E080934504DADF9093C7
:101F2000E2018093E10108959091460490FF2CC056
:101F3000811559F1853158F58F73880F880F90916D
:101F400046049370892B80934604611519F086E44A
:101F500094E09BDD609146046695669570E041E0F3
:101F600050E082E091E00E947A26892B91F0109255
:101F7000450481E08093E40120E0409149046091B0
:101F8000480480914704C2CD089581E0D6CF84E112
:101F9000D4CFB4DFEECF80914604869586958F5FCF
:101FA000853108F081E061E0BFCF809146048695DD
:101FB00086958A9509F484E161E0B6CF8ADF2091A5
:101FC0003E0430913F04232B211521F0809312040D
:101FD000909313042091400430914104232B211548
:101FE00021F08093100490931104E0911B04F09170
:101FF0001C04309759F00680F781E02D309731F0BE
:1020000082E080933C048CE394E009950895611587
:1020100009F441C0E3E3E80FE33148F4F0E0EA5AA1
:10202000F64D0C94F42528DA819580933F04C6CFB1
:1020300023DAFBCF21DA819580933E04F8CF1CDAB6
:10204000FBCF3ADA80934004F2CF36DA8195FACFAB
:1020500033DA819580934104EACF2EDAFBCF815D9C
:10206000990B21E030E001C0220F8A95EAF78091B8
:102070003D04822B80933D04DACF80913B04816044
:1020800080933B04D4CF80913B048260F9CF809150
:102090003B048460F5CF40913E048D3C59F480911F
:1020A0003F0487FF0DC010923F04411559F4109270
:1020B0003A0408C08E3C81F480913F0418169CF3CA
:1020C000411581F08091400490914104892B811148
:1020D000AECF10923904ABCF8F3C41F447FFF0CF25
:1020E00010923E0480913F048115E0CF803D19F4A9
:1020F0001416B4F3E5CF90914004893D29F41916E4
:10210000FCF610924004DCCF8A3D19F497FFD8CF3B
:10211000F8CF909141048B3D29F497FFD1CF1092D5
:102120004104CECF8C3D19F41916CCF3C9CF9FE2F0
:10213000980F983090F4815D990B21E030E0B9015F
:1021400002C0660F771F8A95E2F7CB0180959091C8
:102150003D04892380933D04B3CF8D3D31F48091BC
:102160003B048E7F80933B04ABCF8E3D21F4809166
:102170003B048D7FF7CF8F3D09F0A2CF80913B04C8
:102180008B7FF0CFCF93C82F811599F08CEF8C0FF8
:10219000813A88F4E8E6F1E08EE691E02191C217F9
:1021A00019F18E179F07D1F76C2F86E691E0B8D909
:1021B00020DCCF91089580E28C0F883068F4C770DE
:1021C00021E030E001C0220FCA95EAF78091540463
:1021D000822B80935404ECCF83E38C0F833148F738
:1021E00061E08C2F14DFE5CF6C2F86E691E0B2D949
:1021F00000DCDACF8115E9F09CEF980F913A28F4D2
:10220000682F86E691E0A6D9F4CB90E2980F98303B
:1022100050F4877091E001C0990F8A95EAF7892FF1
:102220000E948A05F1CF93E3980F933110F460E098
:10223000EECE0895CF9310925404C6E0E8E6F1E0A4
:10224000DF018C2F1D928A95E9F710926204D1DB91
:10225000ECE3F4E0DF011D92CA95E9F710923A042D
:102260001092390410923B04A9DECF910895E2DF69
:102270002FEF84E39CE0215080409040E1F700C0C4
:10228000000088E19AE00FB6F894A895809360006A
:102290000FBE90936000FFCFAAE2B0E0E2E5F1E16B
:1022A0000C9484258CE791E0FC0101962091F100CB
:1022B000208321E084389207B9F780917D0189302D
:1022C00009F457C0C8F4823009F4B1C0833009F46E
:1022D00081C0813081F18091E80083FFE5C0809169
:1022E0007C0190917D019A3008F0DEC0E92FF0E08A
:1022F000E759F64D0C94F4258A3009F488C08B30E8
:1023000051F780917C01813231F780918001909169
:102310008101892B01F78091E800877F8093E80095
:1023200085D981E090917E01911101C080E0809378
:10233000050180DFD0CF80917C01813A61F68091E8
:10234000E800877F8093E80080918001909181016F
:10235000892B59F060E080E090E070E00ED9809128
:10236000E8008B778093E800B6CF68E084E891E0DE
:10237000F4CF80917C01813209F0ADCF8091800152
:1023800090918101029708F0A6CF8091E800877FA5
:102390008093E8008091E80082FF17C09091F300DD
:1023A0008091F200029731F48091F100813011F0B8
:1023B000863021F48091F100809304018091E8003F
:1023C0008B778093E80032D986CF8091D701811135
:1023D000E1CF81CF80917C01813A09F07CCF80915F
:1023E000800190918101892B09F075CF8091E800DF
:1023F000877F8093E8008091E80080FFFCCF809188
:1024000005018093F1008091E8008E77DACF80910A
:102410007C01813209F05FCF8091E800877F809353
:10242000E80004D980917F018093030154CF80910B
:102430007C01813A09F04FCF8091E800877F80933B
:10244000E8008091E80080FFFCCF80910301D9CFA4
:10245000803889F0823841F5809180018F70873013
:1024600018F58093E9008091EB0085FB882780F9BF
:102470001092E90006C08091D601880F90917901F1
:10248000892B9091E800977F9093E8008093F1006A
:102490001092F1008091E8008E7723C0811116C060
:1024A00080917E01813009F18091E80083FF0AC0AC
:1024B0008091E800877F8093E8008091EB00806244
:1024C0008093EB00AA96E3E00C94A025823061F79C
:1024D00080917E01811581F01092E9008091E800E1
:1024E000877F8093E800A2D8DFCF81E0933009F0A6
:1024F00080E08093D601F0CF809180018F702FEF24
:10250000280F263088F68093E9002091EB0020FF09
:10251000E3CF933031F48091EB0080628093EB0045
:10252000DBCF9091EB0090619093EB0021E030E0E5
:10253000A90102C0440F551F8A95E2F74093EA00B3
:102540001092EA008091EB008860E8CF8111ACCF57
:1025500010917E011F778091E3008078812B80931A
:10256000E3008091E800877F8093E8005FD8809146
:10257000E80080FFFCCF8091E30080688093E30057
:1025800083E0111101C082E08093D7018DCF805884
:10259000823008F089CF20917E0130917F012C3D5F
:1025A00053E0350799F583E08A838AE289834FB740
:1025B000F894DE01139620E03EE051E2E32FF0E0D4
:1025C00050935700849120FF03C082958F703F5F26
:1025D0008F708A30C8F0895C90E08D939D932F5F57
:1025E000243161F74FBF8091E800877F8093E80036
:1025F0006AE270E0CE0101960E94BD0A8091E80077
:102600008B778093E80050CF805DE6CF832F9927AA
:102610008330910529F160F48130910509F476C089
:10262000029709F041CF8BE390E0EFEAF6E02DC08E
:1026300020918001309181018132910509F45AC0C5
:10264000829709F031CF2115310509F469C0213095
:10265000310509F029CF8BE790E0E0EFF5E015C0F8
:10266000C90199272130B1F18230910509F43AC0AE
:10267000892B09F019CFE6E3F7E0E4918E2F90E083
:10268000E6E3F7E0009709F40FCF2091E800277FF9
:102690002093E800209182013091830182179307F3
:1026A00008F49C0140E02115310509F03EC04111BC
:1026B0003CC08091E80082FDA1CF8091D7018115B7
:1026C00009F49CCF853009F499CF8091E80083FF0D
:1026D000F0CF94CFE2E1F7E0E4918E2F90E0E2E1D9
:1026E000F7E0D0CFECEFF6E0E4918E2F90E0ECEF46
:1026F000F6E0C8CF2115310571F02130310509F020
:10270000D3CE89E090E0EAEDF6E0BFCF82E190E041
:10271000EAEEF6E0BACF89E090E0E1ECF6E0B5CF82
:1027200084E490E0EBE6F6E0B0CF8091D70181152C
:1027300009F464CF853009F461CF8091E80083FD0E
:102740005DCF8091E80082FDB4CF8091E80080FFEA
:10275000AACF9091F3008091F2002115310519F074
:102760008830910550F041E0089709F040E08091F1
:10277000E8008E778093E80096CF44914093F10073
:102780003196215031090196E8CF803809F08CCE7E
:102790008091E800877F8093E80080917A018093A0
:1027A000F10078CE811180CE10917E01123008F0B8
:1027B0007BCE8091E800877F8093E80010937A01B8
:1027C0000E94160B1115A9F084E08093D70142E016
:1027D00061EC81E00E94980B42E261EC82E00E9491
:1027E000980B8091D701843051F482E080930601E8
:1027F0005BCE8091E30087FDE7CF81E0E6CF81E00B
:10280000F5CFEF92FF920F931F93CF93DF93C62FD5
:10281000D42F122F811599F0609342045ADB9093C4
:10282000720180937101C77081E001C0880FCA9561
:10283000EAF71DD9CDB7DEB7E6E00C949D2580916F
:10284000420468132FC0E0907101F090720141DBE7
:102850008E199F09883C910528F500E20D0FCD17D0
:1028600099F0C770FF24F3948F2D01C0880FCA958B
:10287000EAF706D9083040F48D2F877001C0FF0CAD
:102880008A95EAF78F2DF3D8812F7CDC812FB2DC7B
:10289000083080F6D77081E001C0880FDA95EAF73A
:1028A000EFD8C8CFC77081E001C0880FCA95EAF79A
:1028B000F7CF8F929F92AF92BF92EF92FF920F93BA
:1028C0001F93CF93DF937C01FC018481811509F470
:1028D00057C061E0C7010E94C607EC018034FEE7E3
:1028E0009F0771F5F7018581811551F0EFD880912F
:1028F000460481608093460461E08695869514DBEA
:10290000F7019581911509F49EC4109242049E012D
:1029100030572332310508F07DC484E090E00E94F6
:1029200021299093610480936004FE01E150F047F7
:10293000E232F10508F046C0ED58F64D0C94F4254E
:10294000FC01E851FC47E730F105D0F6EB56F64DB7
:102950000C94F42526E241EE61EEF701858151DF0A
:1029600080915F048770811559F0F7018581811589
:1029700039F08091610482FF03C082E00E947305F8
:10298000DF91CF911F910F91FF90EF90BF90AF908B
:102990009F908F90089527E245EE65EEDECF26E208
:1029A00041EE60EEDACF27E245EE64EED6CF26E2C6
:1029B00041EE62EED2CF27E245EE66EECECF28E2C0
:1029C00041E0EBCF8091600481608093600460916E
:1029D00060047091610484E090E00E9440292ADC48
:1029E000BFCF80916104886080936104F0CF8091B3
:1029F00060048260EACF809160048460E6CF8091B9
:102A000060048860E2CF809161048160EDCF8091A5
:102A100061048260E9CF809160048061D6CF8091AB
:102A200060048062D2CF809160048064CECF02DCEB
:102A3000809160048068C9CF809160048C60C5CFAC
:102A4000809161048360D0CF809160048E7FBDCF80
:102A500080916104877FC8CF809160048D7FB5CF5E
:102A6000809160048B7FB1CF80916004877FADCF70
:102A7000809161048E7FB8CF809161048D7FB4CF47
:102A8000809160048F7EA1CF809160048F7D9DCF67
:102A9000809160048F7B99CFCDDB809160048F772C
:102AA00094CF80916004837F90CF809161048C7F6C
:102AB0009BCF80916004992782FF939590FB82F9C8
:102AC00090FB83F982CF80916104982F909590FBC1
:102AD00080F990FB81F988CF90916004892F8F7BDA
:102AE00096FF806472CFA6DB90916004892F97FBDC
:102AF00087F980586ACF61E08EE090E00E94262935
:102B000066CF60E0F9CF90916004892F8F7E94FFAB
:102B100080615BCF90916004892F8E7F90FF8160F0
:102B200054CF90916104892F877F93FF88605CCF99
:102B30008272FE01E052F847EB30F10508F048C020
:102B4000E456F64D0C94F4258091460480FF0CC0A9
:102B50008E7F8093460486E494E00E94450D109297
:102B600045040E94D108FCCE81608093460461E058
:102B700086958695D9D9F4CE811521F016DAF0CE56
:102B80008115E1F308DAECCE811521F003D8E8CE07
:102B90008115E1F30E94C20DE3CE811521F00DD81D
:102BA000DFCE8115E1F30E94D20DDACE811521F03E
:102BB0001AD8D6CE8115E1F30BD8D2CE811529F0E3
:102BC0000E947C0DCDCE8115D9F30E94720DC8CE26
:102BD0009E01345720343105A8F4911569F0809195
:102BE0004E048160C111BCCE80934E0481E080937D
:102BF00053040E94A00CB4CEC111B2CE80914E04F9
:102C00008E7FF2CF9E01205E324520323105C0F426
:102C100091112DC0CF71812C912C5401839404C04B
:102C2000880C991CAA1CBB1CCA95D2F7682D83E09E
:102C300090E00E942629C501B4010E94AA0490CE0A
:102C40009115A9F0CA35FCE7DF0709F4A7C008F021
:102C500072C0C1308CE7D80709F49FC0C3309CE72D
:102C6000D90709F494C0C115DC4709F475C0F70110
:102C7000858100811181811509F494C0C8010E94E9
:102C80008C07C82F682FC8010E94FD04B8018C2F43
:102C90000E9492050E94A306182FC92FF701B58044
:102CA000068102950F7080915F048770811501F194
:102CB000AB2CB114F1F0892F807F803461F080E279
:102CC000810F8830A8F0892F807E803221F4123065
:102CD00078F0011569F08091610482FF09C082E0FB
:102CE0000E94730580915F048770AA24A3948111C8
:102CF000A12C8C2F82958F70883009F424C108F0A4
:102D000071C0843008F053C0DC2FDF70823008F4CB
:102D10007AC0C07FC03211F0D295D07F111509F46E
:102D2000A7C0113009F4EEC0B11409F4F8C00115C0
:102D300009F4BAC07DC0CB35FCE7DF0789F180918B
:102D40006104002482FF0394802DCC35DC4709F018
:102D50008ECF0E94E30C8BCF6DDA8FEF94E3ECE023
:102D600081509040E040E1F700C0000087E797E71E
:102D7000909301088093000888E19AE00FB6F894D8
:102D8000A895809360000FBE90936000FFCF6FEF17
:102D90007FEF80E090E00E94402969DA81E0D9CF9E
:102DA00080E0D7CFC8010E943405C82F6FCF85308F
:102DB00009F4C5C0A11409F40FC180915F0480FD1E
:102DC0000BC1F70115828695869586950E94BC04F5
:102DD000C7016FDD80915F048695869586950E9478
:102DE000DA04FAC0893009F48BC18A5F8F708230AF
:102DF00008F7123F09F095C18C2F8F71B1108EC169
:102E00000E94BC04E7C0C03110F0D295D07FB1144D
:102E1000B9F0D11569F080E2810F883010F01111FE
:102E200009C0809154048D2B809354040E94F90CA6
:102E3000812F2EC0809162048D2B80936204F6CF87
:102E4000812FD8D9D11509F4B5CF80E2810F883010
:102E500010F0111104C08D2F0E948A0506C0D09574
:102E6000809162048D23809362040E94F90CA2CFAA
:102E70008091610482FD14C0B11461F0D11539F064
:102E8000809154048D2B809354040E94F90C80E0AF
:102E900079D990CF80E0AED9D11509F48BCFDBCFB3
:102EA000B114A1F0011104C08D2F0E94370D82CF03
:102EB000013009F07FCF809155049D2F9823D917B9
:102EC00009F478CF8D2B8093550474CF011172CF04
:102ED0008D2F0E94400D909155048D2F89238115CF
:102EE00029F08D2F80958923809355048091560475
:102EF0009D2F9823911509F45DCFD095D823D093B9
:102F0000560458CFB11421F0063008F053CFCCCF7F
:102F1000053008F04FCF8D2F0E94400D4BCF01158B
:102F2000D1F3193349F4FFEF27EE83E0F15020404D
:102F30008040E1F700C00000812F5CD93BCF6B2DB2
:102F4000812F65D837CF8C2F837081116CC0B11061
:102F500041C0412F429546954770440F440F812F41
:102F60008F7090E0A0E0B0E0042E04C0880F991F9D
:102F7000AA1FBB1F0A94D2F714FF33C00FE010E062
:102F800020E030E004C0000F111F221F331F4A95BC
:102F9000D2F70095109520953095C695C695C370CB
:102FA000C23071F1C33029F18090570490905804D9
:102FB000A0905904B0905A04C130B9F0802B912BE5
:102FC000A22BB32BBC01CD01682179218A219B2141
:102FD0000E94AA040E94810A60E0C7010E94C607FD
:102FE000CFCC00E010E09801D8CF88299929AA29F0
:102FF000BB29BC01CD01602B712B822B932BE8CF19
:10300000802B912BA22BB32B0091570410915804C5
:103010002091590430915A04BC01CD0160277127D9
:1030200082279327D5CFB11409F444C0C0FFD2CF73
:10303000412F429546954770440F440F812F8F7062
:1030400090E0A0E0B0E0042E04C0880F991FAA1FF2
:10305000BB1F0A94D2F714FF31C00FE010E020E04C
:1030600030E004C0000F111F221F331F4A95D2F712
:103070000095109520953095C695C695C370C230C1
:1030800061F1C33019F180905B0490905C04A090D2
:103090005D04B0905E04C130A9F0802B912BA22B6F
:1030A000B32BBC01CD01682179218A219B210E948B
:1030B000B30490CF823008F48DCFBACF00E010E097
:1030C0009801DACF88299929AA29BB29BC01CD0109
:1030D000602B712B822B932BEACF802B912BA22B71
:1030E000B32B00915B0410915C0420915D0430913E
:1030F0005E04BC01CD016027712782279327D7CFBB
:10310000CF70B11439F08C2F0E94BC04812F0E9423
:10311000370D60CF812F0E94400D8C2F0E94DA0462
:1031200059CF68F4103FC1F0113F89F0B11409F490
:103130005DC0011509F457C0812F24D84BCF133F30
:1031400039F1143F99F79091610492FD34C08C2FAE
:103150008F71B11419F354CEB114C1F0053008F0D9
:1031600039CFCF7161E070E080E090E004C0660F7D
:10317000771F881F991FCA95D2F700915B041091A1
:103180005C0420915D0430915E04B5CF0630E7CF3A
:1031900060E070E0CB01B11409F489CFCF7161E038
:1031A00070E080E090E004C0660F771F881F991FD1
:1031B000CA95D2F77CCFB11461F08C2F8F7192FF3A
:1031C0001FCE982F990F990F990F936090935F04DA
:1031D00017CE81E00E947305023008F4FBCE82E036
:1031E0000E947305F7CE8C2F8F710ACE011579F0EE
:1031F000193349F49FEFE7EEF3E09150E040F040DF
:10320000E1F700C00000812F0E94FA10E3CE8C2F5E
:103210008F7184CF80915404C631FCE7DF0709F039
:1032200087CC8A7A91E0811101C090E090934304A9
:1032300065E3811101C069E286E691E00E94900A8F
:103240000E94F90C8DCBC6312CE7D20709F0C0CC17
:103250008091430465E3811101C069E286E691E053
:103260000E94AA0AEDCF8091A304803178F4809166
:10327000A204811559F0E091640420916304309117
:103280009E0440919D0457E02E1301C008956E2FB7
:1032900070E05E9FF0011124DF01AB59BB4F149623
:1032A0008C911497811551F111968C91119783137C
:1032B00025C08C91841322C015968C91159781118D
:1032C0001DC012968D919C91A0919F04B091A00475
:1032D0008A1B9B0B883C910588F48091A3048F7016
:1032E00080618093A304E559FB4F80818F708061DA
:1032F00080838DE994E0DDDA0C946905FB01319659
:10330000E770C2CFADE0B0E0E8E8F9E10C947A25CF
:103310008C0186E0F801DE01189601900D928A95E5
:10332000E1F7F801F580C4808DE9882E84E0982EBD
:103330007090A10471101FC0C114D1F0F11409F4F0
:1033400015C1C8010E94EE07811509F40FC187E07D
:10335000F801D40101900D928A95E1F7F1E0CF12C6
:1033600006C080919D0490919E040E94E2077BDF3D
:10337000FF24F39453C0E080A280B380D090A204D5
:1033800080919F049091A0049501281B390BD114C2
:1033900009F4B5C0283C310508F08DC0C11441F3D3
:1033A00090919E04C1808091A304803108F056C0A2
:1033B000C91213C090919D049E110FC0F11048C016
:1033C0008F7080618093A3048DE994E072DA80911C
:1033D000A304F8018683F12C21C0F11039C040E02C
:1033E0006C2D8E2D0E94220C40E06C2D8E2D0E94A3
:1033F000220CF82E8111EFCF888599850E94E20773
:10340000292F22952F70903470F49F70223098F0FD
:103410009115A9F0F8019681903188F48F2D2D96A1
:10342000EDE00C9496252A5F2F70223060F0C801E1
:1034300040DAFD2CF3CF911511F0811579F3805E00
:10344000883060F3F4CF803F48F3815F8330F9CF59
:103450008091A30481608093A304BDCFC91207C0EB
:1034600090919D049E1103C0F11409F469C0C80134
:103470000E94EE07811509F479C0F11409F476C0B1
:103480008091A304803270F020919D0430919E04BD
:103490003A832983BC82AB827D821E828F83CE01D8
:1034A000019607DA87E0F801ADE9B4E001900D92EA
:1034B0008A95E1F75CCF8091A304803148F48DE9CF
:1034C00094E0F7D987E0F40111928A95E9F783CF68
:1034D000C11409F44DCF20919E0491812913C7CFC7
:1034E00090919D049E11C3CFF110C1CF8683C80176
:1034F000E0D987E0F40111928A95E9F739CF283CA9
:10350000310500F7C11409F433CFF11479F190912A
:103510009E048181981320C080919D048E111CC04F
:103520008091A30480FD0FC0803168F08683807F86
:10353000803F39F08681982F907F905F8F70892B24
:103540008683C801B6D987E0F801ADE9B4E00190FF
:103550000D928A95E1F70CCFC8010E94EE07811108
:10356000A1CF8091A30481608093A304C801A1D955
:10357000FFCEABE1B0E0EFEBFAE10C9483254E8B8C
:103580005F8B688F798F8A8F192F9B8F9111109283
:1035900062041D8A86E0FE017696DE011F96019088
:1035A0000D928A95E1F70A8D011561F00B8B1C8B4A
:1035B00061E0CE010F960E94C60761E0CE010F9632
:1035C0000E94C6070B8B1C8B87E0FE013F96DE0135
:1035D000189601900D928A95E1F7CE01089692DE39
:1035E000811128C0209163043091640487E0FE01BA
:1035F0003896DE01119601900D928A95E1F78C853F
:103600008115C1F0822F90E00196877099273817B5
:103610001906D9F097E0929FD0011124AB59BB4F06
:10362000FE01319601900D929A95E1F78093630423
:103630000E94690517E080916404909163048913E6
:1036400012C06B96E4E00C949F250E941A11109210
:1036500063041092640487E0EDE9F4E0DF011D9259
:103660008A95E9F7E7CF189FC00111248B599B4F2A
:1036700049DE811531F38091640490E001968770F2
:10368000992780936404D7CFA6E0B0E0EAE4FBE199
:103690000C9483250E94690F8C01809119049091EC
:1036A0001A048017910771F019821A820E94690F1B
:1036B000BC0149815A8180E090E05BDF10931A04DD
:1036C000009319042696E4E00C949F25A4E0B0E052
:1036D000ECE6FBE10C947825FE01319684E0DF01F5
:1036E0001D928A95E9F781E5E82E81E0F82E8F0199
:1036F00095E5C92E91E0D92E3F01AA24A394B12CBF
:103700003CE5832E31E0932EF70181917F018F3FBD
:1037100009F43EC0F894E82FE295EF70F0E021A1A3
:103720008F70A50102C0440F551F8A95E2F7CA01A8
:10373000922F982B91A392A18095892382A37894AC
:1037400000C0E5E5F1E031E0512C21912F3F79F007
:10375000A22FA295AF70A05EB0E08C9190E02F7088
:1037600002C0959587952A95E2F780FF39C080E0E1
:10377000582A330F8E169F0641F7F70182918F3F2B
:1037800011F00E941B0850EA5A95F1F7D8015C929B
:103790000F5F1F4FCE14DF0409F0B6CF44E050E0B6
:1037A000B3018AEC91E00E948726892BD9F08981A8
:1037B0009A81AB81BC818093CA019093CB01A09385
:1037C000CC01B093CD0181E0809370010E94690F1C
:1037D00090936F0180936E012496EFE00C949425F2
:1037E000832FC6CF809170018115B1F300916E01D6
:1037F00010916F010E94690F801B910B059760F378
:1038000044E050E06AEC71E088ED91E00E94872688
:10381000892B81F08091CA019091CB01A091CC01BC
:10382000B091CD018093D8019093D901A093DA0192
:10383000B093DB0110927001CFCFCDB7DEB76A979E
:103840000FB6F894DEBF0FBECDBF85B7806885BFC9
:1038500085B7806885BF84B7877F84BF0FB6F8942B
:10386000A89580916000886180936000109260004C
:103870000FBE80E890E00FB6F894809361009093BB
:1038800061000FBE81E08093060189E198E090938A
:103890006501809364010E94660B0E94C80B8091B1
:1038A000E20084608093E20078948091D7018115D2
:1038B00099F08091E9001091EC008F701795112715
:1038C0001795182B1092E9008091E80083FD0E9463
:1038D0004C111F701093E90082E084BD93E095BD08
:1038E0009AEF97BD80936E0086E60E941B0887E9D9
:1038F0000E941B0886EC0E941B0884E30E941B08A0
:1039000005E511E0ECE5EE2EE1E0FE2ED8018D910B
:103910008D018F3F11F00E941B08E016F106B1F7F0
:1039200084E0E8EDF1E0DF01282F1D922A95E9F708
:10393000EAECF1E0DF011D928A95E9F780E090E082
:103940000E942129833E9E4F91F163EE7EEF80E03D
:1039500090E00E94402960E082E090E00E942629E9
:1039600081E090E0A0E0B0E0809357049093580489
:10397000A0935904B0935A0461E083E090E00E9460
:10398000262960E074E184E090E00E9440290E94D2
:10399000660D40E050E0BA018FE090E00E943829C7
:1039A00040E050E0BA0183E190E00E94382982E0D3
:1039B00090E00E9414298093DC0184E090E00E9452
:1039C0002129909361048093600483E090E00E9439
:1039D0001429682F70E080E090E00E94AA0482E041
:1039E00080930B0480E88093D10159D76BE070E09D
:1039F00085E698E00E94FE0D811579F180910B0417
:103A000065E070E081FDD1C080E698E00E94FE0D87
:103A1000811519F16DE070E08EE498E00E94FE0DD2
:103A20008115D9F0EBE0F2E080E092E0DF019C014B
:103A30001D9221503040E1F7F093CF01E093CE0189
:103A40008FEF9FEF90930E0480930D0481E080939D
:103A50000F048093D00110920C048091D201811147
:103A60002FC086E494E00E942F0E8091460484309B
:103A700008F09EC00E94660D86E494E00E942F0E1E
:103A800080914604843008F093C0837084608093F2
:103A9000460480914904893718F088E780934904E7
:103AA000109245040E94210A8091460480FF05C0BF
:103AB00060E0869586950E94940F81E08093D20104
:103AC00085988D9884988C98809146048160809325
:103AD000460460E0869586950E94940F60E084E13C
:103AE0000E94940F87E091E090931C0480931B0444
:103AF00077247394CE0101967C018091D70110E464
:103B000000E172E1972E853009F4A3C0DFDD0DEDF1
:103B100011E068ED862E61E0962ED401F8019191B6
:103B20008D9121E0E13EF20709F4B1C09817B9F395
:103B3000612CD4015D904D01F80121908F01251475
:103B400021F12524412C33243394822D83218115A6
:103B5000A9F049826A820E94690F9C838B83F1E0FD
:103B6000FD8391E0852D8321811101C090E09E832A
:103B700049815A816B817C818D81FBDC4394330CBC
:103B800027E04212E2CFF8015292639434E06312CC
:103B9000D0CF8FB7F89440911404509115046091E0
:103BA0001604709117048FBF75C08BE598E02ECF77
:103BB00080914604843508F46CCF8370806567CFAC
:103BC0008091D701843009F43AC00E940B0E109204
:103BD00045048091D50181110DC07092D50180916D
:103BE0004604982F91709093D4018E7F8093460461
:103BF0000E94D1080E940B0E1092D301A8E1B0E000
:103C00000FB6F894A895A09360000FBE10936000C3
:103C100083B7817F846083BF83B7816083BF7894DB
:103C2000889583B78E7F83BF0FB6F894A89580914F
:103C30006000886180936000109260000FBE46DDD6
:103C4000E8EDF1E0819181110BC4B1E0EC3DFB079F
:103C5000C9F78091D701853009F4B2CF0E941A11BB
:103C60000E94810A1092D5018091D401811551F0F2
:103C70008091460481608093460460E08695869535
:103C80000E94940F0E947E0F0E941C0E3FCF98133B
:103C90004FCFFADC809145048115D9F1809144041D
:103CA000E0914604E695E695E81BE093E301823057
:103CB00009F03EC1F0E0E558F74FE4910E2F10E017
:103CC00059E0852E59E0952E8091E401811561F02F
:103CD0001092E4010E94690F9093E2018093E10148
:103CE0001092E6011092E5010E94690F2091E10116
:103CF0003091E201821B930B8F3F9F4750F4200FBE
:103D0000311F3093E2012093E10181EE91E0F40153
:103D1000099580910F04811146C186E0ECE3F4E03F
:103D2000D70101900D928A95E1F740903D04609093
:103D30003E0410913F0450904004009141041092C1
:103D40003E0410923F041092400410924104812FCF
:103D5000862981110CC3802F8529811509F441C062
:103D600080901004909011040E94690F9C01281902
:103D7000390990913904911509F468C32135310549
:103D800080F19F3F19F09F5F90933904511459F0CF
:103D90000E945C0A91E015140CF09FEF899F802D22
:103DA000112480934004011559F00E945C0A91E0AF
:103DB00010160CF09FEF899F802D112480934104F1
:103DC00080914004811569F090904104911449F06C
:103DD0000E942E0A80934004892D0E942E0A80930F
:103DE000410480913D04481219C080913E04811520
:103DF00011F0861113C020913F04211511F0121308
:103E00000DC090914104911511F0091307C0309134
:103E10004004311103C0822B892B81110E94DE0FD7
:103E200086E0F701ACE3B4E001900D928A95E1F7EA
:103E300085EFDFD4092E000CAA0BBB0B89549140EF
:103E4000A109B1091C012D01A1E8BFEFA201910157
:103E5000DDD6603C7105810591050CF0DAC220ECDD
:103E600030E040E050E0A4D62138BFEF3B074B07DD
:103E70005B070CF0C1C241E85FEF6FEF7FEF80910D
:103E80004F04909150048417950731F050935004DB
:103E900040934F047092530484EFABD4092E000C6E
:103EA000AA0BBB0B83559140A109B1091C012D013F
:103EB000A1E8BFEFA2019101A9D66933AFEF7A075C
:103EC0008A079A070CF4BAC228E33FEF4FEF5FEF7F
:103ED0006FD62138EFEF3E074E075E070CF0A1C208
:103EE00041E85FEF6FEF7FEF8091510490915204B2
:103EF0008417950731F05093520440935104709207
:103F000053040E94A00C0E94810A90911804891702
:103F100009F4F3CD809318048FB7F89440911404FA
:103F20005091150460911604709117048FBFE5CD70
:103F3000853061F4E695F0E0E858F74FE4910E2FF4
:103F400010E044E2842E49E0942EBECE8B3061F422
:103F5000E695F0E0EB58F74FE4910E2F10E03DE4CA
:103F6000832E39E0932EB0CE813159F4F0E0EE5833
:103F7000F74FE4910E2F10E02EEA822E29E0922EC8
:103F8000A3CE843149F4E0E7F8E00591149195E07F
:103F9000892E9AE0992E98CE00ED17E084E3882EC2
:103FA00088E0982E91CE80E00E94850B80E00E94F0
:103FB000850B85EF1ED45C018091E9019091EA01A7
:103FC0008A159B0520F4B092EA01A092E901809144
:103FD000130190911401A816B90620F4B0921401AF
:103FE000A0921301BF92AF928DE191E09F938F93C6
:103FF000FF92EF9299D6C7010E941E0F8091140183
:104000008F93809113018F9384E291E09F938F931C
:10401000FF92EF9289D6C7010E941E0F8091EA019C
:104020008F938091E9018F938DE291E09F938F931D
:10403000FF92EF9279D6C7010E941E0F81E00E9485
:10404000850B84EFD6D36C010FB6F894DEBF0FBE9C
:10405000CDBF8091E7019091E8018C159D0520F47A
:10406000D092E801C092E701809111019091120174
:10407000C816D90620F4D0921201C0921101DF9225
:10408000CF9285E391E09F938F93FF92EF924CD66E
:10409000C7010E941E0F809112018F938091110120
:1040A0008F9384E291E09F938F93FF92EF923CD69F
:1040B000C7010E941E0F8091E8018F938091E70154
:1040C0008F938DE291E09F938F93FF92EF922CD686
:1040D000C7010E941E0F83E00E94850B80EA98E0D2
:1040E0000E94350F40915B0450915C0460915D0427
:1040F00070915E04CB01AA27BB270FB6F894DEBFF0
:104100000FBECDBF20E10097A105B10519F4DB0179
:10411000CA0120E0492F5A2F6B2F772741155105EF
:104120006105710519F0285FDB01CA01AC01BD0111
:10413000F4E07695679557954795FA95D1F741152F
:1041400051056105710519F02C5FDB01CA01AC0155
:10415000BD01E2E07695679557954795EA95D1F7C9
:10416000452B462B472B51F4B695A79597958795E8
:10417000820F811559F0813009F43FC08EE798E035
:104180000E94350F81E00E94F00E0AC086E998E097
:104190000E94350F21E044EB6FEF80E00E94860D16
:1041A00080910D0490910E04892B09F4B6CD809175
:1041B0000F04811509F4B1CD80910C048111ADCDAE
:1041C0000E941C0E20910D0430910E042115310522
:1041D00009F4A3CD212C41E050E0822D90E04A016A
:1041E000022C02C0880C991C0A94E2F7B4016223E5
:1041F0007323672B39F42394F0CF88E898E00E946A
:10420000350FCECF20910B0420FF9DC0922D990F2A
:10421000990F990F37E0390F80E023E09093170151
:1042200080931A013093180120931B0124E630E09B
:1042300047E050E065E171E088E767D3892B09F03A
:104240006CCDF0E22F9E1001112480910B0480FFB1
:1042500086C0EBEEF1E080E2DF011D928A95E9F77E
:10426000E0E6F1E0FA8FE98F2CE531E03E8B2D8B13
:1042700057E011E0A98DBA8D4D91BA8FA98FED89C4
:10428000FE898191FE8BED8B820D932D911D9C01FA
:10429000255F3D4F388F2F8BE42FF0E0E551FE4F27
:1042A00020E030E0652E621A412F022E01C0440F3B
:1042B0000A94EAF74F88588C90E0D2018D912D0135
:1042C0008423062D091B0770602F70E0B82F01C0F2
:1042D000BB0F0A95EAF771956195710967707727A9
:1042E00001C086956A95EAF78B2B6081862B8083C7
:1042F0009F5F983011F72F5F3F4F3196283031057F
:1043000089F6E4E6F1E0298D3A8DE217F30709F02A
:10431000B1CF04E610E020E230E04BEE51E060E483
:1043200088E783D3892B09F0F8CCC4018095909558
:1043300020910D0430910E048223932390930E0458
:1043400080930D04EACC9695879596958795282FAE
:10435000922D9295990F90763FE1390F5FCFA10191
:10436000455F5D4F04E610E020E230E0D8CF80905A
:104370001204909013040E94690F9C0128193909B6
:1043800090913A04911509F466C02531310508F47D
:10439000E2CC9F3F19F09F5F90933A04611459F06B
:1043A0000E943C0A91E016140CF09FEF899F802D2B
:1043B000112480933E04111559F00E943C0A91E0AB
:1043C00011160CF09FEF899F802D112480933F04DC
:1043D00080913E04811509F4BECC90903F04911465
:1043E00009F4B9CC0E942E0A80933E04892D0E94C4
:1043F0002E0A80933F04AFCCBA01A9014038510581
:10440000610571050CF43BCD4FE750E060E070E0D2
:1044100036CDAFE7B0E0EED322E43FEF4FEF5FEFF2
:1044200022CDBA01A90140385105610571050CF48E
:104430005BCD4FE750E060E070E056CDAFE7B0E015
:10444000D9D32CEC30E040E050E042CD2B303105A8
:1044500008F099CCC6CC2B30310508F09CCF7BCC32
:104460008091D601811509F4F4CB09BD99BC09B43A
:1044700000FEFDCF8091D8008F7D8093D800809181
:10448000E00082608093E0008091E00081FDFCCF3D
:104490000E941A11DECB78941F921FB61F9211242E
:1044A0008F939F93AF93BF938091140490911504C1
:1044B000A0911604B09117040196A11DB11D80931F
:1044C000140490931504A0931604B0931704BF919D
:1044D000AF919F918F911F901FBE1F9018951F92B3
:1044E0000F920FB60F9211242F933F934F935F9328
:1044F0006F937F938F939F93AF93BF93EF93FF93AC
:104500008091E10082FF09C08091E20082FF05C036
:104510008091E1008B7F8093E1008091DA0080FF41
:1045200024C08091D80080FF20C08091DA008E7F67
:104530008093DA008091D90080FFA9C080E189BD15
:1045400082E189BD09B400FEFDCF81E08093D701EF
:1045500080917B01811109C00E94660B0E94C80BEB
:104560008091E20084608093E2008091E10080FF0E
:104570001AC08091E20080FF16C08091E2008E7F19
:104580008093E2008091E20080618093E20080915C
:10459000D80080628093D80019BC85E08093D70151
:1045A00083E0809306018091E10084FF2FC0809119
:1045B000E20084FF2BC080E189BD82E189BD09B49E
:1045C00000FEFDCF8091D8008F7D8093D800809130
:1045D000E1008F7E8093E1008091E2008F7E8093E6
:1045E000E2008091E20081608093E20080917A0194
:1045F000811509F452C084E08093D7018091D701DE
:10460000843009F052C082E0809306018091E1007D
:1046100083FF2CC08091E20083FF28C08091E100DD
:10462000877F8093E10082E08093D70110927A0126
:104630008091E1008E7F8093E1008091E2008E7F87
:104640008093E2008091E20080618093E20042E08A
:1046500060E080E00E94980B8091F0008860809379
:10466000F00081E08093060180930501FF91EF91B6
:10467000BF91AF919F918F917F916F915F914F917A
:104680003F912F910F900FBE0F901F90189519BC5E
:104690001092D70110927B0168CF8091E30087FFD1
:1046A00002C083E0A9CF81E0A7CF81E0ADCF1F9208
:1046B0000F920FB60F921124EF92FF920F931F9358
:1046C0002F933F934F935F936F937F938F939F931A
:1046D000AF93BF93CF93EF93FF9309EE10E0F801F0
:1046E0008081C091EC008F70C795CC27C795C82BEF
:1046F000108280EFE82EF12CF7018081877F808384
:1047000078940E944C11F8011082F7018081886032
:104710008083CF70F801C083FF91EF91CF91BF915B
:10472000AF919F918F917F916F915F914F913F9149
:104730002F911F910F91FF90EF900F900FBE0F9050
:104740001F901895803F09F188F4843901F140F4F5
:104750008533F9F08633F9F0843339F583E208952F
:104760008639D9F0873909F582E20895853FB9F095
:1047700030F4813FB1F0843FC1F484E00895863F76
:1047800091F0873F91F487E0089580E0089580E2FA
:10479000089584E2089585E2089581E2089585E010
:1047A000089581E0089586E008958FE1089596E8E0
:1047B00090937A00982F9072906890937B008F71FD
:1047C00090911C01892B80937C0080917A008064F9
:1047D00080937A0080917A0086FDFCCF80917800EA
:1047E0002091790090917A009F7790937A00922F90
:1047F0000895A8DFDCCFFF920F931F93CF93DF9331
:10480000182FEB011092BC0084EA8093BC000E9438
:10481000690F082FF92E8091BC0087FF28C0809176
:10482000B900887F883029F08091B900887F803175
:1048300099F51093BB0084E88093BC000E94690F37
:10484000182F092F8091BC0087FF1EC02091B9004E
:10485000287F80E090E0283199F081E090E02034DA
:1048600011F480E090E091958195910909C0802F25
:104870009F2D0E94750FC817D90768F68EEF9FEF1E
:10488000CDB7DEB7E5E05AC1812F902F0E94750F9A
:10489000C817D907B8F6F2CF8FEF9FEFF1CF10927C
:1048A000B9008CE08093B80008950F931F93CF93C5
:1048B000DF93EB018093BB0084E88093BC000E94EF
:1048C000690F182F092F8091BC0087FF11C020911C
:1048D000B900287F81E090E0283211F480E090E078
:1048E000919581959109DF91CF911F910F91089535
:1048F000CF3FDC0741F3812F902F0E94750FC8171F
:10490000D90708F78EEF9FEFEECFA0E0B0E0EAE81E
:10491000F4E2F0C0782EB62EA72E6A01E9010E94BB
:10492000690F4C01C431D10510F1CF3FDC0719F1FB
:10493000CE0164E170E0C5D0F62EE72E6F2D7E2DFE
:10494000872D59DF8C01892BC9F4EB2CFA2CCE0C66
:10495000DF1CEC14FD0419F001151105C9F084E900
:104960008093BC00C801CDB7DEB7EDE0DFC0FF2407
:10497000F394E12CE3CF85E0F82EFBCFCF3FDC07AB
:10498000E9F2C4010E94750FC817D907B8F6DDCF48
:10499000BE01F70181917F0188DF8C01DACFA0E0B1
:1049A000B0E0E4EDF4E2A6C0782EB62EA72E6A01A0
:1049B00089010E94690F4C010431110500F10F3F7C
:1049C000100701F1C80164E170E07BD0EB01BE018A
:1049D000872D11DF7C01892BB9F4CB2DDA2DCC0E7C
:1049E000DD1ECC15DD0519F0E114F104B9F084E900
:1049F0008093BC00C701CDB7DEB7EDE097C0C1E042
:104A0000D0E0E5CFC5E0FCCF0F3F100701F3C401B4
:104A10000E94750F08171907D0F6DFCFFE018491A9
:104A2000B80143DF7C012196DCCFA0E0B0E0EAE1F1
:104A3000F5E25FC0682E962E5A01690178010E9446
:104A4000690F782E892E0431110518F10F3F1007D8
:104A500019F1C80164E170E034D0162F072F612FDF
:104A6000702F862DC8DEEC01892BC1F0FFEFEF1609
:104A7000FF06A9F3872D982D0E94750FE816F906F9
:104A800070F784E98093BC00CE01CDB7DEB7EEE0CD
:104A90004CC011E000E0E3CF15E0FCCFB701892D59
:104AA00004DFEC018501CA0CDB1C0C151D0549F364
:104AB000209739F7B701F80181918F01F6DEEC01FB
:104AC000F4CFAA1BBB1B51E107C0AA1FBB1FA6172F
:104AD000B70710F0A61BB70B881F991F5A95A9F7A7
:104AE00080959095BC01CD0108952F923F924F92F1
:104AF0005F926F927F928F929F92AF92BF92CF926E
:104B0000DF92EF92FF920F931F93CF93DF93CDB776
:104B1000DEB7CA1BDB0B0FB6F894DEBF0FBECDBFEE
:104B200009942A88398848885F846E847D848C84BF
:104B30009B84AA84B984C884DF80EE80FD800C81C8
:104B40001B81AA81B981CE0FD11D0FB6F894DEBFAB
:104B50000FBECDBFED010895992778E0880F991F0A
:104B6000961708F0961B881F7A95C9F780950895C7
:104B700087FB082E062687FD819567FD6195ECDF92
:104B80000EF4919507FC8195089597FB072E16F476
:104B9000009406D077FD08D094DF07FC05D03EF4E2
:104BA000909581959F4F0895709561957F4F0895D9
:104BB000052E97FB16F400940FD057FD05D060D05A
:104BC00007FC02D046F408C05095409530952195D9
:104BD0003F4F4F4F5F4F0895909580957095619529
:104BE0007F4F8F4F9F4F0895EE0FFF1F0590F49159
:104BF000E02D099467D0A59F900DB49F900DA49FC0
:104C0000800D911D11240895B7FFF4CFF3DF821BAF
:104C1000930B0895002E083090F0982F872F762F51
:104C2000652F542F432F322F22270850F4CF220F05
:104C3000331F441F551F661F771F881F991F0A9532
:104C4000B2F7002D089597FD1094002E083098F0CB
:104C50000850232F342F452F562F672F782F892F59
:104C6000912DF4CF159497958795779567955795DE
:104C70004795379527950A95AAF71124002D089591
:104C8000A1E21A2EAA1BBB1BFD010DC0AA1FBB1F50
:104C9000EE1FFF1FA217B307E407F50720F0A21BC2
:104CA000B30BE40BF50B661F771F881F991F1A942F
:104CB00069F760957095809590959B01AC01BD0159
:104CC000CF010895A29FB001B39FC001A39F700DB3
:104CD000811D1124911DB29F700D811D1124911D04
:104CE0000895FB01DC0102C005900D924150504037
:104CF000D8F70895FC014150504030F0019006165D
:104D0000D1F73197CF010895882799270895FB019E
:104D1000DC0104C08D910190801921F44150504074
:104D2000C8F7881B990B0895AEE0B0E0E9E9F6E218
:104D3000EACE0D891E8986E08C831A8309838FEF62
:104D40009FE79E838D83AE01475E5F4F6F89788DAD
:104D5000CE01019609D02F813885020F131FF8016B
:104D600010822E96E4E0EBCEABE0B0E0E9EBF6E2A9
:104D7000BCCE7C013B018A01FC0117821682838133
:104D800081FFABC19AE0292ECE0101965C01F701AB
:104D90009381F30193FD859193FF81913F018823D6
:104DA00009F43CC1853239F493FD859193FF8191DB
:104DB0003F01853221F4B70190E0A8D1E8CF912CD2
:104DC000412C512CFFE1F51538F08B3209F188F4B4
:104DD000803201F1833221F157FC3AC020ED280FD7
:104DE0002A3040F556FE1FC0929C200D1124922EB1
:104DF00006C08D3291F0803379F7689450F8F30152
:104E000093FD859193FF81913F018111DBCF20C0FC
:104E1000689451F8689452F8F2CF689453F8EFCF41
:104E2000689454F8ECCF429C200D1124422E6894D3
:104E300055F8E5CF8E3229F456FCF0C0689456F848
:104E4000DECF8C3619F4689457F8D9CF8836B9F28A
:104E5000982F9F7D95549330B8F0833691F1833726
:104E6000B1F1833509F056C0F801C190D1908F019E
:104E7000692D70E056FC02C06FEF7FEFC60130D1A4
:104E80004C01689457F80AC00C5F1F4F2FE3298329
:104E900088248394912C6501E89457F853FC04C04E
:104EA0004814190409F008F5342C8114910419F5FB
:104EB000332009F46CCFB70180E290E027D13A9417
:104EC000F7CFF801808189830E5F1F4FE1CFF80192
:104ED000C190D1908F01692D70E056FC02C06FEF38
:104EE0007FEFC60108D14C01D7CFB70180E290E037
:104EF0000DD14A94D5CFF60157FC859157FE81918B
:104F00006F01B70190E002D131103A94F1E08F1AAD
:104F10009108CBCF843619F0893609F070C0F801BA
:104F200057FE66C061917191819191918F01252DFC
:104F30002F76D22E97FF09C0909580957095619538
:104F40007F4F8F4F9F4F6894D7F82AE030E0A5013C
:104F50000DD1C82ECA188C2C5D2CD6FE0CC0E8943E
:104F600050F8C91440F4D4FE05C0D2FC03C0FD2D96
:104F7000FE7E5F2E892C54FE8AC0FE01EC0DF11DD1
:104F80008081803309F07CC0252D297E522E852D0D
:104F90008870382E53FC89C050FE83C09C2C84142A
:104FA00018F44C0C942C981854FE85C0B70180E37B
:104FB00090E0ACD052FE08C088E790E051FE02C0FD
:104FC00088E590E0B701A2D0C91408F480C0CA9463
:104FD000D12C9FEFC91AD90ACA0CDB1CF6018291A9
:104FE0006F01B70190E092D0AC14BD04B9F760CF67
:104FF00061917191072E000C880B990B97CFD52CDE
:10500000E894D4F82AE030E0853731F1952D997F86
:10501000D92E8F36F9F040F48835A1F0F70186815A
:1050200097812B96E2E17DCD803749F08837B1F743
:10503000D4FE02C06894D2F820E130E00DC068943C
:10504000D4F8F6CF54FE03C0E92FE660DE2E20E14F
:1050500032E002C028E030E0F801D7FE0CC06191D8
:105060007191819191918F01A50180D0C82ECA18AC
:10507000E894D7F870CF6191719190E080E0F3CF20
:1050800052FC02C0839483CF8394839480CF852D78
:10509000867809F47CCFF6CFB70180E290E036D075
:1050A00083948414C8F3312C7FCF342C38188414A3
:1050B00008F47ACFF8CF852D867809F485CF8BE276
:1050C00051FE80E257FC8DE2B70190E07CCFB70142
:1050D00080E390E01BD09A9477CF8FEF9FEFA1CF22
:1050E000FC010590615070400110D8F780959095B3
:1050F0008E0F9F1F0895FC016150704001900110B8
:10510000D8F7809590958E0F9F1F08950F931F934A
:10511000CF93DF93182F092FEB018B8181FD09C0FD
:105120001FEF0FEF812F902FDF91CF911F910F91E4
:10513000089582FF14C02E813F818C819D812817A4
:1051400039073CF4E881F981CF010196998388837E
:1051500010838E819F8101969F838E83E3CFE885A4
:10516000F985812F0995892BA1F3DACFFA01AA27B6
:10517000283051F1203181F1E8946F936E7F6E5F9A
:105180007F4F8F4F9F4FAF4FB1E03ED0B4E03CD048
:10519000670F781F891F9A1FA11D680F791F8A1F2B
:1051A000911DA11D6A0F711D811D911DA11D20D092
:1051B00009F468943F912AE0269F11243019305D4C
:1051C0003193DEF6CF010895462F4770405D41933D
:1051D000B3E00FD0C9F7F6CF462F4F70405D4A338A
:1051E00018F0495D31FD4052419302D0A9F7EACF52
:1051F000B4E0A6959795879577956795BA95C9F781
:1052000000976105710508959B01AC010A2E069473
:105210005795479537952795BA95C9F7620F731F2C
:10522000841F951FA01D0895F999FECF92BD81BDE1
:10523000F89A992780B50895A6E1B0E044E050E0DF
:1052400025C0A8E1B0E042E050E020C0262FF99947
:10525000FECF92BD81BDF89A019700B4021639F0D5
:105260001FBA20BD0FB6F894FA9AF99A0FBE0895A6
:105270000396272FECDFEADF252FE9DF242FE7CF86
:105280000196272FE4DFE2CFDC01CB01FC01F99985
:10529000FECF06C0F2BDE1BDF89A319600B40D9282
:1052A00041505040B8F70895F894FFCF13101810EC
:1052B0001A101F102F102F102F102F102F102F101B
:1052C0002F102F102110251028102D103D104310E5
:1052D000471028124E1254124E125412A612C71220
:1052E0005412C513D21324158A152C15F714FB1468
:1052F0003015FF14341540150B1583150F15441583
:10530000131548156C1517154C1573151C155115EB
:1053100059150315381507153C1520155515631536
:105320007B158115F11428159115CF14D314AA14E7
:10533000CB14D714DB14DF14A415BC15C015C41589
:0E534000C815CD15D115D615DA15DE15E315F5
:10534E0001020100000100B80AC80CBB0ADE0CBC49
:10535E000AFF03FF030021007F22000340583A2575
:10536E002D346400206D696E252D3464006D6178D6
:10537E00252D346400593A252D34640000010202B3
:10538E00020505050505050B0B0B0B0B0B1111117A
:10539E00146697C634F6F7313332363500081018D6
:0453AE0018100800CB
:00000001FF
