:100000000C94AA040C94C7040C94C7040C94C70461
:100010000C94C7040C94C7040C94C7040C94C70434
:100020000C94C7040C94C7040C94BC2A0C94902B19
:100030000C94EB250C94C7040C94C7040C94C704CF
:100040000C94C7040C94C7040C94C7040C94C70404
:100050000C94C7040C9472260C94C7040C94C70427
:100060000C94C7040C94C7040C94C7040C94C704E4
:100070000C94C7040C94C7040C94C7040C94C704D4
:100080000C94C7040C94C7040C94C7040C94C704C4
:100090000C94C7040C94C7040C94C7040C94C704B4
:1000A0000C94C7040C94C7040C94C704556E646583
:1000B00066696E656400524742204C4544205445B1
:1000C00053540A004B455920544553540A004C617F
:1000D0007965723A200014001A0008001500170014
:1000E0000000000004001600070009000A000000DC
:1000F00000001D001B0006001900050000000000A4
:100100001E001F00200021002200007401522078F0
:100110002378247825782678000000002178407E16
:100120002778287800000000000000000000000090
:1001300000000000000000000000000000000000BF
:1001400000000074005280818283848586878889BC
:100150008A8B8C8D8E8F9091929394A0A1A2A3A450
:10016000A5A6A7A8A9AAABACADAEAFB0B1B2B3B4C7
:10017000C0C1C2C3C4C5C6C7C8C9CACBCCCDCECF07
:10018000D0D1D2D3D40000047F3F1F643214643234
:1001900014783C1E000102030409080706050A0B37
:1001A0000C0D0E131211100F0001010101010101CC
:1001B000010102020202020202020203030303031C
:1001C00003030304040404040404050505050506EB
:1001D00006060606070707070708080808090909A9
:1001E000090A0A0A0B0B0B0C0C0C0D0D0D0E0E0E52
:1001F0000F0F0F10101111111212131314141515E3
:1002000016161717181819191A1A1B1B1C1D1D1E54
:100210001E1F2020212222232424252626272829A8
:10022000292A2B2C2D2D2E2F3031323233343536D6
:100230003738393A3B3C3D3E3F40414243444546D6
:100240004748494A4C4D4E4F5051535455565859B2
:100250005A5B5D5E5F616264656668696B6C6D6F59
:100260007072737577787A7B7D7E808283858788CC
:100270008A8C8E8F91939596989A9C9EA0A2A3A506
:10028000A7A9ABADAFB1B3B5B7BABCBEC0C2C4C607
:10029000C9CBCDCFD1D4D6D8DBDDDFE2E4E7E9EBC3
:1002A000EEF0F3F5F8FAFDFF00AE00AF00DA0281E0
:1002B000FFD9F1DB20A4A62EAF00A0C0D30000A17F
:1002C000C8D30000AED580A81F408D1420000000C8
:1002D000000000003E5B4F5B3E003E6B4F6B3E00FC
:1002E0001C3E7C3E1C00183C7E3C18001C577D5771
:1002F0001C001C5E7F5E1C0000183C180000FFE71D
:10030000C3E7FF00001824180000FFE7DBE7FF0049
:1003100030483A060E00262979292600407F050537
:100320000700407F05253F005A3CE73C5A007F3ECE
:100330001C1C0800081C1C3E7F0014227F22140095
:100340005F5F005F5F0006097F017F00006689959F
:100350006A0060606060600094A2FFA294000804DC
:100360007E04080010207E20100008082A1C0800C7
:10037000081C2A0808001E10101010000C1E0C1E6D
:100380000C0030383E383000060E3E0E06000000ED
:100390000000000000005F000000000700070000F0
:1003A000147F147F1400242A7F2A12002313086468
:1003B0006200364956205000000807030000001C68
:1003C000224100000041221C00002A1C7F1C2A0040
:1003D00008083E080800008070300000080808087F
:1003E00008000000606000002010080402003E5178
:1003F00049453E0000427F4000007249494946009D
:100400002141494D33001814127F100027454545FE
:1004100039003C4A49493100412111090700364958
:1004200049493600464949291E00000014000000D1
:100430000040340000000008142241001414141479
:1004400014000041221408000201590906003E412F
:100450005D594E007C1211127C007F4949493600DB
:100460003E41414122007F4141413E007F4949498F
:1004700041007F09090901003E41415173007F0895
:1004800008087F0000417F4100002040413F0100FB
:100490007F08142241007F40404040007F021C0240
:1004A0007F007F0408107F003E4141413E007F09EC
:1004B000090906003E4151215E007F0919294600C5
:1004C00026494949320003017F0103003F40404073
:1004D0003F001F2040201F003F4038403F00631472
:1004E000081463000304780403006159494D430074
:1004F000007F4141410002040810200000414141B9
:100500007F0004020102040040404040400000031C
:10051000070800002054547840007F2844443800E5
:10052000384444442800384444287F003854545404
:10053000180000087E09020018A4A49C78007F0817
:100540000404780000447D4000002040403D00004D
:100550007F102844000000417F4000007C047804A4
:1005600078007C0804047800384444443800FC18BF
:100570002424180018242418FC007C080404080013
:1005800048545454240004043F4424003C40402078
:100590007C001C2040201C003C4030403C00442893
:1005A000102844004C9090907C004464544C4400CB
:1005B00000083641000000007700000000413608C6
:1005C00000000201020402003C2623263C00000039
:1005D00000C0E0E0E0C08000007CFEFFFFFE7C0089
:1005E00000C0E0F0F0E0C00000FEFEFEFEFEFE00F7
:1005F00000000000FEFEFEFEFEFE0000FEFEFEFE0F
:10060000FE0000FEFEFEFEFE1E1EFEFEFCF80000CA
:10061000707078F8FCFEFEFEFE00000000E0F8FEC0
:100620007EFEFEFEFEFE0000000000008080808056
:1006300000000000808080800000000000000000BA
:10064000000000000000000000000000E0F0F0F0FA
:10065000E0ECEEF7F37020007C7C7C7E007E7E7EFA
:100660007F7F7F000080C0E07E5B4F5BFEC00000AC
:10067000C000DCD7DEDEDED7DC00C00000000000FA
:10068000000000000000000000000000000080C02A
:10069000C0C3C7CF8F0F0F07E0F0F8F9F9F8F0E00B
:1006A000E0C7CF8F0F07030000FFFFFFFFFFFF0032
:1006B00000000000FFFFFFFFFFFF3E3EFFFFFFFFC8
:1006C000FF0000FFFFFFFFFF3C3C3F3F1F0F00000C
:1006D000000000FFFFFFFFFFFF0080F8FFFFFF8724
:1006E00080FFFFFFFFFF808000000000FFFFFFFF93
:1006F00000000000FDFDFDFD001CFFFFFFFF1C00D2
:10070000FCFEFEFE8E8EFEFEFC0000000F1F3F7FF3
:100710007F7F7F7F3F1E0C001F1F1F3F003F3F3F1B
:100720007F7F7F00307B7F7830202030787F3B00D8
:1007300003000F7F0F0F0F7F0F000300000000006A
:10074000000000000000000000000000000003079F
:100750000F0F0F0F0703007FFFFFFFFFFFFF7F3F1C
:100760003F3F1F1F07000000007F7F7F7F7F7F7854
:10077000787878007F7F7F7F7F7F00007F7F7F7F1B
:100780007F00007F7F7F7F7F00000000000000006F
:100790000000007F7F7F7F7F7F0007070707070735
:1007A000077F7F7F7F7F0707000000007F7F7F7FBD
:1007B000707070007F7F7F7F00003F7F7F7F7000C1
:1007C0003F7F7F7F70707C7C3C0000000000000059
:1007D0000000000000000000000000000000000019
:1007E0000000000000000000000000000000000009
:1007F00000000000000000000000000000000000F9
:1008000000000000000000000000000000001403D1
:100810004C0048005000310034004C006900740066
:100820006500000022035400720069006E00690038
:1008300074007900490072006F006E0077006F004D
:1008400072006B00730000000403090409023B00FE
:10085000020100A0FA0904000001030101000921BE
:10086000110100012240000705810308000109046D
:1008700001000103000000092111010001227B0099
:100880000705820320000112010002000000081485
:10089000FF0C0001000102000105010902A1018510
:1008A000020901A100050919012908150025019572
:1008B00008750181020501093009311581257F95EF
:1008C000027508810609381581257F950175088113
:1008D00006050C0A38021581257F950175088106E9
:1008E000C0C005010904A1018507A1000501093067
:1008F00009311581257F95027508810205091901C5
:1009000029011500250195017501810295077501E1
:100910008101C0C005010906A101050719E029E709
:100920001500250195087501810295017508810161
:100930000507190029FF150026FF00950675088197
:1009400000050819012905950575019102950175A4
:10095000039101C011241FBECFEFDAE0DEBFCDBF8F
:1009600011E0A0E0B1E0E2E5FEE502C005900D92E5
:10097000AE35B107D9F724E0AEE5B1E001C01D9274
:10098000AB3AB207E1F70E94DF140C94D32E0C941B
:1009900000000E949A1C84E10E94531C089582E08A
:1009A000089560E080E00E94711E60E086E491E0BE
:1009B0000E94531F089580349E4741F4FB018581B6
:1009C000882321F00E948D180E94401C81E0089528
:1009D00085EF0E943F236DEF7FEF0E94652D6655E6
:1009E0007F4F80E00E94BA2284EF0E943F2363E0A1
:1009F00070E00E94652D6A5A710981E00E94BA2256
:100A0000089563E080E00E94711E60E08EEC90E04B
:100A10000E94531F60917A0170917B0180917C014B
:100A200090917D010E944406882341F0813089F035
:100A300060E08CEA90E00E94651F089560E084EC1D
:100A400090E00E94531F44EB6FEF80E00E94361A43
:100A5000089560E086EB90E00E94531F08950E9485
:100A6000D1040E94010580E008950E94622008954B
:100A70000E946B1F08958230B8F46430A8F44730A8
:100A800098F450E097E0699F400D511D1124FA0140
:100A90009CE1899FE00DF11D1124EE0FFF1FEA522A
:100AA000FF4F85919491089581E090E008950E9410
:100AB0003B05089581E008950E945A05089581E05C
:100AC00008950E94DB04089508950E946405089526
:100AD000A6E0B0E0EEE6F5E00C94E22D49835A83FF
:100AE0009E833091650189819A8131111AC03E81BE
:100AF000332399F0222389F00E94A90B182F682F25
:100B000089819A810E94850B69817A81812F0E9457
:100B100079122696E3E00C94FE2D0E94970B182F75
:100B2000F3CF0E94A90B69817A81F1CFFC01262FB6
:100B30004081518162817381848195810E94680521
:100B40000895CF93DF93EC0161E00E949605BE010A
:100B50000E945C05DF91CF910895CF93DF93EC0164
:100B600060E00E949605BE010E946505DF91CF916D
:100B7000089508950E94D3090E94B9052FEF84E3D8
:100B80009CE0215080409040E1F700C000000895B3
:100B90000E94BA050E94962608950E94BA050E94F6
:100BA000A72608950F931F93CF93DF938C0161E0E5
:100BB0000E949605EC01B8010E946105811106C0F2
:100BC00080E0DF91CF911F910F910895B801CE0180
:100BD0000E94D2238823A1F3B801CE010E948D2068
:100BE000882371F3B801CE010E944423882341F386
:100BF000B801CE010E943D1D882311F3B801CE013A
:100C00000E9469218823E1F2F8018581882361F03F
:100C1000C330FCE7DF07E9F058F4C115ECE7DE0765
:100C2000A9F0C130DC47B9F0C8010E945F05C9CF07
:100C3000CB358CE7D807A9F0CC35ECE7DE0771F0AF
:100C4000CA35DC4789F70E94E70FEECF0E94C8053E
:100C5000B7CF0E94EF0F0E94CD05B2CF0E94DD0FEB
:100C6000E3CF0E94EB0FE0CF0E9435050E94AE0655
:100C70000E94B41B0E94622008950E94B2060E9446
:100C8000A31C0E9438050895CF92DF92EF92FF9245
:100C90006C01EE24FF2420E0C114D104E104F1042E
:100CA00019F0C701B60120E1C72ED82EE92EFF2486
:100CB000C114D104E104F10419F0285FC701B601A1
:100CC0006B017C0154E0F694E794D794C7945A954D
:100CD000D1F7C114D104E104F10419F02C5FC7016C
:100CE000B6016B017C0142E0F694E794D794C79477
:100CF0004A95D1F7C114D104E104F10419F02E5F33
:100D0000C701B6019695879577956795672B682BF0
:100D1000692B09F02F5F822FFF90EF90DF90CF902B
:100D20000895089581E008950895CF93DF93D82F13
:100D30000E949206C82F882319F08D2F0E949406D6
:100D40008C2FDF91CF9108950895CF93C82F0E94E3
:100D500091068C2F0E949506CF91089580E00E9405
:100D6000A50608950E940C250E94A5060895CF931C
:100D70000E940C25C82F809160018C1779F0C093D8
:100D800060010E9457266093610170936201809315
:100D90006301909364018C2F0E94A506CF91089562
:100DA000ADE0B0E0E6EDF6E00C94E32D488759871E
:100DB0006A877B878C879D8791110E94150F1F8200
:100DC00086E0FE013896DE01119601900D928A951B
:100DD000E1F78D8181110DC029813A814B815C81C0
:100DE0006D817E818F810E94480E2D96E2E00C94E9
:100DF000FF2DCE0101960E94A1058111EDCFF5CF07
:100E0000FC012481213021F4808191810E94E30B37
:100E10000895662329F00E9463150E9436160895EE
:100E20000E94BD15FACFCF93C82F8823B9F08CEF5D
:100E30008C0F813AA8F46C2F8091120190911301CC
:100E40000E946125882329F08C2F0E94D50E0E94D4
:100E50004E0F8C2F0E94CD0E0E944E0FCF91089501
:100E600080E28C0F883048F4C77081E001C0880FA1
:100E7000CA95EAF70E94F80EEFCF83E38C0F833117
:100E800068F761E08C2F0E940907E8CF8823F1F012
:100E90009CEF980F913A28F40E94D50E0E944E0FB5
:100EA000089590E2980F983050F4877091E001C057
:100EB000990F8A95EAF7892F0E94FE0EEFCF93E3F0
:100EC000980F933118F460E00E94090708951F936A
:100ED000CF93DF93182FEB010E941307209739F46B
:100EE000812F0E944607DF91CF911F9108958FE9CE
:100EF0009FE00197F1F700C000002197EFCF70E06D
:100F000060E0893311F460E570E00E94670708959E
:100F1000882321F00E94F80E0E944E0F0895882326
:100F200021F00E94FE0E0E944E0F0895B0E0A0E056
:100F3000ECE9F7E00C94DC2D6C01D62FC72FFC01F7
:100F40001581068102950F700E94EE0EE82E88230F
:100F5000E9F0E12E1123D1F08C2F807F803451F005
:100F600080E28D0F8830F8F0011104C08C2F807E54
:100F70008032C9F080914B0282FF15C082E00E944E
:100F8000B10F0E94EE0E91E0E82EE926BC2EB2943D
:100F90009FE0B922FBE0FB15B8F1EB2DF0E0EB523E
:100FA000F14D0C94BA2DE12CF1CF0C2F0F70C07FB6
:100FB00011F00295007F112399F0002359F080E28F
:100FC0008D0F883010F0D11107C0802F0E94F80ECD
:100FD0000E944E0F8D2F5AC0802F0E94080FF8CF0D
:100FE0008D2F0E944607002379F080E28D0F883014
:100FF00010F0D11104C0802F0E94FE0E03C0802F7C
:101000000E940E0F0E944E0FEB2DE850FF0B3497FD
:1010100020F40E940C250E94A506EE2089F00E9473
:10102000EA0E80FD0DC0F60115820E94E40E0E94BA
:101030008D0AC6010E94A2090E94E40E0E94AF0A16
:10104000CDB7DEB7E9E00C94F82D2C2F2F70F22EDF
:10105000C07FC03219F0F29480EFF822DD2341F016
:10106000D130D1F1112309F444C00023F1F0B2CF03
:1010700080914B0282FD15C0112359F0FF2029F009
:101080008F2D0E94F80E0E944E0F80E00E941307E1
:10109000BBCF80E00E944607FF2009F4B5CF8F2D1B
:1010A000ABCF112369F0011104C08F2D0E94880776
:1010B000ABCF013009F0A8CF8F2D0E942C0FA4CF09
:1010C0000111A2CF8F2D0E948F078F2D0E94380F04
:1010D0008F2D0E941C0F98CF112321F0063008F0AD
:1010E00093CFE3CF053008F08FCF8F2D0E948F076D
:1010F0008BCF0023D1F3D93349F43FEF87EE93E050
:10110000315080409040E1F700C000008D2F0E94D8
:1011100046077ACF612F8D2F0E94090775CF8C2F3C
:10112000837009F041C011116FCF4D2F4295469544
:101130004770440F440F0D2F0F7010E030E020E097
:10114000042E04C0000F111F221F331F0A94D2F770
:1011500060E070E0CB01D4FF0FC06FE070E080E092
:1011600090E004C0660F771F881F991F4A95D2F739
:101170006095709580959095C695C695C370602BC7
:10118000712B822B932BC23049F058F4C13019F0E7
:101190000E943A0A39CF0E94270A36CF0E944D0A90
:1011A00033CF0E94240A30CF8695112311F08C2F63
:1011B0008170882309F428CF4D2F429546954770BA
:1011C000440F440F0D2F0F7010E030E020E0042E8C
:1011D00004C0000F111F221F331F0A94D2F760E0D2
:1011E00070E0CB01D4FF0FC06FE070E080E090E0D2
:1011F00004C0660F771F881F991F4A95D2F7609524
:10120000709580959095C695C695C370602B712B8F
:10121000822B932BC23049F058F4C13019F00E9450
:10122000080BF2CE0E94F50AEFCE0E941B0BECCE0B
:101230000E94660AE9CECF70112329F08C2F0E94FC
:101240008D0A8D2F33CF8D2F0E948F078C2F0E94F8
:10125000AF0ADACED23F41F160F4D03FB9F0D13FCE
:1012600081F0112309F446C00111B4CE8C2F8F7187
:101270001FC0D33F01F1D43FA1F780914B0282FD03
:1012800024C08C2F8F71112311F312C0112341F050
:10129000053008F0B9CE8C2F8F710E94D30AB4CEDE
:1012A000063008F0B1CEF7CF8C2F8F711111CFCF50
:1012B0000E948D0AA9CE112329F08C2F8F710E94D4
:1012C000770AA2CE0E94710A9FCE112349F0CF71F6
:1012D0008C2F0E948D0A63E08C2F0E94930F94CE76
:1012E00081E00E94B10F023008F48ECE82E00E94AD
:1012F000B10F8ACE002359F0D93309F007CFEFEFB1
:10130000F7EE23E0E150F0402040E1F7FDCE8C2FD6
:101310008F719DCF0F931F93CF93DF93EC01688163
:1013200079818D810E94EE0B8C010E942E0B0E9410
:10133000230AB801CE010E949607DF91CF911F9139
:101340000F910895CF93DF93EC018C81882399F05E
:10135000CE010E94D205811111C00E94EE0E882399
:1013600051F08D81882339F080914B0282FF03C0B8
:1013700082E00E94B10FDF91CF910895CE010E94CB
:101380008A09CE010E94AD05F6CF0E94150F0E947A
:101390004E0F0E9452160E94361608950E94DD0ECE
:1013A0000E94C50908950E94050F0E94CE09089564
:1013B00092959F70963091F058F4925F9F709230A2
:1013C00058F4803F19F030F4883E30F481E00895FD
:1013D0009A5FF4CF843FD1F380E00895883EB0F364
:1013E000813FD1F7F3CFFC012481222339F08081A2
:1013F00091810E94E30B0E94D809089580E008952E
:10140000A6E0B0E0E6E0FAE00C94E32D2696E2E0F8
:101410000C94FF2DA7E0B0E0E0E1FAE00C94E32D9E
:101420002796E2E00C94FF2D08950E94140A089577
:101430000E94150A60937E0170937F018093800162
:1014400090938101089508950E94180A08950F93BA
:101450001F9300917E0110917F01209180013091B6
:101460008101602B712B822B932B0E94180A1F91F4
:101470000F9108950F931F9300917E0110917F01AA
:101480002091800130918101602371238223932375
:101490000E94180A1F910F9108950F931F930091B6
:1014A0007E0110917F0120918001309181016027A0
:1014B0007127822793270E94180A1F910F91089580
:1014C0000E94140A08950E94600A08950E94630A07
:1014D00060937A0170937B0180937C0190937D01EE
:1014E000089560E070E0CB010E94660A08950F93B2
:1014F0001F9341E050E060E070E08A019B0104C06E
:10150000000F111F221F331F8A95D2F7C901B8019E
:101510000E94660A1F910F9108950F931F9341E057
:1015200050E060E070E004C0440F551F661F771F55
:101530008A95D2F780917A0190917B01A0917C01EC
:10154000B0917D018A019B01082B192B2A2B3B2B83
:10155000C901B8010E94660A1F910F9108950F9367
:101560001F9341E050E060E070E004C0440F551F5D
:10157000661F771F8A95D2F7CB01BA0160957095E7
:101580008095909500917A0110917B0120917C01CA
:1015900030917D0160237123822393230E94660A88
:1015A0001F910F9108950F931F9341E050E060E069
:1015B00070E004C0440F551F661F771F8A95D2F74D
:1015C00080917A0190917B01A0917C01B0917D0185
:1015D0008A019B01082719272A273B27C901B8013F
:1015E0000E94660A1F910F9108950F931F93009117
:1015F0007A0110917B0120917C0130917D01602B5B
:10160000712B822B932B0E94660A1F910F910895D4
:101610000F931F9300917A0110917B0120917C011F
:1016200030917D0160237123822393230E94660AF7
:101630001F910F9108950F931F9300917A011091BC
:101640007B0120917C0130917D01602771278227E9
:1016500093270E94660A1F910F9108950895262FDF
:10166000277091E001C0990F2A95EAF723E076955B
:1016700067952A95E1F725E0269FF001279FF00D59
:101680001124E40FF51F50E040E0682F70E08191D5
:10169000DF0111979B01042E02C0369527950A940D
:1016A000E2F7217021952827292328272C934F5FC3
:1016B0005F4F4530510559F70895A82FA77023E0D3
:1016C000969587952A95E1F725E0289FF001299FB7
:1016D000F00D1124E60FF71F50E040E080E021916B
:1016E00030E00A2E02C0369527950A94E2F7217061
:1016F0003327042E01C0220F0A94EAF7822B4F5F92
:101700005F4F4530510559F70895262F943070F4F6
:10171000873060F4682F70E087E0989F600D711D3E
:10172000112446E651E0822F0E942F0B0895292FA5
:10173000943068F4873058F490E066E671E037E062
:10174000239F800D911D11240E945D0B089580E060
:101750000895B0E0A0E0EFEAFBE00C94DC2D8C01F2
:10176000C0907A01D0907B01E0907C01F0907D01E7
:1017700080917E0190917F01A0918001B0918101C3
:10178000C82AD92AEA2AFB2ACFE1D0E0BC2ED70109
:10179000C6010C2E04C0B695A795979587950A9417
:1017A000D2F780FD09C0219788F7B12C8B2DCDB7DA
:1017B000DEB7E9E00C94F82DB8018C2F0E94851259
:1017C000019789F3F3CFCF93DF93EC010E94A90B2C
:1017D000BE010E948512DF91CF9108951F93CF9390
:1017E000DF93EB0190916501992339F0CB010E94C1
:1017F000E30BDF91CF911F910895882369F0CB010E
:101800000E94A90B182F682FCE010E94850BBE01E4
:10181000812F0E948512EDCFCB010E94970B182FCC
:10182000F6CF1F93CF93DF93C091820117E0809191
:1018300083018C1304C0DF91CF911F910895D0E0F4
:101840001C9FF0011D9FF00D1124EC57FE4F2081CD
:101850003181428153816481758186810E940A0AA7
:101860002196C770E4CF2091BC013091BD01409119
:10187000BE015091BF016091C0017091C101809182
:10188000C2010E940A0A0895CF93DF938091C2019A
:10189000807F09F04DC08091C101882309F448C0C0
:1018A000E091820150918301C091BD01D091BC01B2
:1018B0006091BE017091BF0147E05E17C9F18E2FA4
:1018C00090E0E49FF0011124EC57FE4F2481222385
:1018D00091F1489FF001499FF00D1124DF01AC57B1
:1018E000BE4F11962C9111972C1325C02C912D13BE
:1018F00022C015962C91159721111DC012962D917D
:101900003C91261B370B283C3105A8F48091C2017D
:101910008F7080618093C201E657FE4F80818F7087
:10192000806180838CEB91E00E94A2090E94110CDF
:10193000DF91CF910895FC013196E770BECF482F1B
:10194000209182019091830157E0291302C080E029
:10195000089530E0529FF001539FF00D1124EC5791
:10196000FE4F8181681306C08081481303C08581C2
:101970008111EECF2F5F3F4F2770E7CFA4E1B0E09A
:10198000E4ECFCE00C94D92D8C0186E0F801DE013A
:101990001F9601900D928A95E1F7F8018481E58008
:1019A0009CEBA92E91E0B92E9091C00191111FC01E
:1019B0008823D1F0EE20A9F0C8010E94F309F82E87
:1019C000882379F087E0F801D50101900D928A957E
:1019D000E1F7C5010E9400070E94440C0E94330CED
:1019E0005FC0C8010E94A209FF24F39459C0C080BF
:1019F000D18082809380F090C1012091BE0130910E
:101A0000BF01A401421B530BFF2009F4F9C0483C5D
:101A1000510508F0A7C0882309F442C09091BD0188
:101A20008091C201282F207F09F05CC09D1116C053
:101A30009091BC01C91212C0E1104EC08F7080613C
:101A40008093C2010E94330C8CEB91E00E94A209AA
:101A50008091C201F8018683F12C22C0E1103CC0C4
:101A60006D2D8C2D0E949F0C6D2D8C2D0E949F0C36
:101A7000E82E8111F1CFCF86D88A8F8598890E9470
:101A8000E30B292F22952F70243078F49F70223099
:101A9000A8F09923B9F0F8019681907F99F4FE2C73
:101AA0008F2D6496ECE00C94F52D2A5F2F70223078
:101AB00068F0C8010E94A209EF2CF1CF992311F020
:101AC000882369F3805E883050F3F3CF803F38F38A
:101AD000815F833070F7E3CF8091C2018160809392
:101AE000C201BACF9D1113C09091BC01C9120FC0A1
:101AF000E1100DC08683C8010E94A20987E0F801A9
:101B0000ACEBB1E001900D928A95E1F767CFC80187
:101B10000E94F309882309F464CFEE2009F461CF11
:101B20008091C201803288F02091BC013091BD01CA
:101B3000398728879B868A869091C0019C871D865D
:101B40008E87CE0108960E94A20987E0F801ACEBCF
:101B5000B1E001900D928A95E1F70E94440C0E9439
:101B6000330C42CF9091C201292F207FA1F4682D20
:101B70009A8A898AA6017A899E2D0E94000A8CEB96
:101B800091E00E94A20987E0F50111928A95E9F798
:101B90000E94330C61CF882309F482CF8091BD016C
:101BA0008D1110C08091BC01C8120CC0E1100AC098
:101BB0009683C8010E94A20987E0F50111928A95D7
:101BC000E9F76ECFC8010E94F309882309F409CF11
:101BD000EE2009F406CF8091C201803208F4B5CF1F
:101BE0002091BC013091BD013A8329839C828B8274
:101BF0009091C0019D831E828F83CE010196A3CF59
:101C0000483C5105B8F5882309F4EECEFE2CEE20B1
:101C100009F4E7CE8091BD018D111EC08091BC01F9
:101C2000C8121AC08091C20180FD0DC0982F907F0C
:101C300051F08683903F09F45ECF982F907F905F9C
:101C40008F70892B57CF87E0F801ACEBB1E00190A2
:101C50000D928A95E1F724CFC8010E94F309811102
:101C600074CF8091C20181608093C201C8010E943B
:101C7000A20916CF682D9A8A898AA6017A899E2D93
:101C80000E94000A87E0F50111928A95E9F7A6CE35
:101C9000AEE0B0E0EEE4FEE00C94E22D2887398758
:101CA0004A875B876C877D878E87CE0108960E9466
:101CB000BE0C8823B1F06C85662341F028853985F8
:101CC0004A855B857D858E850E940A0A17E0809192
:101CD00082019091830189133DC02E96E3E00C941C
:101CE000FE2D87E0FE013896DE01119601900D92DF
:101CF0008A95E1F78C85882349F32091830130E0B0
:101D0000C9010196877099274091820148171906E9
:101D100099F097E0929FD001939FB00D1124AC579A
:101D2000BE4FFE01319601900D929A95E1F7809396
:101D300083010E94110CCACF0E94D3091092830123
:101D40001092820187E0ECEBF1E0DF011D928A95B1
:101D5000E9F7BCCF819FC00111248C579E4F0E9490
:101D6000BE0C882309F4B9CFE09182011E9FF001D7
:101D70001124EC57FE4F20813181428153816481CF
:101D8000758186810E940A0A8091820190E0019605
:101D900087709927809382019ACF682F80911201D2
:101DA000909113010E9497250895682F8091120148
:101DB000909113010E949A250895809112019091AB
:101DC00013010E949D2508958091CB0186958695EB
:101DD000869508958091CB01877008959091CB01ED
:101DE000977081E009F480E008958091D70108950B
:101DF0009091D701892B8093D70108958095909178
:101E0000D70198239093D70108951092D701089590
:101E10009091D601892B8093D60108958095909159
:101E2000D60198239093D60108951092D601089573
:101E300008950E94180F08959091CC01292F28230E
:101E400031F0809589238093CC010E94190F089569
:101E500008950E94280F08959091CD01292F2823DD
:101E6000281729F0982B9093CD010E94290F0895EF
:101E70009091CD01292F282331F0809589238093DB
:101E8000CD010E94290F08958091CD01882329F06A
:101E90001092CD0180E00E94290F0895CF93DF9327
:101EA000E0911201F09113018091D7018083E091BC
:101EB0001201F091130180819091D601892B8083CA
:101EC0009091CD01992381F0E0911201F0911301DD
:101ED0008081892B808380911201909113010E944F
:101EE0004F2581110E94440FC0911201D09113011E
:101EF00048E050E063EC71E0CE010E94652E892B32
:101F000059F088E0FE01A3ECB1E001900D928A95B2
:101F1000E1F7CE010E941925DF91CF910895089530
:101F20000E948F0F089590914B0292FF11C098E08C
:101F3000899F90011124622B6093CB010E948D0A2E
:101F40008091CB018695869586950E94900F089585
:101F50000E948D0A08951092CB0180E00E94900F9C
:101F600008959091CB01809589238093CB01282FF0
:101F7000277069F4891759F090914B0292FF07C0BE
:101F80008695869586950E94AF0A0E94AB0F0895AC
:101F900090914B0292FB222720F9281769F080FBD1
:101FA00092F990934B0280914A0290914B020E94C9
:101FB000101082E00E94B10F089580914B0282FBC5
:101FC000882780F991E089270E94C80F089581E051
:101FD0000E94C80F089580E00E94C80F08956FEF17
:101FE0007FEF90E080E00E94BD2E089590E080E0B9
:101FF0000E94892E21E0863E9E4F09F020E0822F2C
:10200000089582E090E00E947B2E089583E090E0A6
:102010000E947B2E089584E090E00E94892E08950E
:10202000BC0184E090E00E94BD2E0895AB01BC018C
:102030008FE090E00E94B12E0895AB01BC0183E1D6
:1020400090E00E94B12E089560E070E0CB010E9404
:102050001D10089560E070E0CB010E9416100E94F0
:1020600024100895A8E0B0E0E8E3F0E10C94E32D3B
:1020700066EE7EEF90E080E00E94BD2E60E082E0A0
:1020800090E00E949F2E60E083E090E00E949F2EEF
:1020900010927E0110927F011092800110928101B6
:1020A00060E074E184E090E00E94BD2E60E086E094
:1020B00090E00E949F2E6FEF87E090E00E949F2E9D
:1020C00040E050E0BA0188E090E00E94B12E60E06C
:1020D00084E290E00E949F2E60E087E190E00E9401
:1020E0009F2E60E08CE090E00E949F2E60E08DE0EB
:1020F00090E00E949F2E19821A821B821C821D82F0
:102100001E821F82188648E050E068E170E0CE0130
:1021100001960E948F2E40E050E0BA0180E290E0EC
:102120000E94B12E0E942A102896E2E00C94FF2D06
:102130000E9432100895682F8EE090E00E949F2E3A
:102140000895A6E0B0E0E7EAF0E10C94E12D0E94EA
:102150004B268C018091D8019091D901801791076D
:1021600081F019821A820E944B26682F49815A8178
:10217000792F80E090E00E94D0061093D90100935F
:10218000D8012696E4E00C94FD2D0E94572660931A
:10219000E2017093E3018093E4019093E501609381
:1021A000DE017093DF018093E0019093E1010895D7
:1021B000089508950E94D91008950E94C9040895B1
:1021C00081E008958FE693E10E9402250E94D810D5
:1021D0000E94DA1008950E94E01008950E94EB100A
:1021E0000895089508950E94F1100E94F210089534
:1021F0000E9472130E94A40608950E9442260E9423
:1022000040140E94F81080E00E94331E0E94571C68
:102210000E94DD100895A6E0B0E0E1E1F1E10C9448
:10222000DA2D0E94E010811110C00E94A1100E94BE
:10223000AD1C0E9480200E9474160E94E6220E941B
:10224000B7062696EBE00C94F62D0E9456148AED04
:10225000A82E81E0B82E750110E0F70101917F01F1
:10226000812F0E949E131F5F143009F441C008178C
:10227000A1F38091E60181FD0E94A4130E94EE105B
:10228000C82E10E099249394812F0E949E13082F4A
:10229000F50181915F01081729F1D02ED826F12C84
:1022A000EE24E3948D2D8E21A9F0CC2099F0F982B3
:1022B0001A830E944B269C838B839D8291E0802F02
:1022C0008E2109F490E049815A816B817C818D8156
:1022D0000E94D006F394EE0CF7E0FF12E3CFF50175
:1022E000319700831F5F143079F60E94C5109FCF8D
:1022F0000813BFCF9ACF1F93CF93DF930E948A1208
:10230000EC01C11582E5D80708F03FC0C11590E582
:10231000D90708F0C2C0C83ED105C0F4C03ED105FF
:1023200080F4C53AD10548F4C430D10550F4C13029
:10233000D10539F0D0E0C0E004C0CD3CD105D0F3E8
:10234000D065CE01DF91CF911F910895C11580E432
:10235000D80708F053C0C11590E2D90708F0B7C0FC
:10236000C11581E0D80730F38D2F0E942C13182F50
:10237000CE0199270E948A12C12FD0E0DC2FCC27F2
:10238000CC27DF71C82BD92BDCCFC03892E5D90719
:10239000A8F4C03682E5D80708F063C0C03492E5DF
:1023A000D90708F049C0C03282E5D80788F1CF715B
:1023B000D0E0DC2FCC27C16FD06AC3CFC03C92E500
:1023C000D90780F48C2F8F71C03AD24508F45EC0D3
:1023D0000E942C13C82FD0E0DC2FCC27CC27DF7134
:1023E000D062AFCFC03E82E5D80708F0A3CFDC2F84
:1023F000CC27CC27DF71C06FD06AA3CFCE0199273D
:102400000E948A12CC27DF70C82BD92BD06A99CFB3
:102410002C2F2695269590E2299F900111248C2F30
:102420008370C1E0D0E002C0CC0FDD1F8A95E2F7D7
:10243000C22BD32BDD6885CF2C2F269526952770B0
:1024400080E2289F900111248C2F8370C1E0D0E09E
:1024500002C0CC0FDD1F8A95E2F7C22BD32BDC68BC
:1024600070CF2C2F26952695277090E2299F9001FA
:1024700011248C2F8370C1E0D0E002C0CC0FDD1F8F
:102480008A95E2F7C22BD32BDA685BCFC82FD0E056
:10249000DC2FCC27C46FD06A54CF8C2F8F710E9451
:1024A0002C1355E0D695C7955A95E1F7CF70D0E03B
:1024B000DC2FCC27282F30E084FF05C044E0220F1A
:1024C000331F4A95E1F7C22BD32BD0693ACF8D2F1A
:1024D0008F710E942C13182FCE0199270E948A1207
:1024E000C12FD0E0DC2FCC27CC27DF71C82BD92B14
:1024F00077CF462F743030F4673020F4672F0E9476
:102500005705089590E080E008950E9479120E9496
:102510007B11089582389105B9F1B0F481339105AA
:1025200009F47DC048F48932910509F46DC08A32FE
:10253000910509F47BC008958533910509F45FC0C6
:102540008933910509F10895833E9105D9F138F455
:10255000803E910529F1823E910579F10895863EEC
:102560009105D9F1873E910509F43EC0843E91055D
:1025700041F520914B0221FF24C080914A0284FD45
:1025800019C087EE90E0089520914A02237009F067
:102590005AC020914B0223FF14C089E290E00895B5
:1025A00020914A0220FD38C030914B0230FF09C013
:1025B00024FF43C090E080E0089520914A0222FD6C
:1025C000F7CF089520914A0222FD3AC030914B0284
:1025D00030FD39C024FFF5CFEDCF20914A0223FF13
:1025E000F0CF24FDE7CFCDCF20914A0223FD2EC0AE
:1025F00030914B0231FFEECF84EE90E008952091B0
:102600004A0225FFDECFC9CF20914A0225FD21C015
:1026100020914B0223FFD5CF89E390E0D2CF2091C8
:102620004A0226FFCECF8AE290E0089520914A0226
:1026300026FFC7CF81E390E0089583EE90E00895F0
:1026400082EE90E0089580EE90E0089586EE90E0AE
:10265000089585E390E0089590914A0292FF06C0A4
:10266000282F28712830F9F4877F846093FF06C0F3
:10267000282F28712831F1F4877E846120914B0244
:1026800020FF06C0382F38713830D9F4877F816039
:1026900021FF06C0282F28712831D1F4877E81615F
:1026A00094FD877E0895282F24712430F9F68B7FBE
:1026B0008860DCCF282F2471243101F78B7E88615C
:1026C000DDCF382F3171313019F78E7F8860E0CF40
:1026D000282F2171213121F78E7E8861E1CF80E0A2
:1026E000089508950E94F60F811102C00E9498106B
:1026F0000E9401108093E6010E940B1090934B0200
:1027000080934A020E9471130E940610682F70E0A5
:1027100090E080E00E94240A60917A0170917B0130
:1027200080917C0190917D010E94630A0895089533
:102730000E94971308950E94E8040895E82FF0E09E
:10274000E05BFD4F80810895089580EA8A95F1F756
:10275000089500C008950E94A5130895F894E82FE5
:10276000E295EF70F0E031A1282F2F7081E090E02A
:1027700001C0880F2A95EAF7982F9095932391A38B
:1027800092A1892B82A378940895CF93DF9386E654
:102790000E94AE1387E90E94AE1386EC0E94AE132E
:1027A00084E30E94AE13C5E3D1E089918F3F11F01D
:1027B0000E94AE1381E0CC33D807B9F7DF91CF91F7
:1027C0000895B0E0A0E0E7EEF3E10C94DD2DEC011C
:1027D000D62E062F10E0C801845C9E4F7C01FC01C0
:1027E00080818F3F09F445C0F894E82FE295EF709F
:1027F000F0E091A18F7021E030E001C0220F8A95B6
:10280000EAF7892F822B81A382A12095282322A376
:1028100078940E94A913E5E3F1E04CE351E031E044
:10282000C12C21912F3F51F1A22FA295AF70B0E0A2
:1028300090968C9190E02F7002C0959587952A957F
:10284000E2F780FD1BC0832FC82A330F4E175F07A6
:1028500041F7F70180818F3F11F00E94AE1361E0D4
:10286000C11001C060E08D2D0E94AB13C00FD11FBD
:10287000C882CDB7DEB7E8E00C94F92D80E0E4CF54
:102880000E94C51384E0E0E5F2E0DF01982F1D927D
:102890009A95E9F7ECE4F2E0DF011D928A95E9F7F9
:1028A00084E00E9493140E9498130895A4E0B0E07D
:1028B000ECE5F4E10C94E22D19821A821B821C8251
:1028C00010E0612FCE0101960E94E1131F5F1430CA
:1028D000C1F744E050E0BE016F5F7F4F8CE492E0AF
:1028E0000E94652E21E0009709F420E0892B61F019
:1028F00089819A81AB81BC8180934C0290934D0277
:10290000A0934E02B0934F0244E060E572E08CE485
:1029100092E00E949414182F0E949B13812F2496FA
:10292000E3E00C94FE2D0895CF92DF92EF92FF9298
:102930000F931F93CF936C017B01042F222349F047
:1029400081E08093E9010E944B269093E8018093F7
:10295000E701C091E901C1110AC0C0E08C2FCF91FD
:102960001F910F91FF90EF90DF90CF90089580918D
:10297000E7019091E8010E946326059770F310E04B
:10298000A801B601C7010E94652E892B41F0A8015C
:10299000B601C7010E94722E1092E901DFCFC0E09C
:1029A000FBCF0E940D280E94FD100E941A28089556
:1029B0000E941F280E940B110E94392808950E942E
:1029C000E4250E94F3270E94E2100E94D1140E9485
:1029D000D8140E94F310FBCF8091F00180FF0DC04E
:1029E0006091190170E0660F771F6038710570F50E
:1029F0006115710569F1862F089581FF07C0609107
:102A0000190184E0689FB0011124EFCF6091190192
:102A100082FD0AC08091EF018823A9F0209118015E
:102A200060911901821710F088E0ECCF869FC001F9
:102A3000112433E0880F991F3A95E1F7622F70E077
:102A40000E94652DD2CF68E070E0D5CF8FE7089562
:102A500081E008958091F00180FF0CC06091150124
:102A600070E075956795759567956115710549F1E4
:102A7000862F089581FF06C06091150170E075955D
:102A80006795F3CF6091150182FD0BC09091EE0127
:102A90009923A1F06091140180911501961738F0E7
:102AA000682F70E06038710500F38FE70895899F03
:102AB000C001112470E00E94652DF4CF61E070E048
:102AC000D7CF81E008958D3C31F40E94EC148195BC
:102AD0008093F40108958E3C19F40E94EC14F8CF11
:102AE0008F3C31F40E94EC1481958093F30108959A
:102AF000803D19F40E94EC14F8CF893D29F40E941E
:102B00002A158093F50108958A3D21F40E942A1523
:102B10008195F7CF8B3D31F40E942A1581958093E2
:102B2000F60108958C3D19F40E942A15F8CF9FE212
:102B3000980F983070F4815D990B21E030E001C06E
:102B4000220F8A95EAF78091F201822B8093F2019D
:102B500008958D3D31F48091F00181608093F00102
:102B600008958E3D21F48091F0018260F7CF8F3D72
:102B7000B9F78091F0018460F1CF4091F3018D3C71
:102B800059F48091F40187FF0DC01092F4014111B6
:102B90000BC01092EF0108C08E3C81F48091F401CB
:102BA00018169CF3442381F08091F5019091F60171
:102BB000892B09F05AC01092EE0108958F3C49F418
:102BC00047FFF0CF1092F3018091F4018111ECCF17
:102BD000E0CF803D19F41416ACF3E4CF9091F501E9
:102BE000893D29F41916F4F61092F501DBCF8A3DE0
:102BF00019F497FFD7CFF8CF9091F6018B3D29F4C8
:102C000097FFD0CF1092F601CDCF8C3D19F4191655
:102C1000CCF3C8CF9FE2980F983090F4815D990B68
:102C200021E030E0B90102C0660F771F8A95E2F714
:102C3000CB0180959091F20189238093F201B2CF6C
:102C40008D3D31F48091F0018E7F8093F001AACF09
:102C50008E3D21F48091F0018D7FF7CF8F3D09F0FB
:102C6000A1CF8091F0018B7FF0CF08950E944B2679
:102C70009C019091F3018091F401982B21F0309305
:102C8000ED012093EC019091F5018091F601982BD4
:102C900021F03093EB012093EA0181EF91E00E9453
:102CA0002425089586E0E1EFF1E0DF011D928A9589
:102CB000E9F71092EF011092EE011092F0010895E1
:102CC000FC01828181110EC0838181110BC084813E
:102CD000811108C091E08581811101C090E0892FA8
:102CE0008170089581E0FCCFA6E0B0E0EAE7F6E16C
:102CF0000C94E22D86E0E1EFF1E0DE011196019007
:102D00000D928A95E1F71092F3011092F40110925E
:102D1000F5011092F6018B819C81892B89F08091BD
:102D2000EC019091ED010E946326AC019091EF01BE
:102D30009923C9F180911A018417150608F440C03F
:102D40008D819E81892B91F08091EA019091EB0118
:102D50000E946326AC019091EE01992309F471C0A1
:102D6000809116018417150608F479C0BE016F5FC3
:102D70007F4F81EF91E00E94A425811105C081EF72
:102D800091E00E94601681110E94361686E0FE01D5
:102D90003196A1EFB1E001900D928A95E1F7269668
:102DA000E3E00C94FE2D20911B018AE0289F900106
:102DB00011242417350720F69F5F9093EF0102C07E
:102DC0009F3FD1F71B81112359F00E94EC149FEF14
:102DD00011160CF491E0899F802D11248093F3014A
:102DE0001C81112359F00E94EC149FEF11160CF472
:102DF00091E0899F802D11248093F4013091F3019B
:102E0000332309F49DCF2091F401222309F498CFB4
:102E100045EB3403C0011124992359F09093F30139
:102E200045EB240390011124332339F03093F4014E
:102E300087CF81E08093F301F3CF81E08093F401A9
:102E40007FCF209117018AE0289F90011124241739
:102E5000350708F08BCF9F5F9093EE0102C09F3F34
:102E6000D1F71D81112359F00E942A159FEF1116E9
:102E70000CF491E0899F802D11248093F5011E812F
:102E8000112359F00E942A159FEF11160CF491E0BE
:102E9000899F802D11248093F6013091F501332311
:102EA00009F464CF2091F601222309F45FCF45EBAA
:102EB0003403C0011124992359F09093F50145EB97
:102EC000240390011124332339F03093F6014ECFBF
:102ED00081E08093F501F3CF81E08093F60146CF46
:102EE000EF92FF920F931F93CF93DF93EB01E82FA5
:102EF000D1110EC0442321F0F0E0E855FE4FE491DB
:102F00006E2F7E2F8E2FCDB7DEB7E6E00C94FB2D13
:102F10000D2F10E0282F30E0442329F028553E4F94
:102F2000F901249130E0F6E0CF9FC0011124EFEFCA
:102F3000F0E0BF010E94512DAB018C2F90E0880F73
:102F4000991FA5E5A49FB001A59F700D1124861BB4
:102F5000970B982F990F980FBF01601B710B629F01
:102F6000D001639FB00D729FB00D11248B2F9D9FD8
:102F7000B0011124672F7727EF01C61BD70BBE01C5
:102F8000629FE001639FD00D729FD00D11247F01DD
:102F9000E91AF108E09EB001E19E700DF09E700DFF
:102FA0001124672F7727E61BF70BE29F8001E39F31
:102FB000100DF29F100D1124E12F722F4230510598
:102FC00099F048F44115510569F04130510581F0FF
:102FD000EB2F8D2F07C04430510569F080F046304B
:102FE0005105B1F76E2F8FCFE22F7B2F812FFACFB4
:102FF000E22F7D2FF7CFEB2F822F712FF3CF7B2F77
:10300000822FED2FEFCF41E00E94701708950895B1
:103010000E9403180895CF93DF93762FE901682F5C
:10302000842F0E940818798368838A83DF91CF9167
:103030000895493708F048E70E940B1808958091D9
:103040005402982F9E7F61F48170826080935402B5
:1030500080915702893718F088E7809357020895C6
:103060008A32B0F381708862F1CFB0E0A0E0EBE388
:10307000F8E10C94DD2D88E090E00E94832E6B0136
:103080007C0184E290E00E947B2E282F30E040E01B
:1030900050E060E070E080E090E000E20E940A2EE4
:1030A000B22FA32FF42FE52FD62FC72F970186011C
:1030B000BC29A12BFE295E2F532B2B2F3A2F4F2FEC
:1030C0006D2F7C2FCDB7DEB7E8E00C94F92DB0E082
:1030D000A0E0EDE6F8E10C94D92D49015A016B010D
:1030E0007C010E941F188401A4016A2D7B2D88E0B9
:1030F00090E00E94B12E94014A2D5B2DB601C701CC
:1031000000E20E94252E622F84E290E00E949F2E12
:10311000CDB7DEB7ECE00C94F52DE4E5F2E083E00A
:10312000808311828FEF828388E783831482758185
:1031300023E030E04FEF58E760E0868197810E94FE
:10314000671808958091540280FF02C08695089503
:1031500080E0089590915802933018F49F5F909307
:103160005802882391F020915402309155024091E9
:103170005602509157026091580270915902809105
:103180005A0290915B020E946718089581E00E94A4
:10319000AA18089590915802992319F0915090938C
:1031A0005802882391F020915402309155024091A9
:1031B00056025091570260915802709159028091C5
:1031C0005A0290915B020E946718089581E00E9464
:1031D000CA18089570E00E94A41D0895CF92DF924E
:1031E000EF920F931F93CF93DF93CDB7DEB7EC979A
:1031F0000FB6F894DEBF0FBECDBF60911F01809166
:10320000540280FF36C0E4E9F1E09E012F5F3F4F9A
:103210008E01035C1F4FC901A4914A2F50E0DA01CF
:10322000AA0FBB1FA40FB51FA45ABD4FCD90DD90B0
:10323000EC90D901CD92DD92ED929D013196A017CF
:10324000B10751F720911E01B3E02B9F800D911D16
:1032500011240E94EA18EC960FB6F894DEBF0FBE58
:10326000CDBFDF91CF911F910F91EF90DF90CF9065
:103270000895809120019091210123E0829FF00127
:103280001124E45AFD4F891708F0BDCF1182108236
:1032900012828F5F3396F7CF9091540290FF0EC049
:1032A000909120012091210133E0939FF00111249E
:1032B000E45AFD4F921718F00E94EE18089581838A
:1032C000608342839F5F3396F5CFA3E0B0E0EBE6E7
:1032D000F9E10C94E32D9091540290FF0AC09E01F5
:1032E0002F5F3F4F0E9419184B8169818A810E948C
:1032F0004C192396E2E00C94FF2DCF93DF93EC0161
:10330000E4E5F2E0438162818C810E9465198C8141
:103310008F5F8C83DF91CF910895A3E0B0E0E3E964
:10332000F9E10C94DF2D182FF62E042FE22E809158
:10333000540280FF2DC0E82FE695F0E0E05CFE4FE0
:103340009081909303028E7F823031F59E012F5F32
:103350003F4F812F0E9419184B8169818A810E94F9
:103360004C1910935502F092560200935702EE202A
:1033700079F0209154026091580270915902312FD6
:103380004F2D502F80915A0290915B020E94671836
:103390002396E6E00C94FB2D923019F4109155021F
:1033A000E0CF9530F1F6FACFE4E5F2E09181282FF5
:1033B0004381628188E0890F0E948D19089581E020
:1033C0000E94D4190895E4E5F2E09181282F438109
:1033D000628188EF890F0E948D19089581E00E9413
:1033E000E3190895E4E5F2E0628128E0620F08F451
:1033F0006FEF282F438181810E948D19089581E00C
:103400000E94F2190895E4E5F2E0628128E0621B6F
:1034100008F460E0282F438181810E948D1908956E
:1034200081E00E94031A0895E4E5F2E0438128E078
:10343000420F08F44FEF282F628181810E948D197D
:10344000089581E00E94141A0895E4E5F2E04381B2
:1034500028E0421B08F440E0282F628181810E940D
:103460008D19089581E00E94251A089521E00E9497
:103470008D19089520E00E948D190895A3E0B0E011
:10348000E4E4FAE10C94E12D8C018091F7018111C3
:103490000AC09E012F5F3F4F48E76FEF0E94191847
:1034A0008A818093F701F8016481613069F080912D
:1034B000F70140E0662361F040E0623011F4409192
:1034C000F70180E060E004C06091F70140E080E037
:1034D0000E944C19F801848190E0019663E070E04D
:1034E0000E94652D84832396E4E00C94FD2DEF92D9
:1034F000FF921F93CF93DF93EC0110E0EE24EA9448
:10350000F12C60912201161770F00E94EE189A813A
:103510008C8190FF27C08F5F8C83DF91CF911F91AB
:10352000FF90EF90089520912001422F410F5527E1
:10353000551FCA019A01220F331F280F391F245A21
:103540003D4F70E0C7010E94652D962F8C81409100
:10355000570260915602199F800D11240E9419187C
:103560001F5FCFCF8150D8CFB0E0A0E0EAEBFAE107
:103570000C94DB2DFC0182810FEF80FF01E010E055
:1035800044E1A42E80912201181798F00E94EE18B1
:103590008091F901013009F04FC0811102C0809182
:1035A000220181508093F901CDB7DEB7EAE00C9497
:1035B000F72DC0912001C12ED12CCC0DDD2DD11DB8
:1035C000CE01880F991FC80FD91FC45ADD4F198229
:1035D00018821A8234E0E32EF12CB12C8091F9018B
:1035E0008B0D85311CF16A2D0E94432D892F082EE9
:1035F000000C990BC816D90691F4809157028E9D44
:10360000A0018F9D500D11245595479555954795CF
:103610009E0160915602809155020E941918B00EC9
:10362000F1E0EF1AF108D1F61F5FACCF87FFDFCFD3
:1036300090912201890FDBCF90E0019660912201E9
:1036400070E00E94652DAECF0F931F93CF93DF9351
:10365000809120019091210123E0829FF0011124AB
:10366000E45AFD4F891740F1C0E0D3E06091220198
:10367000C61740F10E94EE1820911C018091F801BC
:10368000820F8093F80190911D01920F90931D017C
:10369000191654F4082E000C990B40912201415048
:1036A000550B841795071CF0219520931C01DF9181
:1036B000CF911F910F9108951182108212828F5F16
:1036C0003396D0CF0C2F10E070E0C8010E94652D1A
:1036D00020912001820F482F50E02091F801022E06
:1036E000000C330B02171307BCF020911D01022EB2
:1036F000000C330B201731077CF08D9F90011124B3
:10370000245A3D4F409157026091560280915502D4
:103710000E941918CF5FAACFFA01EE0FFF1FE40F26
:10372000F51FE45AFD4F118210821282F3CFE4E5B7
:10373000F2E020812E7F2083318142815381648198
:103740007581868197810E946718109204020E94F9
:10375000EE180895E4E5F2E080818E7F8083109278
:1037600004020E94EE180895109204028091010252
:1037700081110AC081E0809301028091540281701E
:10378000809300020E94AA1B0895609154026695DE
:1037900070E041E050E083E291E00E94582E892BD6
:1037A00019F481E0809304020E944B269093FB0160
:1037B0008093FA0108959091540290FF33C0917064
:1037C000811131C0926090935402662391F0209150
:1037D0005402309155024091560250915702609127
:1037E00058027091590280915A0290915B020E9496
:1037F000671860915402669570E041E050E083E202
:1038000091E00E94582E892BA9F01092040281E0C9
:103810008093FD01409157026091560280915502BC
:103820000E943A1A0895853110F09862CCCF880F23
:10383000982BC9CF0E94C51BEACF682F90915402E4
:10384000969581E0890F853108F081E00E94DB1BAD
:10385000089581E00E941D1C0895682F90915402E4
:1038600096958FEF890F09F484E10E94DB1B089580
:1038700081E00E942D1C089561E00E94DB1B0895E9
:10388000E4E5F2E080818160808386950E943C1CA3
:1038900008958091540280FF03C00E94971B0895F1
:1038A0000E94401C089560E00E94DB1B08958091F7
:1038B000020281113EC00E94F60F811104C00E94D5
:1038C00098100E948D180E9435182093540230934E
:1038D00055024093560250935702609358027093DA
:1038E000590280935A0290935B022E7FA1F40E94AA
:1038F0008D180E943518209354023093550240933E
:103900005602509357026093580270935902809365
:103910005A0290935B020E941F1810920402809139
:10392000540280FF03C086950E94531C81E080935F
:1039300002020895E4E5F2E080818160808386954B
:103940000E94531C0895109201028091000281117F
:103950000E949A1C0E94C51B08950F931F93CF933A
:10396000DF93809104028823B9F180910302E091F2
:103970005402E695E81BE093FC01823091F5F0E0FB
:10398000EF56FE4FE491CE2FD0E00DE719E1809184
:10399000FD01882361F01092FD010E944B26909357
:1039A000FB018093FA011092FF011092FE010E9428
:1039B0004B26E091FA01F091FB018E1B9F0B8F3F8C
:1039C0009F4750F4EC0FFD1FF093FB01E093FA01C9
:1039D0008AEF91E0F8010995DF91CF911F910F9146
:1039E0000895853051F4E695F0E0E257FE4FE491FA
:1039F000CE2FD0E007E71AE1CACF8B3051F4E6951D
:103A0000F0E0E557FE4FE491CE2FD0E004EB1AE151
:103A1000BECF813149F4F0E0E857FE4FE491CE2F5C
:103A2000D0E004E21BE1B3CFC0EDD7E007E018E13E
:103A3000843109F0ACCFE6E8F1E0C591D4910EE312
:103A40001AE1A5CFFA01811101C0FB010995089582
:103A5000CF93DF93C82FD62F0E94A2188C1748F05F
:103A60000E94A2188D1728F40E94291CDF91CF9183
:103A700008958C2F0E943C1CF9CF1F93CF93DF93A6
:103A8000EC01FB011581111110C00E94F50E82722C
:103A9000FE01E052F847E531F10508F053C0EF515F
:103AA000F14D0C94BA2D0E94491C812FDF91CF91CA
:103AB0001F91089548E35CE169E27CE10E94221DC8
:103AC000F4CF49E25CE168E37CE1F8CF4EEE59E1E6
:103AD0006FED79E1F3CF4FED59E16EEE79E1EECF85
:103AE00040E15AE16FEF79E1E9CF4FEF59E160E151
:103AF0007AE1E4CF42E35AE161E27AE1DFCF41E2E9
:103B00005AE162E37AE1DACF46EE58E166EC78E119
:103B1000D5CF46EC58E166EE78E1D0CF81E00E9447
:103B20003C1CC3CF64E082E00E94281DBECF6AE047
:103B300085E0FACF60E18BE0F7CF63E181E1F4CF7C
:103B400084E1EDCF11E0B1CF539A4BB1477F5BB128
:103B50005860EFB7F8949B01220F331F260F371FD1
:103B6000280F391F2817390741F4EFBF8FE594E07C
:103B70000197F1F700C000000895DC016D91CD01BF
:103B800078E05BB9000000C067FF4BB9660F00002A
:103B900000C000C000C04BB900C07A9591F7E2CFD9
:103BA000AB0124E630E0BC0188E70E94B62421E0A6
:103BB000892B09F020E0822F0895B0E0A0E0E3EE29
:103BC000FDE10C94DD2D6C017B0164E670E088E77B
:103BD0000E941C248C01E601EC0CFD1CCE15DF05B7
:103BE00061F40E94FE2481E00115110509F080E0D6
:103BF000CDB7DEB7E8E00C94F92D17FDF2CFFE014A
:103C0000849164E670E00E9488248C012196E6CFBE
:103C10000F931F939B0104E610E0AC0160E488E77A
:103C20000E94D72421E0892B09F020E0822F1F91E8
:103C30000F9108950E94162408950895E8E9F2E08E
:103C400080E092E0DF019C011D9221503040E1F7BD
:103C5000F0939904E09398048FEF9FEF90933102D3
:103C6000809330020895CF930E941D1E0E94CF04BE
:103C700080932C0280FD11C080E880932B020E946B
:103C80001A1E6BE070E083EC92E00E94DD1D811152
:103C900006C0C0E08C2FCF91089580E2EECF8091D6
:103CA0002C0265E070E081FD19C08EEB92E00E946D
:103CB000DD1D882371F36DE070E08CEA92E00E94D4
:103CC000DD1DC82F882329F30E941E1E81E08093EA
:103CD0002F0280932E0210922D02DCCF89EB92E00E
:103CE000E6CF20912B0236E0839FC0011124629F12
:103CF000800D911D1124811522E0920714F090E0AF
:103D000080E088569D4F909399048093980408957D
:103D100020919804309199042259324040912B020D
:103D2000642F70E0C9010E94512D481B463010F4E9
:103D3000240F311D211582E0380710F030E020E01B
:103D400028563D4F309399042093980408951F936B
:103D5000CF93DF93162F8A3039F481E00E94201F21
:103D6000DF91CF911F9108958D3011F480E0F6CF4F
:103D7000C0919804D091990496E0FE01A5E0B2E0CC
:103D800001900D929A95E1F7803EB8F086E0FE0131
:103D900011928A95E9F711111CC0C0919804D09135
:103DA000990446E050E0BE0185E092E00E94652E55
:103DB000892BE9F40E94881ED3CFF6E08F9FB001D3
:103DC000112462537D4F46E050E0CE010E944F2EF9
:103DD000E2CFE0919804F09199049F012A5F3F4F50
:103DE0002E173F07D1F2808180958193F9CFC85972
:103DF000D240CE0125E0969587952A95E1F721E0FE
:103E000030E0A90102C0440F551F8A95E2F7CA01AC
:103E10004091300250913102842B952B259645E03C
:103E2000D695C7954A95E1F702C0220F331FCA9570
:103E3000E2F7822B932B9093310280933002BACF1A
:103E4000CF93382FE0919804F0919904E859F2400B
:103E500020912B02622F70E0CF010E94512D281B70
:103E6000822F332369F066E00E94372DC82FC1509E
:103E700010F4CF91089560E080E20E94A71EF7CF72
:103E80009F01280F311D2115324018F080E0F0E02D
:103E9000E0E08E0F9F2F911D88569D4F90939904BF
:103EA00080939804E6CF1F93CF93DF93EC01162FF6
:103EB000FE018491811104C0DF91CF911F9108957B
:103EC000612F0E94A71E2196F3CF0E94531F81E00D
:103ED0000E94201F089580912E0290912F02992315
:103EE00061F0811108C062E070E08AEA92E00E940D
:103EF000DD1D811103C080912E02089581E0809321
:103F00002E02F9CFB0E0A0E0E8E8FFE10C94D72D55
:103F10008091300290913102892B09F4B6C08091D2
:103F20002F02882309F4B1C080912D028111ADC008
:103F30000E946B1F20913002309131022115310512
:103F400009F4A3C090E041E050E0092F10E0EA013D
:103F5000092E02C0CC0FDD1F0A94E2F7BE016223D6
:103F60007323672B11F49F5FF0CF80912C0280FFA9
:103F700091C0990F990F990F9093260110922901E2
:103F8000995F9093270183E080932A0167E070E0B6
:103F900084E291E00E94D01D882309F476C0980144
:103FA00045E0220F331F4A95E1F780912C0280FFF4
:103FB00083C0EBE0F2E080E2DF011D928A95E9F731
:103FC00009E511E085E5E82E81E0F82E97E0992ECD
:103FD00088248394D801ED918D01D7016D917D01E5
:103FE000620F732F711D68567D4FF0E0E55FFD4F46
:103FF00050E040E0792C741AA82C042E01C0AA0CC1
:104000000A94EAF76B0180E0D6019D916D019A2137
:10401000A72DA81BA770BA2E0A2E000CBB0B692E69
:1040200001C0660CBA94EAF7B62CB195A195B10916
:10403000A770BB2701C09695AA95EAF7A62DA92BD4
:1040400090819A2B90838F5F8830F1F64F5F5F4F9E
:1040500031964830510571F681E00D35180709F0A9
:10406000B9CF60E270E08BE092E00E94081E8823E6
:1040700061F0C095D0958091300290913102C823B3
:10408000D923D0933102C0933002CDB7DEB7EEE032
:104090000C94F32D9295990F9076909326019801A8
:1040A000369527953695279520932901915E909313
:1040B000270120932A016ACF60E270E0C901885687
:1040C0009D4FD3CF80912E0290912F02911103C06A
:1040D00091E089270895882369F062E070E088EA1A
:1040E00092E00E94DD1D811103C080912E0208958F
:1040F00010922E0280912E02EBCF0E942F05089580
:1041000080912F02882341F060E080E00E94711EC0
:104110000E947D200E94821F0895CF93DF93EC01BF
:10412000FB018581882309F4D2C09E0130572332D8
:10413000310508F0B2C00E940B1090934B0280939F
:104140004A02FE01E150F047E232F10520F4EA5064
:10415000F14D0C94BA2D80914A02816080934A02FD
:1041600093C080914B02886080934B028DC08091F8
:104170004A028260F3CF80914A028460EFCF80913F
:104180004A028860EBCF80914B028160EDCF809135
:104190004B028260E9CF80914A028061DFCF80913B
:1041A0004A028062DBCF80914A028064D7CF0E94AE
:1041B000D30980914A028068D1CF80914A028C60F5
:1041C000CDCF80914B028360CFCF80914A028E7F0A
:1041D000C5CF80914B02877FC7CF80914A028D7FE8
:1041E000BDCF80914A028B7FB9CF80914A02877FF1
:1041F000B5CF80914B028E7FB7CF80914B028D7FE0
:10420000B3CF80914A028F7EA9CF80914A028F7DE1
:10421000A5CF80914A028F7BA1CF0E94D3098091C4
:104220004A028F779BCF80914A02837F97CF8091FC
:104230004B028C7F99CF80914A0282FB992790F99B
:1042400021E0922790FB82F990FB83F987CF809140
:104250004B02982F909591708E7F892B90FB81F95E
:1042600083CF90914A02892F8F7B96FF806476CF0F
:104270000E94D30990914A02892F97FB87F98058B1
:104280006DCF81E00E949B1080914A0290914B0279
:104290000E9410100E94D30980E0DF91CF91089511
:1042A00080E0F0CF90914A02892F8F7E94FF806149
:1042B00055CF90914A02892F8E7F90FF81604ECF1B
:1042C00090914B02892F877F93FF88604DCF81E0CB
:1042D000E4CFCF939C013457C1E02034310538F44A
:1042E000FB01C581CC2331F00E948821C0E08C2FD6
:1042F000CF9108950E949521FACF809137028823AB
:1043000031F082E392E00E94322510923702089544
:1043100081110AC08091320281608093320281E073
:10432000809337020E947D21089581110AC08091F7
:1043300032028E7F8093320281E0809337020E94A6
:104340007D2108958F929F92AF92BF92CF92DF927C
:10435000EF92FF92CF93DF93823008F008C1482F8D
:1043600050E029E0829FF0011124E050FF4F81814D
:10437000A82FA295AF70B0E092969C9192978F7003
:1043800061E070E09B0101C0220F8A95EAF7209559
:10439000292392962C938181A82FA295AF70B0E02B
:1043A00091969C9191978F709B0101C0220F8A95E5
:1043B000EAF7892F822B91968C9385E38A95F1F702
:1043C000000090819F3F01F1A92FA295AF70B0E04E
:1043D00091968C9191979F709B0101C0220F9A95A5
:1043E000EAF7822B91968C939081E92FE295EF70FA
:1043F000F0E022A19F70DB0102C0AA0FBB1F9A95BB
:10440000E2F7CD01822B82A389E0849FF001859F92
:10441000F00D1124E050FF4F22812F3F09F1A22F10
:10442000A295AF70B0E091963C9191972F7081E08A
:1044300090E0BC0101C0660F2A95EAF7232F262BD6
:1044400091962C932281E22FE295EF70F0E032A159
:104450002F7001C0880F2A95EAF78095832382A3E5
:10446000B5E3BA95F1F7000089E0849FE001859FEC
:10447000D00D1124C050DF4F3981E32FE295EF704A
:10448000F0E041A13F7081E090E0BC0102C0660F06
:10449000771F3A95E2F79B012095242321A32981D8
:1044A000E22FE295EF70F0E032A12F7001C0880F8B
:1044B0002A95EAF78095832382A375E37A95F1F72D
:1044C000000089810E943F238D809E80B12CA12C09
:1044D000092E000CAA0BBB0B6C017D01C818D90872
:1044E000EA08FB08A1E8BFEFA70196010E94CE2DC4
:1044F0002B813C8150E040E0281939094A095B09C9
:104500000E949B2D121613061406150684F4AFE7BD
:10451000B0E0A70196010E94C02D2F81388550E0A0
:1045200040E0281939094A095B090E949B2DDA01EC
:10453000C90181382FEF9207A207B20724F481E85E
:104540009FEFAFEFBFEF80389105A105B10524F0D3
:104550008FE790E0A0E0B0E0DF91CF91FF90EF9087
:10456000DF90CF90BF90AF909F908F90089590E094
:1045700080E0F2CF823080F4E82FF0E0EE0FFF1FF2
:10458000EE5CFD4F818192818617970729F0728337
:10459000618381E0809337020895809101018F3F0C
:1045A00039F080E00E94A221BC0180E00E94BA2282
:1045B00080910A018F3F39F081E00E94A221BC0165
:1045C00081E00E94BA220E947D2108950E94CD229E
:1045D0000895873901F178F48633F9F030F48433A3
:1045E000F1F08533F1F08FE108958439E1F08639F7
:1045F000D1F781E20895843FC1F030F4803FB9F0F3
:10460000813F89F781E00895863F99F0A0F0873FC8
:1046100051F787E0089582E2089585E2089583E2E4
:10462000089584E2089580E2089584E0089580E08A
:10463000089586E0089585E0089596E890937A00BD
:10464000982F9072906890937B008F7190912B01BE
:10465000892B80937C0080917A00806480937A001B
:1046600080917A0086FDFCCF8091780020917900BE
:1046700090917A009F7790937A00922F08950E94EC
:10468000E9220E941D230895CF93DF93EB01863129
:104690009C4711F50E94F50E9D81992399F08A7A25
:1046A00091E009F490E090933802811109C089E209
:1046B0000E94CD0E0E944E0F80E0DF91CF910895B1
:1046C00085E3F6CF80913802811104C089E20E940F
:1046D000D50EF0CF85E3FBCF81E0EFCF0F931F9393
:1046E000CF93DF93C42FD22FFC0185818823C9F09B
:1046F00040933B020E944B2690933A0280933902EA
:1047000080E28C0F883040F4C77081E001C0880FD0
:10471000CA95EAF70E948807DF91CF911F910F9108
:10472000089510913B02141332C080913902909188
:104730003A020E946326883C910548F5C0E2CD0FFD
:104740001D17B9F080E2810F883040F4177081E0C6
:1047500001C0880F1A95EAF70E948F07C83048F405
:1047600081E09D2F977001C0880F9A95EAF70E940B
:104770008807802F0E947F07C83070F6D77081E0CD
:1047800001C0880FDA95EAF70E948F07C5CF80E253
:104790008C0F883008F6C77081E001C0880FCA9579
:1047A000EAF7F2CF0F93DB0188519C4787309105E0
:1047B000A0F5FC01E85EF04D0C94BA2D06E221EE66
:1047C00041EE6AE17CE7CD010E946E2380E00F910B
:1047D000089507E225EE45EE6BE17CE7F4CF06E2B3
:1047E00021EE40EE68E17CE7EECF07E225EE44EEF5
:1047F00069E17CE7E8CF06E221EE42EE6CE17CE77E
:10480000E2CF07E225EE46EE6DE17CE7DCCF08E281
:1048100021E045EE6EE17CE7D6CF15968C9188239A
:1048200019F010923B02D3CF81E0D1CF1092B900A2
:104830008CE08093B8000895B0E0A0E0E2E2F4E2FA
:104840000C94DA2DB82EEB010E944B266C01EE245D
:10485000E394F12CC431D10560F025E0E22EF12C77
:10486000CF3FDC0731F0CE0164E170E00E94512DB2
:104870007B0184EAA82E94E8992E1092BC00A092A5
:10488000BC000E944B268C018091BC0087FF0DC0AC
:104890008091B900887F8830F9F08091B900887FD5
:1048A0008031D1F00FEF1FEF08C0C8010E946326CE
:1048B000E816F90648F70EEF1FEFCF3FDC07E9F2E5
:1048C000C6010E946326C817D907B8F6C801CDB73C
:1048D000DEB7EBE00C94F62DB092BB009092BC00DA
:1048E0000E944B268C018091BC0087FF0AC08091FA
:1048F000B900887F883111F08034A1F610E000E023
:10490000E5CFC8010E946326E816F90660F7D3CF09
:104910000F931F93CF93DF93EB018093BB0084E849
:104920008093BC000E944B268C018091BC0087FFC5
:1049300011C02091B900287F81E090E0283211F465
:1049400090E080E0919581959109DF91CF911F9141
:104950000F910895CF3FDC0741F3C8010E94632601
:10496000C817D90710F78EEF9FEFEFCFB0E0A0E0A8
:10497000ECEBF4E20C94DD2D6B018A017901B901B5
:104980000E941C24E6010C0D1D1DC017D10711F05B
:1049900097FF08C024E92093BC00CDB7DEB7E8E05C
:1049A0000C94F92DB70189910E948824EECFB0E0D4
:1049B000A0E0EDEDF4E20C94DD2DC62F6A01790143
:1049C000B8010E941C2497FD0CC0B8018C2F0E94D6
:1049D0008824E601EC0CFD1CCE15DF0511F097FFD5
:1049E00008C024E92093BC00CDB7DEB7E8E00C9402
:1049F000F92DB80189910E948824EECF84E9809333
:104A0000BC00089590935F0180935E010895909398
:104A10003D0280933C020895E0913C02F0913D02FA
:104A2000309729F00190F081E02D0995089580E0FC
:104A30000895E0913C02F0913D02309721F0028010
:104A4000F381E02D09950895E0913C02F0913D023B
:104A5000309739F022E0DC012C930480F581E02DC1
:104A600009950895A4E0B0E0E8E3F5E20C94E32DA5
:104A7000FC0180913C0290913D02892B61F087E01E
:104A8000898381818A8383818B8380818C83CE011A
:104A900001960E94EC272496E2E00C94FF2D9C01E5
:104AA0002E5F3F4FAC01485F5F4F80E02417350712
:104AB00009F40895F90191919F019923B9F38F5F4A
:104AC000F5CF662349F0FC0132960896219126170E
:104AD00029F0E817F907D1F780E0089581E00895FB
:104AE0009C01FC0132969FEF80E04191461751F006
:104AF0009F3F19F4411101C0982F8F5F8630A9F7AD
:104B00009F3F09F40895290F311D97FD3A95F9014A
:104B100062830895FC01329608962191261303C002
:104B2000DF0111971C92E817F907B9F708950E9461
:104B3000702508950E948A250895029626E0FC01BA
:104B400011922A95E9F7089546E050E00E94652EFB
:104B500021E0892B09F420E0822F089508950E9416
:104B6000AE250895811106C081E080933E020E9427
:104B7000AF25089582E0F9CF83E080933E020E9442
:104B8000AF2508950E94B225089581E080933E02EA
:104B90000E94AF2508950E94C5250895089508959F
:104BA000CF930E94CE250E9456140E94CF25C0E0CC
:104BB0008C2F0E949E13811105C0CF5FC430C1F7B6
:104BC000CF91089581E0FCCF85B7806885BF85B718
:104BD000806885BF08951F921FB61F9211248F937E
:104BE0009F93AF93BF9380913F02811113C0809137
:104BF0009A0490919B04A0919C04B0919D044196CD
:104C0000A11DB11D80939A0490939B04A0939C04D2
:104C1000B0939D04BF91AF919F918F911F901FBE44
:104C20001F9018958091A204843031F10E943406BF
:104C300010923F0288E190E020E40FB6F894A89526
:104C4000809360000FBE2093600083B7817F8460F3
:104C500083BF83B7816083BF7894889583B78E7F45
:104C600083BF0FB6F894A895809160008861809307
:104C70006000109260000FBE08950E94D3090E9448
:104C80003D06089582E084BD93E095BD9AEF97BDFF
:104C900080936E0008952FB7F89480919A049091B4
:104CA0009B04A0919C04B0919D042FBF08952FB741
:104CB000F89460919A0470919B0480919C04909167
:104CC0009D042FBF08959C014FB7F89480919A04DA
:104CD00090919B04A0919C04B0919D044FBF821BB6
:104CE000930B089578941F921FB61F9211248F93EF
:104CF0009F93AF93BF9380919A0490919B04A0914E
:104D00009C04B0919D040196A11DB11D80939A044D
:104D100090939B04A0939C04B0939D04BF91AF918A
:104D20009F918F911F901FBE1F90189587E797E75F
:104D3000909301088093000888E19AE00FB6F894F8
:104D4000A895809360000FBE90936000FFCF88E12C
:104D50009AE00FB6F894A895809360000FBE9093E8
:104D60006000FFCF80914802089508959B01BA0129
:104D70009091A2049430E9F48F708093E9009FEF42
:104D80008091E800915085FD06C085ED8A95F1F788
:104D900000009111F5CF8091E80085FF0AC050E036
:104DA00040E0C9010E94B0288091E8008E7780938E
:104DB000E800089546E050E0BC0182E00E94B6267B
:104DC0000895CF93DF93EC0148E050E0BC0181E00F
:104DD0000E94B62688E0FE01A0E4B2E001900D92A8
:104DE0008A95E1F7DF91CF9108958091A104811117
:104DF00009C00E94402A0E949D2A8091E20084609E
:104E00008093E20008951092A10408950E94C525A0
:104E1000089560919E0481E0611101C080E00E94CC
:104E2000BC2508959091A20481E0943009F080E0BF
:104E300060919E040E94C225089542E061EC81E0E9
:104E40000E94BC2942E261EC82E00E94BC29909160
:104E5000A20481E0943009F080E060919E040E94F9
:104E6000B22508958091A404833009F461C030F420
:104E70008130D1F1823009F49EC008958A3009F45E
:104E80008AC08B3009F46FC0893009F050C080911E
:104E9000A304813209F04BC08091A7049091A8042B
:104EA000029708F044C08091E800877F8093E80073
:104EB0008091E80082FF37C09091F3008091F2006A
:104EC000029731F48091F100813011F0863021F4A5
:104ED0008091F100809348028091E8008B77809365
:104EE000E8000E94F02923C08091A304813AF9F4DC
:104EF0008091E800877F8093E8008091A7049091DB
:104F0000A804892B61F468E080E492E070E00E94DC
:104F1000FF288091E8008B778093E800089560E097
:104F200090E080E0F3CF8091A2048111C1CF089579
:104F30008091A304813AD9F78091A7049091A804A5
:104F4000892BA9F78091E800877F8093E800809102
:104F5000E80080FFFCCF809134018093F1008091C4
:104F6000E8008E77BCCF8091A304813201F7809155
:104F7000A7049091A804892BD1F68091E800877F3F
:104F80008093E8000E94F0298091A5048093340169
:104F90000E94D30908958091A304813241F6809143
:104FA000E800877F8093E8000E94F0298091A604A2
:104FB0008093490208958091A304813A09F0B7CF04
:104FC0008091E800877F8093E8008091E80080FF6F
:104FD000FCCF80914902C1CF44E050E0BC0182E0A7
:104FE0000E94B626089584B7877F84BF0FB6F894D1
:104FF000A8958091600088618093600010926000A5
:105000000FBE80E890E00FB6F89480936100909313
:1050100061000FBE0E94CB2508950E94402A0E9485
:105020009D2AE2EEF0E080818460808378940E9483
:105030001C2D08958CE291E00E940725089580912F
:10504000A204853031F48091A204853019F00E94C9
:105050003D2608950E9412268091A004882399F38A
:105060000E94D025882379F30E949A280E94D309B0
:10507000EACF08959A014091A9045091AA040E9490
:1050800042280895492F55274330510519F168F4F6
:105090004130510509F444C04230510509F445C07E
:1050A00090E080E050E040E025C04132510549F1F8
:1050B00042325105A9F780E490E044E159E06115DE
:1050C0007105C1F08BE790E049E958E06130710566
:1050D00089F0E6CF99278130910581F0009729F07A
:1050E0000297F1F6EEE0F8E002C0E8E4F8E084911F
:1050F00090E0AF01F901518340830895E4E2F8E0C4
:10510000F6CF89E090E04EE558E06115710591F326
:1051100089E090E047E758E06130710559F3C0CF6E
:1051200082E190E047E858E0E5CF8BE390E04CE483
:1051300058E0E0CF80E189BD82E189BD09B400FE7D
:10514000FDCF8091D8008F7D8093D8008091E000C2
:1051500082608093E0008091E00081FDFCCF0895A3
:10516000AF92BF92CF92DF92FF920F931F93CF9394
:10517000DF936C01EB018A010E940F2AF82E811146
:1051800023C00115110539F0F80180819181C81BF8
:10519000D90BC80ED91EB12CA12C2097A9F0809153
:1051A000E80085FD22C08091E8008E778093E800BA
:1051B00001151105A1F0F80180819181A80EB91E99
:1051C000B182A08285E0F82E8F2DDF91CF911F91C3
:1051D0000F91FF90DF90CF90BF90AF9008950E9405
:1051E0000F2A8823D1F2F82EEFCFF60181916F01BB
:1051F0008093F1002197FFEFAF1ABF0ACECFFC01D9
:105200008091A9049091AA0486179707A0F06115D0
:10521000710529F49091E8009E779093E80090E062
:105220006115710551F4911108C08091E80082FF69
:1052300034C080E00895BC01F2CF8091A20488239D
:10524000C1F18530C1F18091E80083FD30C08091CB
:10525000E80082FDEACF8091E80080FFE1CF8091F5
:10526000F3002091F200382F6115710519F02830F4
:10527000310558F091E02830310509F090E0209197
:10528000E8002E772093E800CBCF81918093F10046
:10529000615071092F5F3F4FE7CF8091A2048823AF
:1052A00041F0853041F08091E80083FFBECF81E07E
:1052B000089582E0089583E00895FC018091A90497
:1052C0009091AA0486179707A0F06115710529F43B
:1052D0008091E8008E778093E80090E06115710579
:1052E00051F4911108C08091E80082FF35C080E040
:1052F0000895BC01F2CF8091A2048823C9F18530C2
:10530000C9F18091E80083FD31C08091E80082FD01
:10531000EACF8091E80080FFE1CF8091F3002091F7
:10532000F200382F6115710519F02830310558F059
:1053300091E02830310509F090E08091E8008E7707
:105340008093E800CBCF84918093F1003196615037
:1053500071092F5F3F4FE6CF8091A204882341F06F
:10536000853041F08091E80083FFBDCF81E0089552
:1053700082E0089583E00895982F973028F08F7089
:105380008093E90081E008959093E900242F762F1F
:1053900050E0981731F07091EC002091ED005091A1
:1053A000F00021FD02C09F5FE8CF3091EB003E7F0F
:1053B0003093EB003091ED003D7F3093ED00309164
:1053C000EB0031603093EB007093EC002093ED0024
:1053D0005093F0002091EE0027FDE5CF80E0089586
:1053E0008091A30487FF13C08091E80082FF06C06C
:1053F0008091E8008B778093E80004C08091A2043C
:105400008111F2CF08958091A2048823D9F380916D
:10541000E80080FFF8CF8091E8008E77ECCF2091F4
:10542000E4003091E50095E6A9012091EC00822F7F
:10543000817020FF06C08091E80080FF06C080E0F8
:1054400008952091E80022FD1AC08091A2048823CB
:1054500089F0853089F08091EB0085FD0FC02091A7
:10546000E4003091E50042175307F9F29150E1F65C
:1054700084E0089582E0089583E0089581E008952E
:105480000E94AF2A0E94B72AE0EEF0E0808181609E
:105490008083E8EDF0E080818F77808319BCA7EDF1
:1054A000B0E08C918E7F8C9380818F7E8083109270
:1054B000A10408950F931F93CF93DF930E94AF2A07
:1054C0000E94B72AC8EDD0E088818F7788838881D1
:1054D0008068888388818F7D888319BC1092A2049C
:1054E00010929E041092A00410929F0400EE10E00F
:1054F000F80180818B7F808388818160888342E08E
:1055000060E080E00E94BC29E1EEF0E080818E7FC7
:105510008083E2EEF0E0808181608083808188601A
:105520008083F80180818E7F808388818061888379
:10553000DF91CF911F910F910895E8EDF0E0808108
:105540008F7E8083E7EDF0E080818160808384E05E
:1055500082BF81E08093A1040E945A2A0895E8ED59
:10556000F0E080818E7F80831092E2000895109297
:10557000DA001092E10008951F920F920FB60F9279
:1055800011242F933F934F935F936F937F938F9348
:105590009F93AF93BF93EF93FF938091E10082FFBE
:1055A0000BC08091E20082FF07C08091E1008B7FF9
:1055B0008093E1000E941B2D8091DA0080FF19C0CA
:1055C0008091D80080FF15C08091DA008E7F809393
:1055D000DA008091D90080FF96C080E189BD82E128
:1055E00089BD09B400FEFDCF81E08093A2040E9432
:1055F000F5268091E10080FF19C08091E20080FFD4
:1056000015C08091E2008E7F8093E2008091E200DD
:1056100080618093E2008091D80080628093D800FE
:1056200019BC85E08093A2040E9409278091E100C3
:1056300084FF2BC08091E20084FF27C080E189BDF8
:1056400082E189BD89B5982F917080FFFBCF809151
:10565000D8008F7D8093D8008091E1008F7E809369
:10566000E1008091E2008F7E8093E2008091E20071
:1056700081608093E20080919E04882309F449C0F0
:1056800084E08093A2040E9412278091E10083FFAE
:1056900029C08091E20083FF25C08091E100877FCF
:1056A0008093E10082E08093A20410929E04809196
:1056B000E1008E7F8093E1008091E2008E7F8093F5
:1056C000E2008091E20080618093E20042E060E0CD
:1056D00080E00E94BC298091F00088608093F000F7
:1056E0000E940627FF91EF91BF91AF919F918F91FB
:1056F0007F916F915F914F913F912F910F900FBECE
:105700000F901F90189519BC1092A2040E940327B5
:1057100070CF8091E30087FD93E09093A204B3CF14
:105720001F920F920FB60F9211242F933F934F9316
:105730005F936F937F938F939F93AF93BF93CF9319
:10574000DF93EF93FF93D091E900DF708091EC003D
:10575000C82FC17080FDC0E81092E9008091F00070
:10576000877F8093F00078940E94D42B1092E900F8
:105770008091F00088608093F000CD2BCF70C093B3
:10578000E900FF91EF91DF91CF91BF91AF919F9190
:105790008F917F916F915F914F913F912F910F90DA
:1057A0000FBE0F901F901895AAE2B0E0EAEDFBE261
:1057B0000C94E22D83EA94E02091F100FC01219306
:1057C000CF01F4E08B3A9F07B9F70E94322780910E
:1057D000E80083FF1EC18091A3049091A4049A3035
:1057E00008F017C1E92FF0E0E15EF04D0C94BA2DFE
:1057F000803899F0823809F00CC18091A7048F702D
:10580000873008F006C18093E9008091EB0085FBAA
:10581000882780F91092E90006C080919F0490913A
:10582000A004911182609091E800977F9093E80026
:105830008093F1001092F1008091E8008E77E5C02E
:10584000882309F4D3C0823009F0E3C08091A50415
:105850008111D6C08091A7048F702FEF280F2630BA
:1058600008F0D7C08093E9002091EB0020FFC8C06A
:10587000933031F48091EB0080628093EB00C0C0E4
:105880009091EB0090619093EB0021E030E001C03B
:10589000220F8A95EAF72093EA001092EA0080919D
:1058A000EB008860EACF8111B4C01091A5041F7786
:1058B0008091E3008078812B8093E3008091E80061
:1058C000877F8093E8000E94F0298091E80080FFA4
:1058D000FCCF8091E30080688093E30082E01111A7
:1058E00083E08093A20495C08058823008F091C074
:1058F0008091A5049091A6048C3D23E09207A1F528
:1059000083E08A838AE289834FB7F894DE01139695
:1059100020E03EE051E2E32FF0E050935700E491A5
:1059200020FF03C0E295EF703F5FEF708E2F90E095
:10593000EA30C0F0C7968D939D932F5F243159F7BD
:105940004FBF8091E800877F8093E8006AE270E0B3
:10595000CE0101960E94FF288091E8008B7780930A
:10596000E80057C0C096E7CF6091A7047091A804E3
:10597000AE014F5F5F4F0E943A28BC01892B09F4AA
:1059800048C09091E800977F9093E80089819A81C0
:105990000E945D29E1CF8038E1F58091E800877FA2
:1059A0008093E80080919E048093F10045CF81119F
:1059B00030C09091A504923060F58091E800877F17
:1059C0008093E80090939E040E94F02980919E04A9
:1059D000882311F084E005C08091E30087FDFACFB1
:1059E00081E08093A2040E941D2713C08091A5042A
:1059F000813079F481E0933009F080E08093A00455
:105A00001092E9008091E800877F8093E8000E946F
:105A1000F0298091E80083FF0AC08091E800877F29
:105A20008093E8008091EB0080628093EB00AA965F
:105A3000E3E00C94FE2D0895CF938091A204882377
:105A4000A1F0C091E900CF709091EC00892F817096
:105A500090FD80E8C82B1092E9008091E80083FD5A
:105A60000E94D42BCF70C093E900CF910895991B69
:105A700079E004C0991F961708F0961B881F7A9545
:105A8000C9F78095089587FB082E062687FD819526
:105A900067FD61950E94372D0EF4919507FC819565
:105AA0000895AA1BBB1B51E107C0AA1FBB1FA61765
:105AB000B70710F0A61BB70B881F991F5A95A9F7B7
:105AC00080959095BC01CD01089597FB072E16F4A3
:105AD000009407D077FD09D00E94512D07FC05D016
