:10000000ABC40000C6C40000C4C40000C2C40000E9
:10001000C0C40000BEC40000BCC40000BAC40000DC
:10002000B8C40000B6C400000C948C280C94582965
:100030000C945122AEC40000ACC40000AAC400005D
:10004000A8C40000A6C40000A4C40000A2C400000C
:10005000A0C400000C94C8229CC400009AC40000F4
:1000600098C4000096C4000094C4000092C400002C
:1000700090C400008EC400008CC400008AC400003C
:1000800088C4000086C4000084C4000082C400004C
:1000900080C400007EC400007CC400007AC400005C
:1000A00078C4000076C4000074C40000556E646516
:1000B00066696E656400524742204C4544205445B1
:1000C00053540A004B455920544553540A004C617F
:1000D0007965723A200014001A0008001500170014
:1000E0000000000004001600070009000A000000DC
:1000F00000001D001B0006001900050000000000A4
:100100001E001F00200021002200007401522078F0
:100110002378247825782678000000002178407E16
:100120002778287800000000000000000000000090
:1001300000000000000000000000000000000000BF
:1001400000000074005280818283848586878889BC
:100150008A8B8C8D8E8F9091929394A0A1A2A3A450
:10016000A5A6A7A8A9AAABACADAEAFB0B1B2B3B4C7
:10017000C0C1C2C3C4C5C6C7C8C9CACBCCCDCECF07
:10018000D0D1D2D3D40000047F3F1F643214643234
:1001900014783C1E000102030409080706050A0B37
:1001A0000C0D0E131211100F0001010101010101CC
:1001B000010102020202020202020203030303031C
:1001C00003030304040404040404050505050506EB
:1001D00006060606070707070708080808090909A9
:1001E000090A0A0A0B0B0B0C0C0C0D0D0D0E0E0E52
:1001F0000F0F0F10101111111212131314141515E3
:1002000016161717181819191A1A1B1B1C1D1D1E54
:100210001E1F2020212222232424252626272829A8
:10022000292A2B2C2D2D2E2F3031323233343536D6
:100230003738393A3B3C3D3E3F40414243444546D6
:100240004748494A4C4D4E4F5051535455565859B2
:100250005A5B5D5E5F616264656668696B6C6D6F59
:100260007072737577787A7B7D7E808283858788CC
:100270008A8C8E8F91939596989A9C9EA0A2A3A506
:10028000A7A9ABADAFB1B3B5B7BABCBEC0C2C4C607
:10029000C9CBCDCFD1D4D6D8DBDDDFE2E4E7E9EBC3
:1002A000EEF0F3F5F8FAFDFF00AE00AF00DA0281E0
:1002B000FFD9F1DB20A4A62EAF00A0C0D30000A17F
:1002C000C8D30000AED580A81F408D1420000000C8
:1002D000000000003E5B4F5B3E003E6B4F6B3E00FC
:1002E0001C3E7C3E1C00183C7E3C18001C577D5771
:1002F0001C001C5E7F5E1C0000183C180000FFE71D
:10030000C3E7FF00001824180000FFE7DBE7FF0049
:1003100030483A060E00262979292600407F050537
:100320000700407F05253F005A3CE73C5A007F3ECE
:100330001C1C0800081C1C3E7F0014227F22140095
:100340005F5F005F5F0006097F017F00006689959F
:100350006A0060606060600094A2FFA294000804DC
:100360007E04080010207E20100008082A1C0800C7
:10037000081C2A0808001E10101010000C1E0C1E6D
:100380000C0030383E383000060E3E0E06000000ED
:100390000000000000005F000000000700070000F0
:1003A000147F147F1400242A7F2A12002313086468
:1003B0006200364956205000000807030000001C68
:1003C000224100000041221C00002A1C7F1C2A0040
:1003D00008083E080800008070300000080808087F
:1003E00008000000606000002010080402003E5178
:1003F00049453E0000427F4000007249494946009D
:100400002141494D33001814127F100027454545FE
:1004100039003C4A49493100412111090700364958
:1004200049493600464949291E00000014000000D1
:100430000040340000000008142241001414141479
:1004400014000041221408000201590906003E412F
:100450005D594E007C1211127C007F4949493600DB
:100460003E41414122007F4141413E007F4949498F
:1004700041007F09090901003E41415173007F0895
:1004800008087F0000417F4100002040413F0100FB
:100490007F08142241007F40404040007F021C0240
:1004A0007F007F0408107F003E4141413E007F09EC
:1004B000090906003E4151215E007F0919294600C5
:1004C00026494949320003017F0103003F40404073
:1004D0003F001F2040201F003F4038403F00631472
:1004E000081463000304780403006159494D430074
:1004F000007F4141410002040810200000414141B9
:100500007F0004020102040040404040400000031C
:10051000070800002054547840007F2844443800E5
:10052000384444442800384444287F003854545404
:10053000180000087E09020018A4A49C78007F0817
:100540000404780000447D4000002040403D00004D
:100550007F102844000000417F4000007C047804A4
:1005600078007C0804047800384444443800FC18BF
:100570002424180018242418FC007C080404080013
:1005800048545454240004043F4424003C40402078
:100590007C001C2040201C003C4030403C00442893
:1005A000102844004C9090907C004464544C4400CB
:1005B00000083641000000007700000000413608C6
:1005C00000000201020402003C2623263C00000039
:1005D00000C0E0E0E0C08000007CFEFFFFFE7C0089
:1005E00000C0E0F0F0E0C00000FEFEFEFEFEFE00F7
:1005F00000000000FEFEFEFEFEFE0000FEFEFEFE0F
:10060000FE0000FEFEFEFEFE1E1EFEFEFCF80000CA
:10061000707078F8FCFEFEFEFE00000000E0F8FEC0
:100620007EFEFEFEFEFE0000000000008080808056
:1006300000000000808080800000000000000000BA
:10064000000000000000000000000000E0F0F0F0FA
:10065000E0ECEEF7F37020007C7C7C7E007E7E7EFA
:100660007F7F7F000080C0E07E5B4F5BFEC00000AC
:10067000C000DCD7DEDEDED7DC00C00000000000FA
:10068000000000000000000000000000000080C02A
:10069000C0C3C7CF8F0F0F07E0F0F8F9F9F8F0E00B
:1006A000E0C7CF8F0F07030000FFFFFFFFFFFF0032
:1006B00000000000FFFFFFFFFFFF3E3EFFFFFFFFC8
:1006C000FF0000FFFFFFFFFF3C3C3F3F1F0F00000C
:1006D000000000FFFFFFFFFFFF0080F8FFFFFF8724
:1006E00080FFFFFFFFFF808000000000FFFFFFFF93
:1006F00000000000FDFDFDFD001CFFFFFFFF1C00D2
:10070000FCFEFEFE8E8EFEFEFC0000000F1F3F7FF3
:100710007F7F7F7F3F1E0C001F1F1F3F003F3F3F1B
:100720007F7F7F00307B7F7830202030787F3B00D8
:1007300003000F7F0F0F0F7F0F000300000000006A
:10074000000000000000000000000000000003079F
:100750000F0F0F0F0703007FFFFFFFFFFFFF7F3F1C
:100760003F3F1F1F07000000007F7F7F7F7F7F7854
:10077000787878007F7F7F7F7F7F00007F7F7F7F1B
:100780007F00007F7F7F7F7F00000000000000006F
:100790000000007F7F7F7F7F7F0007070707070735
:1007A000077F7F7F7F7F0707000000007F7F7F7FBD
:1007B000707070007F7F7F7F00003F7F7F7F7000C1
:1007C0003F7F7F7F70707C7C3C0000000000000059
:1007D0000000000000000000000000000000000019
:1007E0000000000000000000000000000000000009
:1007F00000000000000000000000000000000000F9
:1008000000000000000000000000000000001403D1
:100810004C0048005000310034004C006900740066
:100820006500000022035400720069006E00690038
:1008300074007900490072006F006E0077006F004D
:1008400072006B00730000000403090409023B00FE
:10085000020100A0FA0904000001030101000921BE
:100860001101000122440007058103080001090469
:1008700001000103000000092111010001227B0099
:100880000705820320000112010002000000081485
:10089000FF0C0001000102000105010902A1018510
:1008A000020901A100050919012908150025019572
:1008B00008750181020501093009311581257F95EF
:1008C000027508810609381581257F950175088113
:1008D00006050C0A38021581257F950175088106E9
:1008E000C0C005010904A1018507A1000501093067
:1008F00009311581257F95027508810205091901C5
:1009000029011500250195017501810295077501E1
:100910008101C0C005010906A101050719E029E709
:100920001500250195087501810295017508810161
:100930000507190029FF150026FF00950675088197
:100940000005081901290515002501950575019176
:1009500002950175039101C011241FBECFEFDAE0AB
:10096000DEBFCDBF11E0A0E0B1E0E0E9F9E502C0F3
:1009700005900D92A636B107D9F724E0A6E6B1E0BE
:1009800001C01D92AF3AB207E1F70E944B140C94DC
:10099000752C36CB0E94861884E10C94601882E096
:1009A000089560E080E00E94891960E086E491E0AB
:1009B0000C94631AFB0180349E4739F485818115BC
:1009C00021F00E9485150E94521881E0089563E08D
:1009D00080E00E94891960E08EEC90E00E94631A2A
:1009E00060918201709183018091840190918501D1
:1009F0006FD1811539F0813079F060E08CEA90E0B8
:100A00000C94741A60E084EC90E00E94631A44EB4A
:100A10006FEF80E00C949F1660E086EB90E00C9402
:100A2000631ABFDFD4DF80E008950C94731B089530
:100A30000C94771A08958230D0F46430C0F44730B3
:100A4000B0F4E42FF0E097E0699FE00DF11D112470
:100A500090E09195819591098C719927E80FF91F84
:100A6000EE0FFF1FEA52FF4F85919491089581E0A8
:100A700090E00895E0CF089581E0089581E0089521
:100A8000FBCF089581E0089581E0089593CF089504
:100A900008950895FDCF089508950895A6E0B0E063
:100AA000E4E5F5E00C949C2B49835A839E833091B6
:100AB0006D0189819A81311117C03E81311589F00C
:100AC000211579F0F8D5182F682F89819A81D2D510
:100AD00069817A81812F0E9450112696E3E00C945F
:100AE000B82BD9D5182FF4CFE6D569817A81F3CF09
:100AF000FC01262F4081518162817381848195811F
:100B0000CDCFCF93DF93D82FC92F61E0F1DF6D2FC9
:100B10007C2FB4DF811539F061E08D2F9C2FE8DF49
:100B20006D2F7C2FADDFDF91CF9108950F931F9331
:100B3000CF93DF93D82FC92F60E0DADF8C016D2FC0
:100B40007C2FA7DF6D2F7C2FC801A4DFDF91CF9111
:100B50001F910F910895282F61E070E080E090E0F0
:100B600004C0660F771F881F991F2A95D2F73BC4D0
:100B7000CF93C82F61E070E080E090E00C2E04C0BD
:100B8000660F771F881F991F0A94D2F70E946B0F78
:100B90008C2FE1DFCF91089581E0089581E00895E1
:100BA000FBCF0895CF93C82FC9D38C2FF7DF8C2F9D
:100BB000F7DF2FEF84E39CE0215080409040E1F785
:100BC00000C00000CF91089581E0ECDF0C94EC228E
:100BD00080E0E8DF0C94FD220F931F93CF93DF9307
:100BE0008C0161E085DFEC01F801858181110E94B3
:100BF0000B19B801CE0148DF811509F44DC0B801C9
:100C0000CE0144DF811509F447C0B801CE010E942E
:100C1000AF20811509F440C0B801CE010E94221D09
:100C20008115D1F1B801CE010E94F91C8115A1F105
:100C3000B801CE010E946114811571F1B801CE0195
:100C40000E949D1B811541F1B801CE010E944F12F7
:100C5000811511F1F8018581811581F0CA35FCE714
:100C6000DF0721F170F4C130ECE7DE07E9F0C330B3
:100C7000FCE7DF07B9F0C115DC4769F0C80102DF06
:100C80000CC0CB35ECE7DE07A1F0CC35DC47B1F783
:100C90000E94240FF3CF98DF80E0DF91CF911F9166
:100CA0000F9108950E94630F93DFF6CF0E942B0FE0
:100CB000E5CF0E942D0FE2CFEFDEB7DE62D00E94BB
:100CC000DB170C94731B5FD00E948E18E6DEB0CE4B
:100CD0000F931F938B019C01C901AA27BB27009783
:100CE000A105B105C9F5D901C80120E0492F5A2F46
:100CF0006B2F7727411551056105710519F0285FA4
:100D0000DB01CA01AC01BD01F4E07695679557950A
:100D10004795FA95D1F7411551056105710519F00F
:100D20002C5FDB01CA01AC01BD01E2E0769567955D
:100D300057954795EA95D1F741155105610571051C
:100D400019F02E5FDB01CA01B695A7959795879597
:100D5000820F1F910F91089520E1C8CF81E008957F
:100D60000895CF93DF93D82FF9DFC82F811511F0A5
:100D70008D2FF6DF8C2FDF91CF9108950895F1CF5D
:100D8000089580E0FCCF0E94F520F9CFCF930E9418
:100D9000F520C82F809168018C1771F0C09368010D
:100DA0000E94BC226093690170936A0180936B0179
:100DB00090936C018C2FE3DFCF910895ADE0B0E00C
:100DC000E4EEF6E00C949D2B488759876A877B8771
:100DD0008C879D8791118AD71F8286E0FE01389605
:100DE000DE01119601900D928A95E1F78D818111B6
:100DF0000CC029813A814B815C816D817E818F811C
:100E0000C5D62D96E2E00C94B92BCE01019679DE81
:100E10008111EFCFF6CFFC018481813019F48081FC
:100E2000918182C40895611521F00E94841E0C9462
:100E30003D1F0E94C51EFBCFCF93C82F811589F09F
:100E40008CEF8C0F813A78F48C2F0E9454218115FD
:100E500021F08C2F0E949621B3D78C2F0E949021D5
:100E6000AFD7CF91089580E28C0F883040F4C770DF
:100E700081E001C0880FCA95EAF719D7F1CF83E363
:100E80008C0F833170F761E08C2FCDDFEACF8115B5
:100E9000D1F09CEF980F913A18F40E94962190C7D8
:100EA00090E2980F983048F4877091E001C0990F54
:100EB0008A95EAF7892F01D7F2CF93E3980F933100
:100EC00010F460E0B0CF08950F931F93CF93C82F15
:100ED0008B01B2DF0115110531F48C2FD8DFCF91D2
:100EE0001F910F9108958FE99FE00197F1F700C0DE
:100EF000000001501109EECF60E570E0893311F078
:100F000060E070E0E1CF811511F0D1D659C70895A6
:100F1000811511F0D2D654C70895A0E0B0E0E3E9FE
:100F2000F7E00C94972B6C01D62FC72FFC0105819D
:100F3000F680F2948FE0F822AFD6E82E8115E9F022
:100F4000E02E0115D1F08C2F807F803461F080E29B
:100F50008D0F883088F18C2F807E803221F4D23042
:100F600058F1F11449F180914F0282FF25C082E0CF
:100F700044D792D691E0E82EE9268C2F82958F7087
:100F8000883009F4B1C060F58430C0F41C2F1F70A4
:100F90008230B0F1C07FC03211F01295107FD115B0
:100FA00009F456C0D13009F47DC0011509F488C098
:100FB000F11409F465C035C0E12CDFCF853009F4A8
:100FC0008FC0E11409F4CEC063D680FDCBC0F6011A
:100FD000158258D662D2C6018AD154D67CD2C2C0FC
:100FE000893009F40EC18A5F8F70823050F7D23F8A
:100FF00009F014C18C2F8F7101110EC14ED2AFC0F8
:10100000C03110F01295107F011581F0111549F0D3
:1010100080E28D0F883010F0D11105C0812F47D6A6
:10102000CFD68D2F21C0812F53D6FACF8D2F2FDF12
:10103000111509F4C6CF80E28D0F883010F0D11160
:1010400003C0812F3AD602C0812F48D6B9D6B9CF76
:1010500080914F0282FD10C0011541F0111519F069
:10106000812F25D6ADD680E0E7DEABCF80E00FDF65
:10107000111509F4A6CFE5CF011559F0F11003C001
:10108000812F41DF9ECFF1E0FF129BCF812F43D60E
:1010900098CFF11096CF812F3BDF812F47D6812F3C
:1010A0002BD68FCF011529F026E0F21608F089CF54
:1010B000E7CF85E0F81608F084CF812F29DF81CFB4
:1010C000F114D9F3D93349F49FEFE7EEF3E09150EF
:1010D000E040F040E1F700C000008D2FD8DE71CF76
:1010E000602F8D2FA0DE6DCF8C2F8370811145C0B6
:1010F000011135C04D2F429546954770440F440F5E
:101100000D2F0F7010E020E030E0042E04C0000F1F
:10111000111F221F331F0A94D2F760E070E0CB0149
:10112000D4FF0FC06FE070E080E090E004C0660F75
:10113000771F881F991F4A95D2F760957095809503
:101140009095C695C695C370602B712B822B932BFF
:10115000C23079F0C33079F0C13049F058D10E94E3
:10116000F5200DDECDB7DEB7E8E00C94B32B3DD112
:10117000F6CF5FD1F4CF37D1F2CF0115C1F1C0FF67
:10118000EECF4D2F429546954770440F440F0D2FDB
:101190000F7010E020E030E0042E04C0000F111F9B
:1011A000221F331F0A94D2F760E070E0CB01D4FF16
:1011B0000FC06FE070E080E090E004C0660F771F22
:1011C000881F991F4A95D2F76095709580959095E4
:1011D000C695C695C370602B712B822B932BC230A2
:1011E00061F0C33061F0C13031F0C8D1B8CF823086
:1011F00008F4B5CFC6CFB0D1B2CFD2D1B0CF31D1B4
:10120000AECFCF70011529F08C2F47D18D2F7BDE0B
:10121000A6CF8D2F7DDE8C2F5ED1A1CF60F4D03F85
:10122000B9F0D13F81F0011509F43AC0F114A9F1E8
:101230008D2F02DE94CFD33FC1F0D43FA1F7809130
:101240004F0282FD1AC08C2F8F71011529F3D6CE63
:10125000011541F025E0F21608F081CF8C2F8F7137
:101260005DD17DCF86E0F816F7CF011521F08C2FE8
:101270008F7106D174CF00D172CF011529F063E0D0
:101280008C2F8F71A2D56BCF81E0B7D592E0F91684
:1012900008F465CF82E0B1D562CF8C2F8F71AECECE
:1012A000F11471F0D93349F4EFEFF7EE23E0E15098
:1012B000F0402040E1F700C000008D2FE8DD4FCF67
:1012C0008C2F8F71A9CF0F931F93CF93DF93EC01D6
:1012D000688179818D8133D28C0174D183D0B8013A
:1012E000CE011BDEDF91CF911F910F910895CF9317
:1012F000DF93EC018C81811581F0CE016DDC8111D1
:101300000FC0CAD4811549F08D81811531F08091CB
:101310004F0282FF02C082E070D5DF91CF91089525
:10132000CE01D1DFCE0102DCF8CFE0D449D50E9456
:10133000571F0C943D1F0E949C21F7CFC6D4FBCFB2
:10134000282F92959F70963099F060F4925F9F706D
:10135000923030F4203FB1F038F481E0283E38F08C
:1013600080E008959A5FF3CF81E0243FC9F70895A4
:1013700091E0813F09F090E081E0283E08F080E0B4
:10138000892B089581E00895FC018481811521F065
:1013900080819181C9D1D4CF80E00895A6E0B0E0EA
:1013A000E4EDF9E00C949D2B2696E2E00C94B92B29
:1013B000A7E0B0E0EEEDF9E00C949D2B2796E2E07B
:1013C0000C94B92B0895FECF0895FDCF0895FADF50
:1013D000FCDF60938601709387018093880190936E
:1013E000890108950895F3CF08950F931F930091F5
:1013F0008601109187012091880130918901602B2D
:10140000712B822B932BE3DF1F910F9108950F9384
:101410001F930091860110918701209188013091DE
:1014200089016023712382239323D1DF1F910F91C0
:1014300008950F931F9300918601109187012091C9
:101440008801309189016027712782279327BFDFA8
:101450001F910F910895B6CF0895FDCF0895B2CF93
:101460000895FDDFFADF609382017093830180931A
:10147000840190938501089560E070E0CB01F1CF85
:10148000282F61E070E080E090E004C0660F771FD5
:10149000881F991F2A95D2F7E4CF0F931F93282F07
:1014A00061E070E080E090E004C0660F771F881F65
:1014B000991F2A95D2F70091820110918301209102
:1014C000840130918501602B712B822B932BC9DF16
:1014D0001F910F9108950F931F9341E050E060E03A
:1014E00070E004C0440F551F661F771F8A95D2F71E
:1014F000CB01BA016095709580959095009182011D
:101500001091830120918401309185016023712322
:1015100082239323A6DF1F910F9108950F931F93AA
:10152000282F61E070E080E090E004C0660F771F34
:10153000881F991F2A95D2F700918201109183018B
:10154000209184013091850160277127822793279C
:1015500088DF1F910F9108950F931F9300918201CF
:10156000109183012091840130918501602B712BB2
:10157000822B932B76DF1F910F9108950F931F936A
:1015800000918201109183012091840130918501A5
:10159000602371238223932364DF1F910F910895A9
:1015A0000F931F9300918201109183012091840178
:1015B00030918501602771278227932752DF1F9181
:1015C0000F91089508959B01677091E001C0990FF4
:1015D0006A95EAF763E0369527956A95E1F7E5E0C5
:1015E000E29FB001E39F700D1124FA01E60FF71F8F
:1015F00040E050E0682F70E08191DF019B01042EF4
:1016000002C0369527950A94E2F721702195282784
:10161000292328272E934F5F5F4F4530510561F7EF
:1016200008959C01982F977083E0369527958A95A9
:10163000E1F785E0829FF001839FF00D1124E60F12
:10164000F71F40E050E080E0219130E0092E02C019
:10165000369527950A94E2F721703327042E01C0AE
:10166000220F0A94EAF7822B4F5F5F4F45305105F6
:1016700059F70895282F862F943060F4273050F4BE
:10168000622F70E027E0929F600D711D11244EE6DD
:1016900051E099CF0895292F943058F4873048F4B9
:1016A00090E06EE671E037E0239F800D911D1124DC
:1016B000B8CF80E00895A0E0B0E0E1E6FBE00C9454
:1016C000962B8C01C0908201D0908301E090840120
:1016D000F09085018091860190918701A091880109
:1016E000B0918901C82AD92AEA2AFB2ACFE1D0E0A1
:1016F000D701C6010C2E04C0B695A795979587957E
:101700000A94D2F780FD09C0219790F7B12C8B2D58
:10171000CDB7DEB7E9E00C94B22BBC2EB8018C2F0C
:10172000CAD5019789F3F3CFCF93DF93D82FC92F71
:10173000C2DF6D2F7C2FBFD5DF91CF9108951F930E
:10174000CF93DF93162FD72F90916D01911539F01C
:10175000862F972FE9DFDF91CF911F910895811593
:1017600069F0862F972FA7DFC82F682F812F9D2F15
:1017700081DF612F7D2F8C2F9ED5EDCF862F972F68
:101780008ADFC82FF6CF0F931F93CF93E0918A0182
:10179000C7E080918B018E1304C0CF911F910F91F0
:1017A00008950E2F10E0CE9FF0011124E457FE4F54
:1017B0002081318142815381648175818681F8DD88
:1017C000F8013196E770E5CF2091C4013091C50151
:1017D0004091C6015091C7016091C8017091C90143
:1017E0008091CA01E5CD8091CA01803178F4809161
:1017F000C901811559F0E0918A0120918B01309146
:10180000C5014091C40157E02E1301C008956E2F09
:1018100070E05E9FF0011124DF01A457BE4F1496C3
:101820008C911497811549F111968C91119783131E
:1018300024C08C91841321C015968C911597811129
:101840001CC012968D919C91A091C601B091C701C8
:101850008A1B9B0B883C910580F48091CA018F7094
:1018600080618093CA01EE56FE4F80818F70806147
:10187000808384EC91E03BDD86CFFB013196E770FD
:10188000C3CFE0918A0190918B0127E0E91302C058
:1018900080E00895AE2FB0E02E9FF0011124E457B0
:1018A000FE4F3181361306C03081381303C03581B5
:1018B000341304C0FD013196E770E8CF81E008954C
:1018C0008F929F92AF92BF92DF92EF92FF920F930F
:1018D0001F93CF93DF93CDB7DEB72D970FB6F89454
:1018E000DEBF0FBECDBF8C0186E0F801DE01189689
:1018F00001900D928A95E1F7F801F580848194ECCE
:10190000892E91E0992E9091C801911117C08115EF
:1019100009F4EFC0F11409F42EC1C80135DD8115B9
:1019200009F429C187E0F801D40101900D928A954C
:10193000E1F7C40170DA57DF47DFDBC0E080A28047
:10194000B380D090C9012091C6013091C701A50193
:10195000421B530BD11409F4CFC0483C510508F089
:101960009EC0811509F4C5C09091C50191808091F8
:10197000CA01803108F065C0991226C09091C40157
:101980009E1122C0F11057C08F7080618093CA01F0
:101990001BDF84EC91E0ABDC8091CA01F801868307
:1019A000F12C8F2D2D960FB6F894DEBF0FBECDBF54
:1019B000DF91CF911F910F91FF90EF90DF90BF903B
:1019C000AF909F908F900895F11035C040E0692D41
:1019D0008E2D57DF40E0692D8E2D53DFF82E8111BB
:1019E000DFCF88859985A0DE292F22952F7090342E
:1019F00050F49F70223078F0911591F0F8019681A3
:101A0000903170F4CECF2A5F2F70223070F0C80171
:101A10006EDCFD2CC6CF911519F0811509F4C1CFEC
:101A2000805E883008F4BDCFF2CF803F08F4B9CF94
:101A3000815F8330F7CF8091CA0181608093CA01B2
:101A4000AFCF991207C09091C4019E1103C0F11449
:101A500009F473C0C80198DC811509F48CC0F11435
:101A600009F489C08091CA01803280F02091C401BC
:101A70003091C5013A832983BC82AB829091C80121
:101A80009D831E828F83CE01019631DC87E0F801B1
:101A9000A4ECB1E001900D928A95E1F74CCF9091C2
:101AA000CA01903188F4488559856A857B858C8583
:101AB0009D8574DC84EC91E01ADC87E0F4011192DE
:101AC0008A95E9F781DE6CCF811599F02091C501E7
:101AD00081812813BFCF8091C4018E11BBCFF1103B
:101AE000B9CF9683C80103DC87E0F40111928A958F
:101AF000E9F7FF24F39455CF483C510508F03EC068
:101B00008115B9F3F114B9F19091C5018181981350
:101B100029C08091C4018E1125C08091CA0180FD29
:101B200018C08031B0F08683807F803F39F0868195
:101B3000982F907F905F8F70892B8683C801D7DBA9
:101B400087E0F801A4ECB1E001900D928A95E1F7ED
:101B5000F3CE87E0F801A4ECB1E001900D928A95F4
:101B6000E1F7C7CFC80110DC811190CF8091CA0185
:101B700081608093CA01C801BADBBBCF4885598513
:101B80006A857B858C859D8509DC97CFAEE0B0E0CA
:101B9000ECECFDE00C949C2B288739874A875B8707
:101BA0006C877D878E87CE0108968ADE6C858115CD
:101BB000A1F0611539F0288539854A855B857D85D9
:101BC0008E85F6DB17E080918A0190918B01891355
:101BD00038C02E96E3E00C94B82B87E0FE013896CF
:101BE000DE01119601900D928A95E1F7611551F38E
:101BF000A0918B018A2F90E0019687709927209100
:101C00008A012817190681F097E09A9FD0011124C4
:101C1000A457BE4FFE01319601900D929A95E1F7BF
:101C200080938B01B0DDCECF89DB10928B011092B7
:101C30008A0187E0E4ECF1E0DF011D928A95E9F783
:101C4000C1CF189FC001112484579E4F39DE8115E2
:101C500009F4BFCFE0918A011E9FF0011124E457DF
:101C6000FE4F20813181428153816481758186815B
:101C70009FDB80918A0190E001968770992780937D
:101C80008A01A1CF8091D301869586958695089586
:101C90008091D301877008959091D301977081E06E
:101CA000911101C080E008958091DF010895909125
:101CB000DF01982B9093DF010895982F90958091E4
:101CC000DF0189238093DF0108951092DF010895D9
:101CD0009091DE01982B9093DE010895982F9095B6
:101CE0008091DE0189238093DE0108951092DE0148
:101CF00008950895FECF08959091D401292F2823A7
:101D0000211529F0809589238093D401F3CF08957C
:101D10000895FECF08959091D501292F28232817E3
:101D200021F0982B9093D501F4CF08959091D5018F
:101D3000292F2823211529F0809589238093D50107
:101D4000E8CF08958091D501811521F01092D50139
:101D500080E0DFCF08950F931F93CF93DF9300911F
:101D60000E0110910F01C091DF018091DE01C82B9F
:101D70008091D501811529F0C82B0E944021811145
:101D8000E1DFF801C083C0910E01D0910F0148E05E
:101D900050E06BEC71E0CE010E941F2C892B59F0B2
:101DA00088E0FE01ABECB1E001900D928A95E1F77D
:101DB000CE010E940421DF91CF911F910F910895D0
:101DC000CACF08950895FECF0895962F20914F020F
:101DD00022FF0EC0682F660F660F660F692B609397
:101DE000D3015BDB8091D301869586958695EBCFF9
:101DF00054CB1092D30180E0E6CF9091D30180952F
:101E000089238093D301282F277021110BC08917B4
:101E100049F090914F0292FF05C086958695869570
:101E20005ADBE7CF089590914F0292FB222720F9C9
:101E3000281749F080FB92F990934F028EE492E0CC
:101E40004ED082E0DACF089580914F02002482FFC5
:101E50000394802DE8CF81E0E6CF80E0E4CF60E01E
:101E600070E0CB01DEC360E070E0CB01D4D3F7CFEC
:101E7000A3E0B0E0EEE3FFE00C949D2B22D32DD342
:101E80001B82CE01039640D381E090E0A0E0B0E059
:101E90008093860190938701A0938801B093890174
:101EA00061E070E080E090E03ED3198284E18A83B3
:101EB000CE01019648D329D6D6DF2396E2E00C94D2
:101EC000B92BD6CF08950FC30895FCC2089511C34E
:101ED000089520C3089527C3089529C3089533C3DF
:101EE000089538C3089577C30895A1C30895A6E05F
:101EF000B0E0EDE7FFE00C949B2B0E94B0228C0138
:101F00008091E0019091E1018017910779F01982A9
:101F10001A820E94B022BC0149815A8180E090E07F
:101F20000E94DE061093E1010093E0012696E4E0B2
:101F30000C94B72B0E94BC226093EA017093EB01D2
:101F40008093EC019093ED016093E6017093E701BB
:101F50008093E8019093E901089508950895FDCFD5
:101F600008950895FEDFFBCF0C94CA0408950895E8
:101F7000FEDFFACF8DE492E19FD4F0DFF3CF81E072
:101F8000089581E00895FBCF089508950895089578
:101F9000FCDFFCDFFCCF99DF811101C092DF8EEE08
:101FA00091E095DF8EE492E098DF93DF1CDA609198
:101FB00082017091830180918401909185014DCAC5
:101FC0000E94A722D7D3E7DF0E94BE0680E00E94CE
:101FD00053190E9462180E94AA1CCACFA6E0B0E062
:101FE000E4EFFFE00C94942BCCDF81110FC07FDF76
:101FF0000E940C190E94921B0E94781F0E94AC1C28
:102000000E94C6062696EBE00C94B02BC5D382EE58
:10201000A82E81E0B82E750110E0F70101917F0133
:10202000812F10D31F5F143009F43EC00817A9F3A5
:102030008091EE0181FD0CD3A6DFC82E00E099242B
:102040009394802FFFD2182FF50191915F0189178A
:1020500031F1D82ED926F12CEE24E3948D2D8E214A
:102060008115B1F0C114A1F0F9820A830E94B02257
:102070009C838B839D8291E0812F8E21811101C0F1
:1020800090E049815A816B817C818D810E94DE06BE
:10209000F394EE0CF7E0FF12E1CFF50112930F5F1E
:1020A000043079F647DFA4CF0813C2CFA0CF1F9327
:1020B000CF93DF9302D1EC01811522E5920708F05E
:1020C0004BC0811540E5940708F0C3C0883E9105D8
:1020D000E0F4803E910560F4853A910570F4049730
:1020E00038F481E0219709F080E0C82F50E0D52F27
:1020F000CE01DF91CF911F9108958D5C9109D0653C
:102100004397B0F3C0E0D0E0F3CFC11580E4D80727
:10211000D0F4C11590E2D90708F0B1C0CE019A956C
:1021200081159F4178F78D2F69D1182FCE019927FE
:10213000C4D0212F30E0322F2227E901CC27DF71D4
:10214000C82BD92BD5CFCE019927B7D0CC27DF709C
:10215000C82BD92BD06ACCCF803842E59407C8F57C
:10216000803652E5950708F056C0C03482E5D8079E
:10217000D0F4C03292E5D90708F046C08C2F86957E
:10218000869520E2829FC0011124C37021E030E0D7
:10219000A90102C0440F551FCA95E2F7EA01C82BF6
:1021A000D92BDD68A5CF8C2F86958695877050E258
:1021B000859FC0011124C37021E030E0A90102C055
:1021C000440F551FCA95E2F7EA01C82BD92BDC68EA
:1021D0008FCF803C52E5950758F48F71C03AD245B5
:1021E00078F590E0982F8827EC01C46FD06A80CFF3
:1021F000805C9245809708F085CFDC2FCC27CC27D8
:10220000DF71C06FD06A74CFCF71D0E0DC2FCC27E4
:10221000C16FD06A6DCF86958695877020E2829FC8
:10222000C0011124C37021E030E0A90102C0440FB5
:10223000551FCA95E2F7EA01C82BD92BDA6858CFA7
:10224000DDD0C82FD0E0DC2FCC27CC27DF71D062C7
:102250004FCF8F71D3D053E0CC0FDD1F5A95E1F7EC
:10226000CC27DF70282F30E084FF05C050E1859F28
:10227000900111243327C22BD32BD06939CF8D2F56
:102280008F71BCD0182FCE01992717D0212F30E0A5
:10229000322F222722273F71282B392BE901D7CF54
:1022A000462F672F743020F4473010F40C943A0511
:1022B00080E090E00895F4DFFACE9C01803E910525
:1022C00009F448C0D8F48133910509F47DC048F47D
:1022D0008932910509F46DC08A9709F47CC0C9015F
:1022E00008958933910551F18238910539F1C597E7
:1022F000B1F780914E0285FFF2CF29C0843E91054F
:1023000009F447C048F4823E910599F1833E910556
:10231000A9F121EE30E0E3CF863E910509F444C0F7
:10232000873E9105E1F680914E0283FD61C0909158
:102330004F0291FF2BC024EE30E0D1CF80914E02AE
:102340008370811152C080914F0283FFC8CF29E270
:1023500030E0C5CF80914E0280FD33C090914F0296
:1023600090FFBDCF23EE30E084FFB9CF20E030E016
:10237000B6CF80914E0282FDF5CFB1CF80914E0253
:1023800082FD30C090914F0290FD2FC084FFA7CFF7
:10239000EDCF80914F0281FFA2CF80914E0227EEB8
:1023A00030E084FDE3CF9BCF80914E0283FDF7CFD9
:1023B00096CF80914E0285FD1EC080914F0283FF13
:1023C0008ECF29E330E08BCF80914E0286FF87CFFE
:1023D0002AE230E084CF80914E0286FF80CF21E355
:1023E00030E07DCF22EE30E07ACF20EE30E077CFC4
:1023F00026EE30E074CF25E330E071CF90914E02AD
:1024000092FF10C041E0282F2471243009F040E0F1
:1024100031E0282F2871283009F030E0431711F0FF
:102420002CE0822793FF10C041E0282F2471243133
:1024300009F040E031E0282F2871283109F030E020
:10244000431711F02CE0822730914F0230FF10C06B
:1024500051E0282F2171213009F050E041E0282F70
:102460002871283009F040E0541711F029E0822744
:1024700031FF10C041E0282F2171213109F040E0E7
:1024800031E0282F2871283109F030E0431711F08E
:1024900029E0822794FD877E089580E00895CF93F8
:1024A0009C01FB01805E9245C1E0809738F4C581B4
:1024B000C11104C0822F8F710E94B8058C2FCF915B
:1024C0000895089580E090E00E94422C9C0181E0F4
:1024D000233E3E4F09F080E0089563EE7EEF80E0FA
:1024E00090E00C94612C6FEF7FEF80E090E00C9413
:1024F000612CCF93DF93EC0182E090E00E94352CB9
:102500008883DF91CF910895FC01608182E090E0A3
:102510000C94472C83E090E00E94352C682F70E0EB
:1025200080E090E0089583E090E00C94472CCF93F6
:10253000DF93EC0184E090E00E94422C9983888331
:10254000DF91CF910895FC016081718184E090E07A
:102550000C94612C8F929F92AF92BF92CF92DF9298
:10256000EF92FF920F93CF93DF93EC0188E090E01E
:102570000E943D2C4B015C0168839982AA82BB8238
:102580001C821D821E821F8283E290E00E94352CF5
:10259000282F30E040E050E060E070E080E090E024
:1025A00000E20E94C42B282939294A295B29288363
:1025B00039834A835B836C837D838E839F83DF9122
:1025C000CF910F91FF90EF90DF90CF90BF90AF90A1
:1025D0009F908F9008950F93CF93DF93EC014881E4
:1025E00059816A817B8188E090E00E94592C288182
:1025F00039814A815B816C817D818E819F8100E27E
:102600000E94DF2B622F83E290E00E94472CDF9133
:10261000CF910F910895AB01BC018FE090E00C9435
:10262000592CAB01BC0183E190E00C94592C682F2C
:102630008EE090E00C94472C0895FECF0895089505
:10264000FECF0895E82FF0E0EC5AFD4F8081089509
:10265000089580EA8A95F1F7089500C00895F9CFAA
:102660000895F894E82FE295EF70F0E041A18F70A3
:1026700021E030E0B90102C0660F771F8A95E2F7CA
:10268000CB01962F9095942391A392A1892B82A39D
:1026900078940895CF93DF9386E6E3DF87E9E1DF5F
:1026A00086ECDFDF84E3DDDFC6E3D1E089918F3F95
:1026B00009F0D7DF81E0CD33D807C1F7DF91CF91A3
:1026C0000895A0E0B0E0E7E6F3E10C94972BEC016D
:1026D000D62E062F10E0C801835C9E4F7C01FC01C2
:1026E00080818F3F09F441C0F894E82FE295EF70A4
:1026F000F0E091A18F7021E030E001C0220F8A95B7
:10270000EAF7892F822B81A382A12095282322A377
:102710007894A3DFA6E3B1E091E0C12C8D918F3FC7
:1027200079F0E82FE295EF70E05EF0E0208130E094
:102730008F7002C0359527958A95E2F7892F20FD85
:1027400080E0C82A990FF1E0AD33BF0739F7F701F0
:1027500080818F3F09F085DF61E0C11001C060E03A
:102760008D2D7DDFC00FD11FC882CDB7DEB7E8E069
:102770000C94B32B8FDF84E0E4E5F2E0DF01982FC7
:102780001D929A95E9F7E0E5F2E0DF011D928A9546
:10279000E9F784E03ED051CFA4E0B0E0E2EDF3E110
:1027A0000C949A2BFE01319684E0DF011D928A95EC
:1027B000E9F710E0FE2E0F2F612F8F2D902F81DF74
:1027C0001F5F1430C9F744E050E06F2D702F80E593
:1027D00092E00E941F2C21E0892B71F420E044E05C
:1027E00064E572E080E592E015D0182F29DF812F93
:1027F0002496E5E00C94B62B89819A81AB81BC814B
:102800008093500290935102A0935202B0935302CE
:10281000E6CF0895A0E0B0E0E0E1F4E10C94972B5E
:10282000D82EE92EF62ED72F042FC22F211579F09E
:1028300081E08093F1010E94B0229093F001809397
:10284000EF0180E0CDB7DEB7E8E00C94B32BC09089
:10285000F101C114B1F38091EF019091F0010E9458
:102860004122059770F310E0A8016D2D7E2D8F2D6C
:102870009D2F0E941F2C892B41F0A8016D2D7E2DCC
:102880008F2D9D2F0E942C2CCC2D1092F1018C2F7E
:10289000D9CFA4CB08950E944A220E94E1256ADB89
:1028A0000E94F9258DDB0E9402260E940526F1DF99
:1028B0000E941B266DDBF9CF909367018093660120
:1028C0000895CF93DF93EC01FB018581811104C052
:1028D00081E0DF91CF910895E7D98272FE01E05245
:1028E000F847EB30F105A0F7E958F34D0C94772B3E
:1028F000E1D380E0EECF811521F0D0D3FACF81155E
:10290000E1F3C1D3F6CF811521F0E3D1F2CF8115E8
:10291000E1F3D5D1EECF811521F0F5D1EACF8115C4
:10292000E1F3E4D1E6CF811521F007D2E2CF8115A2
:10293000E1F3F6D1DECF811521F00FD1DACF811589
:10294000E1F3FCD0D6CFCF92DF92EF92FF921F93AC
:10295000CF93DF93172FE82F711111C0411521F08C
:10296000F0E0E855FE4FE4916E2F7E2F8E2FDF9121
:10297000CF911F91FF90EF90DF90CF900895C62EDA
:10298000D12CE72EF12C411521F0F0E0E855FE4F57
:10299000E49186E0689F90011124CFEFD0E0C90157
:1029A000BE010E94122BAB01C601880F991FF5E5ED
:1029B000F49FB001F59F700D1124861B970B682FB3
:1029C000660F680F6E01CE18DF08EC9DD001ED9DFB
:1029D000B00D11249B2F169F60011124CD2CDD24F6
:1029E0007E01EC18FD086701EC9D7001ED9DF00C77
:1029F00011246E01C61AD108B601169F6001179FF7
:102A0000D00C1124CD2CDD24CC19DD09EC9F600104
:102A1000ED9FD00C11247D2D43305105C1F02C3F8A
:102A2000334050F441305105B1F04230510561F46A
:102A30007E2FEB2F9D2D08C04430510579F0463094
:102A4000510511F07B2F9F2D6E2FE92F8FCF7F2DFA
:102A50009E2FEB2FF9CF7E2FEF2DF6CF9E2FED2D52
:102A60007B2FF2CF41E06FCF0895FCCF0895E82F80
:102A7000F0E0EC56FE4F849190911201891B08956D
:102A8000FF920F931F93CF93DF93182F062FF42EEF
:102A9000822FC0915801D0915901E9DF2F2D402F8D
:102AA000612F90E0FE010995CDB7DEB7E5E00C940B
:102AB000B62BCF93DF93982F762F842FD22FC32F4F
:102AC000692FD3DF962F672F482F2D2F3C2F892F6B
:102AD000D7DFDF91CF910895493708F048E7E9CF74
:102AE00080915802843060F483708460809358022F
:102AF00080915B02893718F088E780935B02089524
:102B00008435B0F383708065F1CFE8E5F2E085E0CD
:102B1000808311828FEF828388E783831482CF01C1
:102B2000E2C990915C02933018F49F5F90935C022D
:102B3000811519F088E592E0D6C9089581E0F1CFBA
:102B400090915C02911519F0915090935C0281155F
:102B500019F088E592E0C7C9089581E0F1CF0F939D
:102B60001F93CF938091580280FF09C0E0915C01D0
:102B7000F0915D010995CF911F910F910895C0913A
:102B80001401009158011091590180911501C81745
:102B900068F78C2F6CDF20E040E060E090E0F80107
:102BA0000995CF5FF2CFEF92FF920F931F93CF93D0
:102BB000DF93D82F162F042F8091580280FF0BC06F
:102BC000C0911401E0905801F090590180911501D5
:102BD000C81730F0C4DFCDB7DEB7E6E00C94B52BF4
:102BE0008C2F45DF202F412F6D2F90E0F7010995A5
:102BF000CF5FECCF982F762F842F2091580220FFA3
:102C00000AC0493708F088E7692F2FDF962F672F12
:102C1000482F892FC8CF0895CF93DF93EC01E8E5C3
:102C2000F2E0438162818C81E5DF8C818F5F8C8350
:102C3000DF91CF9108950F931F93CF93DF93D82FF8
:102C4000162FC42F022F8091580280FF23C0E82F37
:102C5000E695E695F0E0EF5BFE4F90819093FD01E5
:102C60008C7F8430E1F4842F493708F088E76D2F9A
:102C7000712FFBDE962F672F482F892F94DFD0937B
:102C8000590210935A02C0935B02011519F088E5AE
:102C900092E029D9DF91CF911F910F910895923041
:102CA00019F4D0915902EBCF953049F7FACF282F7C
:102CB000E8E5F2E0818143816281885FBCCF81E0F9
:102CC000F6CF282FE8E5F2E08181438162818850C8
:102CD000B2CF81E0F6CF282FE8E5F2E0628138E05C
:102CE000630F08F46FEF43818181A5CF81E0F3CFBB
:102CF000282FE8E5F2E0628138E0631B08F460E029
:102D00004381818198CF81E0F3CF282FE8E5F2E07D
:102D1000438138E0430F08F44FEF628181818BCF0C
:102D200081E0F3CF282FE8E5F2E0438138E0431B50
:102D300008F440E0628181817ECF81E0F3CF21E021
:102D40007ACF20E078CFCF93DF93EC0120915B0224
:102D50009C81892F817090FD822F692F627091FD77
:102D6000622F492F447092FD422F1DDF8C8190E02D
:102D70000196877099278C83DF91CF910895EF9208
:102D8000FF921F93CF93DF93EC0110E0EE24EA94BF
:102D9000F12C60911601161768F0E1DE8C819A81A2
:102DA00090FF1DC08F5F8C83DF91CF911F91FF90AB
:102DB000EF90089520911401210F3327331F70E005
:102DC000C7010E94262B962F8C8140915B02609157
:102DD0005A02199F800D11247FDE1F5FDACF8150C8
:102DE000E2CFA0E0B0E0E7EFF6E10C94962BFC0117
:102DF0008281D1E080FDDFEFC0E0C0905801D0902B
:102E0000590180911601C81790F0A9DE8091F30155
:102E1000D13009F049C0811102C080911601815062
:102E20008093F301CDB7DEB7E9E00C94B22B80912B
:102E300014018C0F1CDE20E040E060E090E0F60121
:102E4000099504E010E0B12CEC2EF12C8091F301F7
:102E50008B0D85311CF164E10E94052B892F082E12
:102E6000001C00088E150F0499F48091140197013D
:102E7000280F311D40915B020403A00111245595D8
:102E800047955595479560915A028091590224DEE5
:102E9000BD0E01501040D1F6CF5FB3CF87FFDFCF1B
:102EA00090911601890FDBCF90E001966091160199
:102EB00070E00E94262BB4CF0F931F93CF93C09145
:102EC0001401009158011091590180911501C81702
:102ED00048F1C0E00091580110915901609116012C
:102EE000C61750F13CDE809110019091F201980FCD
:102EF0009093F20120911101280F209311011216D5
:102F000054F4209116012150330B092E001C0008A7
:102F1000921703061CF0819580931001CF911F91A9
:102F20000F9108958C2FA3DD20E040E060E090E059
:102F3000F8010995CF5FC9CFEC2FF0E070E0CF0129
:102F40000E94262B20911401820F9091F201092EEC
:102F5000001C0008E917F0059CF090911101092E62
:102F6000001C00089E170F065CF0282F30E04091EF
:102F70005B0260915A0280915902AEDDCF5FAECF05
:102F800076DD20E040E060E090E0F8010995F6CFC2
:102F9000E8E5F2E080818E7F8083CF010E94730F8D
:102FA0001092FE01DCCDE8E5F2E080818E7F808327
:102FB0001092FE01D4CD1092FE018091FB0181118F
:102FC00009C081E08093FB01809158028170809359
:102FD000FA01E9CF0895609158026695669570E010
:102FE00041E050E087E191E00E94122C892B19F416
:102FF00081E08093FE010E94B0229093F5018093BE
:10300000F40108959091580290FF2CC0811559F158
:10301000853158F58F73880F880F909158029370FF
:10302000892B80935802611521F088E592E00E9477
:10303000730F609158026695669570E041E050E02C
:1030400087E191E00E94122C892B89F01092FE01F9
:1030500081E08093F70140915B0260915A02809178
:1030600059026FCE089581E0D6CF84E1D4CFB3DF8B
:10307000EFCF682F80915802869586958F5F8531B6
:1030800008F081E0BFCF81E0F4CF682F8091580233
:10309000869586958A9509F484E1B4CF81E0F5CFD1
:1030A00061E0B0CFE8E5F2E08081816080838695C1
:1030B0008695F6CF8091580280FF01C069CFF2CF8C
:1030C00060E0A0CF8091FC0181111FC088E592E0F3
:1030D0000E94710F80915802843028F416DD88E533
:1030E00092E00E94710FFCDC1092FE01E09156010B
:1030F000F091570109958091580280FF03C0869591
:103100008695DEDF81E08093FC010895E8E5F2E03A
:1031100080818160808386958695D2CF1092FB0155
:103120008091FA018111F2DF56CF0F931F93CF9355
:10313000DF938091FE018115C1F18091FD01E09145
:103140005802E695E695E81BE093F601823091F58A
:10315000F0E0EF56FE4FE491CE2FD0E00CE016E108
:103160008091F701811561F01092F7010E94B02261
:103170009093F5018093F4011092F9011092F801F7
:103180000E94B0222091F4013091F501821B930B33
:103190008F3F9F4750F42C0F3D1F3093F501209334
:1031A000F40184EF91E0F8010995DF91CF911F912F
:1031B0000F910895853051F4E695F0E0E257FE4F07
:1031C000E491CE2FD0E00FEB16E1CACF8B3051F453
:1031D000E695F0E0E557FE4FE491CE2FD0E001EF09
:1031E00016E1BECF813149F4F0E0E857FE4FE4919B
:1031F000CE2FD0E00CE517E1B3CFC0EDD7E004E36C
:1032000015E1843109F0ACCFE6E8F1E0C591D49145
:1032100003EA16E1A5CF089588CF0895AB0124E60F
:1032200030E0BC0188E70E94E6239C0181E0232B6B
:1032300009F080E00895AB0124E630E0BC0188E7A6
:103240000E942E249C0181E0232B09F080E0089548
:103250000F931F93AC019B0104E610E060E488E744
:103260000E9472249C0181E0232B09F080E01F91D1
:103270000F9108950C94B22308950895E0E6F2E0CA
:1032800080E092E0DF019C011D9221503040E1F787
:10329000F0936104E09360048FEF9FEF90932B0213
:1032A00080932A020895CF93E8DF0E94CF0490E232
:1032B00080FF90E88093260290932502DBDF6BE08D
:1032C00070E083EC92E0B7DF811104C0C0E08C2F86
:1032D000CF9108958091260265E070E081FD16C0CF
:1032E0008EEB92E0A8DF811589F36DE070E08CEA47
:1032F00092E0A1DFC82F811549F3C0DF81E0809300
:1033000029028093280210922702E1CF89EB92E0F4
:10331000E9CF2091250236E0839FC0011124269F2A
:10332000800D911D1124811522E0920714F080E098
:1033300090E0805A9D4F90936104809360040895BB
:1033400020916004309161042A5532404091250259
:10335000642F70E0C9010E94122B481B463010F404
:10336000240F311D211582E0380710F020E030E0F5
:10337000205A3D4F30936104209360040895CF9309
:10338000DF93982FC62F81E09A3019F09D3029F4F1
:1033900080E06AD0DF91CF91089520916004309150
:1033A000610486E0F901AFEFB1E001900D928A95DA
:1033B000E1F7903EB0F086E0F90111928A95E9F7C5
:1033C000C1111BC0C0916004D091610446E050E07F
:1033D000BE018FEF91E00E941F2C892BE1F4B0DF3A
:1033E000D9CFF6E09F9FB001112462537D4F46E094
:1033F00050E0C9010E94092CE3CFE0916004F091F4
:1034000061049F012A5F3F4F2E173F07D9F2808149
:1034100080958193F9CFC056D240CE0125E0969594
:1034200087952A95E1F721E030E0A90102C0440F19
:10343000551F8A95E2F7CA0140912A0250912B024A
:10344000842B952B259645E0D695C7954A95E1F7AF
:1034500002C0220F331FCA95E2F7822B932B909361
:103460002B0280932A02BBCFCF93382FE0916004C8
:10347000F0916104E056F24020912502622F70E045
:10348000CF010E94122B281B822F311561F066E0BC
:103490000E94F92AC82FC15010F4CF91089560E01E
:1034A00080E26DDFF8CF8E0F9F2F911D811522E0F6
:1034B000920710F080E090E0805A9D4F9093610455
:1034C00080936004EACF1F93CF93DF93EC01162F14
:1034D000FE018491811104C0DF91CF911F91089565
:1034E000612F4DDF2196F4CFEEDF81E0BDCFCF938A
:1034F000C091290280912802C11559F081110EC096
:1035000062E070E08AEA92E096DE811104C0809168
:103510002802CF91089581E0809328028C2FF9CF63
:10352000A4E0B0E0E6E9FAE10C948D2B8C83809165
:103530002A0290912B02892BE9F0809129028115B2
:10354000C9F080912702811115C0D1DF10E01B82E4
:1035500044244394512C00E247E0F42E20912A02A7
:1035600030912B022115310529F0111551F0FC8104
:10357000F11107C02496E2E10C94A92B4B814F5F17
:103580004B835B81852F90E0520102C0AA0CBB1CCB
:103590005A95E2F7A50142235323452B79F3209155
:1035A000260220FD39C09695879596958795282FF8
:1035B0009B819295990F90763FE1390F90931A0174
:1035C00080931D0130931B0120931E0167E070E082
:1035D00088E191E023DE811569F2BB81A0E2BA9F08
:1035E000C00111242091260220FD1FC060E270E07E
:1035F000805A9D4F2DDE811509F4BCCFA094B09464
:1036000080912A0290912B028A219B2190932B0278
:1036100080932A021F5FA2CF9B81990F990F990F68
:1036200037E0390F80E023E0C9CFE5E0F2E0202F5A
:1036300011922A95E9F742E651E05A8349836EE5F3
:1036400071E0E981FA81A191FA83E983FB0121917B
:10365000BF01280F392F311DA901405A5D4F1A01B2
:10366000EA2FF0E0EB5FFD4F20E030E06F2C621AB4
:10367000842C022E01C0880C0A94EAF76101912C77
:10368000D601ED906D01E820462D4919477050E0B4
:10369000BE2D042E01C0BB0F0A94EAF77B2E519574
:1036A000419551094770552701C0E6944A95EAF7BC
:1036B000EB2A4081E42AE082939448E09412E0CF20
:1036C0002F5F3F4F31962830310581F6A6E6B1E0F5
:1036D000E981FA81AE17BF0709F0B3CF60E270E06D
:1036E00085E092E087CFCF93C09129028091280294
:1036F000C11106C091E0C82FC9278C2FCF91089522
:103700008115D9F362E070E088EA92E094DD8111DE
:1037100003C0C0912802F1CF10922802EECF0C9482
:103720001105089580912902811531F060E080E053
:10373000F0DDF5DF80E0F4CE08959C01FB019457A5
:103740008034910550F48581811521F0822F4AD073
:1037500080E00895822F52D0FBCF81E0089582301F
:1037600048F567E0869FF0011124E050FF4F20816B
:10377000A22FA295AF70AF5DB0E04C912F7081E0A9
:1037800090E0BC0102C0660F771F2A95E2F79B010B
:10379000209524232C932081E22FE295EF70EE5D9B
:1037A000F0E030812F7001C0880F2A95EAF78095EC
:1037B000832380830895823040F497E0899FF0014D
:1037C0001124E050FF4F80817AC780E090E0089597
:1037D00080913102811529F08CE292E035D510926A
:1037E00031020895811109C080912C02816080937B
:1037F0002C0281E080933102EBCF0895811109C042
:1038000080912C028E7F80932C0281E08093310284
:10381000DFCF08958F929F92AF92BF92CF92DF92A7
:10382000EF92FF92CF93DF93C82F80E090E0C230F9
:1038300008F046C08C2FBFDF27E0C29FE0011124B3
:10384000C050DF4FEB81FC814F01A12CB12C092E20
:10385000000CAA0BBB0B6C017D01CE1ADF0AE1083C
:10386000F108A1E8BFEFA70196010E94892B2981E9
:103870003A8140E050E02E1B3F0B410951090E9464
:103880005B2B121613061406150684F4AFE7B0E09E
:10389000A70196010E947D2B2D813E8140E050E0E2
:1038A000281939094A095B090E945B2B21388FEFDF
:1038B0003807480758077CF481E89FEFAFEFBFEF68
:1038C000DF91CF91FF90EF90DF90CF90BF90AF90BE
:1038D0009F908F900895DA01C90120383105410584
:1038E000510574F38FE790E0A0E0B0E0E9CF80915C
:1038F00000018F3F11F080E032DF809107018F3FA0
:1039000011F081E02CCF0895823080F4E82FF0E0B0
:10391000EE0FFF1FE45DFD4F8181928186179707AF
:1039200029F07283618381E0809331020895809150
:1039300000018F3F29F080E06DDFBC0180E0E4DF13
:10394000809107018F3F29F081E064DFBC0181E0B5
:10395000DBDF3ECFCCCF0895EACF0895539A089588
:10396000FC01EE0FFF1FE80FF91FEE59FB4F6183BB
:10397000408322830895FF920F931F93CF93DF9389
:10398000182F062FF42EC0E0D0E02F2D402F612FEE
:10399000CE01E6DF2196C431D105B9F7CDB7DEB748
:1039A000E5E00C94B62B3BB1377F2BB128604FB7C5
:1039B000F89482E694E0FC010196508168E02BB90E
:1039C000000000C057FF3BB9550F000000C000C009
:1039D00000C03BB900C06A9591F754E08E39950755
:1039E00051F74FBF8FE594E00197F1F700C0000059
:1039F0000895CF93DF93EB0186319C4709F50E9430
:103A0000540E9D81911599F08A7A91E0811101C03F
:103A100090E090933202811541F085E381D40E94B9
:103A2000E00E80E0DF91CF91089589E2F7CF809199
:103A30003202811519F085E379D4F1CF89E2FCCF08
:103A400081E0F0CFCF93DF93EC01FB0185818115FD
:103A500009F4CBC09E0130572332310508F0ABC0CA
:103A60008EE492E00E946D0FFE01E150F047E232D9
:103A7000F10520F4EE57F34D0C94772B80914E0214
:103A8000816080934E0290C080914F028860809345
:103A90004F028AC080914E028260F3CF80914E0225
:103AA0008460EFCF80914E028860EBCF80914F020F
:103AB0008160EDCF80914F028260E9CF80914E020C
:103AC0008061DFCF80914E028062DBCF80914E0219
:103AD0008064D7CF0E949E0980914E028068D1CF2A
:103AE00080914E028C60CDCF80914F028360CFCF0A
:103AF00080914E028E7FC5CF80914F02877FC7CFC6
:103B000080914E028D7FBDCF80914E028B7FB9CFC9
:103B100080914E02877FB5CF80914F028E7FB7CFC5
:103B200080914F028D7FB3CF80914E028F7EA9CFBF
:103B300080914E028F7DA5CF80914E028F7BA1CFC9
:103B40000E949E0980914E028F779BCF80914E02FA
:103B5000837F97CF80914F028C7F99CF80914E02C7
:103B6000992782FF939590FB82F990FB83F989CF87
:103B700080914F02982F909590FB80F990FB81F9EE
:103B800086CF90914E02892F8F7B96FF806479CFEC
:103B90000E949E0990914E02892F97FB87F98058C9
:103BA00070CF81E00E94750F8EE492E00E946F0F4B
:103BB0000E949E0980E0DF91CF91089580E0F2CFCE
:103BC00090914E02892F8F7E94FF80615ACF909101
:103BD0004E02892F8E7F90FF816053CF90914F02CC
:103BE000892F877F93FF886052CF81E0E4CF282F11
:103BF00035EB2303C001112497FF04C080589109BD
:103C0000892F089580589F4FFBCF8091390280FF04
:103C10000DC06091240170E0660F771F6038710558
:103C2000B0F561157105A9F1862F089581FF07C0D0
:103C30006091240184E0689FB0011124EFCF82FFDE
:103C400004C06091240188E0F6CF9091380291156C
:103C5000D9F02091230180912401682F70E0921700
:103C600030F043E0660F771F4A95E1F7D7CF899F81
:103C7000C001112433E0880F991F3A95E1F7622FB4
:103C800070E00E94262BCACF68E070E0CDCF8FE7AE
:103C9000089581E008958091390280FF0CC0609101
:103CA000200170E0759567957595679561157105AB
:103CB00049F1862F089581FF06C06091200170E0D0
:103CC00075956795F3CF6091200182FD0BC09091AF
:103CD00037029115A1F060911F0180912001961784
:103CE00038F0682F70E06038710500F38FE70895B1
:103CF000899FC001112470E00E94262BF4CF61E05F
:103D000070E0D7CF81E00895E3E3E80FE331A0F559
:103D1000F0E0EC55F34D0C94772B77DF8195809391
:103D20003D02089572DFFBCF70DF819580933C02E6
:103D300008956BDFFBCFAFDF80933E020895ABDFCA
:103D40008195FACFA8DF819580933F020895A3DF84
:103D5000FBCF815D990B21E030E001C0220F8A95F5
:103D6000EAF780913B02822B80933B020895809179
:103D7000390281608093390208958091390282600E
:103D8000F9CF809139028460F5CF40913C028D3C9F
:103D900059F480913D0287FF0DC010923D024115FC
:103DA00059F41092380208C08E3C81F480913D0293
:103DB00018169CF3411581F080913E0290913F02CC
:103DC000892B811159C01092370208958F3C41F41C
:103DD00047FFF0CF10923C0280913D028115E0CF69
:103DE000803D19F41416B4F3E5CF90913E02893D5D
:103DF00029F41916FCF610923E02DCCF8A3D19F424
:103E000097FFD8CFF8CF90913F028B3D29F497FFD1
:103E1000D1CF10923F02CECF8C3D19F41916CCF3BE
:103E2000C9CF9FE2980F983090F4815D990B21E003
:103E300030E0B90102C0660F771F8A95E2F7CB0127
:103E4000809590913B02892380933B02B3CF8D3DB7
:103E500031F4809139028E7F80933902ABCF8E3D51
:103E600021F4809139028D7FF7CF8F3D09F0A2CFE9
:103E7000809139028B7FF0CF089572D320913C025C
:103E800030913D02232B211521F080933502909330
:103E9000360220913E0230913F02232B211521F062
:103EA00080933302909334028AE392E0BAC186E0B1
:103EB000EAE3F2E0DF011D928A95E9F710923802F9
:103EC00010923702109239020895FC01828181110B
:103ED0000DC0838181110AC08481811107C081E0F6
:103EE0009581911101C080E08170089581E0FCCF3F
:103EF000A6E0B0E0EEE7FFE10C94972B86E0EAE362
:103F0000F2E09E012F5F3F4FD90101900D928A95FB
:103F1000E1F710923C0210923D0210923E02109284
:103F20003F028B819C81892B7901811581F08091E1
:103F3000350290913602A5D26C018091380281152C
:103F400099F1909125019C151D0408F43AC08D81CA
:103F50009E81892B811589F08091330290913402E2
:103F600090D28C0180913702811509F458C090914C
:103F700021019017110608F460C0B7018AE392E0AE
:103F8000E6D1811104C08AE392E09FDF811175DFE1
:103F900086E0F701AAE3B2E001900D928A95E1F77D
:103FA0002696E8E00C94B32B209126019AE0299FF5
:103FB000900111242C153D0550F68F5F8093380237
:103FC00002C08F3FD1F7DB80D11451F01EDE91E0AB
:103FD0001D140CF09FEF899F802D112480933C02CB
:103FE000DC80D11451F011DE91E01D140CF09FEF34
:103FF000899F802D112480933D0280913C02811580
:1040000009F4A5CFD0903D02D11409F4A0CFEFDD83
:1040100080933C028D2DEBDD80933D0298CF209163
:1040200022019AE0299F900111242017310708F0FE
:10403000A4CF8F5F8093370202C08F3FD1F71D81DD
:10404000111551F028DE91E011160CF09FEF899FB9
:10405000802D112480933E021E81111551F01BDE2C
:1040600091E011160CF09FEF899F802D1124809311
:104070003F0280913E02811509F47FCF10913F02EB
:10408000111509F47ACFB3DD80933E02812FAFDDA5
:1040900080933F0272CF0F931F93CF93DF93C42F70
:1040A000D22FFC0185818115C1F04093420258D284
:1040B000909341028093400280E28C0F883040F45C
:1040C000C77081E001C0880FCA95EAF70E94830794
:1040D000DF91CF911F910F91089510914202141317
:1040E00032C08091400290914102CBD1883C910531
:1040F00050F5C0E2CD0F1D17C1F080E2810F88306E
:1041000040F4177081E001C0880F1A95EAF70E9409
:104110008807C83050F491E08D2F877001C0990F47
:104120008A95EAF7892F0E948307802F0E947C07D7
:10413000C83070F6D77081E001C0880FDA95EAF7D1
:104140000E948807C5CF80E28C0F883008F0C0CF6E
:10415000C77081E001C0880FCA95EAF7F1CF0F93CD
:10416000DB01FC01E851FC47E730F10590F5E9542B
:10417000F34D0C94772B06E221EE41EE6AE17CE7E9
:10418000CD0189DF80E00F91089507E225EE45EE2D
:104190006BE17CE7F5CF06E221EE40EE68E17CE7DB
:1041A000EFCF07E225EE44EE69E17CE7E9CF06E2D6
:1041B00021EE42EE6CE17CE7E3CF07E225EE46EE2E
:1041C0006DE17CE7DDCF08E221E045EE6EE17CE7C2
:1041D000D7CF15968C9181111092420281E0D3CFF6
:1041E00090934402809343020895E0914302F0913A
:1041F0004402309739F00190F081E02D309711F0B2
:104200000995089580E00895E0914302F0914402F9
:10421000309731F00280F381E02D309709F0099555
:104220000895DC01E0914302F0914402309759F087
:1042300086819781892B39F082E08C930680F78103
:10424000E02DCD0109950895A4E0B0E0EAE2F1E2A5
:104250000C949D2BFC018091430290914402892B88
:1042600059F087E0898381818A8383818B83808170
:104270008C83CE010196A0D42496E2E00C94B92B55
:1042800040910E0150910F019A012E5F3F4F485F00
:104290005F4F80E0F90190812F5F3F4F91118F5F59
:1042A00042175307B9F70895811571F020910E0157
:1042B00030910F01F9013296285F3F4F9191981785
:1042C00029F0E217F307D1F780E0089581E008951F
:1042D0009C01FC0132968FEF90E04191461751F01E
:1042E0008F3F19F4411101C0892F9F5F9630A9F7C4
:1042F0008F3F09F40895280F311D87FD3A95F90184
:10430000628308959C01FC013296285F3F4F8191A2
:10431000861302C0DF011E92E217F307C1F708956A
:10432000682F80910E0190910F01D2CF682F80915C
:104330000E0190910F01E6CFE0910E01F0910F0177
:10434000329686E0DF011D928A95E9F70895DC0137
:10435000FB0111969C9111978181981322C01296AE
:104360008C911297811519F0928189131AC01396B6
:104370008C911397811519F09381891312C01596AA
:104380008C911597811519F0958189130AC014969F
:104390009C91911521F081E02481291303C080E0D4
:1043A00001C081E0817008950895FECF08958F5F68
:1043B00080932A0160912701709128018091290141
:1043C00090912A01F2CF83E080932A016091270126
:1043D000709128018091290190912A01E6CFE7CFC1
:1043E000089581E080932A0160912701709128014E
:1043F0008091290190912A01D8CFF3CF089591E0BF
:10440000811101C090E09093290160912701709182
:1044100028018091290190912A01C7CF809129011B
:10442000089580932801609127017091280180915F
:10443000290190912A01B9CF809128010895809394
:1044400027016091270170912801809129019091A5
:104450002A01ABCF80912701089508950895CF9345
:10446000FCDF0E94CC13FADFC0E08C2F0E942213E5
:10447000811105C0CF5FC430C1F7CF91089581E0AD
:10448000FCCFCF93DF93EC016BD08C1B9D0BDF91A6
:10449000CF91089585B7806885BF85B7806885BF4F
:1044A00008951F921FB61F9211248F939F93AF936D
:1044B000BF9380914502811113C080919E04909119
:1044C0009F04A091A004B091A1044196A11DB11D2B
:1044D00080939E0490939F04A093A004B093A104A2
:1044E000BF91AF919F918F911F901FBE1F90189504
:1044F0008091A604843031F10E945C06109245023E
:1045000088E190E020E40FB6F894A89580936000CD
:104510000FBE2093600083B7817F846083BF83B721
:10452000816083BF7894889583B78E7F83BF0FB6F1
:10453000F894A89580916000886180936000109243
:1045400060000FBE08950E949E090C94630682E0ED
:1045500084BD93E095BD9AEF97BD80936E0008955A
:104560002FB7F89480919E0490919F04A091A0048D
:10457000B091A1042FBF08952FB7F89460919E04C5
:1045800070919F048091A0049091A1042FBF089581
:1045900078941F921FB61F9211248F939F93AF930D
:1045A000BF9380919E0490919F04A091A004B0912C
:1045B000A1040196A11DB11D80939E0490939F04B8
:1045C000A093A004B093A104BF91AF919F918F914C
:1045D0001F901FBE1F90189587E797E790930108DB
:1045E0008093000888E19AE00FB6F894A89580932C
:1045F00060000FBE90936000FFCF88E19AE00FB695
:10460000F894A895809360000FBE90936000FFCF50
:10461000803F09F188F4843901F140F48533F9F0E1
:104620008633F9F0843339F583E208958639D9F079
:10463000873909F582E20895853FB9F030F4813F6A
:10464000B1F0843FC1F484E00895863F91F0873F44
:1046500091F487E0089580E0089580E2089584E26F
:10466000089585E2089581E2089585E0089581E046
:10467000089586E008958FE1089596E890937A0072
:10468000982F9072906890937B008F7190912B017E
:10469000892B80937C0080917A00806480937A00DB
:1046A00080917A0086FDFCCF80917800209179007E
:1046B00090917A009F7790937A00922F0895A8DFC7
:1046C000DCCFFF920F931F93CF93DF93182FEB0153
:1046D0001092BC0084EA8093BC0042DF082FF92EC0
:1046E0008091BC0087FF27C08091B900887F883007
:1046F00029F08091B900887F803189F51093BB0043
:1047000084E88093BC002CDF182F092F8091BC0017
:1047100087FF1EC02091B900287F80E090E02831FB
:1047200091F081E090E0203411F480E090E09195E8
:104730008195910908C0802F9F2DA3DEC817D90746
:1047400078F68EEF9FEFCDB7DEB7E5E00C94B62B91
:10475000812F902F96DEC817D907C0F6F2CF8FEFC2
:104760009FEFF1CF1092B9008CE08093B8000895CC
:104770000F931F93CF93DF93EB018093BB0084E8EB
:104780008093BC00EDDE182F092F8091BC0087FFBD
:1047900011C02091B900287F81E090E0283211F407
:1047A00080E090E0919581959109DF91CF911F91E3
:1047B0000F910895CF3FDC0741F3812F902F61DEE9
:1047C000C817D90710F78EEF9FEFEFCFA0E0B0E04A
:1047D000EBEEF3E2A7C7782EB62EA72E6A01E90109
:1047E000BFDE4C01C431D10510F1CF3FDC0719F118
:1047F000CE0164E170E016D7F62EE72E6F2D7E2DE8
:10480000872D5FDF8C01892BC9F4EB2CFA2CCE0CA1
:10481000DF1CEC14FD0419F001151105C1F084E949
:104820008093BC00C801CDB7DEB7EDE097C7FF2489
:10483000F394E12CE3CF85E0F82EFBCFCF3FDC07EC
:10484000E9F2C4011EDEC817D907C0F6DECFBE01EB
:10485000F70181917F018CDF8C01DBCFA0E0B0E01C
:10486000E3E3F4E25FC7782EB62EA72E6A01890132
:1048700077DE4C010431110500F10F3F100701F103
:10488000C80164E170E0CED6EB01BE01872D19DFCF
:104890007C01892BB9F4CB2DDA2DCC0EDD1ECC1585
:1048A000DD0519F0E114F104B1F084E98093BC0056
:1048B000C701CDB7DEB7EDE051C7C1E0D0E0E5CF2D
:1048C000C5E0FCCF0F3F100701F3C401DADD081784
:1048D0001907D8F6E0CFFE018491B80149DF7C01C9
:1048E0002196DDCFA0E0B0E0E7E7F4E21AC7682E3A
:1048F000962E5A016901780133DE782E892E043113
:10490000110510F10F3F100711F1C80164E170E0CB
:1049100089D6162F072F612F702F862DD2DEEC013E
:10492000892BB9F0FFEFEF16FF06A9F3872D982D1D
:10493000A8DDE816F90678F784E98093BC00CE017B
:10494000CDB7DEB7EEE009C711E000E0E4CF15E037
:10495000FCCFB701892D0CDFEC018501CA0CDB1CF3
:104960000C151D0549F3209739F7B701F80181911E
:104970008F01FEDEEC01F4CF08950895282FCB01BE
:10498000BA013091A6043430D1F42F702093E9009D
:104990002FEF3091E80035FD06C035ED3A95F1F77F
:1049A00000002A95B1F72091E80025FF08C040E0FB
:1049B00050E0B6D18091E8008E778093E8000895AA
:1049C000BC0146E050E082E0D9CFCF93DF93D82FEF
:1049D000C92F24DD48E050E06D2F7C2F81E0CEDF31
:1049E00088E0ED2FFC2FA6E4B2E001900D928A95AD
:1049F000E1F7DF91CF9108958091A504811107C05F
:104A000016D36DD38091E20084608093E200089514
:104A10001092A5040895E5DC81E0F1CC6091A20438
:104A200081E0611101C080E0CECC9091A60481E0CC
:104A3000943009F080E06091A204D1CC42E061ECB6
:104A400081E071D242E261EC82E06DD29091A604E5
:104A500081E0943009F080E06091A204A8CC8091BC
:104A6000A804893081F148F4823009F495C083307C
:104A700009F456C0813041F008958A3009F47FC0AE
:104A80008B3009F467C008958091A704813A09F03A
:104A900046C08091E800877F8093E8008091AB0456
:104AA0009091AC04892B59F060E080E090E070E0D8
:104AB00085D18091E8008B778093E800089568E0C5
:104AC00086E492E0F4CF8091A704813241F5809191
:104AD000AB049091AC04029710F58091E800877FB9
:104AE0008093E8008091E80082FF15C09091F30068
:104AF0008091F200029731F48091F100813011F041
:104B0000863019F48091F1008CDC8091E8008B777D
:104B10008093E8003CC28091A6048111E3CF089500
:104B20008091A704813AD9F78091AB049091AC04AD
:104B3000892BA9F78091E800877F8093E800809116
:104B4000E80080FFFCCF6ADC8093F1008091E800F0
:104B50008E77DECF8091A704813209F78091AB0474
:104B60009091AC04892BD9F68091E800877F8093DF
:104B7000E8000DD28091A90442DC0C949E0980913A
:104B8000A704813261F68091E800877F8093E80076
:104B9000FED18091AA0453CC8091A704813A09F0F8
:104BA000BECF8091E800877F8093E8008091E80085
:104BB00080FFFCCF4FDCC8CFBC0144E050E082E076
:104BC000DDCE84B7877F84BF0FB6F894A895809117
:104BD0006000886180936000109260000FBE80E8E2
:104BE00090E00FB6F89480936100909361000FBE3F
:104BF00004CC1DD274D2E2EEF0E080818460808328
:104C00007894DEC48CE291E0EBCA8091A6048530F2
:104C100029F48091A604853011F095CC089568DCC4
:104C20001EDC8115B1F38091A404811591F362D04B
:104C30000E949E09EECF08959A014091AD045091D3
:104C4000AE0400C0FC01D9018F2F99278330910554
:104C5000C1F068F48130910509F447C0029761F40E
:104C60008BE390E02CE438E02D933C93089581325F
:104C70009105E1F0829749F180E090E020E030E09A
:104C8000F3CFCF019927E13059F08230910559F0E7
:104C9000E8E4F8E0892B81F7849190E09F01E4CF6C
:104CA000E4E2F8E0F9CFEEE0F8E0F6CF89E090E05A
:104CB0002EE538E061157105B9F289E090E027E74B
:104CC00038E06130710581F2D7CF84E490E024E1CF
:104CD00039E06115710541F28BE790E029E938E090
:104CE0006130710509F4C0CFC7CF82E190E027E8B9
:104CF00038E0BACF80E189BD82E189BD09B400FE08
:104D0000FDCF8091D8008F7D8093D8008091E00006
:104D100082608093E0008091E00081FDFCCF0895E7
:104D2000AF92BF92CF92DF92EF92FF920F931F93B9
:104D3000CF936C018B017A0149D1C82F811123C017
:104D4000E114F10439F0F70180819181081B190BFE
:104D5000C80ED91EA12CB12C01151105A1F080910E
:104D6000E80085FD20C08091E8008E778093E80000
:104D7000E114F10499F0F701808191818A0D9B1D66
:104D800091838083C5E08C2FCF911F910F91FF906D
:104D9000EF90DF90CF90BF90AF90089517D181151D
:104DA000F1F2C82FF0CFF60181916F018093F100ED
:104DB00001501109FFEFAF1ABF0ACECFFC019B01D2
:104DC0008091AD049091AE048617970718F0672B79
:104DD00061F0C90140E0009771F441110CC080916D
:104DE000E80082FF35C080E008958091E8008E776A
:104DF0008093E800EECF2091A6042115A9F125307B
:104E0000A9F12091E80023FD2DC02091E80022FDAA
:104E1000E6CF2091E80020FFDECF3091F300209113
:104E2000F200009719F02830310558F041E02830A1
:104E3000310509F040E02091E8002E772093E8004A
:104E4000CACF41914093F10001972F5F3F4FE9CFC7
:104E50008091A604811541F0853041F08091E800F1
:104E600083FFBDCF81E0089582E0089583E0089537
:104E7000FC019B018091AD049091AE0486179707C9
:104E800018F0672B61F0C90140E0009771F44111FF
:104E90000CC08091E80082FF36C080E008958091C8
:104EA000E8008E778093E800EECF2091A6042115CC
:104EB000B1F12530B1F12091E80023FD2EC0209101
:104EC000E80022FDE6CF2091E80020FFDECF309100
:104ED000F3002091F200009719F02830310558F0C6
:104EE00041E02830310509F040E02091E8002E77BC
:104EF0002093E800CACF44914093F1003196019786
:104F00002F5F3F4FE8CF8091A604811541F0853097
:104F100041F08091E80083FFBCCF81E0089582E0FA
:104F2000089583E00895982F973028F08F7080932C
:104F3000E90081E008959093E900242F762F50E056
:104F4000981731F07091EC002091ED005091F00035
:104F500021FD02C09F5FE8CF3091EB003E7F309390
:104F6000EB003091ED003D7F3093ED003091EB0090
:104F700031603093EB007093EC002093ED00509380
:104F8000F0002091EE0027FDE5CF80E008958091AC
:104F9000A70487FF13C08091E80082FF06C08091BC
:104FA000E8008B778093E80008958091A604811132
:104FB000F2CF08958091A6048115D9F38091E8007D
:104FC00080FFF8CF8091E8008E77ECCF2091E4004D
:104FD0003091E50095E6A9012091EC00822F8170C7
:104FE00020FF06C08091E80080FF06C080E00895A1
:104FF0002091E80022FD1AC08091A604811589F055
:10500000853089F08091EB0085FD0FC02091E40090
:105010003091E50042175307F9F29A95E1F684E0E2
:10502000089582E0089583E0089581E0089567D0AF
:105030006ED0E0EEF0E0808181608083E8EDF0E00A
:1050400080818F77808319BCA7EDB0E08C918E7F33
:105050008C9380818F7E80831092A50408950F9396
:105060001F93CF93DF934BD052D0C8EDD0E088810F
:105070008F77888388818068888388818F7D888303
:1050800019BC1092A6041092A2041092A4041092CB
:10509000A30400EE10E0F80180818B7F808388817B
:1050A0008160888342E060E080E03DDFE1EEF0E097
:1050B00080818E7F8083E2EEF0E08081816080835A
:1050C000808188608083F80180818E7F80838881E1
:1050D00080618883DF91CF911F910F910895E8ED52
:1050E000F0E080818F7E8083E7EDF0E08081816059
:1050F000808384E082BF81E08093A504B0CFE8ED97
:10510000F0E080818E7F80831092E20008951092FB
:10511000DA001092E10008951F920F920FB60F92DD
:1051200011242F933F934F935F936F937F938F93AC
:105130009F93AF93BF93EF93FF938091E10082FF22
:105140000AC08091E20082FF06C08091E1008B7F5F
:105150008093E10034D28091DA0080FF18C0809102
:10516000D80080FF14C08091DA008E7F8093DA002F
:105170008091D90080FF8FC080E189BD82E189BD27
:1051800009B400FEFDCF81E08093A60435DC809158
:10519000E10080FF18C08091E20080FF14C0809180
:1051A000E2008E7F8093E2008091E2008061809334
:1051B000E2008091D80080628093D80019BC85E01D
:1051C0008093A6042BDC8091E10084FF28C08091AD
:1051D000E20084FF24C080E189BD82E189BD09B479
:1051E00000FEFDCF8091D8008F7D8093D800809104
:1051F000E1008F7E8093E1008091E2008F7E8093BA
:10520000E2008091E20081608093E2008091A2043C
:10521000811509F445C084E08093A60406DC8091E2
:10522000E10083FF27C08091E20083FF23C08091CB
:10523000E100877F8093E10082E08093A6041092D2
:10524000A2048091E1008E7F8093E1008091E200D2
:105250008E7F8093E2008091E20080618093E20083
:1052600042E060E080E05FDE8091F0008860809343
:10527000F000D1DBFF91EF91BF91AF919F918F91A2
:105280007F916F915F914F913F912F910F900FBE42
:105290000F901F90189519BC1092A604B9DB77CF18
:1052A0008091E30087FF02C083E0B6CF81E0B4CFF6
:1052B0001F920F920FB60F921124EF92FF920F934D
:1052C0001F932F933F934F935F936F937F938F938E
:1052D0009F93AF93BF93CF93EF93FF9309EE10E0AB
:1052E000F8018081C091EC008F70C795CC27C795DD
:1052F000C82B108280EFE82EF12CF7018081877F88
:10530000808378941FD0F8011082F7018081886033
:105310008083CF70F801C083FF91EF91CF91BF914F
:10532000AF919F918F917F916F915F914F913F913D
:105330002F911F910F91FF90EF900F900FBE0F9044
:105340001F901895AAE2B0E0E7EAF9E2F4C187EA13
:1053500094E0FC0101962091F100208324E08F3A33
:105360009207B9F77CDB8091E80083FF37C080911A
:10537000A7049091A8049A3088F5E92FF0E0E25450
:10538000F34DB5C1803889F0823841F58091AB0486
:105390008F70873018F58093E9008091EB0085FBD2
:1053A000882780F91092E90006C08091A404880F34
:1053B0009091A304892B9091E800977F9093E80047
:1053C0008093F1001092F1008091E8008E7722C066
:1053D000811115C08091A904813001F18091E8000C
:1053E00083FF0AC08091E800877F8093E800809166
:1053F000EB0080628093EB00AA96E4E0B8C18230B3
:1054000069F78091A904811581F01092E9008091DB
:10541000E800877F8093E800BADDE0CF81E0933039
:1054200009F080E08093A404F0CF8091AB048F70EA
:105430002FEF280F263090F68093E9002091EB00A3
:1054400020FFE3CF933031F48091EB0080628093B2
:10545000EB00DBCF9091EB0090619093EB0021E0AB
:1054600030E0A90102C0440F551F8A95E2F740932E
:10547000EA001092EA008091EB008860E8CF811189
:10548000ADCF1091A9041F778091E3008078812B24
:105490008093E3008091E800877F8093E80077DDC8
:1054A0008091E80080FFFCCF8091E30080688093CA
:1054B000E30083E0111101C082E08093A6048ECF47
:1054C0008058823008F08ACF8091A9049091AA0474
:1054D0008C3D53E0950791F583E08A838AE28983C6
:1054E0004FB7F894DE01139620E03EE051E2E32F3F
:1054F000F0E050935700849120FF03C082958F7095
:105500003F5F8F708A30C0F0895C90E08D939D93EF
:105510002F5F243161F74FBF8091E800877F809330
:10552000E8006AE270E0CE01019648DC8091E80074
:105530008B778093E80052CF805DE7CF6091AB041A
:105540007091AC04AE014F5F5F4F76DB8C01892B0D
:1055500009F444CF8091E800877F8093E800B80188
:1055600089819A8185DCE2CF803809F037CF80913C
:10557000E800877F8093E8008091A2048093F10087
:1055800023CF81112BCF9091A904923008F026CF20
:105590008091E800877F8093E8009093A204F7DC75
:1055A0008091A204811529F084E08093A60446DA54
:1055B00015CF8091E30087FDF7CF81E0F6CF089506
:1055C000CF938091A604811591F08091E900C0915C
:1055D000EC008F70C795CC27C795C82B1092E900B7
:1055E0008091E80083FDAEDECF70C093E900CF91DB
:1055F0000895992778E0880F991F961708F0961B51
:10560000881F7A95C9F78095089587FB082E06268E
:1056100087FD819567FD6195ECDF0EF4919507FCA0
:1056200081950895AA1BBB1B51E107C0AA1FBB1F90
:10563000A617B70710F0A61BB70B881F991F5A951E
:10564000A9F780959095BC01CD01089597FB072E91
:1056500016F4009406D077FD08D0E4DF07FC05D0EF
:105660003EF4909581959F4F0895709561957F4F79
:105670000895A1E21A2EAA1BBB1BFD010DC0AA1F93
:10568000BB1FEE1FFF1FA217B307E407F50720F0AB
:10569000A21BB30BE40BF50B661F771F881F991F26
:1056A0001A9469F760957095809590959B01AC016F
:1056B000BD01CF010895052E97FB16F400940FD07D
:1056C00057FD05D0D6DF07FC02D046F408C0509540
:1056D0004095309521953F4F4F4F5F4F08959095DE
:1056E0008095709561957F4F8F4F9F4F0895EE0F76
:1056F000FF1F0590F491E02D09947CD0A59F900D9B
:10570000B49F900DA49F800D911D11240895B7FFA3
:10571000F4CFF3DF821B930B08952F923F924F92A9
:105720005F926F927F928F929F92AF92BF92CF9231
:10573000DF92EF92FF920F931F93CF93DF93CDB73A
:10574000DEB7CA1BDB0B0FB6F894DEBF0FBECDBFB2
:1057500009942A88398848885F846E847D848C8483
:105760009B84AA84B984C884DF80EE80FD800C818C
:105770001B81AA81B981CE0FD11D0FB6F894DEBF6F
:105780000FBECDBFED010895002E083090F0982F88
:10579000872F762F652F542F432F322F2227085023
:1057A000F4CF220F331F441F551F661F771F881F1A
:1057B000991F0A95B2F7002D089597FD1094002EB9
:1057C000083098F00850232F342F452F562F672F7D
:1057D000782F892F912DF4CF1594979587957795EC
:1057E000679557954795379527950A95AAF71124F8
:1057F000002D0895A29FB001B39FC001A39F700D1B
:10580000811D1124911DB29F700D811D1124911DC8
:105810000895FB01DC0102C005900D9241505040FB
:10582000D8F70895FC014150504030F00190061621
:10583000D1F73197CF010895882799270895FB0163
:10584000DC0104C08D910190801921F44150504039
:10585000C8F7881B990B0895FB01DC0102C0019079
:105860000D9241505040D8F70895F999FECF92BD5E
:1058700081BDF89A992780B50895A6E1B0E044E08B
:1058800050E025C0A8E1B0E042E050E020C0262F63
:10589000F999FECF92BD81BDF89A019700B4021626
:1058A00039F01FBA20BD0FB6F894FA9AF99A0FBED4
:1058B00008950396272FECDFEADF252FE9DF242F59
:1058C000E7CF0196272FE4DFE2CFDC01CB01FC011B
:1058D000F999FECF06C0F2BDE1BDF89A319600B449
:1058E0000D9241505040B8F70895F894FFCF7814C6
:1058F0007B147F14831487148B148F1493149714C0
:105900009B149F14781DE71D801D4A1D4E1D841D8C
:10591000521D881D941D5E1DE01D621D981D661D93
:105920009C1DC11D6A1DA01DC81D701DA61DAE1D9C
:10593000561D8C1D5A1D901D741DAA1DB81DD11D0C
:10594000DE1D441D7C1DEE1D8D1E921E941E991E93
:10595000A91EA91EA91EA91EA91EA91EA91EA91E0F
:105960009B1E9F1EA21EA71EB71EBD1EC11ECB20C2
:10597000D120BB20C520D720DD20E320C229E82983
:10598000EE29E829EE293F2A602AEE29B42AC12A05
:10599000F5090249018B00F48B0053011F02D60167
:1059A00001020014001414010021007F22000328CA
:1059B0000850011E0A140100000100401C22E524C9
:1059C000BD24E024BC24F6F731333236356697C661
:1059D0003400010202020505050505050B0B0B0B42
:1059E0000B0B11111114AE1CB01CBB1CD31C0008F6
:0659F00010181810080059
:00000001FF
