:100000008BC40000A6C40000A4C40000A2C4000069
:10001000A0C400009EC400009CC400009AC400005C
:1000200098C4000096C400000C94BE280C948A2941
:100030000C9483228EC400008CC400008AC400008B
:1000400088C4000086C4000084C4000082C400008C
:1000500080C400000C94FA227CC400007AC4000022
:1000600078C4000076C4000074C4000072C40000AC
:1000700070C400006EC400006CC400006AC40000BC
:1000800068C4000066C4000064C4000062C40000CC
:1000900060C400005EC400005CC400005AC40000DC
:1000A00058C4000056C4000054C40000556E646576
:1000B00066696E656400524742204C4544205445B1
:1000C00053540A004B455920544553540A004C617F
:1000D0007965723A200014001A0008001500170014
:1000E0000000000004001600070009000A000000DC
:1000F00000001D001B0006001900050000000000A4
:100100001E001F00200021002200007401522078F0
:100110002378247825782678000000002178407E16
:100120002778287800000000000000000000000090
:1001300000000000000000000000000000000000BF
:1001400000000074005200047F3F1F6432146432C8
:1001500014783C1E000102030409080706050A0B77
:100160000C0D0E131211100F00010101010101010C
:10017000010102020202020202020203030303035C
:10018000030303040404040404040505050505062B
:1001900006060606070707070708080808090909E9
:1001A000090A0A0A0B0B0B0C0C0C0D0D0D0E0E0E92
:1001B0000F0F0F1010111111121213131414151523
:1001C00016161717181819191A1A1B1B1C1D1D1E95
:1001D0001E1F2020212222232424252626272829E9
:1001E000292A2B2C2D2D2E2F303132323334353617
:1001F0003738393A3B3C3D3E3F4041424344454617
:100200004748494A4C4D4E4F5051535455565859F2
:100210005A5B5D5E5F616264656668696B6C6D6F99
:100220007072737577787A7B7D7E8082838587880C
:100230008A8C8E8F91939596989A9C9EA0A2A3A546
:10024000A7A9ABADAFB1B3B5B7BABCBEC0C2C4C647
:10025000C9CBCDCFD1D4D6D8DBDDDFE2E4E7E9EB03
:10026000EEF0F3F5F8FAFDFF00AE00AF00DA028120
:10027000FFD9F1DB20A4A62EAF00A0C0D30000A1BF
:10028000C8D30000AED580A81F408D142000000008
:10029000000000003E5B4F5B3E003E6B4F6B3E003C
:1002A0001C3E7C3E1C00183C7E3C18001C577D57B1
:1002B0001C001C5E7F5E1C0000183C180000FFE75D
:1002C000C3E7FF00001824180000FFE7DBE7FF008A
:1002D00030483A060E00262979292600407F050578
:1002E0000700407F05253F005A3CE73C5A007F3E0F
:1002F0001C1C0800081C1C3E7F0014227F221400D6
:100300005F5F005F5F0006097F017F0000668995DF
:100310006A0060606060600094A2FFA2940008041C
:100320007E04080010207E20100008082A1C080007
:10033000081C2A0808001E10101010000C1E0C1EAD
:100340000C0030383E383000060E3E0E060000002D
:100350000000000000005F00000000070007000030
:10036000147F147F1400242A7F2A120023130864A8
:100370006200364956205000000807030000001CA8
:10038000224100000041221C00002A1C7F1C2A0080
:1003900008083E08080000807030000008080808BF
:1003A00008000000606000002010080402003E51B8
:1003B00049453E0000427F400000724949494600DD
:1003C0002141494D33001814127F1000274545453F
:1003D00039003C4A49493100412111090700364999
:1003E00049493600464949291E0000001400000012
:1003F00000403400000000081422410014141414BA
:1004000014000041221408000201590906003E416F
:100410005D594E007C1211127C007F49494936001B
:100420003E41414122007F4141413E007F494949CF
:1004300041007F09090901003E41415173007F08D5
:1004400008087F0000417F4100002040413F01003B
:100450007F08142241007F40404040007F021C0280
:100460007F007F0408107F003E4141413E007F092C
:10047000090906003E4151215E007F091929460005
:1004800026494949320003017F0103003F404040B3
:100490003F001F2040201F003F4038403F006314B2
:1004A000081463000304780403006159494D4300B4
:1004B000007F4141410002040810200000414141F9
:1004C0007F0004020102040040404040400000035D
:1004D000070800002054547840007F284444380026
:1004E000384444442800384444287F003854545445
:1004F000180000087E09020018A4A49C78007F0858
:100500000404780000447D4000002040403D00008D
:100510007F102844000000417F4000007C047804E4
:1005200078007C0804047800384444443800FC18FF
:100530002424180018242418FC007C080404080053
:1005400048545454240004043F4424003C404020B8
:100550007C001C2040201C003C4030403C004428D3
:10056000102844004C9090907C004464544C44000B
:100570000008364100000000770000000041360806
:1005800000000201020402003C2623263C00000079
:1005900000C0E0E0E0C08000007CFEFFFFFE7C00C9
:1005A00000C0E0F0F0E0C00000FEFEFEFEFEFE0037
:1005B00000000000FEFEFEFEFEFE0000FEFEFEFE4F
:1005C000FE0000FEFEFEFEFE1E1EFEFEFCF800000B
:1005D000707078F8FCFEFEFEFE00000000E0F8FE01
:1005E0007EFEFEFEFEFE0000000000008080808097
:1005F00000000000808080800000000000000000FB
:10060000000000000000000000000000E0F0F0F03A
:10061000E0ECEEF7F37020007C7C7C7E007E7E7E3A
:100620007F7F7F000080C0E07E5B4F5BFEC00000EC
:10063000C000DCD7DEDEDED7DC00C000000000003A
:10064000000000000000000000000000000080C06A
:10065000C0C3C7CF8F0F0F07E0F0F8F9F9F8F0E04B
:10066000E0C7CF8F0F07030000FFFFFFFFFFFF0072
:1006700000000000FFFFFFFFFFFF3E3EFFFFFFFF08
:10068000FF0000FFFFFFFFFF3C3C3F3F1F0F00004C
:10069000000000FFFFFFFFFFFF0080F8FFFFFF8764
:1006A00080FFFFFFFFFF808000000000FFFFFFFFD3
:1006B00000000000FDFDFDFD001CFFFFFFFF1C0012
:1006C000FCFEFEFE8E8EFEFEFC0000000F1F3F7F34
:1006D0007F7F7F7F3F1E0C001F1F1F3F003F3F3F5C
:1006E0007F7F7F00307B7F7830202030787F3B0019
:1006F00003000F7F0F0F0F7F0F00030000000000AB
:1007000000000000000000000000000000000307DF
:100710000F0F0F0F0703007FFFFFFFFFFFFF7F3F5C
:100720003F3F1F1F07000000007F7F7F7F7F7F7894
:10073000787878007F7F7F7F7F7F00007F7F7F7F5B
:100740007F00007F7F7F7F7F0000000000000000AF
:100750000000007F7F7F7F7F7F0007070707070775
:10076000077F7F7F7F7F0707000000007F7F7F7FFD
:10077000707070007F7F7F7F00003F7F7F7F700001
:100780003F7F7F7F70707C7C3C0000000000000099
:100790000000000000000000000000000000000059
:1007A0000000000000000000000000000000000049
:1007B0000000000000000000000000000000000039
:1007C0000000000000000000000000000000140312
:1007D0004C0048005000310034004C0069007400A7
:1007E0006500000022035400720069006E00690079
:1007F00074007900490072006F006E0077006F008E
:1008000072006B00730000000403090409023B003E
:10081000020100A0FA0904000001030101000921FE
:1008200011010001224400070581030800010904A9
:1008300001000103000000092111010001227B00D9
:1008400007058203200001120100020000000814C5
:10085000FF0C0001000102000105010902A1018550
:10086000020901A1000509190129081500250195B2
:1008700008750181020501093009311581257F952F
:10088000027508810609381581257F950175088153
:1008900006050C0A38021581257F95017508810629
:1008A000C0C005010904A1018507A10005010930A7
:1008B00009311581257F9502750881020509190105
:1008C0002901150025019501750181029507750122
:1008D0008101C0C005010906A101050719E029E74A
:1008E00015002501950875018102950175088101A2
:1008F0000507190029FF150026FF009506750881D8
:1009000000050819012905150025019505750191B6
:1009100002950175039101C011241FBECFEFDAE0EB
:10092000DEBFCDBF11E0A0E0B1E0E4EFFEE502C024
:1009300005900D92A437B107D9F724E0A4E7B1E000
:1009400001C01D92AD3BB207E1F70E9463140C9405
:10095000272F56CB0E949E1884E10C94781882E0D1
:100960000895FB0180349E4739F48581811521F07B
:100970000E949D150E946A1881E00895A9E0B0E0E8
:10098000E4ECF4E00C94CF2B60E080E00E94A1192D
:1009900085EF0E9491239F938F9386E391E09F932D
:1009A0008F939E012F5F3F4F3F932F930E94672CA1
:1009B00060E0CE0101960E947B1A61E080E00E9417
:1009C000A11984EF0E9491239F938F938DE391E06F
:1009D0009F938F93CE0101969F938F930E94672CD4
:1009E00060E0CE0101960E947B1A63E080E00E94E5
:1009F000A11960E08EEC90E00E94951A6091900140
:100A000070919101809192019091930179D10FB6EB
:100A1000F894DEBF0FBECDBF811541F08130A1F04B
:100A200060E08CEA90E00E94A61A0AC060E084ECC4
:100A300090E00E94951A44EB6FEF80E00E94B71699
:100A40002996E2E00C94EB2B60E086EB90E00E94AC
:100A5000951AF6CF93DF80E008950C94A51B0895B6
:100A60000C94A91A08958230D0F46430C0F4473051
:100A7000B0F4E42FF0E097E0699FE00DF11D112440
:100A800090E09195819591098C719927E80FF91F54
:100A9000EE0FFF1FEA52FF4F85919491089581E078
:100AA00090E00895E0CF089581E0089581E00895F1
:100AB000FBCF089581E0089581E0089552CF089515
:100AC00008950895FDCF089508950895A6E0B0E033
:100AD000ECE6F5E00C94CE2B49835A839E8330914B
:100AE0007B0189819A81311117C03E81311589F0CE
:100AF000211579F0F8D5182F682F89819A81D2D5E0
:100B000069817A81812F0E9468112696E3E00C9416
:100B1000EA2BD9D5182FF4CFE6D569817A81F3CFA6
:100B2000FC01262F408151816281738184819581EE
:100B3000CDCFCF93DF93D82FC92F61E0F1DF6D2F99
:100B40007C2FB4DF811539F061E08D2F9C2FE8DF19
:100B50006D2F7C2FADDFDF91CF9108950F931F9301
:100B6000CF93DF93D82FC92F60E0DADF8C016D2F90
:100B70007C2FA7DF6D2F7C2FC801A4DFDF91CF91E1
:100B80001F910F910895282F61E070E080E090E0C0
:100B900004C0660F771F881F991F2A95D2F73BC4A0
:100BA000CF93C82F61E070E080E090E00C2E04C08D
:100BB000660F771F881F991F0A94D2F70E94830F30
:100BC0008C2FE1DFCF91089581E0089581E00895B1
:100BD000FBCF0895CF93C82FC9D38C2FF7DF8C2F6D
:100BE000F7DF2FEF84E39CE0215080409040E1F755
:100BF00000C00000CF91089581E0ECDF0C941E232B
:100C000080E0E8DF0C942F230F931F93CF93DF93A3
:100C10008C0161E085DFEC01F801858181110E9482
:100C20002319B801CE0148DF811509F44DC0B80180
:100C3000CE0144DF811509F447C0B801CE010E94FE
:100C4000E120811509F440C0B801CE010E94541D75
:100C50008115D1F1B801CE010E942B1D8115A1F1A2
:100C6000B801CE010E947914811571F1B801CE014D
:100C70000E94CF1B811541F1B801CE010E9467127D
:100C8000811511F1F8018581811581F0CA35FCE7E4
:100C9000DF0721F170F4C130ECE7DE07E9F0C33083
:100CA000FCE7DF07B9F0C115DC4769F0C80102DFD6
:100CB0000CC0CB35ECE7DE07A1F0CC35DC47B1F753
:100CC0000E943C0FF3CF98DF80E0DF91CF911F911E
:100CD0000F9108950E947B0F93DFF6CF0E94430F80
:100CE000E5CF0E94450FE2CFEFDEB7DE62D00E9473
:100CF000F3170C94A51B5FD00E94A618E6DEB0CEB9
:100D00000F931F938B019C01C901AA27BB27009752
:100D1000A105B105C9F5D901C80120E0492F5A2F15
:100D20006B2F7727411551056105710519F0285F73
:100D3000DB01CA01AC01BD01F4E0769567955795DA
:100D40004795FA95D1F7411551056105710519F0DF
:100D50002C5FDB01CA01AC01BD01E2E0769567952D
:100D600057954795EA95D1F74115510561057105EC
:100D700019F02E5FDB01CA01B695A7959795879567
:100D8000820F1F910F91089520E1C8CF81E008954F
:100D90000895CF93DF93D82FF9DFC82F811511F075
:100DA0008D2FF6DF8C2FDF91CF9108950895F1CF2D
:100DB000089580E0FCCF0E942721F9CFCF930E94B5
:100DC0002721C82F809176018C1771F0C09376018E
:100DD0000E94EE22609377017093780180937901ED
:100DE00090937A018C2FE3DFCF910895ADE0B0E0CE
:100DF000ECEFF6E00C94CF2B488759876A877B8706
:100E00008C879D8791118AD71F8286E0FE013896D4
:100E1000DE01119601900D928A95E1F78D81811185
:100E20000CC029813A814B815C816D817E818F81EB
:100E3000C5D62D96E2E00C94EB2BCE01019679DE1F
:100E40008111EFCFF6CFFC018481813019F48081CC
:100E5000918182C40895611521F00E94B61E0C9400
:100E60006F1F0E94F71EFBCFCF93C82F811589F00B
:100E70008CEF8C0F813A78F48C2F0E94862181159B
:100E800021F08C2F0E94C821B3D78C2F0E94C22141
:100E9000AFD7CF91089580E28C0F883040F4C770AF
:100EA00081E001C0880FCA95EAF719D7F1CF83E333
:100EB0008C0F833170F761E08C2FCDDFEACF811585
:100EC000D1F09CEF980F913A18F40E94C82190C776
:100ED00090E2980F983048F4877091E001C0990F24
:100EE0008A95EAF7892F01D7F2CF93E3980F9331D0
:100EF00010F460E0B0CF08950F931F93CF93C82FE5
:100F00008B01B2DF0115110531F48C2FD8DFCF91A1
:100F10001F910F9108958FE99FE00197F1F700C0AD
:100F2000000001501109EECF60E570E0893311F047
:100F300060E070E0E1CF811511F0D1D659C7089576
:100F4000811511F0D2D654C70895A0E0B0E0EBEAC5
:100F5000F7E00C94C92B6C01D62FC72FFC0105813B
:100F6000F680F2948FE0F822AFD6E82E8115E9F0F2
:100F7000E02E0115D1F08C2F807F803461F080E26B
:100F80008D0F883088F18C2F807E803221F4D23012
:100F900058F1F11449F180915D0282FF25C082E091
:100FA00044D792D691E0E82EE9268C2F82958F7057
:100FB000883009F4B1C060F58430C0F41C2F1F7074
:100FC0008230B0F1C07FC03211F01295107FD11580
:100FD00009F456C0D13009F47DC0011509F488C068
:100FE000F11409F465C035C0E12CDFCF853009F478
:100FF0008FC0E11409F4CEC063D680FDCBC0F601EA
:10100000158258D662D2C6018AD154D67CD2C2C0CB
:10101000893009F40EC18A5F8F70823050F7D23F59
:1010200009F014C18C2F8F7101110EC14ED2AFC0C7
:10103000C03110F01295107F011581F0111549F0A3
:1010400080E28D0F883010F0D11105C0812F47D676
:10105000CFD68D2F21C0812F53D6FACF8D2F2FDFE2
:10106000111509F4C6CF80E28D0F883010F0D11130
:1010700003C0812F3AD602C0812F48D6B9D6B9CF46
:1010800080915D0282FD10C0011541F0111519F02B
:10109000812F25D6ADD680E0E7DEABCF80E00FDF35
:1010A000111509F4A6CFE5CF011559F0F11003C0D1
:1010B000812F41DF9ECFF1E0FF129BCF812F43D6DE
:1010C00098CFF11096CF812F3BDF812F47D6812F0C
:1010D0002BD68FCF011529F026E0F21608F089CF24
:1010E000E7CF85E0F81608F084CF812F29DF81CF84
:1010F000F114D9F3D93349F49FEFE7EEF3E09150BF
:10110000E040F040E1F700C000008D2FD8DE71CF45
:10111000602F8D2FA0DE6DCF8C2F8370811145C085
:10112000011135C04D2F429546954770440F440F2D
:101130000D2F0F7010E020E030E0042E04C0000FEF
:10114000111F221F331F0A94D2F760E070E0CB0119
:10115000D4FF0FC06FE070E080E090E004C0660F45
:10116000771F881F991F4A95D2F7609570958095D3
:101170009095C695C695C370602B712B822B932BCF
:10118000C23079F0C33079F0C13049F058D10E94B3
:1011900027210DDECDB7DEB7E8E00C94E52B3DD17D
:1011A000F6CF5FD1F4CF37D1F2CF0115C1F1C0FF37
:1011B000EECF4D2F429546954770440F440F0D2FAB
:1011C0000F7010E020E030E0042E04C0000F111F6B
:1011D000221F331F0A94D2F760E070E0CB01D4FFE6
:1011E0000FC06FE070E080E090E004C0660F771FF2
:1011F000881F991F4A95D2F76095709580959095B4
:10120000C695C695C370602B712B822B932BC23071
:1012100061F0C33061F0C13031F0C8D1B8CF823055
:1012200008F4B5CFC6CFB0D1B2CFD2D1B0CF31D183
:10123000AECFCF70011529F08C2F47D18D2F7BDEDB
:10124000A6CF8D2F7DDE8C2F5ED1A1CF60F4D03F55
:10125000B9F0D13F81F0011509F43AC0F114A9F1B8
:101260008D2F02DE94CFD33FC1F0D43FA1F7809100
:101270005D0282FD1AC08C2F8F71011529F3D6CE25
:10128000011541F025E0F21608F081CF8C2F8F7107
:101290005DD17DCF86E0F816F7CF011521F08C2FB8
:1012A0008F7106D174CF00D172CF011529F063E0A0
:1012B0008C2F8F71A2D56BCF81E0B7D592E0F91654
:1012C00008F465CF82E0B1D562CF8C2F8F71AECE9E
:1012D000F11471F0D93349F4EFEFF7EE23E0E15068
:1012E000F0402040E1F700C000008D2FE8DD4FCF37
:1012F0008C2F8F71A9CF0F931F93CF93DF93EC01A6
:10130000688179818D8133D28C0174D183D0B80109
:10131000CE011BDEDF91CF911F910F910895CF93E6
:10132000DF93EC018C81811581F0CE016DDC8111A0
:101330000FC0CAD4811549F08D81811531F080919B
:101340005D0282FF02C082E070D5DF91CF910895E7
:10135000CE01D1DFCE0102DCF8CFE0D449D50E9426
:10136000891F0C946F1F0E94CE21F7CFC6D4FBCFEC
:10137000282F92959F70963099F060F4925F9F703D
:10138000923030F4203FB1F038F481E0283E38F05C
:1013900080E008959A5FF3CF81E0243FC9F7089574
:1013A00091E0813F09F090E081E0283E08F080E084
:1013B000892B089581E00895FC018481811521F035
:1013C00080819181C9D1D4CF80E00895A6E0B0E0BA
:1013D000ECEEF9E00C94CF2B2696E2E00C94EB2B8C
:1013E000A7E0B0E0E6EFF9E00C94CF2B2796E2E01F
:1013F0000C94EB2B0895FECF0895FDCF0895FADFEE
:10140000FCDF609394017093950180939601909313
:10141000970108950895F3CF08950F931F930091B6
:101420009401109195012091960130919701602BC4
:10143000712B822B932BE3DF1F910F9108950F9354
:101440001F93009194011091950120919601309184
:1014500097016023712382239323D1DF1F910F9182
:1014600008950F931F93009194011091950120917D
:101470009601309197016027712782279327BFDF5C
:101480001F910F910895B6CF0895FDCF0895B2CF63
:101490000895FDDFFADF60939001709391018093CE
:1014A000920190939301089560E070E0CB01F1CF39
:1014B000282F61E070E080E090E004C0660F771FA5
:1014C000881F991F2A95D2F7E4CF0F931F93282FD7
:1014D00061E070E080E090E004C0660F771F881F35
:1014E000991F2A95D2F700919001109191012091B6
:1014F000920130919301602B712B822B932BC9DFCA
:101500001F910F9108950F931F9341E050E060E009
:1015100070E004C0440F551F661F771F8A95D2F7ED
:10152000CB01BA01609570958095909500919001DE
:1015300010919101209192013091930160237123C8
:1015400082239323A6DF1F910F9108950F931F937A
:10155000282F61E070E080E090E004C0660F771F04
:10156000881F991F2A95D2F700919001109191013F
:101570002091920130919301602771278227932750
:1015800088DF1F910F9108950F931F930091900191
:10159000109191012091920130919301602B712B58
:1015A000822B932B76DF1F910F9108950F931F933A
:1015B000009190011091910120919201309193013D
:1015C000602371238223932364DF1F910F91089579
:1015D0000F931F930091900110919101209192011E
:1015E00030919301602771278227932752DF1F9143
:1015F0000F91089508959B01677091E001C0990FC4
:101600006A95EAF763E0369527956A95E1F7E5E094
:10161000E29FB001E39F700D1124FA01E60FF71F5E
:1016200040E050E0682F70E08191DF019B01042EC3
:1016300002C0369527950A94E2F721702195282754
:10164000292328272E934F5F5F4F4530510561F7BF
:1016500008959C01982F977083E0369527958A9579
:10166000E1F785E0829FF001839FF00D1124E60FE2
:10167000F71F40E050E080E0219130E0092E02C0E9
:10168000369527950A94E2F721703327042E01C07E
:10169000220F0A94EAF7822B4F5F5F4F45305105C6
:1016A00059F70895282F862F943060F4273050F48E
:1016B000622F70E027E0929F600D711D11244CE7AE
:1016C00051E099CF0895292F943058F4873048F489
:1016D00090E06CE771E037E0239F800D911D1124AD
:1016E000B8CF80E00895A0E0B0E0E9E7FBE00C941B
:1016F000C82B8C01C0909001D0909101E090920194
:10170000F09093018091940190919501A0919601A0
:10171000B0919701C82AD92AEA2AFB2ACFE1D0E062
:10172000D701C6010C2E04C0B695A795979587954D
:101730000A94D2F780FD09C0219790F7B12C8B2D28
:10174000CDB7DEB7E9E00C94E42BBC2EB8018C2FAA
:10175000CAD5019789F3F3CFCF93DF93D82FC92F41
:10176000C2DF6D2F7C2FBFD5DF91CF9108951F93DE
:10177000CF93DF93162FD72F90917B01911539F0DE
:10178000862F972FE9DFDF91CF911F910895811563
:1017900069F0862F972FA7DFC82F682F812F9D2FE5
:1017A00081DF612F7D2F8C2F9ED5EDCF862F972F38
:1017B0008ADFC82FF6CF0F931F93CF93E091980144
:1017C000C7E0809199018E1304C0CF911F910F91B2
:1017D00008950E2F10E0CE9FF0011124E656FE4F23
:1017E0002081318142815381648175818681F8DD58
:1017F000F8013196E770E5CF2091D2013091D30105
:101800004091D4015091D5016091D6017091D701DA
:101810008091D801E5CD8091D801803178F4809114
:10182000D701811559F0E0919801209199013091EB
:10183000D3014091D20157E02E1301C008956E2FBD
:1018400070E05E9FF0011124DF01A656BE4F149692
:101850008C911497811549F111968C9111978313EE
:1018600024C08C91841321C015968C9115978111F9
:101870001CC012968D919C91A091D401B091D5017C
:101880008A1B9B0B883C910580F48091D8018F7056
:1018900080618093D801E056FE4F80818F70806117
:1018A000808382ED91E03BDD86CFFB013196E770CE
:1018B000C3CFE09198019091990127E0E91302C00C
:1018C00080E00895AE2FB0E02E9FF0011124E6567F
:1018D000FE4F3181361306C03081381303C0358185
:1018E000341304C0FD013196E770E8CF81E008951C
:1018F0008F929F92AF92BF92DF92EF92FF920F93DF
:101900001F93CF93DF93CDB7DEB72D970FB6F89423
:10191000DEBF0FBECDBF8C0186E0F801DE01189658
:1019200001900D928A95E1F7F801F580848192ED9E
:10193000892E91E0992E9091D601911117C08115B1
:1019400009F4EFC0F11409F42EC1C80135DD811589
:1019500009F429C187E0F801D40101900D928A951C
:10196000E1F7C40170DA57DF47DFDBC0E080A28017
:10197000B380D090D7012091D4013091D501A50139
:10198000421B530BD11409F4CFC0483C510508F059
:101990009EC0811509F4C5C09091D30191808091BA
:1019A000D801803108F065C0991226C09091D2010B
:1019B0009E1122C0F11057C08F7080618093D801B2
:1019C0001BDF82ED91E0ABDC8091D801F8018683CA
:1019D000F12C8F2D2D960FB6F894DEBF0FBECDBF24
:1019E000DF91CF911F910F91FF90EF90DF90BF900B
:1019F000AF909F908F900895F11035C040E0692D11
:101A00008E2D57DF40E0692D8E2D53DFF82E81118A
:101A1000DFCF88859985A0DE292F22952F709034FD
:101A200050F49F70223078F0911591F0F801968172
:101A3000903170F4CECF2A5F2F70223070F0C80141
:101A40006EDCFD2CC6CF911519F0811509F4C1CFBC
:101A5000805E883008F4BDCFF2CF803F08F4B9CF64
:101A6000815F8330F7CF8091D80181608093D80166
:101A7000AFCF991207C09091D2019E1103C0F1140B
:101A800009F473C0C80198DC811509F48CC0F11405
:101A900009F489C08091D801803280F02091D20170
:101AA0003091D3013A832983BC82AB829091D601D5
:101AB0009D831E828F83CE01019631DC87E0F80181
:101AC000A2EDB1E001900D928A95E1F74CCF909193
:101AD000D801903188F4488559856A857B858C8545
:101AE0009D8574DC82ED91E01ADC87E0F4011192AF
:101AF0008A95E9F781DE6CCF811599F02091D301A9
:101B000081812813BFCF8091D2018E11BBCFF110FC
:101B1000B9CF9683C80103DC87E0F40111928A955E
:101B2000E9F7FF24F39455CF483C510508F03EC037
:101B30008115B9F3F114B9F19091D3018181981312
:101B400029C08091D2018E1125C08091D80180FDDD
:101B500018C08031B0F08683807F803F39F0868165
:101B6000982F907F905F8F70892B8683C801D7DB79
:101B700087E0F801A2EDB1E001900D928A95E1F7BE
:101B8000F3CE87E0F801A2EDB1E001900D928A95C5
:101B9000E1F7C7CFC80110DC811190CF8091D80147
:101BA00081608093D801C801BADBBBCF48855985D5
:101BB0006A857B858C859D8509DC97CFAEE0B0E09A
:101BC000E4EEFDE00C94CE2B288739874A875B87AB
:101BD0006C877D878E87CE0108968ADE6C8581159D
:101BE000A1F0611539F0288539854A855B857D85A9
:101BF0008E85F6DB17E08091980190919901891309
:101C000038C02E96E3E00C94EA2B87E0FE0138966C
:101C1000DE01119601900D928A95E1F7611551F35D
:101C2000A09199018A2F90E00196877099272091C1
:101C300098012817190681F097E09A9FD001112486
:101C4000A656BE4FFE01319601900D929A95E1F78E
:101C500080939901B0DDCECF89DB1092990110926B
:101C6000980187E0E2EDF1E0DF011D928A95E9F746
:101C7000C1CF189FC001112486569E4F39DE8115B1
:101C800009F4BFCFE09198011E9FF0011124E656A0
:101C9000FE4F20813181428153816481758186812B
:101CA0009FDB8091980190E001968770992780933F
:101CB0009801A1CF8091E10186958695869508953A
:101CC0008091E101877008959091E101977081E022
:101CD000911101C080E008958091ED0108959091E7
:101CE000ED01982B9093ED010895982F9095809198
:101CF000ED0189238093ED0108951092ED0108957F
:101D00009091EC01982B9093EC010895982F909569
:101D10008091EC0189238093EC0108951092EC01ED
:101D200008950895FECF08959091E201292F282368
:101D3000211529F0809589238093E201F3CF08953E
:101D40000895FECF08959091E301292F28232817A5
:101D500021F0982B9093E301F4CF08959091E30143
:101D6000292F2823211529F0809589238093E301C9
:101D7000E8CF08958091E301811521F01092E301ED
:101D800080E0DFCF08950F931F93CF93DF930091EF
:101D90000E0110910F01C091ED018091EC01C82B53
:101DA0008091E301811529F0C82B0E9472218111D5
:101DB000E1DFF801C083C0910E01D0910F0148E02E
:101DC00050E069ED71E0CE010E94512C892B59F051
:101DD00088E0FE01A9EDB1E001900D928A95E1F74E
:101DE000CE010E943621DF91CF911F910F9108956E
:101DF000CACF08950895FECF0895962F20915D02D1
:101E000022FF0EC0682F660F660F660F692B609366
:101E1000E1015BDB8091E101869586958695EBCFAC
:101E200054CB1092E10180E0E6CF9091E1018095E2
:101E300089238093E101282F277021110BC0891776
:101E400049F090915D0292FF05C086958695869532
:101E50005ADBE7CF089590915D0292FB222720F98B
:101E6000281749F080FB92F990935D028CE592E08F
:101E70004ED082E0DACF089580915D02002482FF87
:101E80000394802DE8CF81E0E6CF80E0E4CF60E0EE
:101E900070E0CB01DEC360E070E0CB01D4D3F7CFBC
:101EA000A3E0B0E0E6E5FFE00C94CF2B22D32DD3E6
:101EB0001B82CE01039640D381E090E0A0E0B0E029
:101EC0008093940190939501A0939601B09397010C
:101ED00061E070E080E090E03ED3198284E18A8383
:101EE000CE01019648D329D6D6DF2396E2E00C94A2
:101EF000EB2BD6CF08950FC30895FCC2089511C3EC
:101F0000089520C3089527C3089529C3089533C3AE
:101F1000089538C3089577C30895A1C30895A6E02E
:101F2000B0E0E5E9FFE00C94CD2B0E94E2228C01A9
:101F30008091EE019091EF018017910779F019825D
:101F40001A820E94E222BC0149815A8180E090E01D
:101F50000E94F6061093EF010093EE012696E4E04E
:101F60000C94E92B0E94EE226093F8017093F90122
:101F70008093FA019093FB016093F4017093F50153
:101F80008093F6019093F701089508950895FDCF89
:101F900008950895FEDFFBCF0C94AA0408950895D8
:101FA000FEDFFACF85E692E19FD4F0DFF3CF81E048
:101FB000089581E00895FBCF089508950895089548
:101FC000FCDFFCDFFCCF99DF811101C092DF8CEFD9
:101FD00091E095DF8CE592E098DF93DF1CDA609169
:101FE00090017091910180919201909193014DCA5D
:101FF0000E94D922D7D3E7DF0E94D60680E00E9454
:102000006B190E947A180E94DC1CCACFA6E0B0E0CF
:10201000ECE0F0E10C94C62BCCDF81110FC07FDF28
:102020000E9424190E94C41B0E94AA1F0E94DE1C49
:102030000E94DE062696EBE00C94E22BC5D380EFDF
:10204000A82E81E0B82E750110E0F70101917F0103
:10205000812F10D31F5F143009F43EC00817A9F375
:102060008091FC0181FD0CD3A6DFC82E00E09924ED
:102070009394802FFFD2182FF50191915F0189175A
:1020800031F1D82ED926F12CEE24E3948D2D8E211A
:102090008115B1F0C114A1F0F9820A830E94E222F5
:1020A0009C838B839D8291E0812F8E21811101C0C1
:1020B00090E049815A816B817C818D810E94F60676
:1020C000F394EE0CF7E0FF12E1CFF50112930F5FEE
:1020D000043079F647DFA4CF0813C2CFA0CF1F93F7
:1020E000CF93DF9302D1EC01811522E5920708F02E
:1020F0004BC0811540E5940708F0C3C0883E9105A8
:10210000E0F4803E910560F4853A910570F40497FF
:1021100038F481E0219709F080E0C82F50E0D52FF6
:10212000CE01DF91CF911F9108958D5C9109D0650B
:102130004397B0F3C0E0D0E0F3CFC11580E4D807F7
:10214000D0F4C11590E2D90708F0B1C0CE019A953C
:1021500081159F4178F78D2F69D1182FCE019927CE
:10216000C4D0212F30E0322F2227E901CC27DF71A4
:10217000C82BD92BD5CFCE019927B7D0CC27DF706C
:10218000C82BD92BD06ACCCF803842E59407C8F54C
:10219000803652E5950708F056C0C03482E5D8076E
:1021A000D0F4C03292E5D90708F046C08C2F86954E
:1021B000869520E2829FC0011124C37021E030E0A7
:1021C000A90102C0440F551FCA95E2F7EA01C82BC6
:1021D000D92BDD68A5CF8C2F86958695877050E228
:1021E000859FC0011124C37021E030E0A90102C025
:1021F000440F551FCA95E2F7EA01C82BD92BDC68BA
:102200008FCF803C52E5950758F48F71C03AD24584
:1022100078F590E0982F8827EC01C46FD06A80CFC2
:10222000805C9245809708F085CFDC2FCC27CC27A7
:10223000DF71C06FD06A74CFCF71D0E0DC2FCC27B4
:10224000C16FD06A6DCF86958695877020E2829F98
:10225000C0011124C37021E030E0A90102C0440F85
:10226000551FCA95E2F7EA01C82BD92BDA6858CF77
:10227000DDD0C82FD0E0DC2FCC27CC27DF71D06297
:102280004FCF8F71D3D053E0CC0FDD1F5A95E1F7BC
:10229000CC27DF70282F30E084FF05C050E1859FF8
:1022A000900111243327C22BD32BD06939CF8D2F26
:1022B0008F71BCD0182FCE01992717D0212F30E075
:1022C000322F222722273F71282B392BE901D7CF24
:1022D000462F672F743020F4473010F40C945205C9
:1022E00080E090E00895F4DFFACE9C01803E9105F5
:1022F00009F448C0D8F48133910509F47DC048F44D
:102300008932910509F46DC08A9709F47CC0C9012E
:1023100008958933910551F18238910539F1C597B6
:10232000B1F780915C0285FFF2CF29C0843E910510
:1023300009F447C048F4823E910599F1833E910526
:10234000A9F121EE30E0E3CF863E910509F444C0C7
:10235000873E9105E1F680915C0283FD61C090911A
:102360005D0291FF2BC024EE30E0D1CF80915C0262
:102370008370811152C080915D0283FFC8CF29E232
:1023800030E0C5CF80915C0280FD33C090915D024A
:1023900090FFBDCF23EE30E084FFB9CF20E030E0E6
:1023A000B6CF80915C0282FDF5CFB1CF80915C0207
:1023B00082FD30C090915D0290FD2FC084FFA7CFB9
:1023C000EDCF80915D0281FFA2CF80915C0227EE6C
:1023D00030E084FDE3CF9BCF80915C0283FDF7CF9B
:1023E00096CF80915C0285FD1EC080915D0283FFC7
:1023F0008ECF29E330E08BCF80915C0286FF87CFC0
:102400002AE230E084CF80915C0286FF80CF21E316
:1024100030E07DCF22EE30E07ACF20EE30E077CF93
:1024200026EE30E074CF25E330E071CF90915C026E
:1024300092FF10C041E0282F2471243009F040E0C1
:1024400031E0282F2871283009F030E0431711F0CF
:102450002CE0822793FF10C041E0282F2471243103
:1024600009F040E031E0282F2871283109F030E0F0
:10247000431711F02CE0822730915D0230FF10C02D
:1024800051E0282F2171213009F050E041E0282F40
:102490002871283009F040E0541711F029E0822714
:1024A00031FF10C041E0282F2171213109F040E0B7
:1024B00031E0282F2871283109F030E0431711F05E
:1024C00029E0822794FD877E089580E00895CF93C8
:1024D0009C01FB01805E9245C1E0809738F4C58184
:1024E000C11104C0822F8F710E94D0058C2FCF9113
:1024F0000895089580E090E00E94F42E9C0181E010
:10250000233E3E4F09F080E0089563EE7EEF80E0C9
:1025100090E00C94132F6FEF7FEF80E090E00C942D
:10252000132FCF93DF93EC0182E090E00E94E72E1F
:102530008883DF91CF910895FC01608182E090E073
:102540000C94F92E83E090E00E94E72E682F70E053
:1025500080E090E0089583E090E00C94F92ECF9312
:10256000DF93EC0184E090E00E94F42E998388834D
:10257000DF91CF910895FC016081718184E090E04A
:102580000C94132F8F929F92AF92BF92CF92DF92B3
:10259000EF92FF920F93CF93DF93EC0188E090E0EE
:1025A0000E94EF2E4B015C0168839982AA82BB8254
:1025B0001C821D821E821F8283E290E00E94E72E11
:1025C000282F30E040E050E060E070E080E090E0F4
:1025D00000E20E94F62B282939294A295B29288301
:1025E00039834A835B836C837D838E839F83DF91F2
:1025F000CF910F91FF90EF90DF90CF90BF90AF9071
:102600009F908F9008950F93CF93DF93EC014881B3
:1026100059816A817B8188E090E00E940B2F28819C
:1026200039814A815B816C817D818E819F8100E24D
:102630000E94112C622F83E290E00E94F92EDF911C
:10264000CF910F910895AB01BC018FE090E00C9405
:102650000B2FAB01BC0183E190E00C940B2F682F92
:102660008EE090E00C94F92E0895FECF0895089521
:10267000FECF0895E82FF0E0EE59FD4F80810895D8
:10268000089580EA8A95F1F7089500C00895F9CF7A
:102690000895F894E82FE295EF70F0E041A18F7073
:1026A00021E030E0B90102C0660F771F8A95E2F79A
:1026B000CB01962F9095942391A392A1892B82A36D
:1026C00078940895CF93DF9386E6E3DF87E9E1DF2F
:1026D00086ECDFDF84E3DDDFC4E4D1E089918F3F66
:1026E00009F0D7DF81E0CB34D807C1F7DF91CF9174
:1026F0000895A0E0B0E0EFE7F3E10C94C92BEC0102
:10270000D62E062F10E0C801855B9E4F7C01FC0190
:1027100080818F3F09F441C0F894E82FE295EF7073
:10272000F0E091A18F7021E030E001C0220F8A9586
:10273000EAF7892F822B81A382A12095282322A347
:102740007894A3DFA4E4B1E091E0C12C8D918F3F98
:1027500079F0E82FE295EF70E05EF0E0208130E064
:102760008F7002C0359527958A95E2F7892F20FD55
:1027700080E0C82A990FF1E0AB34BF0739F7F701C1
:1027800080818F3F09F085DF61E0C11001C060E00A
:102790008D2D7DDFC00FD11FC882CDB7DEB7E8E039
:1027A0000C94E52B8FDF84E0E2E6F2E0DF01982F66
:1027B0001D929A95E9F7EEE5F2E0DF011D928A9508
:1027C000E9F784E03ED051CFA4E0B0E0EAEEF3E1D7
:1027D0000C94CC2BFE01319684E0DF011D928A958A
:1027E000E9F710E0FE2E0F2F612F8F2D902F81DF44
:1027F0001F5F1430C9F744E050E06F2D702F8EE555
:1028000092E00E94512C21E0892B71F420E044E0F9
:1028100062E672E08EE592E015D0182F29DF812F55
:102820002496E5E00C94E82B89819A81AB81BC81E8
:1028300080935E0290935F02A0936002B093610266
:10284000E6CF0895A0E0B0E0E8E2F4E10C94C92BF3
:10285000D82EE92EF62ED72F042FC22F211579F06E
:1028600081E08093FF010E94E2229093FE01809319
:10287000FD0180E0CDB7DEB7E8E00C94E52BC09019
:10288000FF01C114B1F38091FD019091FE010E94FE
:102890007322059770F310E0A8016D2D7E2D8F2D0A
:1028A0009D2F0E94512C892B41F0A8016D2D7E2D6A
:1028B0008F2D9D2F0E945E2CCC2D1092FF018C2F0E
:1028C000D9CFA4CB08950E947C220E9413266ADBF4
:1028D0000E942B268DDB0E9434260E943726F1DFD2
:1028E0000E944D266DDBF9CF9093750180937401A2
:1028F0000895CF93DF93EC01FB018581811104C022
:1029000081E0DF91CF910895E7D98272FE01E05214
:10291000F847EB30F105A0F7E75DF04D0C94A92BDB
:10292000E1D380E0EECF811521F0D0D3FACF81152D
:10293000E1F3C1D3F6CF811521F0E3D1F2CF8115B8
:10294000E1F3D5D1EECF811521F0F5D1EACF811594
:10295000E1F3E4D1E6CF811521F007D2E2CF811572
:10296000E1F3F6D1DECF811521F00FD1DACF811559
:10297000E1F3FCD0D6CFCF92DF92EF92FF921F937C
:10298000CF93DF93172FE82F711111C0411521F05C
:10299000F0E0E859FE4FE4916E2F7E2F8E2FDF91ED
:1029A000CF911F91FF90EF90DF90CF900895C62EAA
:1029B000D12CE72EF12C411521F0F0E0E859FE4F23
:1029C000E49186E0689F90011124CFEFD0E0C90127
:1029D000BE010E94442BAB01C601880F991FF5E58B
:1029E000F49FB001F59F700D1124861B970B682F83
:1029F000660F680F6E01CE18DF08EC9DD001ED9DCB
:102A0000B00D11249B2F169F60011124CD2CDD24C5
:102A10007E01EC18FD086701EC9D7001ED9DF00C46
:102A200011246E01C61AD108B601169F6001179FC6
:102A3000D00C1124CD2CDD24CC19DD09EC9F6001D4
:102A4000ED9FD00C11247D2D43305105C1F02C3F5A
:102A5000334050F441305105B1F04230510561F43A
:102A60007E2FEB2F9D2D08C04430510579F0463064
:102A7000510511F07B2F9F2D6E2FE92F8FCF7F2DCA
:102A80009E2FEB2FF9CF7E2FEF2DF6CF9E2FED2D22
:102A90007B2FF2CF41E06FCF0895FCCF0895E82F50
:102AA000F0E0EC5AFE4F849190911201891B089539
:102AB000FF920F931F93CF93DF93182F062FF42EBF
:102AC000822FC0916601D0916701E9DF2F2D402F41
:102AD000612F90E0FE010995CDB7DEB7E5E00C94DB
:102AE000E82BCF93DF93982F762F842FD22FC32FED
:102AF000692FD3DF962F672F482F2D2F3C2F892F3B
:102B0000D7DFDF91CF910895493708F048E7E9CF43
:102B100080916602843060F48370846080936602E2
:102B200080916902893718F088E7809369020895D7
:102B30008435B0F383708065F1CFE6E6F2E085E09E
:102B4000808311828FEF828388E783831482CF0191
:102B5000E2C990916A02933018F49F5F90936A02E1
:102B6000811519F086E692E0D6C9089581E0F1CF8B
:102B700090916A02911519F0915090936A02811513
:102B800019F086E692E0C7C9089581E0F1CF0F936E
:102B90001F93CF938091660280FF09C0E0916A0184
:102BA000F0916B010995CF911F910F910895C091FC
:102BB0001401009166011091670180911501C817F9
:102BC00068F78C2F6CDF20E040E060E090E0F801D7
:102BD0000995CF5FF2CFEF92FF920F931F93CF93A0
:102BE000DF93D82F162F042F8091660280FF0BC031
:102BF000C0911401E0906601F09067018091150189
:102C0000C81730F0C4DFCDB7DEB7E6E00C94E72B91
:102C10008C2F45DF202F412F6D2F90E0F701099574
:102C2000CF5FECCF982F762F842F2091660220FF64
:102C30000AC0493708F088E7692F2FDF962F672FE2
:102C4000482F892FC8CF0895CF93DF93EC01E6E694
:102C5000F2E0438162818C81E5DF8C818F5F8C8320
:102C6000DF91CF9108950F931F93CF93DF93D82FC8
:102C7000162FC42F022F8091660280FF23C0E82FF9
:102C8000E695E695F0E0E15BFE4F908190930B02B4
:102C90008C7F8430E1F4842F493708F088E76D2F6A
:102CA000712FFBDE962F672F482F892F94DFD0934B
:102CB000670210936802C0936902011519F086E655
:102CC00092E029D9DF91CF911F910F910895923011
:102CD00019F4D0916702EBCF953049F7FACF282F3E
:102CE000E6E6F2E0818143816281885FBCCF81E0CA
:102CF000F6CF282FE6E6F2E0818143816281885099
:102D0000B2CF81E0F6CF282FE6E6F2E0628138E02C
:102D1000630F08F46FEF43818181A5CF81E0F3CF8A
:102D2000282FE6E6F2E0628138E0631B08F460E0F9
:102D30004381818198CF81E0F3CF282FE6E6F2E04E
:102D4000438138E0430F08F44FEF628181818BCFDC
:102D500081E0F3CF282FE6E6F2E0438138E0431B21
:102D600008F440E0628181817ECF81E0F3CF21E0F1
:102D70007ACF20E078CFCF93DF93EC0120916902E6
:102D80009C81892F817090FD822F692F627091FD47
:102D9000622F492F447092FD422F1DDF8C8190E0FD
:102DA0000196877099278C83DF91CF910895EF92D8
:102DB000FF921F93CF93DF93EC0110E0EE24EA948F
:102DC000F12C60911601161768F0E1DE8C819A8172
:102DD00090FF1DC08F5F8C83DF91CF911F91FF907B
:102DE000EF90089520911401210F3327331F70E0D5
:102DF000C7010E94582B962F8C81409169026091E7
:102E00006802199F800D11247FDE1F5FDACF815089
:102E1000E2CFA0E0B0E0EFE0F7E10C94C82BFC01BA
:102E20008281D1E080FDDFEFC0E0C0906601D090EC
:102E3000670180911601C81790F0A9DE8091010208
:102E4000D13009F049C0811102C080911601815032
:102E500080930102CDB7DEB7E9E00C94E42B8091BA
:102E600014018C0F1CDE20E040E060E090E0F601F1
:102E7000099504E010E0B12CEC2EF12C80910102B8
:102E80008B0D85311CF164E10E94372B892F082EB0
:102E9000001C00088E150F0499F48091140197010D
:102EA000280F311D409169020403A001112455959A
:102EB000479555954795609168028091670224DE99
:102EC000BD0E01501040D1F6CF5FB3CF87FFDFCFEB
:102ED00090911601890FDBCF90E001966091160169
:102EE00070E00E94582BB4CF0F931F93CF93C091E3
:102EF0001401009166011091670180911501C817B6
:102F000048F1C0E0009166011091670160911601DF
:102F1000C61750F13CDE8091100190910002980F8D
:102F20009093000220911101280F20931101121695
:102F300054F4209116012150330B092E001C000877
:102F4000921703061CF0819580931001CF911F9179
:102F50000F9108958C2FA3DD20E040E060E090E029
:102F6000F8010995CF5FC9CFEC2FF0E070E0CF01F9
:102F70000E94582B20911401820F90910002092E7B
:102F8000001C0008E917F0059CF090911101092E32
:102F9000001C00089E170F065CF0282F30E04091BF
:102FA00069026091680280916702AEDDCF5FAECFAB
:102FB00076DD20E040E060E090E0F8010995F6CF92
:102FC000E6E6F2E080818E7F8083CF010E948B0F46
:102FD00010920C02DCCDE6E6F2E080818E7F8083E9
:102FE00010920C02D4CD10920C0280910902811132
:102FF00009C081E08093090280916602817080930C
:103000000802E9CF0895609166026695669570E0C2
:1030100041E050E087E191E00E94442C892B19F4B3
:1030200081E080930C020E94E2229093030280933D
:10303000020208959091660290FF2CC0811559F10B
:10304000853158F58F73880F880F909166029370C1
:10305000892B80936602611521F086E692E00E943A
:103060008B0F609166026695669570E041E050E0D6
:1030700087E191E00E94442C892B89F010920C0288
:1030800081E080930502409169026091680280911D
:1030900067026FCE089581E0D6CF84E1D4CFB3DF4D
:1030A000EFCF682F80916602869586958F5F853178
:1030B00008F081E0BFCF81E0F4CF682F80916602F5
:1030C000869586958A9509F484E1B4CF81E0F5CFA1
:1030D00061E0B0CFE6E6F2E0808181608083869592
:1030E0008695F6CF8091660280FF01C069CFF2CF4E
:1030F00060E0A0CF80910A0281111FC086E692E0B5
:103100000E94890F80916602843028F416DD86E6DD
:1031100092E00E94890FFCDC10920C02E0916401A5
:10312000F091650109958091660280FF03C0869544
:103130008695DEDF81E080930A020895E6E6F2E0FC
:1031400080818160808386958695D2CF1092090216
:10315000809108028111F2DF56CF0F931F93CF9316
:10316000DF9380910C028115C1F180910B02E091F7
:103170006602E695E695E81BE0930402823091F53D
:10318000F0E0EF5AFE4FE491CE2FD0E004E216E1DA
:1031900080910502811561F0109205020E94E222E1
:1031A000909303028093020210920702109206028B
:1031B0000E94E2222091020230910302821B930BB3
:1031C0008F3F9F4750F42C0F3D1F309303022093F5
:1031D000020282E092E0F8010995DF91CF911F9100
:1031E0000F910895853051F4E695F0E0E25BFE4FD3
:1031F000E491CE2FD0E007ED16E1CACF8B3051F429
:10320000E695F0E0E55BFE4FE491CE2FD0E009E0DB
:1032100017E1BECF813149F4F0E0E85BFE4FE49165
:10322000CE2FD0E004E717E1B3CFC0EDD7E00CE438
:1032300015E1843109F0ACCFE6E4F1E0C591D49119
:103240000BEB16E1A5CF089588CF0895AB0124E6D6
:1032500030E0BC0188E70E9418249C0181E0232B08
:1032600009F080E00895AB0124E630E0BC0188E776
:103270000E9460249C0181E0232B09F080E00895E6
:103280000F931F93AC019B0104E610E060E488E714
:103290000E94A4249C0181E0232B09F080E01F916F
:1032A0000F9108950C94E42308950895EEE6F2E05A
:1032B00080E092E0DF019C011D9221503040E1F757
:1032C000F0936F04E0936E048FEF9FEF90933902B9
:1032D000809338020895CF93E8DF0E94AF0490E214
:1032E00080FF90E88093340290933302DBDF6BE041
:1032F00070E083E892E0B7DF811104C0C0E08C2F5A
:10330000CF9108958091340265E070E081FD16C090
:103310008EE792E0A8DF811589F36DE070E08CE61E
:1033200092E0A1DFC82F811549F3C0DF81E08093CF
:1033300037028093360210923502E1CF89E792E09E
:10334000E9CF2091330236E0839FC0011124269FEC
:10335000800D911D1124811522E0920714F080E068
:1033600090E082599D4F90936F0480936E0408956E
:1033700020916E0430916F04285632404091330200
:10338000642F70E0C9010E94442B481B463010F4A2
:10339000240F311D211582E0380710F020E030E0C5
:1033A00022593D4F30936F0420936E040895CF93BC
:1033B000DF93982FC62F81E09A3019F09D3029F4C1
:1033C00080E06AD0DF91CF91089520916E04309112
:1033D0006F0486E0F901ADE0B2E001900D928A95AC
:1033E000E1F7903EB0F086E0F90111928A95E9F795
:1033F000C1111BC0C0916E04D0916F0446E050E033
:10340000BE018DE092E00E94512C892BE1F4B0DFE7
:10341000D9CFF6E09F9FB001112462577D4F46E05F
:1034200050E0C9010E943B2CE3CFE0916E04F09183
:103430006F049F012A5F3F4F2E173F07D9F280810B
:1034400080958193F9CFCE56D240CE0125E0969556
:1034500087952A95E1F721E030E0A90102C0440FE9
:10346000551F8A95E2F7CA014091380250913902FE
:10347000842B952B259645E0D695C7954A95E1F77F
:1034800002C0220F331FCA95E2F7822B932B909331
:10349000390280933802BBCFCF93382FE0916E046E
:1034A000F0916F04EE56F24020913302622F70E0EB
:1034B000CF010E94442B281B822F311561F066E05A
:1034C0000E942B2BC82FC15010F4CF91089560E0BB
:1034D00080E26DDFF8CF8E0F9F2F911D811522E0C6
:1034E000920710F080E090E082599D4F90936F0416
:1034F00080936E04EACFFF920F931F93CF93DF93D5
:10350000EC01F62EFC0101900020E9F78F0101503B
:103510001109C017D10728F0CDB7DEB7E5E00C944C
:10352000E82B6F2D899143DFF4CF1F93CF93DF9367
:10353000EC01162FFE018491811104C0DF91CF911F
:103540001F910895612F33DF2196F4CFEEDF81E0E4
:10355000A3CFCF93C091370280913602C11559F0A5
:1035600081110EC062E070E08AE692E07CDE81119B
:1035700004C080913602CF91089581E08093360295
:103580008C2FF9CFA4E0B0E0E8ECFAE10C94BF2B6B
:103590008C838091380290913902892BE9F08091D7
:1035A00037028115C9F080913502811115C0D1DF34
:1035B00010E01B8244244394512C00E247E0F42E97
:1035C00020913802309139022115310529F0111569
:1035D00051F0FC81F11107C02496E2E10C94DB2B41
:1035E0004B814F5F4B835B81852F90E0520102C07E
:1035F000AA0CBB1C5A95E2F7A50142235323452B85
:1036000079F32091340220FD39C0969587959695DF
:103610008795282F9B819295990F90763FE1390FDE
:1036200090931A0180931D0130931B0120931E017A
:1036300067E070E088E191E009DE811569F2BB8105
:10364000A0E2BA9FC00111242091340220FD1FC0C6
:1036500060E270E082599D4F13DE811509F4BCCF02
:10366000A094B09480913802909139028A219B21D4
:1036700090933902809338021F5FA2CF9B81990FEC
:10368000990F990F37E0390F80E023E0C9CFE3E1CC
:10369000F2E0202F11922A95E9F740E751E05A8392
:1036A00049836CE671E0E981FA81A191FA83E983AB
:1036B000FB012191BF01280F392F311DA90142596A
:1036C0005D4F1A01EA2FF0E0ED5EFD4F20E030E0A3
:1036D0006F2C621A842C022E01C0880C0A94EAF71F
:1036E0006101912CD601ED906D01E820462D49191C
:1036F000477050E0BE2D042E01C0BB0F0A94EAF7BC
:103700007B2E5195419551094770552701C0E6948C
:103710004A95EAF7EB2A4081E42AE082939448E054
:103720009412E0CF2F5F3F4F31962830310581F65C
:10373000A4E7B1E0E981FA81AE17BF0709F0B3CF82
:1037400060E270E083E192E087CFCF93C0913702CF
:1037500080913602C11106C091E0C82FC9278C2F75
:10376000CF9108958115D9F362E070E088E692E088
:103770007ADD811103C0C0913602F1CF109236027A
:10378000EECF0C942A05089580913702811531F00F
:1037900060E080E0D6DDF5DF80E0F4CE08959C01A6
:1037A000FB0194578034910550F48581811521F0F7
:1037B000822F4AD080E00895822F52D0FBCF81E043
:1037C0000895823048F567E0869FF0011124E050AB
:1037D000FF4F2081A22FA295AF70AF5DB0E04C915A
:1037E0002F7081E090E0BC0102C0660F771F2A9520
:1037F000E2F79B01209524232C932081E22FE29570
:10380000EF70EE5DF0E030812F7001C0880F2A95D7
:10381000EAF78095832380830895823040F497E00F
:10382000899FF0011124E050FF4F80817AC780E02A
:1038300090E0089580913F02811529F08AE392E09B
:1038400035D510923F020895811109C080913A0246
:10385000816080933A0281E080933F02EBCF08952C
:10386000811109C080913A028E7F80933A0281E0F3
:1038700080933F02DFCF08958F929F92AF92BF92C5
:10388000CF92DF92EF92FF92CF93DF93C82F80E029
:1038900090E0C23008F046C08C2FBFDF27E0C29F07
:1038A000E0011124C050DF4FEB81FC814F01A12CBE
:1038B000B12C092E000CAA0BBB0B6C017D01CE1A9A
:1038C000DF0AE108F108A1E8BFEFA70196010E9415
:1038D000BB2B29813A8140E050E02E1B3F0B410970
:1038E00051090E948D2B121613061406150684F436
:1038F000AFE7B0E0A70196010E94AF2B2D813E817A
:1039000040E050E0281939094A095B090E948D2BD3
:1039100021388FEF3807480758077CF481E89FEF7C
:10392000AFEFBFEFDF91CF91FF90EF90DF90CF909F
:10393000BF90AF909F908F900895DA01C901203811
:1039400031054105510574F38FE790E0A0E0B0E048
:10395000E9CF809100018F3F11F080E032DF80914C
:1039600007018F3F11F081E02CCF0895823080F461
:10397000E82FF0E0EE0FFF1FE65CFD4F81819281A2
:103980008617970729F07283618381E080933F0255
:103990000895809100018F3F29F080E06DDFBC0128
:1039A00080E0E4DF809107018F3F29F081E064DF50
:1039B000BC0181E0DBDF3ECFCCCF0895EACF089594
:1039C000539A0895FC01EE0FFF1FE80FF91FE0590D
:1039D000FB4F6183408322830895FF920F931F93CF
:1039E000CF93DF93182F062FF42EC0E0D0E02F2DB9
:1039F000402F612FCE01E6DF2196C431D105B9F702
:103A0000CDB7DEB7E5E00C94E82B3BB1377F2BB1A7
:103A100028604FB7F89480E794E0FC01019650814C
:103A200068E02BB9000000C057FF3BB9550F0000FC
:103A300000C000C000C03BB900C06A9591F754E0D7
:103A40008C3A950751F74FBF8FE594E00197F1F756
:103A500000C000000895CF93DF93EB0186319C47AF
:103A600009F50E946C0E9D81911599F08A7A91E07A
:103A7000811101C090E090934002811541F085E3EF
:103A800081D40E94F80E80E0DF91CF91089589E201
:103A9000F7CF80914002811519F085E379D4F1CFF9
:103AA00089E2FCCF81E0F0CFCF93DF93EC01FB0103
:103AB0008581811509F4CBC09E0130572332310531
:103AC00008F0ABC08CE592E00E94850FFE01E1504A
:103AD000F047E232F10520F4EC5CF04D0C94A92B98
:103AE00080915C02816080935C0290C080915D0255
:103AF000886080935D028AC080915C028260F3CF0F
:103B000080915C028460EFCF80915C028860EBCF93
:103B100080915D028160EDCF80915D028260E9CF8E
:103B200080915C028061DFCF80915C028062DBCF9C
:103B300080915C028064D7CF0E94B60980915C02BC
:103B40008068D1CF80915C028C60CDCF80915D0286
:103B50008360CFCF80915C028E7FC5CF80915D0264
:103B6000877FC7CF80915C028D7FBDCF80915C0243
:103B70008B7FB9CF80915C02877FB5CF80915D024A
:103B80008E7FB7CF80915D028D7FB3CF80915C0235
:103B90008F7EA9CF80915C028F7DA5CF80915C0242
:103BA0008F7BA1CF0E94B60980915C028F779BCF5B
:103BB00080915C02837F97CF80915D028C7F99CF4B
:103BC00080915C02992782FF939590FB82F990FB8C
:103BD00083F989CF80915D02982F909590FB80F9B1
:103BE00090FB81F986CF90915C02892F8F7B96FFA5
:103BF000806479CF0E94B60990915C02892F97FB6F
:103C000087F9805870CF81E00E948D0F8CE592E09B
:103C10000E94870F0E94B60980E0DF91CF9108953E
:103C200080E0F2CF90915C02892F8F7E94FF8061BB
:103C30005ACF90915C02892F8E7F90FF816053CF85
:103C400090915D02892F877F93FF886052CF81E03A
:103C5000E4CF282F35EB2303C001112497FF04C0C4
:103C600080589109892F089580589F4FFBCF8091EC
:103C7000470280FF0DC06091240170E0660F771F3E
:103C800060387105B0F561157105A9F1862F0895A9
:103C900081FF07C06091240184E0689FB001112476
:103CA000EFCF82FF04C06091240188E0F6CF9091AD
:103CB00046029115D9F02091230180912401682FAB
:103CC00070E0921730F043E0660F771F4A95E1F7F6
:103CD000D7CF899FC001112433E0880F991F3A95EF
:103CE000E1F7622F70E00E94582BCACF68E070E0C5
:103CF000CDCF8FE7089581E008958091470280FF3E
:103D00000CC06091200170E0759567957595679579
:103D10006115710549F1862F089581FF06C06091F4
:103D2000200170E075956795F3CF6091200182FDC9
:103D30000BC0909145029115A1F060911F018091F7
:103D40002001961738F0682F70E06038710500F395
:103D50008FE70895899FC001112470E00E94582BBD
:103D6000F4CF61E070E0D7CF81E00895E3E3E80F9E
:103D7000E331A0F5F0E0EA5AF04D0C94A92B77DF7F
:103D8000819580934B02089572DFFBCF70DF8195A0
:103D900080934A0208956BDFFBCFAFDF80934C0224
:103DA0000895ABDF8195FACFA8DF819580934D020E
:103DB0000895A3DFFBCF815D990B21E030E001C0C6
:103DC000220F8A95EAF780914902822B809349025B
:103DD0000895809147028160809347020895809101
:103DE00047028260F9CF809147028460F5CF40910D
:103DF0004A028D3C59F480914B0287FF0DC010920E
:103E00004B02411559F41092460208C08E3C81F4D1
:103E100080914B0218169CF3411581F080914C0261
:103E200090914D02892B811159C01092450208953D
:103E30008F3C41F447FFF0CF10924A0280914B0231
:103E40008115E0CF803D19F41416B4F3E5CF9091BD
:103E50004C02893D29F41916FCF610924C02DCCF75
:103E60008A3D19F497FFD8CFF8CF90914D028B3D42
:103E700029F497FFD1CF10924D02CECF8C3D19F48B
:103E80001916CCF3C9CF9FE2980F983090F4815D5A
:103E9000990B21E030E0B90102C0660F771F8A95C7
:103EA000E2F7CB01809590914902892380934902E2
:103EB000B3CF8D3D31F4809147028E7F80934702CE
:103EC000ABCF8E3D21F4809147028D7FF7CF8F3DA0
:103ED00009F0A2CF809147028B7FF0CF089572D373
:103EE00020914A0230914B02232B211521F080931F
:103EF00043029093440220914C0230914D02232BB7
:103F0000211521F0809341029093420288E492E0CF
:103F1000BAC186E0E8E4F2E0DF011D928A95E9F794
:103F20001092460210924502109247020895FC0139
:103F3000828181110DC0838181110AC08481811128
:103F400007C081E09581911101C080E081700895E2
:103F500081E0FCCFA6E0B0E0E0EBFFE10C94C92BE0
:103F600086E0E8E4F2E09E012F5F3F4FD901019027
:103F70000D928A95E1F710924A0210924B0210922C
:103F80004C0210924D028B819C81892B7901811505
:103F900081F08091430290914402A5D26C018091FE
:103FA0004602811599F1909125019C151D0408F494
:103FB0003AC08D819E81892B811589F080914102C3
:103FC0009091420290D28C0180914502811509F4B2
:103FD00058C0909121019017110608F460C0B701F4
:103FE00088E492E0E6D1811104C088E492E09FDF8A
:103FF000811175DF86E0F701A8E4B2E001900D922F
:104000008A95E1F72696E8E00C94E52B20912601AD
:104010009AE0299F900111242C153D0550F68F5FE1
:104020008093460202C08F3FD1F7DB80D11451F05C
:104030001EDE91E01D140CF09FEF899F802D11244E
:1040400080934A02DC80D11451F011DE91E01D14FE
:104050000CF09FEF899F802D112480934B0280915B
:104060004A02811509F4A5CFD0904B02D11409F46E
:10407000A0CFEFDD80934A028D2DEBDD80934B02C4
:1040800098CF209122019AE0299F900111242017B6
:10409000310708F0A4CF8F5F8093450202C08F3FA5
:1040A000D1F71D81111551F028DE91E011160CF0A9
:1040B0009FEF899F802D112480934C021E81111542
:1040C00051F01BDE91E011160CF09FEF899F802DBF
:1040D000112480934D0280914C02811509F47FCF09
:1040E00010914D02111509F47ACFB3DD80934C0283
:1040F000812FAFDD80934D0272CF0F931F93CF932B
:10410000DF93C42FD22FFC0185818115C1F040932C
:10411000500258D290934F0280934E0280E28C0F4F
:10412000883040F4C77081E001C0880FCA95EAF773
:104130000E949B07DF91CF911F910F9108951091DD
:104140005002141332C080914E0290914F02CBD195
:10415000883C910550F5C0E2CD0F1D17C1F080E2FB
:10416000810F883040F4177081E001C0880F1A95E4
:10417000EAF70E94A007C83050F491E08D2F8770B5
:1041800001C0990F8A95EAF7892F0E949B07802F1B
:104190000E949407C83070F6D77081E001C0880F84
:1041A000DA95EAF70E94A007C5CF80E28C0F88302D
:1041B00008F0C0CFC77081E001C0880FCA95EAF748
:1041C000F1CF0F93DB01FC01E851FC47E730F1052B
:1041D00090F5E759F04D0C94A92B06E221EE41EE43
:1041E0006AE17CE7CD0189DF80E00F91089507E265
:1041F00025EE45EE6BE17CE7F5CF06E221EE40EEE1
:1042000068E17CE7EFCF07E225EE44EE69E17CE769
:10421000E9CF06E221EE42EE6CE17CE7E3CF07E274
:1042200025EE46EE6DE17CE7DDCF08E221E045EECC
:104230006EE17CE7D7CF15968C91811110925002D8
:1042400081E0D3CF90935202809351020895E09180
:104250005102F0915202309739F00190F081E02D37
:10426000309711F00995089580E00895E09151028A
:10427000F0915202309731F00280F381E02D3097B7
:1042800009F009950895DC01E0915102F091520284
:10429000309759F086819781892B39F082E08C9391
:1042A0000680F781E02DCD0109950895A4E0B0E0E6
:1042B000ECE5F1E20C94CF2BFC018091510290913E
:1042C0005202892B59F087E0898381818A83838117
:1042D0008B8380818C83CE010196A0D42496E2E06A
:1042E0000C94EB2B40910E0150910F019A012E5F1F
:1042F0003F4F485F5F4F80E0F90190812F5F3F4F54
:1043000091118F5F42175307B9F70895811571F026
:1043100020910E0130910F01F9013296285F3F4F35
:104320009191981729F0E217F307D1F780E00895EB
:1043300081E008959C01FC0132968FEF90E041915D
:10434000461751F08F3F19F4411101C0892F9F5F2B
:104350009630A9F78F3F09F40895280F311D87FD86
:104360003A95F901628308959C01FC013296285F19
:104370003F4F8191861302C0DF011E92E217F307BF
:10438000C1F70895682F80910E0190910F01D2CF4F
:10439000682F80910E0190910F01E6CFE0910E0100
:1043A000F0910F01329686E0DF011D928A95E9F7C0
:1043B0000895DC01FB0111969C911197818198135E
:1043C00022C012968C911297811519F0928189134F
:1043D0001AC013968C911397811519F09381891344
:1043E00012C015968C911597811519F09581891336
:1043F0000AC014969C91911521F081E02481291323
:1044000003C080E001C081E0817008950895FECF6F
:1044100008958F5F80932A01609127017091280190
:104420008091290190912A01F2CF83E080932A01A3
:1044300060912701709128018091290190912A01B2
:10444000E6CFE7CF089581E080932A0160912701AC
:10445000709128018091290190912A01D8CFF3CF42
:10446000089591E0811101C090E09093290160913D
:104470002701709128018091290190912A01C7CFCD
:1044800080912901089580932801609127017091FE
:1044900028018091290190912A01B9CF80912801AA
:1044A00008958093270160912701709128018091E0
:1044B000290190912A01ABCF809127010895089599
:1044C0000895CF93FCDF0E94E413FADFC0E08C2F45
:1044D0000E943A13811105C0CF5FC430C1F7CF915C
:1044E000089581E0FCCFCF93DF93EC016BD08C1B60
:1044F0009D0BDF91CF91089585B7806885BF85B703
:10450000806885BF08951F921FB61F9211248F9354
:104510009F93AF93BF9380915302811113C08091F9
:10452000AC049091AD04A091AE04B091AF0441965B
:10453000A11DB11D8093AC049093AD04A093AE0473
:10454000B093AF04BF91AF919F918F911F901FBE09
:104550001F9018958091B404843031F10E94740644
:104560001092530288E190E020E40FB6F894A895E9
:10457000809360000FBE2093600083B7817F8460CA
:1045800083BF83B7816083BF7894889583B78E7F1C
:1045900083BF0FB6F894A8958091600088618093DE
:1045A0006000109260000FBE08950E94B6090C943E
:1045B0007B0682E084BD93E095BD9AEF97BD809322
:1045C0006E0008952FB7F8948091AC049091AD04DB
:1045D000A091AE04B091AF042FBF08952FB7F89407
:1045E0006091AC047091AD048091AE049091AF04E1
:1045F0002FBF089578941F921FB61F9211248F9396
:104600009F93AF93BF938091AC049091AD04A09120
:10461000AE04B091AF040196A11DB11D8093AC040E
:104620009093AD04A093AE04B093AF04BF91AF914B
:104630009F918F911F901FBE1F90189587E797E756
:10464000909301088093000888E19AE00FB6F894EF
:10465000A895809360000FBE90936000FFCF88E123
:104660009AE00FB6F894A895809360000FBE9093DF
:104670006000FFCF803F09F188F4843901F140F4F4
:104680008533F9F08633F9F0843339F583E2089500
:104690008639D9F0873909F582E20895853FB9F066
:1046A00030F4813FB1F0843FC1F484E00895863F47
:1046B00091F0873F91F487E0089580E0089580E2CB
:1046C000089584E2089585E2089581E2089585E0E1
:1046D000089581E0089586E008958FE1089596E8B1
:1046E00090937A00982F9072906890937B008F71CE
:1046F00090912B01892B80937C0080917A008064BB
:1047000080937A0080917A0086FDFCCF80917800BA
:104710002091790090917A009F7790937A00922F60
:104720000895A8DFDCCFFF920F931F93CF93DF9301
:10473000182FEB011092BC0084EA8093BC0042DF8A
:10474000082FF92E8091BC0087FF27C08091B90007
:10475000887F883029F08091B900887F803189F581
:104760001093BB0084E88093BC002CDF182F092F26
:104770008091BC0087FF1EC02091B900287F80E097
:1047800090E0283191F081E090E0203411F480E055
:1047900090E091958195910908C0802F9F2DA3DE0F
:1047A000C817D90778F68EEF9FEFCDB7DEB7E5E0F3
:1047B0000C94E82B812F902F96DEC817D907C0F6EE
:1047C000F2CF8FEF9FEFF1CF1092B9008CE0809382
:1047D000B80008950F931F93CF93DF93EB0180935D
:1047E000BB0084E88093BC00EDDE182F092F809178
:1047F000BC0087FF11C02091B900287F81E090E0C4
:10480000283211F480E090E0919581959109DF9133
:10481000CF911F910F910895CF3FDC0741F3812F76
:10482000902F61DEC817D90710F78EEF9FEFEFCFFB
:10483000A0E0B0E0EDE1F4E2A7C7782EB62EA72EF7
:104840006A01E901BFDE4C01C431D10510F1CF3F4F
:10485000DC0719F1CE0164E170E016D7F62EE72EE1
:104860006F2D7E2D872D5FDF8C01892BC9F4EB2CFA
:10487000FA2CCE0CDF1CEC14FD0419F00115110507
:10488000C1F084E98093BC00C801CDB7DEB7EDE08C
:1048900097C7FF24F394E12CE3CF85E0F82EFBCFFC
:1048A000CF3FDC07E9F2C4011EDEC817D907C0F606
:1048B000DECFBE01F70181917F018CDF8C01DBCF60
:1048C000A0E0B0E0E5E6F4E25FC7782EB62EA72EB2
:1048D0006A01890177DE4C010431110500F10F3FB7
:1048E000100701F1C80164E170E0CED6EB01BE0112
:1048F000872D19DF7C01892BB9F4CB2DDA2DCC0E55
:10490000DD1ECC15DD0519F0E114F104B1F084E9E8
:104910008093BC00C701CDB7DEB7EDE051C7C1E061
:10492000D0E0E5CFC5E0FCCF0F3F100701F3C40195
:10493000DADD08171907D8F6E0CFFE018491B80137
:1049400049DF7C012196DDCFA0E0B0E0E9EAF4E2A6
:104950001AC7682E962E5A016901780133DE782E27
:10496000892E0431110510F10F3F100711F1C80114
:1049700064E170E089D6162F072F612F702F862DE6
:10498000D2DEEC01892BB9F0FFEFEF16FF06A9F399
:10499000872D982DA8DDE816F90678F784E980932D
:1049A000BC00CE01CDB7DEB7EEE009C711E000E0F4
:1049B000E4CF15E0FCCFB701892D0CDFEC018501B8
:1049C000CA0CDB1C0C151D0549F3209739F7B701FC
:1049D000F80181918F01FEDEEC01F4CF0895089576
:1049E000282FCB01BA013091B4043430D1F42F70A8
:1049F0002093E9002FEF3091E80035FD06C035ED3A
:104A00003A95F1F700002A95B1F72091E80025FFCB
:104A100008C040E050E0B6D18091E8008E778093E6
:104A2000E8000895BC0146E050E082E0D9CFCF9382
:104A3000DF93D82FC92F24DD48E050E06D2F7C2F65
:104A400081E0CEDF88E0ED2FFC2FA4E5B2E00190FD
:104A50000D928A95E1F7DF91CF9108958091B3048B
:104A6000811107C016D36DD38091E20084608093DA
:104A7000E20008951092B3040895E5DC81E0F1CCE2
:104A80006091B00481E0611101C080E0CECC9091D2
:104A9000B40481E0943009F080E06091B004D1CC9E
:104AA00042E061EC81E071D242E261EC82E06DD2E1
:104AB0009091B40481E0943009F080E06091B004FA
:104AC000A8CC8091B604893081F148F4823009F491
:104AD00095C0833009F456C0813041F008958A3082
:104AE00009F47FC08B3009F467C008958091B50444
:104AF000813A09F046C08091E800877F8093E80002
:104B00008091B9049091BA04892B59F060E080E05B
:104B100090E070E085D18091E8008B778093E80089
:104B2000089568E084E592E0F4CF8091B504813285
:104B300041F58091B9049091BA04029710F58091E3
:104B4000E800877F8093E8008091E80082FF15C02D
:104B50009091F3008091F200029731F48091F1007E
:104B6000813011F0863019F48091F1008CDC809155
:104B7000E8008B778093E8003CC28091B4048111F7
:104B8000E3CF08958091B504813AD9F78091B904B3
:104B90009091BA04892BA9F78091E800877F8093D0
:104BA000E8008091E80080FFFCCF6ADC8093F10090
:104BB0008091E8008E77DECF8091B504813209F7CD
:104BC0008091B9049091BA04892BD9F68091E800BC
:104BD000877F8093E8000DD28091B70442DC0C946B
:104BE000B6098091B504813261F68091E800877F33
:104BF0008093E800FED18091B80453CC8091B50435
:104C0000813A09F0BECF8091E800877F8093E80069
:104C10008091E80080FFFCCF4FDCC8CFBC0144E0AE
:104C200050E082E0DDCE84B7877F84BF0FB6F89472
:104C3000A895809160008861809360001092600068
:104C40000FBE80E890E00FB6F894809361009093D7
:104C500061000FBE04CC1DD274D2E2EEF0E0808180
:104C6000846080837894DEC48CE291E0EBCA80910A
:104C7000B404853029F48091B404853011F095CCCA
:104C8000089568DC1EDC8115B1F38091B2048115B2
:104C900091F362D00E94B609EECF08959A01409137
:104CA000BB045091BC0400C0FC01D9018F2F99278F
:104CB00083309105C1F068F48130910509F447C053
:104CC000029761F48BE390E02CE038E02D933C9365
:104CD000089581329105E1F0829749F180E090E0FA
:104CE00020E030E0F3CFCF019927E13059F0823056
:104CF000910559F0E8E0F8E0892B81F7849190E084
:104D00009F01E4CFE4EEF7E0F9CFEEECF7E0F6CF69
:104D100089E090E02EE138E061157105B9F289E093
:104D200090E027E338E06130710581F2D7CF84E469
:104D300090E024ED38E06115710541F28BE790E0D9
:104D400029E538E06130710509F4C0CFC7CF82E1B1
:104D500090E027E438E0BACF80E189BD82E189BDE7
:104D600009B400FEFDCF8091D8008F7D8093D800DC
:104D70008091E00082608093E0008091E00081FDFE
:104D8000FCCF0895AF92BF92CF92DF92EF92FF9245
:104D90000F931F93CF936C018B017A0149D1C82FD8
:104DA000811123C0E114F10439F0F7018081918170
:104DB000081B190BC80ED91EA12CB12C0115110509
:104DC000A1F08091E80085FD20C08091E8008E77F9
:104DD0008093E800E114F10499F0F701808191815A
:104DE0008A0D9B1D91838083C5E08C2FCF911F91ED
:104DF0000F91FF90EF90DF90CF90BF90AF9008950C
:104E000017D18115F1F2C82FF0CFF60181916F0112
:104E10008093F10001501109FFEFAF1ABF0ACECF06
:104E2000FC019B018091BB049091BC0486179707FD
:104E300018F0672B61F0C90140E0009771F441114F
:104E40000CC08091E80082FF35C080E00895809119
:104E5000E8008E778093E800EECF2091B40421150E
:104E6000A9F12530A9F12091E80023FD2DC0209162
:104E7000E80022FDE6CF2091E80020FFDECF309150
:104E8000F3002091F200009719F02830310558F016
:104E900041E02830310509F040E02091E8002E770C
:104EA0002093E800CACF41914093F10001972F5F12
:104EB0003F4FE9CF8091B404811541F0853041F036
:104EC0008091E80083FFBDCF81E0089582E00895DE
:104ED00083E00895FC019B018091BB049091BC0488
:104EE0008617970718F0672B61F0C90140E000971B
:104EF00071F441110CC08091E80082FF36C080E05F
:104F000008958091E8008E778093E800EECF20919D
:104F1000B4042115B1F12530B1F12091E80023FD51
:104F20002EC02091E80022FDE6CF2091E80020FF6E
:104F3000DECF3091F3002091F200009719F0283075
:104F4000310558F041E02830310509F040E020916A
:104F5000E8002E772093E800CACF44914093F100F7
:104F6000319601972F5F3F4FE8CF8091B4048115B0
:104F700041F0853041F08091E80083FFBCCF81E0B3
:104F8000089582E0089583E00895982F973028F0DF
:104F90008F708093E90081E008959093E900242FB9
:104FA000762F50E0981731F07091EC002091ED00D1
:104FB0005091F00021FD02C09F5FE8CF3091EB00DF
:104FC0003E7F3093EB003091ED003D7F3093ED005C
:104FD0003091EB0031603093EB007093EC00209344
:104FE000ED005093F0002091EE0027FDE5CF80E02A
:104FF00008958091B50487FF13C08091E80082FF77
:1050000006C08091E8008B778093E8000895809136
:10501000B4048111F2CF08958091B4048115D9F3BD
:105020008091E80080FFF8CF8091E8008E77ECCF88
:105030002091E4003091E50095E6A9012091EC0073
:10504000822F817020FF06C08091E80080FF06C09B
:1050500080E008952091E80022FD1AC08091B404F8
:10506000811589F0853089F08091EB0085FD0FC0B6
:105070002091E4003091E50042175307F9F29A9528
:10508000E1F684E0089582E0089583E0089581E0E8
:10509000089567D06ED0E0EEF0E08081816080837B
:1050A000E8EDF0E080818F77808319BCA7EDB0E058
:1050B0008C918E7F8C9380818F7E80831092B3043D
:1050C00008950F931F93CF93DF934BD052D0C8ED29
:1050D000D0E088818F778883888180688883888101
:1050E0008F7D888319BC1092B4041092B004109282
:1050F000B2041092B10400EE10E0F80180818B7FC1
:10510000808388818160888342E060E080E03DDFC9
:10511000E1EEF0E080818E7F8083E2EEF0E080813E
:1051200081608083808188608083F80180818E7FA8
:105130008083888180618883DF91CF911F910F9157
:105140000895E8EDF0E080818F7E8083E7EDF0E068
:1051500080818160808384E082BF81E08093B3049A
:10516000B0CFE8EDF0E080818E7F80831092E20086
:1051700008951092DA001092E10008951F920F92A4
:105180000FB60F9211242F933F934F935F936F931A
:105190007F938F939F93AF93BF93EF93FF938091F0
:1051A000E10082FF0AC08091E20082FF06C0809188
:1051B000E1008B7F8093E10034D28091DA0080FFA0
:1051C00018C08091D80080FF14C08091DA008E7FD3
:1051D0008093DA008091D90080FF8FC080E189BD83
:1051E00082E189BD09B400FEFDCF81E08093B40463
:1051F00035DC8091E10080FF18C08091E20080FFE3
:1052000014C08091E2008E7F8093E2008091E200E2
:1052100080618093E2008091D80080628093D80002
:1052200019BC85E08093B4042BDC8091E10084FFFD
:1052300028C08091E20084FF24C080E189BD82E122
:1052400089BD09B400FEFDCF8091D8008F7D809389
:10525000D8008091E1008F7E8093E1008091E20090
:105260008F7E8093E2008091E20081608093E20073
:105270008091B004811509F445C084E08093B404A2
:1052800006DC8091E10083FF27C08091E20083FF6C
:1052900023C08091E100877F8093E10082E08093CA
:1052A000B4041092B0048091E1008E7F8093E100FD
:1052B0008091E2008E7F8093E2008091E200806125
:1052C0008093E20042E060E080E05FDE8091F000E9
:1052D00088608093F000D1DBFF91EF91BF91AF9197
:1052E0009F918F917F916F915F914F913F912F91FE
:1052F0000F900FBE0F901F90189519BC1092B40418
:10530000B9DB77CF8091E30087FF02C083E0B6CF9F
:1053100081E0B4CF1F920F920FB60F921124EF923B
:10532000FF920F931F932F933F934F935F936F932E
:105330007F938F939F93AF93BF93CF93EF93FF93FD
:1053400009EE10E0F8018081C091EC008F70C795E4
:10535000CC27C795C82B108280EFE82EF12CF701DF
:105360008081877F808378941FD0F8011082F701B5
:10537000808188608083CF70F801C083FF91EF91B6
:10538000CF91BF91AF919F918F917F916F915F91DD
:105390004F913F912F911F910F91FF90EF900F90A0
:1053A0000FBE0F901F901895AAE2B0E0E9EDF9E268
:1053B000F4C185EB94E0FC0101962091F10020837B
:1053C00024E08D3B9207B9F77CDB8091E80083FFF6
:1053D00037C08091B5049091B6049A3088F5E92FD2
:1053E000F0E0E059F04DB5C1803889F0823841F5E0
:1053F0008091B9048F70873018F58093E90080910F
:10540000EB0085FB882780F91092E90006C08091A7
:10541000B204880F9091B104892B9091E800977F96
:105420009093E8008093F1001092F1008091E800E1
:105430008E7722C0811115C08091B704813001F1AF
:105440008091E80083FF0AC08091E800877F809305
:10545000E8008091EB0080628093EB00AA96E4E084
:10546000B8C1823069F78091B704811581F010923C
:10547000E9008091E800877F8093E800BADDE0CF03
:1054800081E0933009F080E08093B204F0CF809106
:10549000B9048F702FEF280F263090F68093E90023
:1054A0002091EB0020FFE3CF933031F48091EB00AB
:1054B00080628093EB00DBCF9091EB009061909342
:1054C000EB0021E030E0A90102C0440F551F8A958E
:1054D000E2F74093EA001092EA008091EB008860C6
:1054E000E8CF8111ADCF1091B7041F778091E30011
:1054F0008078812B8093E3008091E800877F809300
:10550000E80077DD8091E80080FFFCCF8091E30028
:1055100080688093E30083E0111101C082E08093F2
:10552000B4048ECF8058823008F08ACF8091B704BF
:105530009091B8048C3D53E0950791F583E08A8300
:105540008AE289834FB7F894DE01139620E03EE0AB
:1055500051E2E32FF0E050935700849120FF03C005
:1055600082958F703F5F8F708A30C0F0895C90E0C9
:105570008D939D932F5F243161F74FBF8091E80099
:10558000877F8093E8006AE270E0CE01019648DCF4
:105590008091E8008B778093E80052CF805DE7CF61
:1055A0006091B9047091BA04AE014F5F5F4F76DB32
:1055B0008C01892B09F444CF8091E800877F809388
:1055C000E800B80189819A8185DCE2CF803809F052
:1055D00037CF8091E800877F8093E8008091B00406
:1055E0008093F10023CF81112BCF9091B70492309B
:1055F00008F026CF8091E800877F8093E8009093A1
:10560000B004F7DC8091B004811529F084E0809328
:10561000B40446DA15CF8091E30087FDF7CF81E02F
:10562000F6CF0895CF938091B404811591F08091C5
:10563000E900C091EC008F70C795CC27C795C82BA7
:105640001092E9008091E80083FDAEDECF70C09338
:10565000E900CF910895992778E0880F991F961750
:1056600008F0961B881F7A95C9F78095089587FBE7
:10567000082E062687FD819567FD6195ECDF0EF407
:10568000919507FC81950895AA1BBB1B51E107C0AA
:10569000AA1FBB1FA617B70710F0A61BB70B881FC2
:1056A000991F5A95A9F780959095BC01CD01089551
:1056B00097FB072E16F4009406D077FD08D0E4DFA0
:1056C00007FC05D03EF4909581959F4F0895709505
:1056D00061957F4F0895A1E21A2EAA1BBB1BFD0105
:1056E0000DC0AA1FBB1FEE1FFF1FA217B307E407C1
:1056F000F50720F0A21BB30BE40BF50B661F771F19
:10570000881F991F1A9469F76095709580959095F8
:105710009B01AC01BD01CF010895052E97FB16F446
:1057200000940FD057FD05D0D6DF07FC02D046F419
:1057300008C050954095309521953F4F4F4F5F4F92
:10574000089590958095709561957F4F8F4F9F4FED
:105750000895EE0FFF1F0590F491E02D09947CD081
:10576000A59F900DB49F900DA49F800D911D1124B5
:105770000895B7FFF4CFF3DF821B930B08952F92A8
:105780003F924F925F926F927F928F929F92AF92D1
:10579000BF92CF92DF92EF92FF920F931F93CF931E
:1057A000DF93CDB7DEB7CA1BDB0B0FB6F894DEBFB5
:1057B0000FBECDBF09942A88398848885F846E84DB
:1057C0007D848C849B84AA84B984C884DF80EE8025
:1057D000FD800C811B81AA81B981CE0FD11D0FB62E
:1057E000F894DEBF0FBECDBFED010895002E083046
:1057F00090F0982F872F762F652F542F432F322F1D
:1058000022270850F4CF220F331F441F551F661F55
:10581000771F881F991F0A95B2F7002D089597FDED
:105820001094002E083098F00850232F342F452F65
:10583000562F672F782F892F912DF4CF1594979598
:1058400087957795679557954795379527950A9545
:10585000AAF71124002D0895A29FB001B39FC001A3
:10586000A39F700D811D1124911DB29F700D811D8C
:105870001124911D0895FB01DC0102C005900D92D9
:1058800041505040D8F70895FC014150504030F04D
:1058900001900616D1F73197CF01089588279927EF
:1058A0000895FB01DC0104C08D910190801921F461
:1058B00041505040C8F7881B990B0895FB01DC014B
:1058C00002C001900D9241505040D8F70895AEE0CB
:1058D000B0E0ECE6FCE261CF0D891E8986E08C83A6
:1058E0001A8309838FEF9FE79E838D83AE01475E06
:1058F0005F4F6F89788DCE01019609D02F81388551
:10590000020F131FF80110822E96E4E062CFABE085
:10591000B0E0ECE8FCE233CF7C013B018A01FC0102
:1059200017821682838181FFABC19AE0292ECE01B6
:1059300001965C01F7019381F30193FD859193FF3B
:1059400081913F01882309F43CC1853239F493FDEC
:10595000859193FF81913F01853221F4B70190E059
:10596000A8D1E8CF912C412C512CFFE1F51538F04E
:105970008B3209F188F4803201F1833221F157FC36
:105980003AC020ED280F2A3040F556FE1FC0929CE9
:10599000200D1124922E06C08D3291F0803379F7BC
:1059A000689450F8F30193FD859193FF81913F0135
:1059B0008111DBCF20C0689451F8689452F8F2CF7F
:1059C000689453F8EFCF689454F8ECCF429C200DC4
:1059D0001124422E689455F8E5CF8E3229F456FCF6
:1059E000F0C0689456F8DECF8C3619F4689457F8F6
:1059F000D9CF8836B9F2982F9F7D95549330B8F05F
:105A0000833691F18337B1F1833509F056C0F8013F
:105A1000C190D1908F01692D70E056FC02C06FEFEC
:105A20007FEFC60130D14C01689457F80AC00C5F73
:105A30001F4F2FE3298388248394912C6501E894D8
:105A400057F853FC04C04814190409F008F5342C25
:105A50008114910419F5332009F46CCFB70180E269
:105A600090E027D13A94F7CFF801808189830E5FC7
:105A70001F4FE1CFF801C190D1908F01692D70E0E7
:105A800056FC02C06FEF7FEFC60108D14C01D7CFA3
:105A9000B70180E290E00DD14A94D5CFF60157FCD2
:105AA000859157FE81916F01B70190E002D13110CD
:105AB0003A94F1E08F1A9108CBCF843619F08936E9
:105AC00009F070C0F80157FE66C061917191819133
:105AD00091918F01252D2F76D22E97FF09C0909599
