:100000000C94FD040C9444050C9444050C94440594
:100010000C9444050C9444050C9444050C9444053C
:100020000C9444050C9444050C9446270C941A280F
:100030000C9492220C9444050C9444050C944405B1
:100040000C9444050C9444050C9444050C9444050C
:100050000C9444050C94E9220C9444050C9444053A
:100060000C9444050C9444050C9444050C944405EC
:100070000C9444050C9444050C9444050C944405DC
:100080000C9444050C9444050C9444050C944405CC
:100090000C9444050C9444050C9444050C944405BC
:1000A0000C9444050C9444050C944405556E646509
:1000B00066696E656400524742204C4544205445B1
:1000C00053540A004B455920544553540A004C617F
:1000D0007965723A200014001A0008001500170014
:1000E0001C001800000004001600070009000A00A8
:1000F0000B000D0000001E001D001B000600190073
:100100000500115000001F002000210022002300E4
:1001100024002500105DC35CC65CC75CC85CC95C7C
:10012000CA5CCB5C0000C45C295D000000000000DC
:1001300000000000000000000000000000000000BF
:10014000000010500000000000000000000000004F
:1001500000000000105D8081828384858687888905
:100160008A8B8C8D8E8F9091929394A0A1A2A3A440
:10017000A5A6A7A8A9AAABACADAEAFB0B1B2B3B4B7
:10018000C0C1C2C3C4C5C6C7C8C9CACBCCCDCECFF7
:10019000D0D1D2D3D40000047F3F1F643214643224
:1001A00014783C1E1E140A052223252628292A2CF1
:1001B0002D2F3032333536383A3B3D3E40424345B1
:1001C00047494A4C4E5051535557595A5C5E6062EC
:1001D000646668696B6D6F71737577797B7D7F81FC
:1001E000838587898A8C8E90929496989A9C9E9FFC
:1001F000A1A3A5A7A8AAACAEAFB1B3B4B6B8B9BB1A
:10020000BCBEBFC1C2C3C5C6C7C9CACBCCCDCED088
:10021000D1D2D2D3D4D5D6D7D7D8D9D9DADADBDB75
:10022000DBDCDCDCDCDCDDDDDDDDDCDCDCDCDCDB0C
:10023000DBDBDADAD9D9D8D7D7D6D5D4D3D2D2D155
:10024000D0CECDCCCBCAC9C7C6C5C3C2C1BFBEBC48
:10025000BBB9B8B6B4B3B1AFAEACAAA8A7A5A3A1B9
:100260009F9E9C9A98969492908E8C8A898785837B
:10027000817F7D7B79777573716F6D6B696866645B
:1002800062605E5C5A5957555351504E4C4A49472B
:10029000454342403E3D3B3A3836353332302F2DD0
:1002A0002C2A292826252322FFAA7F554000010158
:1002B0000101010101010102020202020202020225
:1002C00003030303030303030404040404040405F5
:1002D00005050505060606060607070707070808B9
:1002E0000808090909090A0A0A0B0B0B0C0C0C0D6A
:1002F0000D0D0E0E0E0F0F0F101011111112121303
:10030000131414151516161717181819191A1A1B7D
:100310001B1C1D1D1E1E1F202021222223242425DC
:100320002626272829292A2B2C2D2D2E2F30313215
:1003300032333435363738393A3B3C3D3E3F404125
:1003400042434445464748494A4C4D4E4F5051530D
:1003500054555658595A5B5D5E5F616264656668C4
:10036000696B6C6D6F7072737577787A7B7D7E8048
:1003700082838587888A8C8E8F91939596989A9C94
:100380009EA0A2A3A5A7A9ABADAFB1B3B5B7BABCA8
:10039000BEC0C2C4C6C9CBCDCFD1D4D6D8DBDDDF79
:1003A000E2E4E7E9EBEEF0F3F5F8FAFDFF00AE006A
:1003B000AF00DA0281FFD9F1DB20A4A62EAF00A0A6
:1003C000C000A1C800AED580A81FD300408D142066
:1003D000000000000000003E5B4F5B3E003E6B4FA4
:1003E0006B3E001C3E7C3E1C00183C7E3C18001CF2
:1003F000577D571C001C5E7F5E1C0000183C1800D7
:1004000000FFE7C3E7FF00001824180000FFE7DB48
:10041000E7FF0030483A060E0026297929260040D9
:100420007F05050700407F05253F005A3CE73C5A01
:10043000007F3E1C1C0800081C1C3E7F0014227F0D
:100440002214005F5F005F5F0006097F017F0000EC
:100450006689956A0060606060600094A2FFA29463
:100460000008047E04080010207E20100008082ADE
:100470001C0800081C2A0808001E10101010000C90
:100480001E0C1E0C0030383E383000060E3E0E06A4
:100490000000000000000000005F000000000700F6
:1004A000070000147F147F1400242A7F2A120023DF
:1004B0001308646200364956205000000807030004
:1004C00000001C224100000041221C00002A1C7F69
:1004D0001C2A0008083E0808000080703000000850
:1004E00008080808000000606000002010080402EE
:1004F000003E5149453E0000427F4000007249499C
:100500004946002141494D33001814127F1000273D
:1005100045454539003C4A49493100412111090707
:1005200000364949493600464949291E0000001451
:1005300000000000403400000000081422410014B4
:100540001414141400004122140800020159090671
:10055000003E415D594E007C1211127C007F4949DA
:100560004936003E41414122007F4141413E007FEA
:1005700049494941007F09090901003E4141517340
:10058000007F0808087F0000417F410000204041B3
:100590003F01007F08142241007F40404040007F1F
:1005A000021C027F007F0408107F003E4141413E53
:1005B000007F09090906003E4151215E007F0919AB
:1005C00029460026494949320003017F0103003FC3
:1005D0004040403F001F2040201F003F4038403F28
:1005E000006314081463000304780403006159498C
:1005F0004D4300007F4141410002040810200000EB
:100600004141417F0004020102040040404040405B
:10061000000003070800002054547840007F28445D
:10062000443800384444442800384444287F003883
:10063000545454180000087E09020018A4A49C78A1
:10064000007F080404780000447D40000020404002
:100650003D00007F102844000000417F4000007CE6
:1006600004780478007C0804047800384444443852
:1006700000FC182424180018242418FC007C08040A
:1006800004080048545454240004043F4424003C0B
:100690004040207C001C2040201C003C4030403C5E
:1006A000004428102844004C9090907C00446454EE
:1006B0004C440000083641000000007700000000B4
:1006C00041360800000201020402003C2623263CB9
:1006D000000000000000000000000000000000001A
:1006E00000C0E0E0E0C08000007CFEFFFFFE7C0078
:1006F00000C0E0F0F0E0C00000000000FEFEFEFEE2
:10070000FEFE0000000000FEFEFEFEFEFE0000FEFB
:10071000FEFEFEFE000000FEFEFEFEFE1E1EFEFEB3
:10072000FEFCF800000000707078F8FCFEFEFEFE93
:1007300000000000E0F8FE7EFEFEFEFEFE0000006F
:10074000000000000000000000000000000000E0C9
:10075000F0F0F0E0ECEEF7F37020007C7C7C7E00A3
:100760007E7E7E7F7F7F000080C0E07E5B4F5BFEF1
:10077000C00000C000DCD7DEDEDED7DC00C0000039
:100780000000000000000000000000000000000069
:10079000000000000000000000000000000080C019
:1007A000C0C3C7CF8F0F0F07E0F0F8F9F9F8F0E0FA
:1007B000E0C7CF8F0F07030000000000FFFFFFFF1F
:1007C000FFFF0000000000FFFFFFFFFFFF3E3EFFB6
:1007D000FFFFFFFF000000FFFFFFFFFF3C3C3F3F2C
:1007E0003F1F0F00000000000000FFFFFFFFFFFFA2
:1007F0000080F8FFFFFF8780FFFFFFFFFF80800082
:100800000000000000000000000000000000000FD9
:100810001F3F7F7F7F7F7F3F1E0C001F1F1F3F00FA
:100820003F3F3F7F7F7F00307B7F783020203078D4
:100830007F3B0003000F7F0F0F0F7F0F00030000AF
:1008400000000000000000000000000000000000A8
:10085000000000000000000000000000000003078E
:100860000F0F0F0F0703007FFFFFFFFFFFFF7F3F0B
:100870003F3F1F1F07000000000000007F7F7F7FB9
:100880007F7F78787878007F7F7F7F7F7F00007F11
:100890007F7F7F7F0000007F7F7F7F7F00000000E1
:1008A000000000000000000000007F7F7F7F7F7F4E
:1008B00000070707070707077F7F7F7F7F0707007E
:1008C0000000000000000000000000000000000028
:1008D0000000000000000000000000000000000018
:1008E0000000000000000000000000000000000008
:1008F00000000000000000000000000000000000F8
:1009000000000000000000000000000000000000E7
:10091000000E034C0048005000310034006300001A
:100920000016034E0065006F005400720069006EEF
:100930000069007400790000000403090409023B07
:1009400000020100A0FA09040000010301010009EE
:1009500021110100012240000705810308000A0956
:1009600004010001030000000921110100012230EF
:10097000000705820308000A1201100100000008A8
:1009800014FF080001000102000105010904A10192
:10099000A1000501093009311581257F95027508EF
:1009A000810205091901290115002501950175012B
:1009B0008102950775018101C0C005010906A101E9
:1009C000050719E029E71500250195087501810241
:1009D0009501750881010507190029FF150026FFFB
:1009E000009506750881000508190129059505750A
:1009F000019102950175039101C011241FBECFEF33
:100A0000DAE0DEBFCDBF04B603FE27C08091A304A9
:100A10009091A404A091A504B091A6048730904BB6
:100A2000A740B04BD1F41092A3041092A4041092EA
:100A3000A5041092A60414BE84B7877F84BF0FB6A6
:100A4000F894A8958091600088618093600010926E
:100A500060000FBEE0E0F8E3099511E0A0E0B1E02E
:100A6000E0E2F6E502C005900D92A236B107D9F793
:100A700024E0A2E6B1E001C01D92A33AB207E1F77B
:100A80000E9480240C94D22A0C940000873901F132
:100A900078F48633F9F030F48433F1F08533F1F0F3
:100AA0008FE108958439E1F08639D1F781E2089524
:100AB000843FC1F030F4803FB9F0813F89F781E095
:100AC0000895863F99F0A0F0873F51F787E0089599
:100AD00082E2089585E2089583E2089584E208950C
:100AE00080E2089584E0089580E0089586E0089506
:100AF00085E0089596E890937A00982F9072906818
:100B000090937B008F7190910001892B80937C00E2
:100B100080917A00806480937A0080917A0086FDCB
:100B2000FCCF809178002091790090917A009F7796
:100B300090937A00922F08950E9446050C947A05AE
:100B400060E080E00E948D1160E086E591E00C9409
:100B5000701289329D4541F4FB018281882321F086
:100B60000E94E30A0E946F0F81E0089563E080E035
:100B70000E948D1160E08EEC90E00E9470126091F6
:100B80000C0270910D0280910E0290910F020E9452
:100B9000B306882339F0813051F060E08CEA90E0B0
:100BA0000C94821260E084EC90E00C94701260E08F
:100BB00086EB90E0FACF0E94A0050C94B6050C9449
:100BC000951384EF0E949C0597FD03969595879554
:100BD00095958795805891099093A8018093A701D6
:100BE00084E90E949C0597FD0396959587959595B8
:100BF0008795805891099093AA018093A90186EA6C
:100C000091E00C94782381E008950C94A90508954F
:100C10000C9407061F93CF93DF9300D000D00F9260
:100C2000CDB7DEB749835A836B833091BF01898189
:100C30009A8131111DC06623B9F02223A9F00E94C8
:100C4000F91F182F682F89819A810E94A41F69813A
:100C50007A81812F0F900F900F900F900F90DF915E
:100C6000CF911F910C9413070E94D11F182FEFCF23
:100C70000E94F91F69817A81EDCFFC01262F408106
:100C800051816281738184810C940A06CF93DF9332
:100C9000EC0160E00E943D06BE01DF91CF910C9413
:100CA00008060E943F21811102C00E94E3210C949A
:100CB000FE080C94010908950E940E1B0E945B0619
:100CC0002FEF84E39CE0215080409040E1F700C08A
:100CD00000000C940D230F931F93CF93DF93EC012F
:100CE00061E00E943D068C01BE010E94050688233A
:100CF00089F1BE01C8010E942914882359F1BE015F
:100D0000C8010E947B14882329F1BE01C8010E94FA
:100D10009E158823F9F0BE01C8010E947310882334
:100D2000C9F0BE01C8010E94F015882399F08A819C
:100D3000882339F001158CE5180751F00F3D1C454B
:100D400079F0CE01DF91CF911F910F910C940306A2
:100D50000E945C0680E0DF91CF911F910F91089572
:100D60000E94E321F7CFCF92DF92EF92FF926C01C6
:100D7000EE24FF2420E0C114D104E104F10419F0B1
:100D8000C701B60120E1C72ED82EE92EFF24C114D9
:100D9000D104E104F10419F0285FC701B6016B0129
:100DA0007C0154E0F694E794D794C7945A95D1F710
:100DB000C114D104E104F10419F02C5FC701B6019C
:100DC0006B017C0142E0F694E794D794C7944A956E
:100DD000D1F7C114D104E104F10419F02E5FC70169
:100DE000B6019695879577956795672B682B692B44
:100DF00009F02F5F822FFF90EF90DF90CF90089542
:100E000008950C94000781E008950C940307CF9394
:100E1000C82F0E9401078C2FCF910C94050790E0FA
:100E200080E00895089524E0829FC0011124FC0110
:100E3000E70FF11D83E0EE0FFF1F8A95E1F7E60F44
:100E4000F11DEE0FFF1FEA52FF4F85919491089517
:100E5000FC01EE0FFF1FEA56FE4F85919491089515
:100E6000CF93DF930E9413070E942308EC018115A2
:100E700021E59207D0F5811530E5930708F096C07B
:100E800081159042F8F4C11581E0D807B8F4C03E4E
:100E9000D10588F4C03CD10508F07BC0C130D10534
:100EA00069F0209759F0CE010497813A910530F00E
:100EB000D0E0C0E003C0C83ED105D0F7CE01DF913D
:100EC000CF910895C11590E4D90708F06CC0CE0108
:100ED0009F70C11520E3D20708F45EC0CE019927A8
:100EE000D3FF5EC0EC01D86CE9CF811535E59307DF
:100EF00000F5811544E5940708F08DC0C11583E520
:100F0000D80708F074C0C11592E5D90708F46AC083
:100F1000CE018370992721E030E002C0220F331FF9
:100F20008A95E2F7C695C69580E2C89FE001112434
:100F300055C0811529E59207A0F4811538E593077E
:100F400008F06EC0811546E5940708F0B1CF0E9405
:100F5000BA08C82FD0E0DC2FCC27CC27DF71D062B5
:100F6000ADCFC1158AE5D80708F45FC0CE01905611
:100F70008115904208F09CCF8D2F8F710E94BA0886
:100F800090E0982F882788279F719C012C2BE901DE
:100F9000E6CFCE01805C91090E942807EC018ECF3C
:100FA000EC01D06C8BCFDF70D06A88CFE4E09695EF
:100FB0008795EA95E1F783702C2F26952695237067
:100FC00040E2249F90011124382B8C2F8370C1E0C4
:100FD000D0E002C0CC0FDD1F8A95E2F7C22BD32BE5
:100FE000DC686CCFDC2FCC27C16FD06A67CFCE0115
:100FF0008370992721E030E002C0220F331F8A95C9
:10100000E2F7C695C69590E2C99FE0011124C22B74
:10101000D32BDA6853CFD82FCC27C46FD06A4ECFEA
:10102000D82FCC27C06FD06A49CF8C2F8F700E94E9
:10103000BA0834E0D695C7953A95E1F7CF709C2F62
:10104000EC01D0693BCF82389105B1F1B0F4813326
:10105000910509F475C048F48932910509F469C015
:101060008A32910509F473C008958533910509F416
:1010700059C08933910501F10895833E9105A9F185
:1010800038F4803E9105F9F0823E910549F10895CA
:10109000863E9105A9F1873E9105C9F1843E9105EF
:1010A00019F52091950421FF1FC08091940484FDBF
:1010B00014C087EE90E00895209194042370A1F06D
:1010C00080EE90E008952091940420FD47C0309177
:1010D000950430FF09C024FF44C090E080E004C0C4
:1010E0002091940422FDF7CF08952091940422FDCD
:1010F0003BC03091950430FDE3CF24FFF5CFEDCF19
:101100002091940423FFF0CF24FDE7CFD2CF20918C
:10111000940423FD2CC03091950431FFEECF84EE72
:1011200090E008952091940425FFDECF89E290E0BD
:1011300008952091940425FFD7CF85E390E008958A
:101140002091940426FFD0CF8AE290E00895209168
:10115000940426FFC9CF81E390E0089589E390E0ED
:10116000089583EE90E0089582EE90E0089586EE73
:1011700090E008959091940492FF06C0282F287162
:101180002830F9F4877F846093FF06C0282F2871E8
:101190002831F1F4877E84612091950420FF06C0F8
:1011A000382F38713830D9F4877F816021FF06C02D
:1011B000282F28712831D1F4877E816194FD877EA4
:1011C0000895282F24712430F9F68B7F8860DCCFB6
:1011D000282F2471243101F78B7E8861DDCF382FD1
:1011E0003171313019F78E7F8860E0CF282F21715F
:1011F000213121F78E7E8861E1CF08950C94FD089E
:1012000008950C940009E82FF0E0EF5CFD4F808119
:101210000895089580EA8A95F1F7089500C0089529
:101220000C940A09F894E82FE295EF70F0E031A1F0
:10123000282F2F7081E090E001C0880F2A95EAF7EF
:10124000982F9095932391A392A1892B82A37894B0
:101250000895CF93DF9387E90E94120986EC0E94DC
:10126000120984E30E94120985E30E941209C8E270
:10127000D1E089910E94120981E0C033D807C9F7F3
:1012800010922D021092310210922E021092320210
:1012900010922F02109233021092300210923402F8
:1012A00084E00E94D209DF91CF910C945106BF9245
:1012B000CF92DF92EF92FF920F931F93CF93DF9322
:1012C00000E311E0CDE2D2E0C12CD12CEE24E39476
:1012D000F12CF80181918F01F894E82FE295EF70DD
:1012E000F0E021A18F70A70102C0440F551F8A951D
:1012F000E2F7CA01922F982B91A392A1809589239E
:1013000082A378940E940E09E8E2F1E030E020E048
:10131000B12C4191A42FA295AF70B0E090968C9122
:1013200090E04F7002C0959587954A95E2F780FD51
:1013300035C08E2D022E01C0880F0A94EAF7B82A14
:101340002F5F3F4F2830310521F7F8013197808119
:101350000E94120953E0C5120E9410098881B81634
:10136000F9F0B88281E0D82AC394219684E0C812AB
:10137000B0CF2D2D44E061E372E08DE292E00E9457
:10138000D3090E9459068D2DDF91CF911F910F91A6
:10139000FF90EF90DF90CF90BF90089580E0CFCF87
:1013A00080E0E1CF0895FF920F931F93CF93DF93D7
:1013B000F82E092F162FD72FC42F222349F081E0B2
:1013C000809366010E94C22290936501809364011C
:1013D000809166018823A1F080916401909165015C
:1013E0000E94DA22069760F0EF2DF02FA12FBD2F7B
:1013F000CE0FDF2FD11DEC17FD0741F410926601CF
:10140000DF91CF911F910F91FF90089581918D935E
:10141000F2CFEF92FF920F931F93CF93DF93EB01E5
:10142000E82FD11110C0442321F0F0E0E355FD4F27
:10143000E4916E2F7E2F8E2FDF91CF911F910F9110
:10144000FF90EF9008950D2F10E0282F30E04423F7
:1014500029F023553D4FF901249130E0F6E0CF9F6C
:10146000C0011124EFEFF0E0BF010E94E629AB01BB
:101470008C2F90E0880F991FA5E5A49FB001A59F30
:10148000700D1124861B970B982F990F980FBF0191
:10149000601B710B629FD001639FB00D729FB00DF6
:1014A00011248B2F9D9FB0011124672F7727EF0107
:1014B000C61BD70BBE01629FE001639FD00D729FD8
:1014C000D00D11247F01E91AF108E09EB001E19EE0
:1014D000700DF09E700D1124672F7727E61BF70B18
:1014E000E29F8001E39F100DF29F100D1124E12F68
:1014F000722F4230510599F048F44115510569F0B9
:101500004130510581F0EB2F8D2F07C0443051053C
:1015100069F080F046305105B1F76E2F8DCFE22F84
:101520007B2F812FFACFE22F7D2FF7CFEB2F822F4A
:10153000712FF3CF7B2F822FED2FEFCF41E00C9453
:10154000090A08950C949E0ACF93DF93762FE90140
:10155000682F842F0E94A20A798368838A83DF918F
:10156000CF910895493708F048E70C94A40A809178
:101570003502982F9E7F61F48170826080933502DE
:1015800080913802893718F088E7809338020895EF
:101590008A34B0F381708864F1CF88E090E00C94D5
:1015A000922ACF92DF92EF92FF926B017C010E9410
:1015B000B70AB701A60188E090E0FF90EF90DF90B6
:1015C000CF900C94B02AE5E3F2E083E080831182AF
:1015D0008FEF828388E783831482608171818281A7
:1015E00093810C94D10A8091350280FF02C08695C8
:1015F000089580E0089590913902933018F49F5F28
:1016000090933902882351F060913502709136022F
:1016100080913702909138020C94D10A089581E0AC
:101620000C94FB0A90913902992319F091509093F0
:101630003902882351F06091350270913602809111
:101640003702909138020C94D10A089581E00C94ED
:10165000120B70E00C94E31060910501809135024B
:1016600080FF0AC08091040123E0829FC001112401
:10167000865C9D4F0C94290B809106019091070187
:1016800023E0829FF0011124E65CFD4F891750F79B
:101690001182108212828F5F3396F8CF90913502BB
:1016A00090FF14C0909106012091070133E0939FB1
:1016B000F0011124E65CFD4F921710F00C942C0BF6
:1016C0008183608342839F5F3396F6CF0895CF93E3
:1016D000DF9300D00F92CDB7DEB79091350290FF27
:1016E0000AC09E012F5F3F4F0E94B20A4B81698161
:1016F0008A810E944E0B0F900F900F90DF91CF9137
:101700000895CF93DF93EC01EC81F0E0E855FE4FB4
:101710004491E5E3F2E0628181810E94670B8C8154
:101720008F5F8C83DF91CF910895CF93DF93EC018E
:10173000E5E3F2E0438162818C810E94670B8C813A
:101740008F5F8C83DF91CF9108950F931F93CF9379
:10175000DF9300D00F92CDB7DEB78C018091670187
:1017600081110AC09E012F5F3F4F48E76FEF0E9433
:10177000B20A8A8180936701F8016481613069F05F
:101780008091670140E0662361F040E0623011F42F
:101790004091670180E060E004C06091670140E033
:1017A00080E00E944E0BF801848190E0019663E096
:1017B00070E00E94FA2984830F900F900F90DF91C0
:1017C000CF911F910F910895AF92BF92CF92DF9268
:1017D000EF92FF920F931F93CF93DF9300D00F925E
:1017E000CDB7DEB7182FF62E042FE22E90913502DA
:1017F00090FF29C0E92FE695AE2FB0E0AC5CBE4F5C
:101800008C91809373019E7F923059F59E012F5FDA
:101810003F4F812F0E94B20A4B8169818A810E94C9
:101820004E0B10933602F092370200933802EE20EE
:1018300051F060913502709136028091370290919B
:1018400038020E94D10A0F900F900F90DF91CF9134
:101850001F910F91FF90EF90DF90CF90BF90AF90CE
:101860000895823019F400913802DBCF863019F4E4
:1018700010913602D6CF8930D9F3893191F6E951EA
:101880008E2F8170D82EE695F0E0E855FD4FA5909B
:10189000B490C12CBB2460910801C61618F00E94B8
:1018A0002C0BBFCF2C2D30E0A29EC001A39E900D2B
:1018B000B29E900D112470E00E94E629812FD11074
:1018C00013C0860F40910601420F532F511D9A01FC
:1018D000220F331F240F351F265C3D4F402F6F2DE5
:1018E0000E94B20AC394D7CF861BECCFE5E3F2E0A7
:1018F0009181282F4381628188E0890F0C94E40B49
:1019000081E00C94760CE5E3F2E09181282F43818D
:10191000628188EF890F0C94E40B81E00C94830CB6
:10192000E5E3F2E0628128E0620F08F46FEF282F10
:10193000438181810C94E40B81E00C94900CE5E3ED
:10194000F2E0628128E0621B08F460E0282F438106
:1019500081810C94E40B81E00C949F0CE5E3F2E0B0
:10196000438128E0420F08F44FEF282F62818181E4
:101970000C94E40B81E00C94AE0CE5E3F2E04381BF
:1019800028E0421B08F440E0282F628181810C94FA
:10199000E40B81E00C94BD0C20E00C94E40BEF927E
:1019A000FF921F93CF93DF93EC0110E0EE24EA94B3
:1019B000F12C60910801161770F00E942C0B9A818F
:1019C0008C8190FF27C08F5F8C83DF91CF911F9117
:1019D000FF90EF90089520910601422F410F552767
:1019E000551FCA019A01220F331F280F391F265C89
:1019F0003D4F70E0C7010E94FA29962F8C814091DB
:101A0000380260913702199F800D11240E94B20A9A
:101A10001F5FCFCF8150D8CFAF92BF92CF92DF92CE
:101A2000EF92FF920F931F93CF93DF93FC0182817C
:101A30000FEF80FF01E010E04CE1A42E809108013F
:101A40001817C8F00E942C0B80916901013009F031
:101A500055C0811102C080910801815080936901B5
:101A6000DF91CF911F910F91FF90EF90DF90CF907A
:101A7000BF90AF900895C0910601C12ED12CCC0D1E
:101A8000DD2DD11DCE01880F991FC80FD91FC65C4F
:101A9000DD4F198218821A8234E0E32EF12CB12C2A
:101AA000809169018B0D8D311CF16A2D0E94D8291E
:101AB000892F082E000C990BC816D90691F4809135
:101AC00038028E9DA0018F9D500D1124559547958C
:101AD000559547959E0160913702809136020E948C
:101AE000B20AB00EF1E0EF1AF108D1F61F5FA6CFEF
:101AF00087FFDFCF90910801890FDBCF90E001963F
:101B00006091080170E00E94FA29A8CF0F931F93FB
:101B1000CF93DF93809106019091070123E0829F8C
:101B2000F0011124E65CFD4F891740F1C0E0D3E0DD
:101B300060910801C61740F10E942C0B2091020110
:101B400080916801820F8093680190910301920F48
:101B500090930301191654F4082E000C990B409130
:101B600008014150550B841795071CF021952093CF
:101B70000201DF91CF911F910F9108951182108280
:101B800012828F5F3396D0CF0C2F10E070E0C80127
:101B90000E94FA2920910601820F482F50E02091DF
:101BA0006801022E000C330B02171307BCF02091C2
:101BB0000301022E000C330B201731077CF08D9FA0
:101BC00090011124265C3D4F40913802609137020C
:101BD000809136020E94B20ACF5FAACFFA01EE0FBF
:101BE000FF1FE40FF51FE65CFD4F11821082128289
:101BF000F3CF8F929F92AF92BF92CF92DF92EF92EC
:101C0000FF920F931F93CF93DF93EC014C81042F2E
:101C100010E09801D8010E943E2A9B01AC010E946D
:101C2000542A4B015C01E0E2F0E0E01BF10BA5E57A
:101C3000B0E0AC019B010E94542A6B017C019F0122
:101C4000DF010E94362A9B01AC010E945F2A9B01A2
:101C5000AC01280D391D4A1D5B1DC701B6010E944C
:101C60000E2AF22E822F90E039E23F1560F143E018
:101C7000249F9001112435952795122F109500E08F
:101C800085E5E82EEF1880910801081758F10E94A9
:101C90002C0B9C8181E0992319F0903219F48FEF7D
:101CA0008093010180910101890F8C83DF91CF9195
:101CB0001F910F91FF90EF90DF90CF90BF90AF906A
:101CC0009F908F90089525E530E0B901681B790B4E
:101CD0009B01220F331F260F371F37FFCCCF2F5FFB
:101CE0003F4FC9CF8E2D01FD8F2D20910601622F10
:101CF000600F7727771F9B01220F331F260F371F97
:101D0000265C3D4F412F609137020E94B20A0F5F5F
:101D1000BACF0F931F93CF93DF93EC0110E000E055
:101D2000909108019017110609F06CF40E942C0B99
:101D30008C8190E00196817099278C83DF91CF91FF
:101D40001F910F91089520910601A801420F511D86
:101D50009A01220F331F240F351F265C3D4F4C8103
:101D6000609137028091360296959017110651F0D6
:101D70004CF0442349F0409138020E94B20A0F5FB0
:101D80001F4FCECF4423B9F340E0F7CFE5E3F2E0B5
:101D900080818E7F808360817181828193810E94A6
:101DA000D10A109274012FEF80E792E02150804019
:101DB0009040E1F700C000000C942C0BE5E3F2E04A
:101DC00080818E7F8083109274012FEF80E792E0F4
:101DD000215080409040E1F700C000000C942C0B93
:101DE000109274018091710181110AC081E0809389
:101DF0007101809135028170809370010C94DE0E28
:101E0000089560913502669570E04BE050E089E0FE
:101E100091E00E94702A892B19F481E0809374016B
:101E20000E94C22290936B0180936A010895909161
:101E3000350290FF35C09170811128C09260909357
:101E40003502662351F0609135027091360280911F
:101E50003702909138020E94D10A6091350266954E
:101E600070E04BE050E089E091E00E94702A892BFD
:101E7000A1F01092740181E080936D0140913802CD
:101E800060913702809136020C94CC0C853210F0B0
:101E90009864D5CF880F982BD2CF0E94010FEBCF3B
:101EA0000895682F90913502969581E0890F8532CB
:101EB00008F081E00C94170F81E00C94510F682F0B
:101EC0009091350296958FEF890F09F484E20C9476
:101ED000170F81E00C945F0F61E00C94170FE5E39E
:101EE000F2E080818160808386950C946C0F8091F4
:101EF000350280FD0C94C60E0C946F0F60E00C94BC
:101F0000170F8091720181112EC00E943F21811113
:101F100004C00E94E3210E94E30A0E94CD0A60935C
:101F200035027093360280933702909338026E7FA9
:101F300061F40E94E30A0E94CD0A60933502709317
:101F4000360280933702909338020E94B70A1092AB
:101F500074018091350280FF03C086950E947E0F38
:101F600081E0809372010895E5E3F2E08081816071
:101F7000808386950C947E0F109271018091700180
:101F800081110E94B40F0C94010F0F931F93CF93F4
:101F9000DF9380917401882309F486C080917301D6
:101FA000E0913502E695E81BE0936C01823091F5F3
:101FB000F0E0EC55FE4FE491CE2FD0E001E81BE0BD
:101FC00080916D01882361F010926D010E94C22200
:101FD00090936B0180936A0110926F0110926E01D1
:101FE0000E94C222E0916A01F0916B018E1B9F0B4F
:101FF0008F3F9F4708F058C0EC0FFD1FF0936B0117
:10200000E0936A018AE691E0F801DF91CF911F9198
:102010000F910994863049F4F0E0EF55FE4FE491BA
:10202000CE2FD0E005E91BE0CBCF893051F4E69507
:10203000F0E0E256FE4FE491CE2FD0E00FEC1CE032
:10204000BFCF8F3051F4E695F0E0E556FE4FE491B6
:10205000CE2FD0E00CE01DE0B3CF853149F4F0E0A5
:10206000E856FE4FE491CE2FD0E006E81DE0A8CF61
:10207000C8E2D0E009EF1DE0883109F4A1CF833236
:1020800039F4E6E9F1E0C591D49105EA1BE098CF77
:10209000C4EFD1E009E81EE0843209F491CFC0ED2D
:1020A000D7E001EA1AE08CCFDF91CF911F910F9119
:1020B0000895FA01811101C0FB010994CF93DF93C8
:1020C000C82FD62F0E94F30A8C1740F00E94F30A03
:1020D0008D1720F4DF91CF910C945C0F8C2FDF9142
:1020E000CF910C946C0F0F931F93CF938C01FB0136
:1020F000C281CC2309F465C00E948E208272F8014F
:10210000E35CFC45E431F10538F4EC52F54D0C94F8
:10211000302A0E94770FC0E08C2FCF911F910F9132
:10212000089549E65FE06CE57FE00E945910F3CF27
:102130004CE55FE069E67FE0F8CF4DE85CE060E801
:102140007CE0F3CF40E85CE06DE87CE0EECF4BEA6A
:102150005CE06CE97CE0E9CF4CE95CE06BEA7CE0B8
:10216000E4CF49EC5CE06AEB7CE0DFCF4AEB5CE07B
:1021700069EC7CE0DACF46E25BE06FE07BE0D5CF54
:102180004FE05BE066E27BE0D0CF81E00E946C0F25
:10219000C2CF65E082E00E945E10BDCF68E086E0BD
:1021A000FACF6EE089E0F7CF64E18FE0F4CF67E12A
:1021B00085E1F1CF88E1EACF62E289E1ECCF83E209
:1021C000E5CFC1E0A9CF539A4BB1477F5BB15860CF
:1021D000EFB7F8949B01220F331F260F371F280FEC
:1021E000391F2817390741F4EFBF8FE594E00197B5
:1021F000F1F700C000000895DC016D91CD0178E099
:102200005BB9000000C067FF4BB9660F000000C05B
:1022100000C000C04BB900C07A9591F7E2CFCF92D1
:10222000DF92EF92FF920F931F93CF93DF936C0196
:102230007B0164E670E088E70E940916EC0197FDD7
:1022400012C010E000E0F601E00FF11F849164E697
:1022500070E00E946516EC01892B29F40F5F1F4F77
:102260000E151F0581F70E94E816CE01DF91CF9170
:102270001F910F91FF90EF90DF90CF9008950895F8
:10228000EEE8F2E080E092E0DF019C011D92215037
:102290003040E1F7F0938F04E0938E048FEF9FEFCF
:1022A0009093A1018093A00108950E943F11809313
:1022B0009C0180FD0FC080E880939B010E94031663
:1022C0006DE070E084EC93E00E940F11892B21F007
:1022D00080E0089580E2F0CF80919C0163E070E09F
:1022E00081FD18C081EC93E00E940F11892B81F7CA
:1022F0006DE070E081EB93E00E940F11892B41F7B4
:102300000E94401181E080939F0180939E01109272
:102310009D0108958EEB93E0E7CF20919B0136E07D
:10232000839FC0011124629F800D911D112481158E
:1023300022E0920714F090E080E082579D4F909346
:102340008F0480938E04089520918E0430918F0421
:102350002858324040919B01642F70E0C9010E94CF
:10236000E629481B463010F4240F311D211582E068
:10237000380710F030E020E022573D4F30938F04B3
:1023800020938E0408951F93CF93DF93162F8A30E6
:1023900031F481E0DF91CF911F910C943D128D308B
:1023A00011F480E0F7CFC0918E04D0918F0496E0B5
:1023B000FE01A5E7B1E001900D929A95E1F7803E0C
:1023C000C8F086E0FE0111928A95E9F711111EC04E
:1023D000C0918E04D0918F0446E050E0BE0185E7A5
:1023E00091E00E947D2A892BF9F4DF91CF911F9112
:1023F0000C94A411F6E08F9FB00111246F527C4F12
:1024000046E050E0CE010E94672AE0CFE0918E04C2
:10241000F0918F049F012A5F3F4F2E173F07C1F2B3
:10242000808180958193F9CFCE58D240CE0125E0AE
:10243000969587952A95E1F721E030E0A90102C041
:10244000440F551F8A95E2F7CA014091A0015091AF
:10245000A101842B952B259645E0D695C7954A95E5
:10246000E1F702C0220F331FCA95E2F7822B932BAC
:102470009093A1018093A001B8CFCF93382FE09122
:102480008E04F0918F04EE58F24020919B01622F50
:1024900070E0CF010E94E629281B822F332369F0C8
:1024A00066E00E94CC29C82FC15010F4CF91089546
:1024B00060E080E20E94C311F7CF9F01280F311D19
:1024C0002115324018F080E0F0E0E0E08E0F9F2F01
:1024D000911D82579D4F90938F0480938E04E6CF79
:1024E0001F93CF93DF93EC01162FFE01849181118E
:1024F00004C0DF91CF911F910895612F0E94C311F5
:102500002196F3CF0E94701281E00C943D128091CD
:102510009E0190919F01992361F0811108C062E0B2
:1025200070E08FEA93E00E940F11892B19F08091DF
:102530009E01089581E080939E01F9CF2F923F92F2
:102540005F926F927F928F929F92AF92BF92CF9243
:10255000DF92EF92FF920F931F93CF93DF938091BF
:102560009F01882369F02091A0013091A1012115DC
:10257000310531F080919D0161E070E0882399F090
:10258000DF91CF911F910F91FF90EF90DF90CF904F
:10259000BF90AF909F908F907F906F905F903F9093
:1025A0002F9008958F5F082F10E01B01082E02C0A6
:1025B000220C331C0A94E2F7A90142215321452B36
:1025C00089F390919C0190FD44C08295880F80769C
:1025D0008093160198013695279536952795209377
:1025E0001901815E8093170110921A0124E630E0F0
:1025F00047E050E064E171E088E70E949416892B7F
:1026000009F0BECFA80125E0440F551F2A95E1F738
:1026100080919C0180FD2BC042575D4F04E610E085
:1026200020E230E060E488E70E94BB16892B09F0C5
:10263000A7CF0E948712E101C095D0958091A0019B
:102640009091A101C823D923D093A101C093A001E7
:1026500097CF880F880F880F809316011092190169
:10266000895F8093170183E080931A01BFCFEBE766
:10267000F1E080E2DF011D928A95E9F7ADE5B1E076
:1026800009E511E081E6C82E81E0D82E97E0592EA9
:10269000772473948D91E80129918E01240F352FB1
:1026A000311D22573D4FE82FF0E0E558FE4F90E0F6
:1026B00080E0652C681A872C082E01C0880C0A94CB
:1026C000EAF77901A12CE701B9907E01B820662DC7
:1026D0006A196770962E062E000C770BDB2D01C051
:1026E000DD0F9A94EAF77195619571096770772704
:1026F00001C0B6946A95EAF7BD2A6081962E9B28A0
:102700009082A39468E0A612DECF019631968830BD
:10271000910579F6CA16DB0609F0BCCF04E610E095
:1027200020E230E04BE751E07DCF80919E01909117
:102730009F01911103C091E089270895882369F0D2
:1027400062E070E08DEA93E00E940F11892B19F08E
:1027500080919E01089510929E0180919E01EBCF81
:1027600080919F01882341F060E080E00E948D11FC
:102770000E94DB050C949E1208950F931F93CF9334
:10278000DF93C42FD22FFC0182818823C9F04093AC
:10279000A4010E94C2229093A3018093A20180E22F
:1027A0008C0F883008F050C0C77081E001C0880FDE
:1027B000CA95EAF7DF91CF911F910F910C94C81839
:1027C0001091A401141335C08091A2019091A3012E
:1027D0000E94DA22883C910560F5C0E2CD0F1D17FA
:1027E000B9F080E2810F883040F4177081E001C0B9
:1027F000880F1A95EAF70E94CF18C83048F481E094
:102800009D2F977001C0880F9A95EAF70E94C8180B
:10281000802F0E94C018C830B8F4D77081E001C082
:10282000880FDA95EAF7DF91CF911F910F910C9401
:10283000CF1880E28C0F883038F4C77081E001C077
:10284000880FCA95EAF7EFCFDF91CF911F910F91D3
:1028500008950F939C01CB01243F4CE5340759F1B7
:10286000A8F4293DFCE53F0701F12A3D4CE534077A
:10287000D1F1283D3C4591F406E221EE41EE68EDB0
:102880007CE50E94BD1380E00F910895263FFCE592
:102890003F07E9F0B0F0273F3C45F9F0FC018281A9
:1028A000882339F11092A401EFCF07E225EE45EE1F
:1028B00069ED7CE5E6CF06E221EE40EE64EF7CE5D3
:1028C000E0CF07E225EE44EE65EF7CE5DACF06E2E5
:1028D00021EE42EE66EF7CE5D4CF07E225EE46EE30
:1028E00067EF7CE5CECF08E221E045EE6AED7CE5BE
:1028F000C8CF81E0C9CFCF93DF93EC01FB01828188
:10290000882309F419C1C230FCE5DF07C0F1C631E4
:102910009CE5D90730F09E012B5F3C4529303105FD
:1029200070F50E9452219093950480939404C031D5
:10293000ECE5DE0709F4CFC008F05BC0C8308CE5D9
:10294000D80709F4B6C088F5C430ECE5DE0709F411
:10295000A8C0C0F4C2308CE5D80709F49CC08091AF
:1029600094048260C330DC4509F498C080919404DB
:10297000909195040E9460210E940E1B80E0DF91DF
:10298000CF910895809194048061C630ECE5DE0714
:1029900009F484C0809194048860C730DC4508F451
:1029A0007DC080919404806279C0CC308CE5D807DA
:1029B00009F489C070F4809194048C60CA30ECE50D
:1029C000DE0709F46BC008F478C0809194048E7F10
:1029D00065C0CE308CE5D80709F479C080919404A5
:1029E0008B7FCF30DC4508F459C0809194048F7EF2
:1029F00055C0CC3FECE5DE0709F457C030F5C331D4
:102A00008CE5D80709F46FC078F4C131ECE5DE0736
:102A100009F465C0C231DC4509F0A8CF0E940E1B45
:102A2000809194048F773AC0C5318CE5D80709F4BA
:102A300062C008F476C0809195048160CB3FDC458C
:102A400009F094CF8093950491CFC115FDE5DF0780
:102A500009F44DC088F4809195048D7FCE3F9CE5AC
:102A6000D90781F3809195048E7FCF3FDC4550F3E9
:102A7000809195048360E6CFC230FDE5DF0709F45D
:102A800059C008F444C080E0C330DD4509F06ECF82
:102A90000E94E5216BCF809194048160809394041F
:102AA00065CF809194048460F9CF80919504826011
:102AB000C9CF809194048064F1CF0E940E1B809155
:102AC00094048068EBCF809194048D7FE7CF809150
:102AD0009404877FE3CF809194048F7DDFCF809132
:102AE00094048F7BDBCF80919404837FD7CF809138
:102AF00095048C7FA7CF8091940482FB992790F94D
:102B000021E0922790FB82F990FB83F9C7CF809157
:102B10009504982F909591708E7F892B90FB81F969
:102B200091CF0E940E1B90919404892F97FB87F9F7
:102B30008058B4CF81E0ACCF81E021CFCF93DF9339
:102B4000EB0186319C4511F50E948E209A819923D4
:102B500099F08A7A91E009F490E09093A5018111AF
:102B600009C089E20E9469200E94DA2080E0DF919A
:102B7000CF91089585E3F6CF8091A501811104C01E
:102B800089E20E947020F0CF85E3FBCF81E0EFCF98
:102B9000FC01E950FD45E032F105E8F423E0F6954B
:102BA000E7952A95E1F7EA55FE4F2081AC01477081
:102BB000552781E090E001C0880F4A95EAF7DB01D4
:102BC00012963C91332349F0822B80838091AB0194
:102BD00082608093AB0181E0089580958223F5CFD8
:102BE0000E94C815882369F08091AB0181FF09C05C
:102BF00086EA91E00E9478238091AB018D7F8093DB
:102C0000AB0181E008951092B9008CE08093B80088
:102C10000895EF92FF920F931F93CF93DF93182F96
:102C2000EB011092BC0084EA8093BC000E94C22297
:102C30007C018091BC0087FF27C08091B900887F0C
:102C4000883029F08091B900887F8031D9F51093C0
:102C5000BB0084E88093BC000E94C2228C0180915A
:102C6000BC0087FF24C02091B900287F90E080E05D
:102C70002831B1F081E090E0203411F490E080E060
:102C80009195819591090CC0CF3FDC0791F20E948C
:102C9000C2228E199F098C179D0758F28EEF9FEF65
:102CA000DF91CF911F910F91FF90EF900895CF3F4B
:102CB000DC07A9F20E94C222801B910B8C179D0792
:102CC00070F2ECCF8FEF9FEFEBCF0F931F93CF936B
:102CD000DF93EB018093BB0084E88093BC000E94EB
:102CE000C2228C018091BC0087FF11C02091B900E5
:102CF000287F81E090E0283211F490E080E0919507
:102D000081959109DF91CF911F910F910895CF3F48
:102D1000DC0741F30E94C222801B910B8C179D0798
:102D200008F38EEF9FEFEECFCF92DF92EF92FF92FC
:102D30000F931F93CF93DF936B018A017901B90140
:102D40000E940916E6010C0D1D1DC017D10761F484
:102D500024E92093BC00DF91CF911F910F91FF9048
:102D6000EF90DF90CF90089597FDF2CFB701899152
:102D70000E946516EACFCF92DF92EF92FF920F93F7
:102D80001F93CF93DF93C62F6A017901B8010E9488
:102D9000091697FD0CC0B8018C2F0E946516E6013C
:102DA000EC0CFD1CCE15DF0511F097FF0CC024E9DB
:102DB0002093BC00DF91CF911F910F91FF90EF9076
:102DC000DF90CF900895B80189910E946516EACFEF
:102DD00084E98093BC0008959093B1018093B00181
:102DE0000895E091B001F091B101309721F0019088
:102DF000F081E02D099480E00895E091B001F09118
:102E0000B101309721F00280F381E02D09940895FB
:102E10002091AE013091AF012817390771F09093DE
:102E2000AF018093AE01E091B001F091B101309714
:102E300021F00680F781E02D099408952091AC01DE
:102E40003091AD012817390771F09093AD0180934F
:102E5000AC01E091B001F091B101309721F0008414
:102E6000F185E02D099408950E94CE226093BB0164
:102E70007093BC018093BD019093BE016093B70134
:102E80007093B8018093B9019093BA01089585B702
:102E9000806885BF85B7806885BF089508950895C7
:102EA0000C944E1708950C9452170E9447178DE307
:102EB00091E20E941E230E944F170C94501781E04C
:102EC00008950C945F17089508950E94B9220E94F6
:102ED000290980E00E9455110E9423230E94810F3E
:102EE0000C9453179F92AF92BF92CF92DF92EF92C2
:102EF000FF920F931F93CF93DF93CDB7DEB72A973F
:102F00000FB6F894DEBF0FBECDBF0E9463170E94BC
:102F100064170E945709C82E81110E94341783EB51
:102F2000A82E81E0B82E10E000E0902E802F0E94A5
:102F30000309E82EF501F1905F01F81609F456C077
:102F40008091210281FD0E9409098F2D8E25D12CAF
:102F5000FF24F394982F9F2109F443C00E94611726
:102F6000882399F0DE829F82EF2081E009F480E0DF
:102F700088870E94C2228160782F9A8789874E8134
:102F80005F8168858A850E941F18F801ED54FE4F05
:102F90008081F826F0820E94C50F0E94B013C110F4
:102FA0000E9487120E94E1050E94F1169091B201E1
:102FB000891799F10E94F1168093B2012A960FB6F3
:102FC000F894DEBF0FBECDBFDF91CF911F910F915F
:102FD000FF90EF90DF90CF90BF90AF909F900C94B8
:102FE0000707D394FF0CF8E0DF12B4CF0F5F1F4F39
:102FF0000430110509F099CF8FEF89838A831B82F2
:103000000E94C2228160782F9D838C8349815A81DE
:103010006B818D810E941F18BECF2A960FB6F8943F
:10302000DEBF0FBECDBFDF91CF911F910F91FF90FB
:10303000EF90DF90CF90BF90AF909F900895DF9278
:10304000EF92FF920F931F93CF93DF93CDB7DEB72D
:103050002B970FB6F894DEBF0FBECDBF7A878B8754
:10306000F42E052F162FE72ED82E61110E94AE20C8
:103070001E821D827E2DEC82DD824F2D502F612F0E
:103080008D2D9E812B960FB6F894DEBF0FBECDBF5F
:10309000DF91CF911F910F91FF90EF90DF900C94F3
:1030A000841DFC01808191810C943B20CF93C82F1B
:1030B000882329F18CEF8C0F813AA0F46C2F80913A
:1030C0001B0190911C010E94FC21882329F08C2F68
:1030D0000E9470200E94DA208C2F0E946920CF91DC
:1030E0000C94DA2080E28C0F883048F4C77081E0BD
:1030F00001C0880FCA95EAF70E949120F0CFCF91C6
:103100000895882329F19CEF980F913A20F40E94AA
:1031100070200C94DA2090E2980F983050F4877069
:1031200091E001C0990F8A95EAF7892F0E949720B4
:10313000F0CF9BE5980F933020F490E080E00C9462
:103140000817885A873120F490E080E00C941E170D
:1031500008951F93CF93DF93182FEB010E94561809
:10316000209731F4812FDF91CF911F910C9481181A
:103170008FE99FE00197F1F700C000002197F0CFA1
:1031800070E060E0893311F460E570E00C94A918F8
:10319000882321F00E9491200C94DA20089588233E
:1031A00021F00E9497200C94DA200895BF92CF92CC
:1031B000DF92EF92FF920F931F93CF93DF936C01F7
:1031C000D62FC72FFC010281158112951F700E9416
:1031D0008720E82E8823A1F0E02E002389F08C2F91
:1031E000807F803429F080E28D0FE12C883040F020
:1031F00082E00E9425210E94872091E0E82EE926A6
:10320000BC2EB2949FE0B922EB2DF0E0E851F54DD1
:103210000C94302A1C2F1F70C07F11F01295107F64
:103220000023A9F0112359F080E28D0F883010F0AF
:10323000D11109C0812F0E9491200E94DA208D2F88
:103240000E94561814C0812F0E94A120F6CF8D2F06
:103250000E948118112359F080E28D0F883010F000
:10326000D1112CC0812F0E9497200E94DA202B2D93
:103270002850330B2430310520F40E94F1160E94AF
:103280000707EE2009F477C10E94832080FD73C1F7
:10329000F60112820E947D200E94081FC6010E9432
:1032A000DC1A0E947D20DF91CF911F910F91FF903A
:1032B000EF90DF90CF90BF900C94291F812F0E9438
:1032C000A720D3CFFC2FFF70FF2EC07FC03219F094
:1032D000F29480EFF822DD2369F0D13049F1002328
:1032E00091F1112351F1F601858180FFA8CF8F70F4
:1032F000858323C0002381F0111106C00E94C120E4
:103300008F290E94C818B3CF1130C1F70E94C12085
:103310008F290E94C720ABCF111106C00E94D02078
:103320008F2D0E94CF18A3CF113009F4A0CFF6CF74
:10333000002329F0163008F09ACF8F2DE2CF1530F8
:1033400008F095CFEDCF112359F3D93349F4FFEFAE
:1033500027EE33E0F15020403040E1F700C000009C
:103360008D2F0E94811883CF8C2F837009F041C06C
:1033700001117DCF4D2F429546954770440F440F64
:103380000D2F0F7010E030E020E0042E04C0000F7D
:10339000111F221F331F0A94D2F760E070E0CB01A7
:1033A000D4FF0FC06FE070E080E090E004C0660FD3
:1033B000771F881F991F4A95D2F760957095809561
:1033C0009095C695C695C370602B712B822B932B5D
:1033D000C23049F058F4C13019F00E94BA1E47CFEC
:1033E0000E94A81E44CF0E94CC1E41CF0E94A61E60
:1033F0003ECF8695002311F08C2F8170882309F42D
:1034000036CF4D2F429546954770440F440F0D2FF0
:103410000F7010E030E020E0042E04C0000F111FF8
:10342000221F331F0A94D2F760E070E0CB01D4FF73
:103430000FC06FE070E080E090E004C0660F771F7F
:10344000881F991F4A95D2F7609570958095909541
:10345000C695C695C370602B712B822B932BC230FF
:1034600049F058F4C13019F00E947F1F00CF0E942C
:103470006D1FFDCE0E94911FFACE0E94E21EF7CE74
:10348000CF70002329F08C2F0E94081F8D2F39CF79
:103490008D2F0E94CF188C2F0E94291FE8CED23F7B
:1034A00089F160F4D03FC9F0D13F29F1002309F43C
:1034B00042C01111C4CE8C2F8F7121C0D33F39F17E
:1034C000D43FA1F7002369F1CF718C2F0E94081F10
:1034D00063E08C2F0E941021CACE002341F01530EA
:1034E00008F0C5CE8C2F8F710E944C1FC0CE1630B5
:1034F00008F0BDCEF7CF8C2F8F71002369F20E94A8
:10350000081FB5CE8C2F8F710023C9F3C5CF0023C0
:1035100029F08C2F8F710E94F31EA9CE0E94EE1EFF
:10352000A6CE81E00E942521123008F4A0CE82E0D0
:103530000E9425219CCE112359F0D93309F010CFD8
:103540008FEF97EEE3E081509040E040E1F706CF47
:103550008C2F8F71A1CF4C2F4F706D2FC6010E9401
:103560000F070E941E1E83CE4C2F4F706D2FC60179
:103570000E9412077CCEDF91CF911F910F91FF9097
:10358000EF90DF90CF90BF9008950F931F93CF934C
:10359000DF93EC01688179818A810E9445208C014A
:1035A0000E94A31F0E94A51EB801CE01DF91CF91FA
:1035B0001F910F910C94D618CF93DF93EC018B8160
:1035C0009C81892B29F08881998189238F3F59F427
:1035D000DF91CF910895CE010E94C51ACE01DF91EF
:1035E000CF910C944606CE010E946B068111F3CF59
:1035F0000E948720882361F38A81882349F382E02F
:10360000DF91CF910C9425210E94AE200E94BE2014
:103610000C94DA200E9477200C94041B0E949E20B8
:103620000C940A1BE92FE295EF70E250EE3070F433
:10363000F0E0E850F54D0C94302A803F19F020F46A
:10364000883E20F481E00895843FE1F380E008950E
:10365000883EC0F3813FD1F7F5CF93FB882780F9EF
:1036600008950E943B200C94121BCF93DF9300D04F
:1036700000D00F92CDB7DEB70F900F900F900F9044
:103680000F90DF91CF910895CF93DF9300D000D0BA
:1036900000D0CDB7DEB726960FB6F894DEBF0FBECA
:1036A000CDBFDF91CF9108951F93CF93DF93C0914A
:1036B000C00116E08091C1018C1304C0DF91CF914D
:1036C0001F910895D0E01C9FF0011D9FF00D112463
:1036D000EE53FE4F408151816281738184819581D7
:1036E0000E94441B2196C770E5CF4091F201509192
:1036F000F3016091F4017091F5018091F6019091D0
:10370000F7010C94441B1F93CF93DF938091F70133
:10371000807FA9F48091F401882389F08091C00111
:10372000C091C1016091F2017091F301A091F50186
:10373000B091F601D62FD72316E0C81304C0DF914D
:10374000CF911F91089590E0109711F0DF3F19F489
:1037500001968770F2CF189F9001199F300D1124A8
:10376000F901EE53FE4F41814713F2CF40814613DA
:10377000EFCF42814111ECCF438154814A1B5B0B57
:10378000483C510528F78091F7018F708061809344
:10379000F701F901E953FE4F80818F7080618083CA
:1037A00082EF91E00E94DC1ADF91CF911F910C947F
:1037B000541BAF92BF92CF92DF92EF92FF920F9382
:1037C0001F93CF93DF93CDB7DEB761970FB6F89411
:1037D000DEBF0FBECDBF8C0185E0F801DE011D9676
:1037E00001900D928A95E1F7F80140815181E280C4
:1037F00082EFC82E81E0D82E6091F5017091F6011C
:103800006115710509F461C19091F2012091F301F4
:10381000892F82238F3F09F458C1A380B480F09090
:10382000F401F501E61BF70BFF2009F4FCC08091C1
:10383000F701382F307FE83CF10508F0B2C03111B4
:1038400079C0FE2C251323C0941321C0E1101FC0A2
:103850008F7080618093F7010E94751BC6010E94E2
:10386000DC1A8091F701F80185838F2D61960FB6E0
:10387000F894DEBF0FBECDBFDF91CF911F910F91A6
:10388000FF90EF90DF90CF90BF90AF900895AB285E
:1038900029F0842F85238F3F09F033C180E0F82F72
:1038A000F170DF2E80FF3CC08091C0012091C101EA
:1038B00036E0821315C04D875E878D859E850E94F8
:1038C0003B20292F22952F702230F0F0243018F55C
:1038D0009F70F1F0F8019581907FD1F4D12C1EC03A
:1038E00090E0389FF001399FF00D1124EE53FE4F08
:1038F0006181651306C06081641303C062816E112B
:103900000FC001968770D5CF9F7011F0882331F3D7
:10391000805E883018F3C8010E94DC1AFD2CA5CF08
:10392000EE2009F4A2CF8091F70181608093F70126
:10393000F12C9BCF251306C0941304C0F801EE2090
:1039400009F48DC04D875E878D859E850E94311B51
:10395000882319F1EE2009F18091F701803270F08F
:103960002091F2013091F30138872F831986BB86AD
:10397000AA868C87CE0107960E94DC1A86E0F801A1
:10398000A2EFB1E001900D928A95E1F70E94831BAE
:103990000E94751BFF24F39468CFC8010E94DC1AB3
:1039A000F9CF311113C07A2DB98AA88A6E2D898971
:1039B0000E94351B82EF91E00E94DC1A86E0F6013E
:1039C00011928A95E9F70E94751BB2CF25130FC09B
:1039D00094130DC0E1100BC0F8018583C8010E944B
:1039E000DC1A86E0F60111928A95E9F73ECF4D8701
:1039F0005E878D859E850E94311B882371F2EE20A3
:103A000061F28091F701803208F4B8CF2091F20181
:103A10003091F3013A8329831B82BD82AC828E836D
:103A2000CE010196A9CFE83CF10508F041C0FE2C7B
:103A3000EE2009F4B2CF25132AC0941328C0809138
:103A4000F70180FD1BC0982F907FC1F0F80185839E
:103A5000903F31F0982F907F905F8F70892B8583F6
:103A6000C8010E94DC1A86E0F801A2EFB1E00190E3
:103A70000D928A95E1F70E94751BF7CE86E0F8015A
:103A8000A2EFB1E001900D928A95E1F7EECE4D875D
:103A90005E878D859E850E94311B81116FCF80913D
:103AA000F70181608093F701C8010E94DC1ADDCE26
:103AB0007A2DB98AA88A6E2D89890E94351B86E0E5
:103AC000F60111928A95E9F7D6CFEE2009F465CF79
:103AD0004D875E878D859E850E94311BF82E882339
:103AE00009F45BCF86E0F801A2EFB1E001900D92FE
:103AF0008A95E1F782EF91E00E9451180E94831BA2
:103B0000BACF81E08E25CBCE1F93CF93DF93CDB775
:103B1000DEB72C970FB6F894DEBF0FBECDBF4F8334
:103B2000588769877A878B879C87CE0107960E9482
:103B3000D91B882369F08A859B85892B39F04F81B1
:103B40005885842F85238F3F09F071C016E05FC030
:103B500086E0FE013796DE01119601900D928A955E
:103B6000E1F78A859B85892B89F38F819885892345
:103B70008F3F61F32091C10130E0C9010196877048
:103B800099274091C0014817190671F40E940E1B35
:103B90001092C1011092C00186E0E2EFF1E0DF0176
:103BA0001D928A95E9F7D2CF96E0929FD001939F1C
:103BB000B00D1124AE53BE4FFE01319601900D920F
:103BC0009A95E1F78093C1010E94541BBFCF819F5A
:103BD000C00111248E539E4F0E94D91B8823E9F007
:103BE000E091C0011E9FF0011124EE53FE4F408171
:103BF000518162817381848195810E94441B8091EF
:103C0000C00190E00196877099278093C001809150
:103C1000C0019091C1018913DACF2C960FB6F894A8
:103C2000DEBF0FBECDBFDF91CF911F910895698593
:103C30007A858B859C850E94441B88CFEF92FF92EA
:103C40000F931F93CF93DF938C01892B81F0F12C7D
:103C5000EE24E394E8012196F8018491843770F40E
:103C6000843008F05FC08130B1F08230A1F1DF9183
:103C7000CF911F910F91FF90EF900895853709F430
:103C80004CC008F43DC09CE7980F903780F78F77C1
:103C90000E94811849C00E5F1F4FFE01849190E27F
:103CA000980F983060F48770FE2D01C0FF0F8A9541
:103CB000EAF78F2F0E94B1200E94DA2002C00E94F2
:103CC00056188F2D815030F2EFE9FFE03197F1F770
:103CD00000C00000F7CF0E5F1F4FFE01849190E2FD
:103CE000980F983050F48770FE2D01C0FF0F8A9511
:103CF000EAF78F2F0E94B720DFCF0E948118E1CF13
:103D00000E5F1F4FFE01C491C150D8F28FE99FE0B2
:103D10000197F1F700C00000F7CF0E5F1F4FFE01C3
:103D2000F490CFCF0E9456188E01CBCF08950C94FB
:103D3000961E0E94971E609310027093110280934A
:103D40001202909313020C94041B08950C94991E74
:103D50000F931F93009110021091110220911202F3
:103D600030911302602B712B822B932B1F910F919B
:103D70000C94991E0F931F93009110021091110241
:103D80002091120230911302602371238223932326
:103D90001F910F910C94991E0F931F930091100285
:103DA00010911102209112023091130260277127A5
:103DB000822793271F910F910C94991E0C94961EA5
:103DC0000C94DE1E0E94E01E60930C0270930D02A4
:103DD00080930E0290930F020C94041B60E070E03D
:103DE000CB010C94E21E0F931F9341E050E060E082
:103DF00070E08A019B0104C0000F111F221F331FB6
:103E00008A95D2F7C901B8011F910F910C94E21E57
:103E10000F931F9341E050E060E070E004C0440F56
:103E2000551F661F771F8A95D2F780910C029091DB
:103E30000D02A0910E02B0910F028A019B01082B86
:103E4000192B2A2B3B2BC901B8011F910F910C9400
:103E5000E21E0F931F9341E050E060E070E004C069
:103E6000440F551F661F771F8A95D2F7CB01BA0101
:103E7000609570958095909500910C0210910D02BF
:103E800020910E0230910F0260237123822393232D
:103E90001F910F910C94E21E0F931F9341E050E08D
:103EA00060E070E004C0440F551F661F771F8A95BD
:103EB000D2F780910C0290910D02A0910E02B09168
:103EC0000F028A019B01082719272A273B27C901CE
:103ED000B8011F910F910C94E21E0F931F93009154
:103EE0000C0210910D0220910E0230910F02602BF6
:103EF000712B822B932B1F910F910C94E21E0F9329
:103F00001F9300910C0210910D0220910E0230912E
:103F10000F0260237123822393231F910F910C942E
:103F2000E21E0F931F9300910C0210910D0220913D
:103F30000E0230910F0260277127822793271F916D
:103F40000F910C94E21E0895990F990F990F890F04
:103F5000982F977041E001C0440F9A95EAF7869533
:103F60008695869595E0899FF0011124E850FE4FD3
:103F700030E020E070E05191DF011197CB01022E7B
:103F800002C0969587950A94E2F7817081958527FE
:103F9000842385278C932F5F3F4F2530310559F7B8
:103FA0000895990F990F990F890F982F97708695FB
:103FB0008695869525E0829FF0011124E850FE4FFA
:103FC00050E040E080E0219130E0092E02C03695BB
:103FD00027950A94E2F721703327042E01C0220F9F
:103FE0000A94EAF7822B4F5F5F4F4530510559F72E
:103FF0000895BF92CF92DF92EF92FF920F931F939B
:10400000CF93DF938C01C0900C02D0900D02E09012
:104010000E02F0900F028091100290911102A09177
:104020001202B0911302C82AD92AEA2AFB2ACFE148
:10403000D0E0BC2ED701C6010C2E04C0B695A795C2
:10404000979587950A94D2F780FD0EC0219788F73F
:10405000B12C8B2DDF91CF911F910F91FF90EF909D
:10406000DF90CF90BF900895B8018C2F0E94300749
:10407000019761F3EECFCF93DF93EC010E94F91F1C
:10408000BE01DF91CF910C9430071F93CF93DF9344
:10409000EB019091BF01992331F0CB01DF91CF91DA
:1040A0001F910C943B20882379F0CB010E94F91FCB
:1040B000182F682FCE010E94A41FBE01812FDF910F
:1040C000CF911F910C943007CB010E94D11F182F64
:1040D000F4CF682F80911B0190911C010C94322227
:1040E000682F80911B0190911C010C9434228091C7
:1040F0001B0190911C010C9436228091140285952D
:104100008595859508958091140287700895909102
:104110001402977081E009F480E0089580912002F4
:10412000089590912002892B809320020895809514
:1041300090912002982390932002089510922002DB
:10414000089590911F02892B80931F0208958095F6
:1041500090911F02982390931F02089510921F02BE
:10416000089590911E02892B80931E0208958095D8
:1041700090911E02982390931E02089510921E02A1
:10418000089580911502089508950C94C42090918B
:104190001502981721F0809315020C94C5200895FC
:1041A00080911502882329F01092150280E00C946A
:1041B000C5200895E0911B01F0911C01809120021F
:1041C0008083E0911B01F0911C01808190911F027E
:1041D000892B8083E0911B01F0911C0180819091DB
:1041E0001E02892B808390911502992381F0E09122
:1041F0001B01F0911C018081892B808380911B0120
:1042000090911C010E94EA2181110E94D02080918E
:104210001B0190911C010C94FD1608950C940D2126
:1042200098E0899F90011124622B609314020E94F0
:10423000081F809114028595859585950C940E2113
:104240001092140280E00C940E219091140280953B
:10425000892380931402282F277071F4282F082EA9
:10426000000C330B9217130639F0859585958595CB
:104270000E94291F0C942021089580E0089590E069
:1042800080E00E94982A21E08B3E9E4F09F020E0BA
:10429000822F089582E090E00C948A2A83E090E0D7
:1042A0000C948A2ACF9384E090E00E948A2AC82F37
:1042B00081E290E00E948A2A982F8C2FCF91089556
:1042C000CF93C92F682F84E090E00E949E2A6C2F24
:1042D00081E290E0CF910C949E2AAB01BC018FE06B
:1042E00090E00C94B02AAB01BC0183E190E00C9407
:1042F000B02A60E070E0CB010C94732160E070E0C4
:10430000CB010E946D210C9479216BEE7EEF90E041
:1043100080E00E94BC2A60E082E090E00E949E2A39
:1043200060E083E090E00E949E2A109210021092BA
:104330001102109212021092130260E084E090E0E9
:104340000E949E2A60E081E290E00E949E2A60E046
:1043500085E090E00E949E2A60E086E090E00E9466
:104360009E2A6FEF87E090E00E949E2A40E050E096
:10437000BA0188E090E00E94B02A60E08DE090E011
:104380000E949E2A40E050E0BA0188E190E00E943D
:10439000B02A60E087E190E00E949E2A40E050E071
:1043A000BA018CE190E00E94B02A60E080E290E0E7
:1043B0000E949E2A40E050E0BA0188E190E00E940D
:1043C000B02A0C947E210C948521682F8EE090E019
:1043D0000C949E2A9C012E5F3F4FAC01485F5F4FBB
:1043E00080E02417350709F40895F90191919F01A0
:1043F0009923B9F38F5FF5CF662349F0FC0132961C
:1044000008962191261729F0E817F907D1F780E0DF
:10441000089581E008959C01FC0132969FEF80E0B1
:104420004191461751F09F3F19F4411101C0982F57
:104430008F5F8630A9F79F3F09F40895290F311D3A
:1044400097FD3A95F90162830895FC01329608962A
:104450002191261303C0DF0111971C92E817F90779
:10446000B9F708950C940B220C942522029626E0AD
:10447000FC0111922A95E9F7089508950C94DF053F
:1044800080919A04843059F10E943E2280E00E947B
:1044900007070E94F00E1092220288E190E020E4CB
:1044A0000FB6F894A895809360000FBE209360002B
:1044B00083B7817F846083BF83B7816083BF789433
:1044C000889583B78E7F83BF0FB6F894A8958091A7
:1044D0006000886180936000109260000FBE0895B4
:1044E0000895CF930E943D220E9457090E94702296
:1044F000C0E08C2F0E940309811105C0CF5FC4303A
:10450000C1F7CF91089581E0FCCF08950C948522E6
:104510000E940E1B0E94F1160E9407070E94BC0F0A
:104520000C9486221F921FB61F9211248F939F9383
:10453000AF93BF9380912202811113C080919004A8
:1045400090919104A0919204B09193044196A11D81
:10455000B11D8093900490939104A0939204B09322
:104560009304BF91AF919F918F911F901FBE1F9099
:10457000189582E084BD93E095BD9AEF97BD809336
:104580006E0008952FB7F894809190049091910453
:10459000A0919204B09193042FBF08952FB7F8947F
:1045A0006091900470919104809192049091930491
:1045B0002FBF08959C014FB7F8948091900490917B
:1045C0009104A0919204B09193044FBF821B930B6E
:1045D000089578941F921FB61F9211248F939F9372
:1045E000AF93BF938091900490919104A091920415
:1045F000B09193040196A11DB11D809390049093F6
:104600009104A0939204B0939304BF91AF919F91B2
:104610008F911F901FBE1F90189587E797E7909383
:1046200001088093000888E19AE00FB6F894A895F5
:10463000809360000FBE90936000FFCF9093630162
:104640008093620108950E943F21811102C00E945F
:10465000E3210E944A21809321020E9452219093DB
:104660009504809394040E944E21682F70E090E09E
:1046700080E00E94A61E60910C0270910D02809154
:104680000E0290910F020C94E01E80912B0208956F
:1046900008950895CF93DF93EC0181E08093E900C2
:1046A0008FEF9091E800815095FD06C095ED9A95A9
:1046B000F1F700008111F5CF8091E80085FF14C06B
:1046C00050E040E068E070E0CE010E943B25809120
:1046D000E8008E778093E80088E0FE01A3E2B2E074
:1046E00001900D928A95E1F7DF91CF910895089599
:1046F000CF93DF9300D00F92CDB7DEB7FC0181815D
:10470000898383818A8380818B8382E08093E9001F
:104710008FEF9091E800815095FD06C095ED9A9538
:10472000F1F700008111F5CF8091E80085FF0DC001
:1047300050E040E063E070E0CE0101960E943B252E
:104740008091E8008E778093E8000F900F900F9093
:10475000DF91CF91089580919904811109C00E9441
:10476000CB260E9428278091E20084608093E2009B
:10477000089510929904089508950895089542E0C7
:1047800061EC81E00E94472642E061EC82E00C94FB
:10479000472680919C04833009F45FC030F4813057
:1047A000C1F1823009F49BC008958A3009F487C0B2
:1047B0008B3009F46DC0893009F04EC080919B04A4
:1047C000813209F049C080919F049091A004892B07
:1047D00009F042C08091E800877F8093E8008091D3
:1047E000E80082FF35C09091F3008091F2000297BB
:1047F00029F48091F1008B7F813021F48091F100C8
:1048000080932B028091E8008B778093E8000C94D2
:104810007B2680919B04813AF9F48091E800877FA0
:104820008093E80080919F049091A004892B61F40B
:1048300068E083E292E070E00E948A258091E800BF
:104840008B778093E800089560E090E080E0F3CFFC
:1048500080919A048111C3CF089580919B04813A7D
:10486000D9F780919F049091A004892BA9F780919A
:10487000E800877F8093E8008091E80080FFFCCF0C
:10488000809127018093F1008091E8008E77BDCF61
:1048900080919B04813201F780919F049091A00444
:1048A000892BD1F68091E800877F8093E8000E94F1
:1048B0007B2680919D04809327010C940E1B809190
:1048C0009B04813249F68091E800877F8093E8005D
:1048D0000E947B2680919E0480932C0208958091F3
:1048E0009B04813A09F0B8CF8091E800877F8093DC
:1048F000E8008091E80080FFFCCF80912C02C2CFBD
:1049000084B7877F84BF0FB6F894A8958091600024
:10491000886180936000109260000FBE80E890E094
:104920000FB6F89480936100909361000FBE0E94CF
:1049300055170E94CB260E9428278091E2008460B0
:104940008093E20078940E94B1290E9465178DE15E
:1049500091E00E94EC1680919A048530A9F00E94A3
:1049600072170E9463170E946417F5CF0E944022BD
:1049700080919804882341F00E947122882321F0BD
:104980000E9425250E940E1B80919A04853071F3A8
:104990000E948822E4CF0C94CD24292F3327233082
:1049A000310519F168F42130310509F444C0223091
:1049B000310509F445C090E080E030E020E025C0FA
:1049C0002132310549F122323105A9F780E490E026
:1049D0002AEB39E061157105C1F080E390E02AE827
:1049E00039E06130710589F0E6CF99278130910572
:1049F00081F0009729F00297F1F6E1E1F9E002C0B9
:104A0000E9E3F9E0849190E09F01FA01318320838A
:104A10000895E1E2F9E0F6CF89E090E02FE439E093
:104A20006115710591F389E090E028E639E0613085
:104A3000710559F3C0CF82E190E028E739E0E5CF76
:104A40008BE390E02DE339E0E0CF80E189BD82E1A6
:104A500089BD09B400FEFDCF8091D8008F7D809381
:104A6000D8008091E00082608093E0008091E000B7
:104A700081FDFCCF0895AF92BF92CF92DF92FF925B
:104A80000F931F93CF93DF936C01EB018A010E9478
:104A90009A26F82E811123C00115110539F0F8016D
:104AA00080819181C81BD90BC80ED91EB12CA12CB5
:104AB0002097A9F08091E80085FD22C08091E80050
:104AC0008E778093E80001151105A1F0F80180812F
:104AD0009181A80EB91EB182A08285E0F82E8F2D9B
:104AE000DF91CF911F910F91FF90DF90CF90BF90FA
:104AF000AF9008950E949A268823D1F2F82EEFCF26
:104B0000F60181916F018093F1002197FFEFAF1AB9
:104B1000BF0ACECFFC018091A1049091A204861718
:104B20009707A0F06115710529F49091E8009E7730
:104B30009093E80090E06115710551F4911108C05F
:104B40008091E80082FF34C080E00895BC01F2CF7C
:104B500080919A048823C1F18530C1F18091E800E9
:104B600083FD30C08091E80082FDEACF8091E800AB
:104B700080FFE1CF8091F3002091F200382F611582
:104B8000710519F02830310558F091E028303105D1
:104B900009F090E02091E8002E772093E800CBCF39
:104BA00081918093F100615071092F5F3F4FE7CFF2
:104BB00080919A04882341F0853041F08091E8008B
:104BC00083FFBECF81E0089582E0089583E00895D9
:104BD000FC018091A1049091A20486179707A0F090
:104BE0006115710529F48091E8008E778093E800C3
:104BF00090E06115710551F4911108C08091E800B1
:104C000082FF35C080E00895BC01F2CF80919A0404
:104C10008823C9F18530C9F18091E80083FD31C056
:104C20008091E80082FDEACF8091E80080FFE1CF2B
:104C30008091F3002091F200382F6115710519F071
:104C40002830310558F091E02830310509F090E026
:104C50008091E8008E778093E800CBCF8491809399
:104C6000F1003196615071092F5F3F4FE6CF80917F
:104C70009A04882341F0853041F08091E80083FF59
:104C8000BDCF81E0089582E0089583E00895982FD4
:104C9000973028F08F708093E90081E00895909319
:104CA000E900242F762F50E0981731F07091EC0036
:104CB0002091ED005091F00021FD02C09F5FE8CFF0
:104CC0003091EB003E7F3093EB003091ED003D7F63
:104CD0003093ED003091EB0031603093EB00709336
:104CE000EC002093ED005093F0002091EE0027FDA2
:104CF000E5CF80E0089580919B0487FF13C08091E9
:104D0000E80082FF06C08091E8008B778093E8007E
:104D100004C080919A048111F2CF089580919A0481
:104D20008823D9F38091E80080FFF8CF8091E800D4
:104D30008E77ECCF2091E4003091E50095E6A90153
:104D40002091EC00822F817020FF06C08091E80046
:104D500080FF06C080E008952091E80022FD1AC07F
:104D600080919A04882389F0853089F08091EB0046
:104D700085FD0FC02091E4003091E50042175307F4
:104D8000F9F29150E1F684E0089582E0089583E01D
:104D9000089581E008950E9439270E944127E0EE9E
:104DA000F0E0808181608083E8EDF0E080818F77A2
:104DB000808319BCA7EDB0E08C918E7F8C938081AD
:104DC0008F7E80831092990408950F931F93CF9341
:104DD000DF930E9439270E944127C8EDD0E08881E7
:104DE0008F77888388818068888388818F7D888396
:104DF00019BC10929A041092960410929804109282
:104E0000970400EE10E0F80180818B7F8083888119
:104E10008160888342E060E080E00E944726E1EE06
:104E2000F0E080818E7F8083E2EEF0E0808181601F
:104E30008083808188608083F80180818E7F808379
:104E4000888180618883DF91CF911F910F910895B0
:104E5000E8EDF0E080818F7E8083E7EDF0E08081F7
:104E60008160808384E082BF81E0809399040C9408
:104E7000E526E8EDF0E080818E7F80831092E200ED
:104E800008951092DA001092E10008951F920F9297
:104E90000FB60F9211242F933F934F935F936F930D
:104EA0007F938F939F93AF93BF93EF93FF938091E3
:104EB000E10082FF0BC08091E20082FF07C0809179
:104EC000E1008B7F8093E1000E94B0298091DA009D
:104ED00080FF19C08091D80080FF15C08091DA0052
:104EE0008E7F8093DA008091D90080FF96C080E1A8
:104EF00089BD82E189BD09B400FEFDCF81E08093C8
:104F00009A040E94AB238091E10080FF19C0809138
:104F1000E20080FF15C08091E2008E7F8093E20066
:104F20008091E20080618093E2008091D8008062ED
:104F30008093D80019BC85E080939A040E94BD2319
:104F40008091E10084FF2BC08091E20084FF27C0A4
:104F500080E189BD82E189BD89B5982F917080FF7C
:104F6000FBCF8091D8008F7D8093D8008091E100A5
:104F70008F7E8093E1008091E2008F7E8093E2003B
:104F80008091E20081608093E20080919604882302
:104F900009F449C084E080939A040E94BE23809162
:104FA000E10083FF29C08091E20083FF25C080914A
:104FB000E100877F8093E10082E080939A04109261
:104FC00096048091E1008E7F8093E1008091E20061
:104FD0008E7F8093E2008091E20080618093E20006
:104FE00042E060E080E00E9447268091F000886007
:104FF0008093F0000E94BC23FF91EF91BF91AF918D
:105000009F918F917F916F915F914F913F912F91E0
:105010000F900FBE0F901F90189519BC10929A0414
:105020000E94B92370CF8091E30087FD93E09093B5
:105030009A04B3CF1F920F920FB60F9211242F93A1
:105040003F934F935F936F937F938F939F93AF9310
:10505000BF93CF93DF93EF93FF93D091E900DF707D
:105060008091EC00C82FC17080FDC0E81092E9006B
:105070008091F000877F8093F00078940E945E28F2
:105080001092E9008091F00088608093F000CD2BB1
:10509000CF70C093E900FF91EF91DF91CF91BF9165
:1050A000AF919F918F917F916F915F914F913F91C0
:1050B0002F910F900FBE0F901F9018951F93CF93B5
:1050C000DF93CDB7DEB7AA970FB6F894DEBF0FBE59
:1050D000CDBF8BE994E02091F100FC012193CF0139
:1050E000F4E0833A9F07B9F70E94C9238091E80052
:1050F00083FF1EC180919B0490919C049A3008F01C
:1051000017C1E92FF0E0EA5FF44D0C94302A8038A3
:1051100099F0823809F00CC180919F048F7087301C
:1051200008F006C18093E9008091EB0085FB882799
:1051300080F91092E90006C080919704909198043C
:10514000911182609091E800977F9093E80080939E
:10515000F1001092F1008091E8008E77E5C088237D
:1051600009F4D3C0823009F0E3C080919D0481111D
:10517000D6C080919F048F702FEF280F263008F043
:10518000D7C08093E9002091EB0020FFC8C0933086
:1051900031F48091EB0080628093EB00C0C090916D
:1051A000EB0090619093EB0021E030E001C0220F12
:1051B0008A95EAF72093EA001092EA008091EB00CA
:1051C0008860EACF8111B4C010919D041F7780914F
:1051D000E3008078812B8093E3008091E800877F53
:1051E0008093E8000E947B268091E80080FFFCCF3E
:1051F0008091E30080688093E30082E0111183E0F6
:1052000080939A0495C08058823008F091C08091B4
:105210009D0490919E048C3D23E09207A1F583E0CC
:105220008A838AE289834FB7F894DE01139620E0DF
:105230003EE051E2E32FF0E050935700E49120FF6D
:1052400003C0E295EF703F5FEF708E2F90E0EA3081
:10525000C0F0C7968D939D932F5F243159F74FBFB0
:105260008091E800877F8093E8006AE270E0CE01D9
:1052700001960E948A258091E8008B778093E80050
:1052800057C0C096E7CF60919F047091A004AE0113
:105290004F5F5F4F0E94CB24BC01892B09F448C0AB
:1052A0009091E800977F9093E80089819A810E940D
:1052B000E825E1CF8038E1F58091E800877F809391
:1052C000E800809196048093F10045CF811130C0B1
:1052D00090919D04923060F58091E800877F8093E3
:1052E000E800909396040E947B2680919604882380
:1052F00011F084E005C08091E30087FDFACF81E0E2
:1053000080939A040E94BF2313C080919D04813032
:1053100079F481E0933009F080E080939804109252
:10532000E9008091E800877F8093E8000E947B2657
:105330008091E80083FF0AC08091E800877F809316
:10534000E8008091EB0080628093EB00AA960FB694
:10535000F894DEBF0FBECDBFDF91CF911F910895AE
:105360000895CF9380919A048823A1F0C091E90019
:10537000CF709091EC00892F817090FD80E8C82B50
:105380001092E9008091E80083FD0E945E28CF70B2
:10539000C093E900CF910895991B79E004C0991F4B
:1053A000961708F0961B881F7A95C9F7809508957F
:1053B00087FB082E062687FD819567FD61950E9473
:1053C000CC290EF4919507FC81950895AA1BBB1B6F
:1053D00051E107C0AA1FBB1FA617B70710F0A61BF5
:1053E000B70B881F991F5A95A9F780959095BC0116
:1053F000CD01089597FB072E16F4009407D077FD92
:1054000009D00E94E62907FC05D03EF490958195CD
:105410009F4F0895709561957F4F0895A1E21A2ED0
:10542000AA1BBB1BFD010DC0AA1FBB1FEE1FFF1F48
:10543000A217B307E407F50720F0A21BB30BE40B98
:10544000F50B661F771F881F991F1A9469F76095DF
:105450007095809590959B01AC01BD01CF01089599
:10546000EE0FFF1F0590F491E02D09940E943E2A53
:10547000332312F48A1B9B0B0C944F2AA29FB0017A
:10548000B39FC001A39F700D811D1124911DB29F78
:10549000700D811D1124911D08950E943E2AB7FFB1
:1054A0000895821B930B08950E943E2AA59F900D9C
:1054B000B49F900DA49F800D911D11240895B7FFF6
:1054C0000C94542A0E94542A821B930B0895FB01CA
:1054D000DC0102C005900D9241505040D8F708956C
:1054E000FC014150504030F001900616D1F7319741
:1054F000CF010895882799270895FB01DC0104C096
:105500008D910190801921F441505040C8F7881BBB
:10551000990B0895F999FECF92BD81BDF89A99270C
:1055200080B50895A6E1B0E044E050E00C94C42AB0
:10553000A8E1B0E042E050E00C94C42A262FF9998B
:10554000FECF92BD81BDF89A019700B4021639F0E2
:105550001FBA20BD0FB6F894FA9AF99A0FBE0895B3
:105560000396272F0E949F2A0E949E2A252F0E9481
:105570009F2A242F0C949F2A0196272F0E949F2A4E
:105580000C949E2ADC01CB01FC01F999FECF06C0E8
:10559000F2BDE1BDF89A319600B40D9241505040F1
:1055A000B8F70895F894FFCF8910911098109D10C6
:1055B000A210A710AC10B110B610BB10C010C510CF
:1055C000C910CE10D110D410D710DA10DC10DF10B3
:1055D0000A190A196219621937193719371937194F
:1055E000B419401A4F1A4F1AAB1A37193719B41A8F
:1055F0001D1B1D1B261B261B281B261B261B261BB3
:105600001D1B1D1B2D1B261B261B2D1B8728AF2892
:105610009829AF289829E228032998295A29662928
:1056200040010102001C001C1C01191A1B1C1D1E3C
:105630001F2021220021007F220003160245234A59
:105640002348234923772301F5F6F73133323666B1
:1056500097C634350001020202020606060909094E
:105660000909090F0F0F0F0F0F1515151819191923
:1056700019191919191919232400081018181008D4
:02568000000028
:00000001FF
