:100000000C9480040C949D040C949D040C949D0409
:100010000C949D040C949D040C949D040C949D04DC
:100020000C949D040C949D040C9445270C94192861
:100030000C9464220C949D040C949D040C949D04D7
:100040000C949D040C949D040C949D040C949D04AC
:100050000C949D040C94EB220C949D040C949D0430
:100060000C949D040C949D040C949D040C949D048C
:100070000C949D040C949D040C949D040C949D047C
:100080000C949D040C949D040C949D040C949D046C
:100090000C949D040C949D040C949D040C949D045C
:1000A0000C949D040C949D040C949D04556E646501
:1000B00066696E6564004C454420504152414D458F
:1000C0005445520A00524742264B45592054455345
:1000D000540A004C617965723A200014001A000835
:1000E00000150017001C0018000000000004001696
:1000F00000070009000A000B000D00000000001DB1
:10010000001B00060019000500110010000000008F
:10011000001F0020002100220023002400250009E8
:100120005D0150C35CC65CC75CC85CC95CCA5CCB83
:100130005C00000000C45CB25D0000000000000034
:1001400000000000000000000000000000000000AF
:10015000000000000000000000000000000000009F
:1001600000000000000000095D005080818283844F
:1001700085868788898A8B8C8D8E8F9091929394B7
:10018000A0A1A2A3A4A5A6A7A8A9AAABACADAEAFF7
:10019000B0B1B2B3B4C0C1C2C3C4C5C6C7C8C9CA6E
:1001A000CBCCCDCECFD0D1D2D3D400000464321486
:1001B000783C1E000101010101010101010202025E
:1001C0000202020202020303030303030303040403
:1001D00004040404040505050505060606060607CD
:1001E0000707070708080808090909090A0A0A0B86
:1001F0000B0B0C0C0C0D0D0D0E0E0E0F0F0F101027
:1002000011111112121313141415151616171718AD
:100210001819191A1A1B1B1C1D1D1E1E1F20202118
:100220002222232424252626272829292A2B2C2D5F
:100230002D2E2F30313232333435363738393A3B80
:100240003C3D3E3F404142434445464748494A4C75
:100250004D4E4F50515354555658595A5B5D5E5F41
:10026000616264656668696B6C6D6F7072737577D7
:10027000787A7B7D7E8082838587888A8C8E8F9139
:10028000939596989A9C9EA0A2A3A5A7A9ABADAF63
:10029000B1B3B5B7BABCBEC0C2C4C6C9CBCDCFD14D
:1002A000D4D6D8DBDDDFE2E4E7E9EBEEF0F3F5F8F6
:1002B000FAFDFF00AE00AF00DA0281FFD9F1DB20CA
:1002C000A4A62EAF00A0C000A1C800AED580A81F74
:1002D000D300408D1420000000000000003E5B4F62
:1002E0005B3E003E6B4F6B3E001C3E7C3E1C00188C
:1002F0003C7E3C18001C577D571C001C5E7F5E1C1A
:100300000000183C180000FFE7C3E7FF00001824B6
:10031000180000FFE7DBE7FF0030483A060E002632
:100320002979292600407F05050700407F05253FE4
:10033000005A3CE73C5A007F3E1C1C0800081C1C6D
:100340003E7F0014227F2214005F5F005F5F000683
:10035000097F017F00006689956A006060606060C7
:100360000094A2FFA2940008047E04080010207EDE
:1003700020100008082A1C0800081C2A0808001E73
:1003800010101010000C1E0C1E0C0030383E3830BF
:1003900000060E3E0E060000000000000000005F98
:1003A000000000000700070000147F147F140024E1
:1003B0002A7F2A120023130864620036495620500F
:1003C00000000807030000001C2241000000412239
:1003D0001C00002A1C7F1C2A0008083E0808000098
:1003E0008070300000080808080800000060600005
:1003F000002010080402003E5149453E0000427FA3
:100400004000007249494946002141494D330018D6
:1004100014127F10002745454539003C4A494931AF
:10042000004121110907003649494936004649492A
:10043000291E0000001400000000403400000000ED
:10044000081422410014141414140000412214084A
:10045000000201590906003E415D594E007C12110F
:10046000127C007F49494936003E41414122007FCC
:100470004141413E007F49494941007F0909090145
:10048000003E41415173007F0808087F0000417F12
:100490004100002040413F01007F08142241007FBD
:1004A00040404040007F021C027F007F0408107F14
:1004B000003E4141413E007F09090906003E41518D
:1004C000215E007F09192946002649494932000367
:1004D000017F0103003F4040403F001F2040201F9C
:1004E000003F4038403F0063140814630003047861
:1004F0000403006159494D4300007F41414100021E
:100500000408102000004141417F00040201020460
:1005100000404040404000000307080000205454C1
:100520007840007F28444438003844444428003848
:100530004444287F0038545454180000087E0902AF
:100540000018A4A49C78007F080404780000447D6F
:100550004000002040403D00007F10284400000083
:10056000417F4000007C04780478007C0804047813
:1005700000384444443800FC18242418001824246B
:1005800018FC007C08040408004854545424000457
:10059000043F4424003C4040207C001C2040201CA0
:1005A000003C4030403C004428102844004C9090CF
:1005B000907C004464544C44000008364100000024
:1005C000007700000000413608000002010204022A
:1005D000003C2623263C0000000000000000000034
:1005E00000000000000000C0E0E0E0C08000007CEF
:1005F000FEFFFFFE7C0000C0E0F0F0E0C000000065
:100600000000FEFEFEFEFEFE0000000000FEFEFEFC
:10061000FEFEFE0000FEFEFEFEFE000000FEFEFEF0
:10062000FEFE1E1EFEFEFEFCF8000000007070784C
:10063000F8FCFEFEFEFE00000000E0F8FE7EFEFE7E
:10064000FEFEFE00000000000000000000000000B0
:100650000000000000E0F0F0F0E0ECEEF7F37020B6
:10066000007C7C7C7E007E7E7E7F7F7F000080C061
:10067000E07E5B4F5BFEC00000C000DCD7DEDEDE4C
:10068000D7DC00C0000000000000000000000000F7
:10069000000000000000000000000000000000005A
:1006A0000000000080C0C0C3C7CF8F0F0F07E0F06D
:1006B000F8F9F9F8F0E0E0C7CF8F0F07030000006A
:1006C0000000FFFFFFFFFFFF0000000000FFFFFF33
:1006D000FFFFFF3E3EFFFFFFFFFF000000FFFFFFA9
:1006E000FFFF3C3C3F3F3F1F0F00000000000000A9
:1006F000FFFFFFFFFFFF0080F8FFFFFF8780FFFF86
:10070000FFFFFF80800000000000000000000000EC
:1007100000000000000F1F3F7F7F7F7F7F3F1E0C88
:10072000001F1F1F3F003F3F3F7F7F7F00307B7FC9
:100730007830202030787F3B0003000F7F0F0F0FB1
:100740007F0F000300000000000000000000000018
:100750000000000000000000000000000000000099
:100760000000000003070F0F0F0F0703007FFFFFBC
:10077000FFFFFFFF7F3F3F3F1F1F070000000000FC
:1007800000007F7F7F7F7F7F78787878007F7F7F12
:100790007F7F7F00007F7F7F7F7F0000007F7F7FE4
:1007A0007F7F00000000000000000000000000004B
:1007B0007F7F7F7F7F7F00070707070707077F7F10
:1007C0007F7F7F070700000000000000000000009E
:1007D0000000000000000000000000000000000019
:1007E0000000000000000000000000000000000009
:1007F00000000000000000000000000000000000F9
:1008000000000000000000000000000000000000E8
:10081000000000000000000E034C004800500031B2
:100820000034006600000016034E0065006F00549F
:1008300000720069006E0069007400790000000415
:1008400003090409023B00020100A0FA09040000A8
:1008500001030101000921110100012240000705E7
:1008600081030800010904010001030000000921BF
:100870001101000122300007058203080001120166
:1008800000020000000814FF09000100010200013D
:1008900005010904A101A1000501093009311581F3
:1008A000257F9502750881020509190129011500A6
:1008B0002501950175018102950775018101C0C06F
:1008C00005010906A101050719E029E71500250121
:1008D00095087501810295017508810105071900C8
:1008E00029FF150026FF00950675088100050819E7
:1008F000012905950575019102950175039101C0C6
:1009000011241FBECFEFDAE0DEBFCDBF11E0A0E0C3
:10091000B1E0E0E4F6E502C005900D92A035B10724
:10092000D9F724E0A0E5B1E001C01D92A13BB207D8
:10093000E1F70E9437140C94082B0C9400000E94DD
:10094000EA178BE00E94B317089560E080E00E94F0
:10095000BF1960E08BE691E00E94A11A0895823BE6
:100960009D4541F4FB018281882321F00E942115DD
:100970000E94A01781E0089563E080E00E94BF1903
:1009800060E083ED90E00E94A11A60917101709186
:10099000720180917301909174010E94EF05882388
:1009A00041F0813061F060E08CEA90E00E94B31A7F
:1009B000089560E085EC90E00E94A11A089560E03F
:1009C00086EB90E0F9CF0E94A5040E94BC0480E071
:1009D00008950E94C71B08950E94B91A089584EFD4
:1009E0000E94B21F97FD03969595879595958795DB
:1009F00080589109909316028093150284E90E9411
:100A0000B21F97FD03969595879595958795805884
:100A100091099093180280931702809119028260C5
:100A200080931902089581E008950E94AF0408950B
:100A300008950E9418050895A5E0B0E0E2E2F5E00F
:100A40000C945D2A49835A833091570189819A8198
:100A5000311119C0662399F0222389F00E94470BB7
:100A6000182F682F89819A810E94230B69817A81CE
:100A7000812F0E94AE112596E3E00C94792A0E9402
:100A8000350B182FF3CF0E94470B69817A81F1CF84
:100A9000FC01262F408151816281738184810E94F3
:100AA0001C05089581E00895CF93DF93EC0160E089
:100AB0000E944805BE010E941905DF91CF9108955B
:100AC0000E94DC1208950E94DF12089508950E948A
:100AD00067090E9466052FEF84E39CE02150804067
:100AE0009040E1F700C0000008950E9467050E9451
:100AF0000F2308950E9467050E94202308950F93F5
:100B00001F93CF93DF938C0161E00E944805EC01B5
:100B1000B8010E941505811106C080E0DF91CF91D8
:100B20001F910F910895B801CE010E94452088239E
:100B3000A1F3B801CE010E94F21B882371F3B80122
:100B4000CE010E94B71F882341F3B801CE010E9455
:100B50007518882311F3B801CE010E94601D882307
:100B6000E1F2F8018281882361F0CB35FDE5DF07F2
:100B700001F158F4C115ECE5DE0791F0CF3DDC45FD
:100B800091F0C8010E941305C9CFCD358DE5D80776
:100B900069F090F0C83ADD45A1F70E947A05BDCF13
:100BA0000E947505BACF0E940610F7CF0E94470F2A
:100BB000E8CF0E94510FE5CF0E94550FE2CF0E946F
:100BC000E9040E944F060E941C170E94C71B08954B
:100BD0000E9453060E94F3170E94EC040895CF92DE
:100BE000DF92EF92FF926C01EE24FF2420E0C1140B
:100BF000D104E104F10419F0C701B60120E1C72EC8
:100C0000D82EE92EFF24C114D104E104F10419F017
:100C1000285FC701B6016B017C0154E0F694E794AC
:100C2000D794C7945A95D1F7C114D104E104F104C3
:100C300019F02C5FC701B6016B017C0142E0F6940C
:100C4000E794D794C7944A95D1F7C114D104E1042D
:100C5000F10419F02E5FC701B60196958795779537
:100C60006795672B682B692B09F02F5F822FFF9008
:100C7000EF90DF90CF90089508950E943C0608956C
:100C800081E008950E94400608950895CF93C82FEB
:100C90000E943D068C2F0E944206CF91089580E06D
:100CA0000E94460608950E948D210E9446060895DE
:100CB000CF930E948D21C82F809152018C1779F01B
:100CC000C09352010E94D02260935301709354014B
:100CD00080935501909356018C2F0E944606CF9128
:100CE0000895ABE0B0E0E7E7F6E00C945E2A4F83AE
:100CF000588769877A878B8761110E94920E1E82BE
:100D00001D8285E0FE013796DE01119601900D925D
:100D10008A95E1F78C819D81892B61F449815A8103
:100D20006B817C818D819E810E94BB0D2B96E2E0C0
:100D30000C947A2A89819A8189238F3F79F3CE0195
:100D400001960E9452058111E9CFF0CFFC0180810C
:100D500091810E94810B0895CF93C82F8823B9F009
:100D60008CEF8C0F813AA8F46C2F80911201909136
:100D700013010E94E321882329F08C2F0E94520E38
:100D80000E94B30E8C2F0E944A0E0E94B30ECF9188
:100D9000089580E28C0F8830D0F7C77081E001C0E1
:100DA000880FCA95EAF70E94750EEFCF882339F1B4
:100DB0009CEF980F913A28F40E94520E0E94B30EB5
:100DC000089590E2980F983050F4877091E001C038
:100DD000990F8A95EAF7892F0E947B0EEFCF9BE54A
:100DE000980F933028F490E080E00E94A5210895A8
:100DF000885A873120F490E080E00E94BB2108955A
:100E00001F93CF93DF93182FEB010E94AC0620971E
:100E100039F4812F0E94D606DF91CF911F9108955A
:100E20008FE99FE00197F1F700C000002197EFCF15
:100E300070E060E0893311F460E570E00E94000723
:100E40000895882321F00E94750E0E94B30E089524
:100E5000882321F00E947B0E0E94B30E0895B0E01B
:100E6000A0E0E5E3F7E00C94572A6C01D62FC72FDA
:100E7000FC011281F580F2949FE0F9220E946B0E32
:100E8000E82E8823B9F0E12E1123A1F08C2F807F6A
:100E9000803421F080E28D0F8830D0F080913402D0
:100EA00082FF16C082E00E94160F0E946B0E91E036
:100EB000E82EE926BC2EB2948FE0B822FBE0FB15A9
:100EC00008F468C0EB2DF0E0E65FF44D0C94352A91
:100ED000E12CF0CF0C2F0F70C07F11F00295007F36
:100EE000112399F0002359F080E28D0F883010F023
:100EF000D11107C0802F0E94750E0E94B30E8D2F56
:100F000041C0802F0E94850EF8CF8D2F0E94D606FB
:100F1000002309F43FC080E28D0F883010F0D1111A
:100F200004C0802F0E947B0E03C0802F0E948B0E76
:100F30000E94B30E2FC00C2F0F70C07FC03211F073
:100F40000295007FDD2381F0D13009F463C01123C5
:100F500009F46DC0FF2009F463C0F601858180FFAC
:100F6000CECF8F7085835CC08091340282FD33C008
:100F7000112359F0002329F0802F0E94750E0E9442
:100F8000B30E80E00E94AC0605C080E00E94D60649
:100F90000111C7CFEB2DE850FF0B349720F40E94CE
:100FA0008D210E944606EE2089F00E94670E80FD8A
:100FB0000DC0F60112820E94610E0E942B0AC6012A
:100FC0000E9433090E94610E0E944D0ACDB7DEB720
:100FD000E9E00C94732A112389F0F11006C00E94F5
:100FE000950E802B0E942107D5CF21E0F212F7CF7A
:100FF0000E94950E802B0E949C0ECCCFF11006C053
:101000000E94A90E802F0E942807C4CF31E0F3165A
:1010100009F2F6CF112331F085E08F1508F4BACF2D
:10102000802FE0CF94E09F1508F4B4CFEBCFFF20E2
:1010300049F3D93349F4FFEF27EE33E0F150204074
:101040003040E1F700C000008D2F0E94D606A2CFED
:101050008C2F837009F041C011119CCF4D2F429508
:1010600046954770440F440F0D2F0F7010E030E08D
:1010700020E0042E04C0000F111F221F331F0A940A
:10108000D2F760E070E0CB01D4FF0FC06FE070E0FA
:1010900080E090E004C0660F771F881F991F4A9573
:1010A000D2F76095709580959095C695C695C3705A
:1010B000602B712B822B932BC23049F058F4C13036
:1010C00019F00E94D60966CF0E94C30963CF0E941F
:1010D000E90960CF0E94C0095DCF8695112311F008
:1010E0008C2F8170882309F455CF4D2F429546955A
:1010F0004770440F440F0D2F0F7010E030E020E0D8
:10110000042E04C0000F111F221F331F0A94D2F7B0
:1011100060E070E0CB01D4FF0FC06FE070E080E0D2
:1011200090E004C0660F771F881F991F4A95D2F779
:101130006095709580959095C695C695C370602B07
:10114000712B822B932BC23049F058F4C13019F027
:101150000E94A60A1FCF0E94930A1CCF0E94B90AC0
:1011600019CF0E94020A16CFCF70112329F08C2FBD
:101170000E942B0A8D2F36CF8D2F0E9428078C2F8F
:101180000E944D0A07CFD23F51F160F4D03FB9F031
:10119000D13F81F0112309F449C0F110B0CE8C2F5A
:1011A0008F7121C0D33F11F1D43FA1F78091340258
:1011B00082FD26C08C2F8F71112311F314C01123CF
:1011C00049F084E08F1508F4E5CE8C2F8F710E94D2
:1011D000710AE0CE95E09F1508F4DCCEF6CF8C2F97
:1011E0008F711111CDCF0E942B0AD4CE112329F07B
:1011F0008C2F8F710E94150ACDCE0E940F0ACACE85
:10120000112349F0CF718C2F0E942B0A63E08C2FA1
:101210000E94F80EBFCE81E00E94160FE1E0EF15AC
:1012200008F0B8CE82E00E94160FB4CEF11001CFC4
:101230008C2F8F71A5CF0F931F93CF93DF93EC016A
:10124000688179818A810E948C0B8C010E94CC0A72
:101250000E94BF09B801CE010E942F07DF91CF91F4
:101260001F910F910895CF93DF93EC018B819C81A7
:10127000892B29F08881998189238F3F51F4DF914F
:10128000CF910895CE010E941B09CE010E94540502
:10129000F6CFCE010E947F058111F4CF0E946B0E24
:1012A000882369F38A81882351F38091340282FF75
:1012B000E6CF82E00E94160FE2CF0E94920E0E94BB
:1012C000B30E08950E945A0E0E945D0908950E946F
:1012D000820E0E946209089592959F70963091F057
:1012E00058F4925F9F70923058F4803F19F030F4B8
:1012F000883E30F481E008959A5FF4CF843FD1F3C3
:1013000080E00895883EB0F3813FD1F7F3CFFC0130
:1013100083819481892B29F08081918189238F3F5A
:1013200011F480E00895808191810E94810B0E94D8
:101330006C090895A5E0B0E0E0EAF9E00C945E2ABB
:101340002596E2E00C947A2AA6E0B0E0EAEAF9E019
:101350000C945E2A2696E2E00C947A2A08950E9464
:10136000AE0908950E94AF096093750170937601EC
:1013700080937701909378010E945D090895089504
:101380000E94B20908950F931F9300917501109167
:1013900076012091770130917801602B712B822B9F
:1013A000932B0E94B2091F910F9108950F931F93E1
:1013B00000917501109176012091770130917801AB
:1013C00060237123822393230E94B2091F910F91FE
:1013D00008950F931F93009175011091760120914C
:1013E00077013091780160277127822793270E9427
:1013F000B2091F910F9108950E94AE0908950E94AD
:10140000FC0908950E94FF096093710170937201B5
:1014100080937301909374010E945D09089560E0C8
:1014200070E0CB010E94020A08950F931F9341E0E0
:1014300050E060E070E08A019B0104C0000F111FC2
:10144000221F331F8A95D2F7C901B8010E94020AF0
:101450001F910F9108950F931F9341E050E060E0BA
:1014600070E004C0440F551F661F771F8A95D2F79E
:101470008091710190917201A0917301B0917401FA
:101480008A019B01082B192B2A2B3B2BC901B80180
:101490000E94020A1F910F9108950F931F9341E03C
:1014A00050E060E070E004C0440F551F661F771FD6
:1014B0008A95D2F7CB01BA01609570958095909589
:1014C00000917101109172012091730130917401AA
:1014D00060237123822393230E94020A1F910F919C
:1014E00008950F931F9341E050E060E070E004C066
:1014F000440F551F661F771F8A95D2F7809171019F
:1015000090917201A0917301B09174018A019B01C5
:10151000082719272A273B27C901B8010E94020A78
:101520001F910F9108950F931F93009171011091D6
:1015300072012091730130917401602B712B822B09
:10154000932B0E94020A1F910F9108950F931F93EE
:101550000091710110917201209173013091740119
:1015600060237123822393230E94020A1F910F910B
:1015700008950F931F9300917101109172012091B2
:1015800073013091740160277127822793270E948D
:10159000020A1F910F9108950895262F277091E058
:1015A00001C0990F2A95EAF723E0769567952A9569
:1015B000E1F725E0269FF001279FF00D1124E40FAD
:1015C000F51F50E040E0682F70E08191DF01119736
:1015D0009B01042E02C0369527950A94E2F72170EC
:1015E00021952827292328272C934F5F5F4F4530CB
:1015F000510559F70895A82FA77023E09695879570
:101600002A95E1F725E0289FF001299FF00D11248C
:10161000E60FF71F50E040E080E0219130E00A2E15
:1016200002C0369527950A94E2F721703327042EDD
:1016300001C0220F0A94EAF7822B4F5F5F4F4530BB
:10164000510559F70895262F943070F4893060F4CD
:10165000682F70E089E0989F600D711D112448E5A6
:1016600051E0822F0E94CD0A0895292F943068F40A
:10167000893058F490E068E571E039E0239F800DEF
:10168000911D11240E94FB0A089580E00895B0E0A6
:10169000A0E0EDE4FBE00C94572A8C01C0907101AE
:1016A000D0907201E0907301F09074018091750107
:1016B00090917601A0917701B0917801C82AD92A3A
:1016C000EA2AFB2ACFE1D0E0BC2ED701C6010C2EBE
:1016D00004C0B695A795979587950A94D2F780FD93
:1016E00009C0219788F7B12C8B2DCDB7DEB7E9E083
:1016F0000C94732AB8018C2F0E94C911019789F3A9
:10170000F3CFCF93DF93EC010E94470BBE010E9401
:10171000C911DF91CF9108951F93CF93DF93EB0110
:1017200090915701992339F0CB010E94810BDF91F1
:10173000CF911F910895882369F0CB010E94470B38
:10174000182F682FCE010E94230BBE01812F0E940B
:10175000C911EDCFCB010E94350B182FF6CF1F9387
:10176000CF93DF93C091790116E080917A018C13B9
:1017700004C0DF91CF911F910895D0E01C9FF0012C
:101780001D9FF00D1124E558FE4F4081518162816B
:101790007381848195810E94A4092196C770E5CF49
:1017A0004091AB015091AC016091AD017091AE01DF
:1017B0008091AF019091B0010E94A40908951F93F8
:1017C000CF93DF938091B001807F09F049C0809171
:1017D000AD01882309F444C080917901C0917A0158
:1017E0006091AB017091AC01A091AE01B091AF01DD
:1017F000D62FD72316E0C81799F190E0109711F073
:10180000DF3F19F401968770F6CF189F9001199F5A
:10181000300D1124F901E558FE4F41814713F2CFF5
:1018200040814613EFCF42814111ECCF4381548177
:101830004A1B5B0B483C510528F78091B0018F7023
:1018400080618093B001F901E058FE4F80818F7074
:10185000806180838BEA91E00E9433090E94AF0B84
:10186000DF91CF911F910895A1E1B0E0EAE3FCE0A0
:101870000C94562A8C0185E0F801DE011D9601903A
:101880000D928A95E1F7F801E2808BEAC82E81E09B
:10189000D82E6091AE017091AF016115710509F408
:1018A0004EC19091AB012091AC01892F82238F3FD3
:1018B00009F445C140815181A380B480F090AD010D
:1018C000F501E61BF70BFF2009F4EAC08091B00197
:1018D000382F307FE83CF10508F0A3C031116DC00E
:1018E000FE2C251316C0941314C0E11012C08F7083
:1018F00080618093B0010E94D00BC6010E94330921
:101900008091B001F80185838F2D6196EAE00C94F7
:10191000722AA114B10429F0842F85238F3F09F086
:1019200027C180E0F82FF170DF2E80FF3CC080914E
:10193000790120917A0136E0821315C04D875E87C8
:101940008D859E850E94810B292F22952F70223034
:10195000F0F0243018F59F70F1F0F8019581907F38
:10196000D1F4D12C1EC090E0389FF001399FF00DCA
:101970001124E558FE4F6181651306C06081641330
:1019800003C06281E6120FC001968770D5CF9F70A9
:1019900011F0882331F3805E883018F3C8010E946B
:1019A0003309FD2CB1CFEE2009F4AECF8091B00108
:1019B00081608093B001F12CA7CF251306C094134A
:1019C00004C0F801EE2009F487C0C8010E9487090D
:1019D000882319F1EE2009F18091B001803270F076
:1019E0002091AB013091AC0138872F831986BB86DB
:1019F000AA868C87CE0107960E94330986E0F801FB
:101A0000ABEAB1E001900D928A95E1F70E94DF0BFD
:101A10000E94D00BFF24F39477CFC8010E943309B2
:101A2000F9CF311113C07A2DB98AA88A6E2D898910
:101A30000E949A098BEA91E00E94330986E0F60140
:101A400011928A95E9F70E94D00BB5CF25130FC0EC
:101A500094130DC0E1100BC0F8018583C8010E94EA
:101A6000330986E0F60111928A95E9F74DCFC80156
:101A70000E948709882389F2EE2079F28091B001D3
:101A8000803208F4BBCF2091AB013091AC013A8396
:101A900029831B82BD82AC828E83CE010196ACCF9E
:101AA000E83CF10508F03EC0FE2CEE2009F4B5CF6D
:101AB00025132AC0941328C08091B00180FD1BC05B
:101AC000982F907FC1F0F8018583903F31F0982FD7
:101AD000907F905F8F70892B8583C8010E943309A6
:101AE00086E0F801ABEAB1E001900D928A95E1F74A
:101AF0000E94D00B09CF86E0F801ABEAB1E001907B
:101B00000D928A95E1F700CFC8010E9487098111E3
:101B100075CF8091B00181608093B001C8010E94AF
:101B20003309F2CE7A2DB98AA88A6E2D89890E944E
:101B30009A0986E0F60111928A95E9F7D9CFEE204D
:101B400009F46BCFC8010E948709F82E882309F495
:101B500064CF86E0F801ABEAB1E001900D928A957E
:101B6000E1F78BEA91E00E94A6060E94DF0BC0CF4E
:101B700081E08E25D7CEACE0B0E0E1ECFDE00C9446
:101B80005D2A4F83588769877A878B879C87CE0128
:101B900007960E94340C882369F08A859B85892BDF
:101BA00039F04F815885842F85238F3F09F06BC012
:101BB00016E05FC086E0FE013796DE0111960190C7
:101BC0000D928A95E1F78A859B85892B89F38F8110
:101BD000988589238F3F61F320917A0130E0C90114
:101BE000019687709927409179014817190671F479
:101BF0000E94670910927A011092790186E0EBEA5F
:101C0000F1E0DF011D928A95E9F7D2CF96E0929F2D
:101C1000D001939FB00D1124A558BE4FFE013196FF
:101C200001900D929A95E1F780937A010E94AF0B93
:101C3000BFCF819FC001112485589E4F0E94340C54
:101C40008823E9F0E09179011E9FF0011124E55805
:101C5000FE4F4081518162817381848195810E9410
:101C6000A4098091790190E001968770992780936B
:101C700079018091790190917A018913DACF2C96BC
:101C8000E3E00C94792A69857A858B859C850E948E
:101C9000A4098ECF682F80911201909113010E94A8
:101CA00019220895682F80911201909113010E94CA
:101CB0001C22089580911201909113010E941F220D
:101CC00008958091B90185958595859508958091B0
:101CD000B901877008959091B901977081E009F476
:101CE00080E008958091C40108959091C401892BEA
:101CF0008093C401089580959091C4019823909396
:101D0000C40108951092C40108959091C301892BD4
:101D10008093C301089580959091C3019823909377
:101D2000C30108951092C30108958091BA010895E6
:101D300008950E94980E08959091340292FF08C071
:101D40009091BA01981721F08093BA010E94990EE0
:101D500008958091BA01882329F01092BA0180E099
:101D60000E94990E0895CF93DF93E0911201F091B4
:101D700013018091C4018083E0911201F09113015D
:101D800080819091C301892B80839091BA0199231E
:101D900081F0E0911201F09113018081892B808301
:101DA00080911201909113010E94D12181110E9412
:101DB000A90EC0911201D091130148E050E061EBEF
:101DC00071E0CE010E94AA2A892B59F088E0FE0119
:101DD000A1EBB1E001900D928A95E1F7CE010E944E
:101DE0009A21DF91CF91089508950E94F40E0895ED
:101DF0009091340292FF11C098E0899F90011124C4
:101E0000622B6093B9010E942B0A8091B9018595DC
:101E1000859585950E94F50E08950E942B0A0895D8
:101E20001092B90180E00E94F50E08959091B901D9
:101E3000809589238093B901282F277091F4282F4A
:101E4000082E000C330B9217130659F090913402B0
:101E500092FF07C08595859585950E944D0A0E9441
:101E6000100F08959091340292FB222720F9281731
:101E700069F080FB92F99093340280913302909143
:101E800034020E947C0F82E00E94160F0895809118
:101E9000340282FB882780F991E089270E94320F63
:101EA000089581E00E94320F089580E00E94320F71
:101EB000089590E080E00E94CE2A21E0883E9E4F67
:101EC00009F020E0822F089582E090E00E94C02A6D
:101ED000089583E090E00E94C02A0895CF9384E0A3
:101EE00090E00E94C02AC82F82E290E00E94C02A9F
:101EF000982F8C2FCF910895CF93C92F682F84E00E
:101F000090E00E94D42A6C2F82E290E00E94D42AB2
:101F1000CF910895AB01BC018FE090E00E94E62ACA
:101F20000895AB01BC0183E190E00E94E62A089588
:101F300060E070E0CB010E94910F089560E070E0D6
:101F4000CB010E948A0F0E94980F089568EE7EEFE1
:101F500090E080E00E94F22A60E082E090E00E943F
:101F6000D42A60E083E090E00E94D42A10927501A8
:101F700010927601109277011092780160E084E06F
:101F800090E00E94D42A64E082E290E00E94D42A89
:101F900060E085E090E00E94D42A60E086E090E076
:101FA0000E94D42A6FEF87E090E00E94D42A40E09C
:101FB00050E0BA0188E090E00E94E62A60E08DE0FF
:101FC00090E00E94D42A40E050E0BA0188E190E01D
:101FD0000E94E62A60E087E190E00E94D42A40E077
:101FE00050E0BA018CE190E00E94E62A70E060E0E7
:101FF00080E290E00E94F22A40E050E0BA0188E1DD
:1020000090E00E94E62A0E949E0F08950E94A60F6B
:102010000895682F8EE090E00E94D42A08950E94CF
:10202000D0226093D3017093D4018093D501909313
:10203000D6016093CF017093D0018093D10190932A
:10204000D2010895089508950E94231008950E94D2
:102050009F04089583EB92E10E9483210E94221045
:102060000E942410089581E008950E94331008957D
:10207000089508950E9438100E94391008950E9412
:10208000B6120E94450608950E94BB220E94981332
:102090000E943F1080E00E9485190E94B7170E949D
:1020A00027100895AAE0B0E0E8E5F0E10C94532A87
:1020B0000E94AE1327EC822E21E0922E640110E0E4
:1020C000F601E190F1906F01812F0E94E2121F5FF3
:1020D000143009F449C0E816F90691F38091D7014C
:1020E00081FD0E94EB120E943510782E10E0812FA6
:1020F0000E94E2127C01F401A190B1904F018A1577
:102100009B0561F1A826BF2400E0CC24C394D12C08
:10211000C5018C219D21892BC1F07720B1F00E8360
:102120001F8321E0C7018C219D21892B09F420E028
:1021300028870E94C4228160782F9A8789874E81E0
:102140005F8168858A850E9471060F5FCC0CDD1C5B
:102150000930F1F6F4013297F182E0821F5F14300A
:1021600031F60E940F1022C0E816F90609F0B6CF2A
:102170000E94C4228C018091C5019091C60108176C
:102180001907A1F08FEF89838A831B820E94C422E2
:102190008160782F9D838C8349815A816B818D81E9
:1021A0000E9471061093C6010093C5010E94FD179D
:1021B0000E94E51B0E94141F0E9458062A96EDE01B
:1021C0000C946F2ACF93DF930E94CE11EC018115FE
:1021D00023E5920790F5811532E5930708F08DC04D
:1021E000811540E29407C8F4C11581E0D80788F44E
:1021F000C53AD10548F4C430D10558F4C130D105F1
:1022000041F0D0E0C0E005C0CE01805E91090897A2
:10221000C0F7CE01DF91CF910895811521E5920796
:1022200008F066C0811530E5930708F04EC08115AF
:10223000904438F3DF70D06AECCFC11586E5D8073B
:10224000F0F4C11525E5D20708F06FC0C11534E5DB
:10225000D30708F065C0CE018370992721E030E0F4
:1022600002C0220F331F8A95E2F7C695C69540E259
:10227000C49FE0011124C22BD32BDA68CACFC11549
:102280004AE5D40778F4C11589E5D80708F058C0A5
:10229000C11528E5D20708F4B4CFDC2FCC27C06FD6
:1022A000D06AB7CFCE0190568115904208F0A9CFE1
:1022B0008D2F8F710E94701290E0982F88278827A9
:1022C0009F719C012C2BE90139C08370992721E073
:1022D00030E002C0220F331F8A95E2F7C695C695FB
:1022E00040E2C49FE0011124C22BD32BDD6891CFC3
:1022F000D82FCC27C16FD06A8CCF8370992721E06B
:1023000030E002C0220F331F8A95E2F7C695C695CA
:1023100080E2C89FE0011124C22BD32BDC6879CF67
:10232000DC2FCC27C46FD06A74CF8C2F0E94701220
:10233000C82FD0E0DC2FCC27CC27DF71D06269CF4B
:102340008C2F8F700E94701234E0D695C7953A9505
:10235000E1F7CF709C2FEC01D0695BCF972F7430E1
:10236000A8F4693098F470E029E0929F600D711D27
:102370001124FB0194E2899FE00DF11D1124EE0F61
:10238000FF1FE552FF4F85919491089580E090E002
:1023900008950E94AE110E94E210089582389105BE
:1023A000B9F1B0F48133910509F47DC048F4893264
:1023B000910509F46DC08A32910509F47BC0089536
:1023C0008533910509F45FC08933910509F10895BA
:1023D000833E9105D9F138F4803E910529F1823E82
:1023E000910579F10895863E9105D9F1873E9105D1
:1023F00009F43EC0843E910541F52091340221FF4D
:1024000024C08091330284FD19C087EE90E00895C6
:1024100020913302237009F05AC02091340223FF27
:1024200014C089E290E008952091330220FD38C065
:102430003091340230FF09C024FF43C090E080E0B7
:1024400008952091330222FDF7CF089520913302A1
:1024500022FD3AC03091340230FD39C024FFF5CF5F
:10246000EDCF2091330223FFF0CF24FDE7CFCDCF76
:102470002091330223FD2EC03091340231FFEECF84
:1024800084EE90E008952091330225FFDECFC9CF7E
:102490002091330225FD21C02091340223FFD5CFA6
:1024A00089E390E0D2CF2091330226FFCECF8AE29B
:1024B00090E008952091330226FFC7CF81E390E09A
:1024C000089583EE90E0089582EE90E0089580EE06
:1024D00090E0089586EE90E0089585E390E00895F9
:1024E0009091330292FF06C0282F28712830F9F40A
:1024F000877F846093FF06C0282F28712831F1F46C
:10250000877E84612091340220FF06C0382F387105
:102510003830D9F4877F816021FF06C0282F2871C9
:102520002831D1F4877E816194FD877E0895282F1C
:1025300024712430F9F68B7F8860DCCF282F24713A
:10254000243101F78B7E8861DDCF382F3171313036
:1025500019F78E7F8860E0CF282F2171213121F774
:102560008E7E8861E1CF80E0089508950E94590F22
:10257000811102C00E9406100E94640F8093D7014F
:102580000E946E0F90933402809333020E94B51222
:102590000E94690F682F70E090E080E00E94C009FF
:1025A0006091710170917201809173019091740139
:1025B0000E94FF09089508950E94DB1208950E9469
:1025C000EF040895E82FF0E0EE0FFF1FE35CFD4FEE
:1025D000808191810895089580EA8A95F1F70895A0
:1025E00000C008950E94EC120895F894E82FE29537
:1025F000EF70F0E031A1282F2F7081E090E001C052
:10260000880F2A95EAF7982F9095932391A392A18A
:10261000892B82A378940895CF93DF9387E90E9452
:10262000F51286EC0E94F51284E30E94F51285E310
:102630000E94F512CFE2D1E089918F3F11F00E9404
:10264000F51281E0C833D807B9F7DF91CF9108952B
:10265000AF92BF92DF92EF92FF920F931F93CF93AF
:10266000DF938C01D62EC62FD0E0CE01885C9E4F22
:102670007C01FC0120812F3F09F44DC0F894E22F2A
:10268000E295EF70F0E031A12F7081E090E001C0A1
:10269000880F2A95EAF7932F982B91A392A1809502
:1026A000892382A378940E94F012EFE2F1E048E3DC
:1026B00051E021E030E0B12CA12C61916F3FA9F1F4
:1026C000A62FA295AF70B0E090968C9190E06F70BD
:1026D00002C0959587956A95E2F780FD26C0C901ED
:1026E000A82AB92A220F331F4E175F0731F7F701C7
:1026F00080818F3F11F00E94F51261E0A114B104B6
:1027000009F460E08D2D0E94F212CC0FDD1FC00F86
:10271000D11FB982A882DF91CF911F910F91FF90B5
:10272000EF90DF90BF90AF90089590E080E0D8CF19
:102730000E940C1388E0EDE3F2E0DF01982F1D9278
:102740009A95E9F7E5E3F2E0DF011D928A95E9F752
:1027500084E00E94E9130E9460050895A8E0B0E0BB
:10276000E4EBF3E10C945B2A8E010F5F1F4F88E0CE
:10277000F80111928A95E9F7F12C6F2DC8010E949A
:102780002813F394F4E0FF12F8CF48E050E0B801CA
:1027900085E392E00E94AA2A21E0009709F420E054
:1027A000892B41F088E0F801A5E3B2E001900D9299
:1027B0008A95E1F744E06DE372E085E392E00E94E0
:1027C000EA13182F0E946305812F2896E5E00C94E8
:1027D000772A0895CF92DF92EF92FF921F93CF93C3
:1027E000DF936C017B01C42F222349F081E08093A9
:1027F000DA010E94C4229093D9018093D8011091EC
:10280000DA0111110AC010E0812FDF91CF911F91E1
:10281000FF90EF90DF90CF9008958091D801909134
:10282000D9010E94DC22059770F3D0E0CC0FDD1FA8
:10283000AE01B601C7010E94AA2A892B41F0AE0160
:10284000B601C7010E94B72A1092DA01DDCF10E06D
:10285000FBCF0E949B240E9444100E94A82408954C
:102860000E94AD240E9452100E94C72408950E9425
:102870005D220E9481240E942A100E9429140E9435
:1028800030140E943A10FBCFEF92FF920F931F93E8
:10289000CF93DF93EB01E82FD1110EC0442321F039
:1028A000F0E0ED54FE4FE4916E2F7E2F8E2FCDB7CA
:1028B000DEB7E6E00C94762A0D2F10E0282F30E0EA
:1028C000442329F02D543E4FF901249130E0F6E0E5
:1028D000CF9FC0011124EFEFF0E0BF010E94CC298F
:1028E000AB018C2F90E0880F991FA5E5A49FB00144
:1028F000A59F700D1124861B970B982F990F980F89
:10290000BF01601B710B629FD001639FB00D729F6E
:10291000B00D11248B2F9D9FB0011124672F7727B5
:10292000EF01C61BD70BBE01629FE001639FD00D74
:10293000729FD00D11247F01E91AF108E09EB001C9
:10294000E19E700DF09E700D1124672F7727E61B16
:10295000F70BE29F8001E39F100DF29F100D1124F1
:10296000E12F722F4230510599F048F4411551057D
:1029700069F04130510581F0EB2F8D2F07C04430B5
:10298000510569F080F046305105B1F76E2F8FCFB9
:10299000E22F7B2F812FFACFE22F7D2FF7CFEB2F66
:1029A000822F712FF3CF7B2F822FED2FEFCF41E0BE
:1029B0000E944414089508950E94D7140895CF9357
:1029C000DF93762FE901682F842F0E94DC1479832E
:1029D00068838A83DF91CF910895493708F048E7EB
:1029E0000E94DF14089580914502982F9E7F61F424
:1029F000817082608093450280914802893718F087
:102A000088E78093480208958831B0F38170866129
:102A1000F1CF88E090E00E94C82A0895CF92DF921B
:102A2000EF92FF926B017C010E94F314B701A601A3
:102A300088E090E00E94E62AFF90EF90DF90CF9030
:102A40000895E5E4F2E083E0808311828FEF8283D2
:102A500088E78383148260817181828193810E94DF
:102A60000E1508958091450280FF02C08695089555
:102A700080E0089590914902933018F49F5F9093FD
:102A80004902882351F0609145027091460280917D
:102A90004702909148020E940E15089581E00E941D
:102AA0003A15089590914902992319F09150909305
:102AB0004902882351F0609145027091460280914D
:102AC0004702909148020E940E15089581E00E94ED
:102AD0005215089570E00E9416190895609115012D
:102AE0008091450280FF0BC08091140123E0829FFA
:102AF000C0011124865B9D4F0E946A150895809144
:102B000016019091170123E0829FF0011124E65BEA
:102B1000FD4F891748F71182108212828F5F33961A
:102B2000F8CF9091450290FF0EC090911601209130
:102B3000170133E0939FF0011124E65BFD4F9217DC
:102B400018F00E946E1508958183608342839F5F11
:102B50003396F5CFA3E0B0E0E0EBF5E10C945E2A0C
:102B60009091450290FF0AC09E012F5F3F4F0E9447
:102B7000ED144B8169818A810E9491152396E2E0D0
:102B80000C947A2ACF93DF93EC01E5E4F2E04381E1
:102B900062818C810E94AA158C818F5F8C83DF916A
:102BA000CF910895A3E0B0E0E8EDF5E10C945A2A46
:102BB000182FF62E042FE22E8091450280FF28C0A8
:102BC000E82FE695F0E0E45CFE4F90819093E501FC
:102BD0008E7F823009F59E012F5F3F4F812F0E942B
:102BE000ED144B8169818A810E94911510934602F0
:102BF000F092470200934802EE2051F060914502A6
:102C00007091460280914702909148020E940E15F1
:102C10002396E6E00C94762A923019F4109146023D
:102C2000E5CF953019F7FACFE5E4F2E09181282F4E
:102C30004381628188E0890F0E94D215089581E066
:102C40000E9414160895E5E4F2E09181282F438153
:102C5000628188EF890F0E94D215089581E00E9459
:102C600023160895E5E4F2E0628128E0620F08F49B
:102C70006FEF282F438181810E94D215089581E052
:102C80000E9432160895E5E4F2E0628128E0621BBA
:102C900008F460E0282F438181810E94D2150895B5
:102CA00081E00E9443160895E5E4F2E0438128E0C4
:102CB000420F08F44FEF282F628181810E94D215C4
:102CC000089581E00E9454160895E5E4F2E04381FE
:102CD00028E0421B08F440E0282F628181810E9495
:102CE000D215089581E00E946516089520E00E94A3
:102CF000D2150895A3E0B0E0E0E8F6E10C945C2A78
:102D00008C018091DB0181110AC09E012F5F3F4F32
:102D100048E76FEF0E94ED148A818093DB01F80190
:102D20006481613069F08091DB0140E0662361F0ED
:102D300040E0623011F44091DB0180E060E004C0CB
:102D40006091DB0140E080E00E949115F8018481F0
:102D500090E0019663E070E00E94E029848323966E
:102D6000E4E00C94782AEF92FF921F93CF93DF93C5
:102D7000EC0110E0EE24EA94F12C60911801161792
:102D800070F00E946E159A818C8190FF27C08F5F32
:102D90008C83DF91CF911F91FF90EF900895209148
:102DA0001601422F410F5527551FCA019A01220FC4
:102DB000331F280F391F265B3D4F70E0C7010E946B
:102DC000E029962F8C814091480260914702199F1B
:102DD000800D11240E94ED141F5FCFCF8150D8CFFA
:102DE000E5E4F2E080818E7F808360817181828161
:102DF00093810E940E151092E6012FEF80E792E07A
:102E0000215080409040E1F700C000000E946E1504
:102E10000895E5E4F2E080818E7F80831092E601E0
:102E20002FEF80E792E0215080409040E1F700C012
:102E300000000E946E1508951092E6018091E30152
:102E400081110AC081E08093E30180914502817085
:102E50008093E2010E9409170895609145026695EA
:102E600070E041E050E089E191E00E949D2A892BC9
:102E700019F481E08093E6010E94C4229093DD0161
:102E80008093DC0108959091450290FF2BC09170D2
:102E9000811129C0926090934502662351F06091A0
:102EA00045027091460280914702909148020E942B
:102EB0000E1560914502669570E041E050E089E1B1
:102EC00091E00E949D2A892BA9F01092E60181E0F1
:102ED0008093DF0140914802609147028091460251
:102EE0000E94761608958C3010F09661D4CF880F2A
:102EF000982BD1CF0E942D17EACF682F90914502D1
:102F0000969581E0890F8C3008F081E00E9443178C
:102F1000089581E00E947D170895682F90914502E1
:102F200096958FEF890F09F48BE00E94431708955F
:102F300081E00E948D17089561E00E944317089573
:102F4000E5E4F2E080818160808386950E949C1791
:102F500008958091450280FF03C00E94F0160895F5
:102F60000E94A017089560E00E9443170895809181
:102F7000E40181112EC00E94590F811104C00E94EA
:102F800006100E9421150E94091560934502709356
:102F9000460280934702909348026E7F61F40E943C
:102FA00021150E9409156093450270934602809393
:102FB0004702909348020E94F3141092E601809118
:102FC000450280FF03C086950E94B31781E080937D
:102FD000E4010895E5E4F2E08081816080838695D4
:102FE0000E94B31708951092E3018091E2018111CC
:102FF0000E94EA170E942D1708950F931F93CF93F5
:10300000DF938091E6018823B9F18091E501E09199
:103010004502E695E81BE093DE01823091F5F0E091
:10302000E055FE4FE491CE2FD0E002EC15E1809107
:10303000DF01882361F01092DF010E94C422909387
:10304000DD018093DC011092E1011092E0010E9409
:10305000C422E091DC01F091DD018E1B9F0B8F3FBC
:103060009F4750F4CE0FDF1FD093DD01C093DC01EA
:103070008CED91E0F8010995DF91CF911F910F91AF
:103080000895853051F4E695F0E0E355FE4FE49164
:10309000CE2FD0E003EB16E1CACFC0EDD7E00BEDA9
:1030A00014E18B3021F6EBEAF1E0C591D4910AE707
:1030B00016E1BDCFFA01811101C0FB010995089508
:1030C000CF93DF93C82FD62F0E9432158C1748F06C
:1030D0000E9432158D1728F40E948917DF91CF9135
:1030E00008958C2F0E949C17F9CF1F93CF93DF93E5
:1030F000EC01FB011281111160C00E94720E8272FC
:10310000CC3CFCE5DF0709F47EC0A8F5C73CECE544
:10311000DE0709F464C0D8F4C43C9CE5D90709F47F
:1031200054C030F4C33CDC4509F44CC011E045C048
:10313000C53C9CE5D90709F44DC04EE256E16FE16C
:1031400076E1C63CDC4591F70E945A1836C0C93C6E
:10315000FCE5DF0709F44DC008F446C0CA3CECE5C5
:10316000DE0709F44BC041E656E162E776E1CB3C6D
:10317000DC4551F3DBCFC13D9CE5D90709F451C0D3
:1031800098F4CE3CFCE5DF0709F447C008F440C0E2
:10319000CF3CECE5DE0789F064E082E0C03DDC4531
:1031A00029F60E94601809C0C63D8CE5D807E1F1F8
:1031B00020F0CE35DD4509F0B9CF812FDF91CF91D9
:1031C0001F9108950E94A917F8CF48E957E169E8CF
:1031D00077E1BACF49E857E168E977E1B5CF4FE148
:1031E00056E16EE276E1B0CF40E556E16FE376E17D
:1031F000ABCF4FE356E160E576E1A6CF42E756E17B
:1032000061E676E1A1CF46E655E16EE475E19CCF3B
:103210004EE455E166E675E197CF81E00E949C1788
:10322000CCCF6AE085E0BDCF8BE0F8CF539A4BB1AD
:10323000477F5BB15860EFB7F8949B01220F331FB3
:10324000260F371F280F391F2817390741F4EFBF02
:103250008FE594E00197F1F700C000000895DC01CC
:103260006D91CD0178E05BB9000000C067FF4BB9FC
:10327000660F000000C000C000C04BB900C07A95C6
:1032800091F7E2CFB0E0A0E0E8E4F9E10C94582A2D
:103290006C017B0164E670E088E70E949D20EC01F0
:1032A00097FD12C010E000E0F601E00FF11F8491DD
:1032B00064E670E00E940921EC01892B29F40F5F7C
:1032C0001F4F0E151F0581F70E947F21CE01CDB73C
:1032D000DEB7E8E00C94742A08950E946C190895F2
:1032E000EEE9F2E080E092E0DF019C011D922150C6
:1032F0003040E1F7F0939F04E0939E048FEF9FEF3F
:10330000909313028093120208950E946C190E94F8
:103310006D1980930E0280FD0FC080E880930D022E
:103320000E9497206DE070E08AEC92E00E944219C2
:10333000892B21F080E0089580E2F0CF80910E0289
:1033400063E070E081FD18C087EC92E00E944219B2
:10335000892B81F76DE070E087EB92E00E944219C3
:10336000892B41F70E94701981E0809311028093AC
:10337000100210920F02089584EC92E0E7CF2091A2
:103380000D0236E0839FC0011124629F800D911DC4
:103390001124811522E0920714F090E080E082561B
:1033A0009D4F90939F0480939E04089520919E04C6
:1033B00030919F042859324040910D02642F70E0F3
:1033C000C9010E94CC29481B463010F4240F311D3E
:1033D000211582E0380710F030E020E022563D4F02
:1033E00030939F0420939E0408951F93CF93DF93FF
:1033F000162F8A3039F481E00E946E1ADF91CF9146
:103400001F9108958D3011F480E0F6CFC0919E0495
:10341000D0919F0496E0FE01A7EEB1E001900D92DD
:103420009A95E1F7803EB8F086E0FE0111928A9508
:10343000E9F711111CC0C0919E04D0919F0446E091
:1034400050E0BE0187EE91E00E94AA2A892BE9F4A0
:103450000E94D619D3CFF6E08F9FB0011124695294
:103460007D4F46E050E0CE010E94942AE2CFE091E9
:103470009E04F0919F049F012A5F3F4F2E173F0744
:10348000D1F2808180958193F9CFCE59D240CE017F
:1034900025E0969587952A95E1F721E030E0A9018E
:1034A00002C0440F551F8A95E2F7CA0140911202EB
:1034B00050911302842B952B259645E0D695C79500
:1034C0004A95E1F702C0220F331FCA95E2F7822B1B
:1034D000932B9093130280931202BACFCF93382F7D
:1034E000E0919E04F0919F04EE59F24020910D026C
:1034F000622F70E0CF010E94CC29281B822F33233A
:1035000069F066E00E94C029C82FC15010F4CF9125
:10351000089560E080E20E94F519F7CF9F01280F1F
:10352000311D2115324018F080E0F0E0E0E08E0F10
:103530009F2F911D82569D4F90939F0480939E04D0
:10354000E6CF1F93CF93DF93EC01162FFE018491FA
:10355000811104C0DF91CF911F910895612F0E94C6
:10356000F5192196F3CF0E94A11A81E00E946E1AEC
:1035700008958091100290911102992361F08111B8
:1035800008C062E070E085EB92E00E944219892B4E
:1035900019F080911002089581E080931002F9CF14
:1035A0002F923F925F926F927F928F929F92AF92F3
:1035B000BF92CF92DF92EF92FF920F931F93CF9320
:1035C000DF9380911102882369F0209112023091DB
:1035D00013022115310531F080910F0261E070E096
:1035E000882399F0DF91CF911F910F91FF90EF9079
:1035F000DF90CF90BF90AF909F908F907F906F9013
:103600005F903F902F9008958F5F082F10E01B016F
:10361000082E02C0220C331C0A94E2F7A9014221B1
:103620005321452B89F390910E0290FD44C0829561
:10363000880F807680931C019801369527953695E2
:10364000279520931F01815E80931D011092200118
:1036500024E630E047E050E06AE171E088E70E944C
:103660003721892B09F0BECFA80125E0440F551F53
:103670002A95E1F780910E0280FD2BC042565D4FE6
:1036800004E610E020E230E060E488E70E94582180
:10369000892B09F0A7CF0E94B91AE101C095D095F6
:1036A0008091120290911302C823D923D093130260
:1036B000C093120297CF880F880F880F80931C0148
:1036C00010921F01895F80931D0183E08093200188
:1036D000BFCFEDEEF1E080E2DF011D928A95E9F7C0
:1036E000ACE4B1E008E411E080E5C82E81E0D82E1A
:1036F00097E0592E772473948D91E80129918E01DA
:10370000240F352F311D22563D4FE82FF0E0E351B5
:10371000FE4F90E080E0652C681A872C082E01C0CF
:10372000880C0A94EAF77901A12CE701B9907E018F
:10373000B820662D6A196770962E062E000C770B3E
:10374000DB2D01C0DD0F9A94EAF77195619571093F
:103750006770772701C0B6946A95EAF7BD2A608141
:10376000962E9B289082A39468E0A612DECF019645
:1037700031968830910579F6CA16DB0609F0BCCF80
:1037800004E610E020E230E04DEE51E07DCF809184
:10379000100290911102911103C091E089270895C0
:1037A000882369F062E070E083EB92E00E944219A6
:1037B000892B19F0809110020895109210028091C7
:1037C0001002EBCF0E94E304089580911102882338
:1037D00041F060E080E00E94BF190E94E21B0E945D
:1037E000D01A0895CF93DF93EC01FB0182818823E7
:1037F00009F464C1C430FDE5DF07E0F5CB3F9CE58B
:10380000D90730F49E0122503C4524313105D8F5CA
:103810000E946E0F9093340280933302C231ECE524
:10382000DE0709F41FC108F06EC0C9308CE5D80767
:1038300009F4F2C008F03FC0C530ECE5DE0709F43A
:10384000DBC058F5C3308CE5D80709F4CDC008F0CB
:10385000CFC0809133028160C230DC4509F4AEC034
:1038600080913302909134020E947C0F0E9467097C
:1038700080E009C0C63AEDE5DE0751F238F4C23601
:103880009DE5D90729F2DF91CF9108959E012E5A27
:103890003D4523303105B8F7BBCF809133028062BC
:1038A000C730FCE5DF0709F489C008F4B1C0809196
:1038B0003302806483C0CD309CE5D90709F4BAC0D7
:1038C00070F4809133028E7FCB30FCE5DF0709F482
:1038D00075C008F4A7C0809133028D7F6FC0CF30D0
:1038E0009CE5D90709F4B6C008F4A8C0C031FCE5CE
:1038F000DF0709F4B3C0C131DC4509F0B1CF8091D5
:1039000033028F7B5BC0C1159DE5D90709F4B4C0B4
:1039100098F5CB3FFCE5DF0709F472C0B8F4C43179
:103920009CE5D90709F4B6C008F4A2C0C531DC454E
:1039300009F096CF8091330282FB992790F921E01C
:10394000922790FB82F990FB83F938C0CD3F8CE53C
:10395000D80709F477C008F457C0CE3FECE5DE077E
:1039600009F474C0809134028360CF3FDC4509F0D4
:1039700077CF8093340274CFC2368DE5D80709F42F
:1039800096C068F4C230EDE5DE0709F48CC008F497
:1039900077C0C330DD4509F063CF80E085C0CE3A03
:1039A0009DE5D907E9F068F490913302892F8E7F65
:1039B00090FF8160C63ADD4509F052CF8093330213
:1039C0004FCFCF3A8DE5D80789F1C03BDD4509F0EF
:1039D00047CF90913402892F877F93FF8860C9CFAA
:1039E000809134028860C5CF809133028260E6CF37
:1039F000809133028460E2CF809133028860DECF11
:103A0000809134028160B5CF809134028260B1CF61
:103A1000809133028061D2CF0E9467098091330286
:103A20008068CCCF809133028C60C8CF8091340203
:103A3000877F9FCF809133028B7FC0CF80913302ED
:103A4000877FBCCF809134028E7F93CF80913402E8
:103A50008D7F8FCF809133028F7EB0CF80913302E4
:103A60008F7DACCF0E946709809133028F77A6CFFC
:103A700080913302837FA2CF809134028C7F79CFF3
:103A800080913402982F909591708E7F892B90FBB6
:103A900081F96FCF0E94670990913302892F97FBBC
:103AA00087F980588BCF81E00E940910D9CE909180
:103AB0003302892F8F7E94FF806180CF81E0E3CE37
:103AC000CF939C0129503D45C1E02032310540F49F
:103AD000FB01C2818950CC2331F00E94281FC0E035
:103AE0008C2FCF9108950E94411FFACFE82FE295C5
:103AF000EF70F0E022A1482F4F7081A130E0042E3A
:103B000002C0359527950A94E2F7220F331F2270E1
:103B1000332790E002C0959587954A95E2F781702A
:103B20009927822B932B0895E82FE295EF70F0E010
:103B300092A18F7021E030E0082E01C0220F0A947C
:103B4000EAF7209561FB442740F9082E01C0440F95
:103B50000A94EAF79223942B92A391A1617077279C
:103B600001C0660F8A95EAF72923622B61A30895A5
:103B7000A4E0B0E0EEEBFDE10C944E2A40E051E011
:103B80005C834B8384E1E82E82E0F82E01E010E0B4
:103B9000EB81FC8181818F3F09F42FC10E94761D4A
:103BA0009A838983EB81FC819181E92FE295EF7003
:103BB000F0E022A19F70A80102C0440F551F9A9502
:103BC000E2F7CA018095822382A3EB81FC81818187
:103BD000E82FE295EF70F0E091A18F70980101C09D
:103BE000220F8A95EAF7892F822B81A3F5E3FA95B4
:103BF000F1F70000EB81FC818081D12CC12C8F3F3B
:103C000029F10E94761D6C01EB81FC818081E82FF7
:103C1000E295EF70F0E091A18F70980101C0220F42
:103C20008A95EAF7892F822B81A3EB81FC81808121
:103C3000E82FE295EF70F0E092A18F70980101C03B
:103C4000220F8A95EAF7892F822B82A3EB81FC81D0
:103C50008281312C212C8F3F39F10E94761D1C016D
:103C6000EB81FC818281E82FE295EF70F0E091A179
:103C70008F70980101C0220F8A95EAF7892F822B55
:103C800081A3EB81FC819281E92FE295EF70F0E056
:103C900022A19F70A80102C0440F551F9A95E2F718
:103CA000CA018095822382A355E35A95F1F700005B
:103CB000EB81FC819181E92FE295EF70F0E021A189
:103CC0009F70A80102C0440F551F9A95E2F7CA01E0
:103CD0008095822381A3EB81FC819181E92FE2957C
:103CE000EF70F0E022A19F70A80102C0440F551FA1
:103CF0009A95E2F7CA018095822382A355E35A95EB
:103D0000F1F70000EB81FC8181810E94B21FEB8101
:103D1000FC8145805680712C612C092E000CAA0B69
:103D2000BB0B4C015D0184189508A608B708A1E8F3
:103D3000BFEFA50194010E94492A2381348150E0FC
:103D400040E024193509460957090E94162A12161F
:103D500013061406150694F4AFE7B0E0A50194012C
:103D60000E943B2AEB81FC812781308550E040E0B6
:103D700024193509460957090E94162ADA01C90192
:103D80008138FFEF9F07AF07BF0724F481E89FEF5B
:103D9000AFEFBFEF80389105A105B10524F08FE7A3
:103DA00090E0A0E0B0E0F70141815281052E000CC7
:103DB000660B770B481759076A077B0739F0928320
:103DC000818380911902826080931902EB81FC81CA
:103DD00080818F3F19F0B6010E94941DEB81FC8118
:103DE00082818F3F19F0B1010E94941D69817A810F
:103DF000EB81FC8181810E94941D4B815C81475F36
:103E00005F4F5C834B8352E0E50EF11C8B819C81FC
:103E10008251914009F0BCCE81E02496E2E10C94FD
:103E20006A2A0E94B81D08950E94111F81110E94E4
:103E30001A1F08958091190281FF09C084E192E060
:103E40000E945F23809119028D7F8093190208954B
:103E5000E82FE695E695E695F0E0EC5EFD4F87707D
:103E600021E030E001C0220F8A95EAF78081822BA1
:103E70008083E9E1F2E08081826080830E941A1FE2
:103E80000895E82FE695E695E695F0E0EC5EFD4FA7
:103E9000282F277081E090E001C0880F2A95EAF76B
:103EA0008095908189238083E9E1F2E080818260BE
:103EB00080830E941A1F0895873901F178F48633B0
:103EC000F9F030F48433F1F08533F1F08FE10895A7
:103ED0008439E1F08639D1F781E20895843FC1F059
:103EE00030F4803FB9F0813F89F781E00895863F43
:103EF00099F0A0F0873F51F787E0089582E2089596
:103F000085E2089583E2089584E2089580E20895A9
:103F100084E0089580E0089586E0089585E008959E
:103F200096E890937A00982F9072906890937B0017
:103F30008F7190912101892B80937C0080917A0070
:103F4000806480937A0080917A0086FDFCCF809116
:103F500078002091790090917A009F7790937A0071
:103F6000922F08950E945C1F0E94901F0895CF9386
:103F7000DF93EB0186319C4511F50E94720E9A8108
:103F8000992399F08A7A91E009F490E090931A02CB
:103F9000811109C089E20E944A0E0E94B30E80E09E
:103FA000DF91CF91089585E3F6CF80911A028111B8
:103FB00004C089E20E94520EF0CF85E3FBCF81E07E
:103FC000EFCF0F931F93CF93DF93C42FD22FFC011A
:103FD00082818823C9F040931D020E94C4229093DD
:103FE0001C0280931B0280E28C0F883040F4C77063
:103FF00081E001C0880FCA95EAF70E942107DF918E
:10400000CF911F910F91089510911D02141332C08A
:1040100080911B0290911C020E94DC22883C910539
:1040200048F5C0E2CD0F1D17B9F080E2810F88304E
:1040300040F4177081E001C0880F1A95EAF70E94DA
:104040002807C83048F481E09D2F977001C0880F81
:104050009A95EAF70E942107802F0E941807C8301E
:1040600070F6D77081E001C0880FDA95EAF70E94F8
:104070002807C5CF80E28C0F883008F6C77081E032
:1040800001C0880FCA95EAF7F2CF0F939C01CB01CC
:10409000243F4CE5340759F1A8F4293DFCE53F07DE
:1040A00001F12A3D4CE53407D1F1283D3C4591F41E
:1040B00006E221EE41EE68ED7CE50E94E11F80E022
:1040C0000F910895263FFCE53F07E9F0B0F0273F48
:1040D0003C45F9F0FC018281882339F110921D02E0
:1040E000EFCF07E225EE45EE69ED7CE5E6CF06E28F
:1040F00021EE40EE64EF7CE5E0CF07E225EE44EEF2
:1041000065EF7CE5DACF06E221EE42EE66EF7CE574
:10411000D4CF07E225EE46EE67EF7CE5CECF08E28E
:1041200021E045EE6AED7CE5C8CF81E0C9CF109271
:10413000B9008CE08093B8000895B0E0A0E0E3EA15
:10414000F0E20C94552AB82EEB010E94C4226C01B7
:10415000EE24E394F12CC431D10560F025E0E22E89
:10416000F12CCF3FDC0731F0CE0164E170E00E941A
:10417000CC297B0184EAA82E94E8992E1092BC00E9
:10418000A092BC000E94C4228C018091BC0087FFD9
:104190000DC08091B900887F8830F9F08091B90016
:1041A000887F8031D1F00FEF1FEF08C0C8010E9457
:1041B000DC22E816F90648F70EEF1FEFCF3FDC07C9
:1041C000E9F2C6010E94DC22C817D907B8F6C80177
:1041D000CDB7DEB7EBE00C94712AB092BB009092A1
:1041E000BC000E94C4228C018091BC0087FF0AC0E1
:1041F0008091B900887F883111F08034A1F610E0F9
:1042000000E0E5CFC8010E94DC22E816F90660F75D
:10421000D3CF0F931F93CF93DF93EB018093BB001A
:1042200084E88093BC000E94C4228C018091BC0071
:1042300087FF11C02091B900287F81E090E02832EB
:1042400011F490E080E0919581959109DF91CF91F3
:104250001F910F910895CF3FDC0741F3C8010E94E1
:10426000DC22C817D90710F78EEF9FEFEFCFB0E031
:10427000A0E0EDE3F1E20C94582A6B018A01790188
:10428000B9010E949D20E6010C0D1D1DC017D1072C
:1042900011F097FF08C024E92093BC00CDB7DEB72A
:1042A000E8E00C94742AB70189910E940921EECFAD
:1042B000B0E0A0E0EEE5F1E20C94582AC62F6A01C6
:1042C0007901B8010E949D2097FD0CC0B8018C2F88
:1042D0000E940921E601EC0CFD1CCE15DF0511F052
:1042E00097FF08C024E92093BC00CDB7DEB7E8E013
:1042F0000C94742AB80189910E940921EECF84E9B7
:104300008093BC00089590935101809350010895CB
:1043100090932302809322020895E0912202F0916B
:104320002302309729F00190F081E02D099508953E
:1043300080E00895E0912202F0912302309721F06D
:104340000280F381E02D099508952091200230919B
:1043500021022817390771F09093210280932002DF
:10436000E0912202F0912302309721F00680F7813C
:10437000E02D0995089520911E0230911F02281703
:10438000390771F090931F0280931E02E091220280
:10439000F0912302309721F00084F185E02D0995FA
:1043A00008959C012E5F3F4FAC01485F5F4F80E056
:1043B0002417350709F40895F90191919F01992374
:1043C000B9F38F5FF5CF662349F0FC01329608966A
:1043D0002191261729F0E817F907D1F780E0089511
:1043E00081E008959C01FC0132969FEF80E04191AD
:1043F000461751F09F3F19F4411101C0982F8F5F6C
:104400008630A9F79F3F09F40895290F311D97FDC4
:104410003A95F90162830895FC013296089621913C
:10442000261303C0DF0111971C92E817F907B9F7AB
:1044300008950E94F22108950E940C220895029688
:1044400026E0FC0111922A95E9F7089508950E944B
:1044500026220895811106C081E0809324020E94E3
:104460002722089582E0F9CF83E0809324020E94FE
:10447000272208950E942A22089581E08093240231
:104480000E94272208950E943D22089508950895CC
:10449000CF930E9446220E94AE130E944722C0E0A2
:1044A0008C2F0E94E212892B31F4CF5FC430C1F708
:1044B00080E0CF91089581E0FCCF85B7806885BF0B
:1044C00085B7806885BF08951F921FB61F9211247B
:1044D0008F939F93AF93BF9380912502811113C057
:1044E0008091A0049091A104A091A204B091A30492
:1044F0004196A11DB11D8093A0049093A104A093A7
:10450000A204B093A304BF91AF919F918F911F908C
:104510001FBE1F9018958091A804843031F10E942D
:10452000DF051092250288E190E020E40FB6F894B0
:10453000A895809360000FBE2093600083B7817FB1
:10454000846083BF83B7816083BF7894889583B785
:104550008E7F83BF0FB6F894A89580916000886124
:1045600080936000109260000FBE08950E9467095A
:104570000E94E805089582E084BD93E095BD9AEF1E
:1045800097BD80936E0008952FB7F8948091A00492
:104590009091A104A091A204B091A3042FBF08950B
:1045A0002FB7F8946091A0047091A1048091A204A7
:1045B0009091A3042FBF08959C014FB7F894809168
:1045C000A0049091A104A091A204B091A3044FBFB4
:1045D000821B930B089578941F921FB61F9211248B
:1045E0008F939F93AF93BF938091A0049091A10468
:1045F000A091A204B091A3040196A11DB11D8093C6
:10460000A0049093A104A093A204B093A304BF912B
:10461000AF919F918F911F901FBE1F90189587E7B4
:1046200097E7909301088093000888E19AE00FB61D
:10463000F894A895809360000FBE90936000FFCF20
:1046400088E19AE00FB6F894A895809360000FBEB9
:1046500090936000FFCF80913102089508950895EE
:10466000CF93DF93EC0181E08093E9008FEF90918D
:10467000E800815095FD06C095ED9A95F1F7000090
:104680008111F5CF8091E80085FF14C050E040E033
:1046900068E070E0CE010E9439258091E8008E77B5
:1046A0008093E80088E0FE01A9E2B2E001900D925B
:1046B0008A95E1F7DF91CF91089508950895FC015F
:1046C00093818081218120932602909327028093F9
:1046D000280282E08093E9008FEF9091E8008150FA
:1046E00095FD06C095ED9A95F1F700008111F5CF83
:1046F0008091E80085FF0DC050E040E063E070E08D
:1047000086E292E00E9439258091E8008E778093BE
:10471000E80008958091A704811109C00E94C9266C
:104720000E9426278091E20084608093E200089531
:104730001092A70408950E943D2208956091A40458
:1047400081E0611101C080E00E94342208959091BF
:10475000A80481E0943009F080E06091A4040E94F4
:104760003A22089542E061EC81E00E94452642E051
:1047700061EC82E00E9445269091A80481E094308B
:1047800009F080E06091A4040E942A22089580919B
:10479000AA04833009F461C030F48130D1F1823051
:1047A00009F49EC008958A3009F48AC08B3009F458
:1047B0006FC0893009F050C08091A904813209F09E
:1047C0004BC08091AD049091AE04892B09F044C098
:1047D0008091E800877F8093E8008091E80082FF65
:1047E00037C09091F3008091F200029731F48091EC
:1047F000F100813011F0863021F48091F100809336
:1048000031028091E8008B778093E8000E9479263E
:1048100023C08091A904813AF9F48091E800877F50
:104820008093E8008091AD049091AE04892B61F4EF
:1048300068E089E292E070E00E9488258091E800BB
:104840008B778093E800089560E090E080E0F3CFFC
:104850008091A8048111C1CF08958091A904813A63
:10486000D9F78091AD049091AE04892BA9F780917E
:10487000E800877F8093E8008091E80080FFFCCF0C
:1048800080912E018093F1008091E8008E77BCCF5B
:104890008091A904813201F78091AD049091AE041A
:1048A000892BD1F68091E800877F8093E8000E94F1
:1048B00079268091AB0480932E010E9467090895A8
:1048C0008091A904813241F68091E800877F80932E
:1048D000E8000E9479268091AC048093320208950A
:1048E0008091A904813A09F0B7CF8091E800877FD1
:1048F0008093E8008091E80080FFFCCF8091320235
:10490000C1CF84B7877F84BF0FB6F894A8958091F4
:104910006000886180936000109260000FBE80E8A4
:1049200090E00FB6F89480936100909361000FBE01
:104930000E94432208950E94C9260E942627E2EE83
:10494000F0E080818460808378940E94A529089596
:1049500082E291E00E94882108958091A804853028
:1049600031F48091A804853019F00E94B622089590
:104970000E948B228091A604882399F30E944822EA
:10498000882379F30E9423250E946709EACF0895BE
:104990000E94CB240895292F33272330310519F1A4
:1049A00068F42130310509F444C02230310509F49E
:1049B00045C090E080E030E020E025C021323105A4
:1049C00049F122323105A9F780E490E020EC38E08B
:1049D00061157105C1F080E390E020E938E06130B5
:1049E000710589F0E6CF99278130910581F0009714
:1049F00029F00297F1F6E7E1F8E002C0EFE3F8E012
:104A0000849190E09F01FA01318320830895E7E2C9
:104A1000F8E0F6CF89E090E025E538E06115710512
:104A200091F389E090E02EE638E06130710559F3AA
:104A3000C0CF82E190E02EE738E0E5CF8BE390E055
:104A400023E438E0E0CF80E189BD82E189BD09B48B
:104A500000FEFDCF8091D8008F7D8093D80080919B
:104A6000E00082608093E0008091E00081FDFCCF57
:104A70000895AF92BF92CF92DF92FF920F931F9350
:104A8000CF93DF936C01EB018A010E949826F82EE8
:104A9000811123C00115110539F0F8018081918140
:104AA000C81BD90BC80ED91EB12CA12C2097A9F078
:104AB0008091E80085FD22C08091E8008E77809388
:104AC000E80001151105A1F0F80180819181A80E7F
:104AD000B91EB182A08285E0F82E8F2DDF91CF9193
:104AE0001F910F91FF90DF90CF90BF90AF900895EE
:104AF0000E9498268823D1F2F82EEFCFF6018191FB
:104B00006F018093F1002197FFEFAF1ABF0ACECF5C
:104B1000FC018091AF049091B00486179707A0F034
:104B20006115710529F49091E8009E779093E80053
:104B300090E06115710551F4911108C08091E80071
:104B400082FF34C080E00895BC01F2CF8091A804B8
:104B50008823C1F18530C1F18091E80083FD30C028
:104B60008091E80082FDEACF8091E80080FFE1CFEC
:104B70008091F3002091F200382F6115710519F032
:104B80002830310558F091E02830310509F090E0E7
:104B90002091E8002E772093E800CBCF819180937D
:104BA000F100615071092F5F3F4FE7CF8091A8045A
:104BB000882341F0853041F08091E80083FFBECF2B
:104BC00081E0089582E0089583E00895FC018091DA
:104BD000AF049091B00486179707A0F06115710596
:104BE00029F48091E8008E778093E80090E06115C9
:104BF000710551F4911108C08091E80082FF35C021
:104C000080E00895BC01F2CF8091A8048823C9F107
:104C10008530C9F18091E80083FD31C08091E800C2
:104C200082FDEACF8091E80080FFE1CF8091F30020
:104C30002091F200382F6115710519F028303105E7
:104C400058F091E02830310509F090E08091E800BB
:104C50008E778093E800CBCF84918093F1003196DA
:104C6000615071092F5F3F4FE6CF8091A8048823E0
:104C700041F0853041F08091E80083FFBDCF81E0B5
:104C8000089582E0089583E00895982F973028F0E2
:104C90008F708093E90081E008959093E900242FBC
:104CA000762F50E0981731F07091EC002091ED00D4
:104CB0005091F00021FD02C09F5FE8CF3091EB00E2
:104CC0003E7F3093EB003091ED003D7F3093ED005F
:104CD0003091EB0031603093EB007093EC00209347
:104CE000ED005093F0002091EE0027FDE5CF80E02D
:104CF00008958091A90487FF13C08091E80082FF86
:104D000006C08091E8008B778093E80004C0809112
:104D1000A8048111F2CF08958091A8048823D9F3C3
:104D20008091E80080FFF8CF8091E8008E77ECCF8B
:104D30002091E4003091E50095E6A9012091EC0076
:104D4000822F817020FF06C08091E80080FF06C09E
:104D500080E008952091E80022FD1AC08091A80407
:104D6000882389F0853089F08091EB0085FD0FC0A4
:104D70002091E4003091E50042175307F9F2915079
:104D8000E1F684E0089582E0089583E0089581E0EB
:104D900008950E9438270E944027E0EEF0E08081CD
:104DA00081608083E8EDF0E080818F77808319BC9B
:104DB000A7EDB0E08C918E7F8C9380818F7E808375
:104DC0001092A70408950F931F93CF93DF930E942F
:104DD00038270E944027C8EDD0E088818F778883EC
:104DE00088818068888388818F7D888319BC109230
:104DF000A8041092A4041092A6041092A50400EE38
:104E000010E0F80180818B7F8083888181608883B6
:104E100042E060E080E00E944526E1EEF0E0808123
:104E20008E7F8083E2EEF0E08081816080838081EC
:104E300088608083F80180818E7F80838881806193
:104E40008883DF91CF911F910F910895E8EDF0E0F5
:104E500080818F7E8083E7EDF0E0808181608083B8
:104E600084E082BF81E08093A7040E94E326089536
:104E7000E8EDF0E080818E7F80831092E20008955B
:104E80001092DA001092E10008951F920F920FB66F
:104E90000F9211242F933F934F935F936F937F93C0
:104EA0008F939F93AF93BF93EF93FF938091E10014
:104EB00082FF0BC08091E20082FF07C08091E10079
:104EC0008B7F8093E1000E94A4298091DA0080FF0B
:104ED00019C08091D80080FF15C08091DA008E7FC4
:104EE0008093DA008091D90080FF96C080E189BD6F
:104EF00082E189BD09B400FEFDCF81E08093A80462
:104F00000E948A238091E10080FF19C08091E20015
:104F100080FF15C08091E2008E7F8093E200809137
:104F2000E20080618093E2008091D80080628093EB
:104F3000D80019BC85E08093A8040E949E2380912C
:104F4000E10084FF2BC08091E20084FF27C080E154
:104F500089BD82E189BD89B5982F917080FFFBCF13
:104F60008091D8008F7D8093D8008091E1008F7E62
:104F70008093E1008091E2008F7E8093E200809137
:104F8000E20081608093E2008091A404882309F408
:104F900049C084E08093A8040E94A7238091E10087
:104FA00083FF29C08091E20083FF25C08091E1004A
:104FB000877F8093E10082E08093A8041092A4048C
:104FC0008091E1008E7F8093E1008091E2008E7FEE
:104FD0008093E2008091E20080618093E20042E0F1
:104FE00060E080E00E9445268091F0008860809318
:104FF000F0000E949B23FF91EF91BF91AF919F9191
:105000008F917F916F915F914F913F912F910F9071
:105010000FBE0F901F90189519BC1092A8040E9403
:10502000982370CF8091E30087FD93E09093A804CC
:10503000B3CF1F920F920FB60F9211242F933F936D
:105040004F935F936F937F938F939F93AF93BF9390
:10505000CF93DF93EF93FF93D091E900DF708091BE
:10506000EC00C82FC17080FDC0E81092E90080916B
:10507000F000877F8093F00078940E945D28109262
:10508000E9008091F00088608093F000CD2BCF7014
:10509000C093E900FF91EF91DF91CF91BF91AF9164
:1050A0009F918F917F916F915F914F913F912F9140
:1050B0000F900FBE0F901F901895AAE2B0E0E3E6A4
:1050C000F8E20C945D2A89EA94E02091F100FC0159
:1050D0002193CF01F4E0813B9F07B9F70E94C723DA
:1050E0008091E80083FF1EC18091A9049091AA04D9
:1050F0009A3008F017C1E92FF0E0EA5EF44D0C9405
:10510000352A803899F0823809F00CC18091AD04BD
:105110008F70873008F006C18093E9008091EB0022
:1051200085FB882780F91092E90006C08091A504CC
:105130009091A604911182609091E800977F9093DE
:10514000E8008093F1001092F1008091E8008E77E2
:10515000E5C0882309F4D3C0823009F0E3C0809110
:10516000AB048111D6C08091AD048F702FEF280F52
:10517000263008F0D7C08093E9002091EB0020FF93
:10518000C8C0933031F48091EB0080628093EB00D3
:10519000C0C09091EB0090619093EB0021E030E073
:1051A00001C0220F8A95EAF72093EA001092EA00E4
:1051B0008091EB008860EACF8111B4C01091AB04FC
:1051C0001F778091E3008078812B8093E3008091AA
:1051D000E800877F8093E8000E9479268091E800AC
:1051E00080FFFCCF8091E30080688093E30082E041
:1051F000111183E08093A80495C08058823008F094
:1052000091C08091AB049091AC048C3D23E0920757
:10521000A1F583E08A838AE289834FB7F894DE019F
:10522000139620E03EE051E2E32FF0E05093570068
:10523000E49120FF03C0E295EF703F5FEF708E2F87
:1052400090E0EA30C0F0C7968D939D932F5F243194
:1052500059F74FBF8091E800877F8093E8006AE2AA
:1052600070E0CE0101960E9488258091E8008B773E
:105270008093E80057C0C096E7CF6091AD0470916D
:10528000AE04AE014F5F5F4F0E94C824BC01892B62
:1052900009F448C09091E800977F9093E8008981D5
:1052A0009A810E94E625E1CF8038E1F58091E800FF
:1052B000877F8093E8008091A4048093F10045CF1C
:1052C000811130C09091AB04923060F58091E8007C
:1052D000877F8093E8009093A4040E9479268091B0
:1052E000A404882311F084E005C08091E30087FDC9
:1052F000FACF81E08093A8040E94B22313C080916A
:10530000AB04813079F481E0933009F080E0809340
:10531000A6041092E9008091E800877F8093E8005E
:105320000E9479268091E80083FF0AC08091E800FE
:10533000877F8093E8008091EB0080628093EB0090
:10534000AA96E3E00C94792A0895CF938091A8045B
:105350008823A1F0C091E900CF709091EC00892FD3
:10536000817090FD80E8C82B1092E9008091E800E0
:1053700083FD0E945D28CF70C093E900CF9108950E
:10538000991B79E004C0991F961708F0961B881F97
:105390007A95C9F780950895AA1BBB1B51E107C0F8
:1053A000AA1FBB1FA617B70710F0A61BB70B881FB5
:1053B000991F5A95A9F780959095BC01CD01089544
:1053C00097FB072E16F4009407D077FD09D00E94B2
:1053D000CC2907FC05D03EF4909581959F4F089508
:1053E000709561957F4F0895A1E21A2EAA1BBB1BF1
:1053F000FD010DC0AA1FBB1FEE1FFF1FA217B307A1
:10540000E407F50720F0A21BB30BE40BF50B661FB6
:10541000771F881F991F1A9469F76095709580957A
:1054200090959B01AC01BD01CF010895052E97FB1E
:105430001EF400940E942D2A57FD07D00E94F429E3
:1054400007FC03D04EF40C942D2A509540953095CE
:1054500021953F4F4F4F5F4F0895909580957095E0
:1054600061957F4F8F4F9F4F0895EE0FFF1F05905F
:10547000F491E02D09940E94852AA59F900DB49F78
:10548000900DA49F800D911D11240895B7FF0C94D9
:105490003B2A0E943B2A821B930B08952F923F9236
:1054A0004F925F926F927F928F929F92AF92BF9234
:1054B000CF92DF92EF92FF920F931F93CF93DF93E0
:1054C000CDB7DEB7CA1BDB0B0FB6F894DEBF0FBE3D
:1054D000CDBF09942A88398848885F846E847D848A
:1054E0008C849B84AA84B984C884DF80EE80FD808C
:1054F0000C811B81AA81B981CE0FD11D0FB6F89402
:10550000DEBF0FBECDBFED010895A29FB001B39FD6
:10551000C001A39F700D811D1124911DB29F700DBC
:10552000811D1124911D0895FB01DC0102C005902D
:105530000D9241505040D8F70895FC014150504021
:1055400030F001900616D1F73197CF0108958827E2
:1055500099270895FB01DC0104C08D910190801909
:1055600021F441505040C8F7881B990B0895FB0166
:10557000DC0102C001900D9241505040D8F70895CF
:10558000F999FECF92BD81BDF89A992780B508950B
:10559000A6E1B0E044E050E00C94FA2AA8E1B0E0C3
:1055A00042E050E00C94FA2A262FF999FECF92BDE2
:1055B00081BDF89A019700B4021639F01FBA20BDD8
:1055C0000FB6F894FA9AF99A0FBE08950396272F0A
:1055D0000E94D52A0E94D42A252F0E94D52A242F42
:1055E0000C94D52A0196272F0E94D52A0C94D42AF0
:1055F000DC01CB01FC01F999FECF06C0F2BDE1BD93
:10560000F89A319600B40D9241505040B8F7089581
:10561000F894FFCF6A076A079B079B07CA07CA0768
:10562000CA07CA072808B408C308C3088128A928DC
:105630009229A9289229DC28FD2892295429602939
:10564000FFFFFF0000FF030000FFFFFF0000FF035C
:105650000000BB01001C001C1C010021007F220077
:1056600003402B2330235D232E235E232F2301F5BC
:10567000F6F731333236669297C6343500010202AE
:10568000020505050505050B00081018181008008F
:00000001FF
