:100000000C946E040C94B5040C94B5040C94B504D3
:100010000C94B5040C94B5040C94B5040C94B5047C
:100020000C94B5040C94B5040C945B240C942F250B
:100030000C94A71F0C94B5040C94B5040C94B5044F
:100040000C94B5040C94B5040C94B5040C94B5044C
:100050000C94B5040C94FE1F0C94B5040C94B504D8
:100060000C94B5040C94B5040C94B5040C94B5042C
:100070000C94B5040C94B5040C94B5040C94B5041C
:100080000C94B5040C94B5040C94B5040C94B5040C
:100090000C94B5040C94B5040C94B5040C94B504FC
:1000A0000C94B5040C94B5040C94B504556E6465B9
:1000B00066696E656400524742204C4544205445B1
:1000C00053540A004B455920544553540A004C617F
:1000D0007965723A200014001A0008001500170014
:1000E0001C00180004001600070009000A000B009D
:1000F0000D001E001D001B00060019000500105D0C
:1001000011501F0020002100220023002400C35CA6
:10011000C65CC75CC85CC95CCA5CCB5CC45C295D5E
:1001200000000000000000000000000000000000CF
:10013000000000000000105D1050000000000000F2
:100140000000000000008081828384858687888982
:100150008A8B8C8D8E8F9091929394A0A1A2A3A450
:10016000A5A6A7A8A9AAABACADAEAFB0B1B2B3B4C7
:10017000C0C1C2C3C4C5C6C7C8C9CACBCCCDCECF07
:10018000D0D1D2D3D400643214783C1EFFAA7F555C
:10019000400001010101010101010102020202020C
:1001A000020202020303030303030303040404041F
:1001B00004040405050505050606060606070707E7
:1001C000070708080808090909090A0A0A0B0B0B9E
:1001D0000C0C0C0D0D0D0E0E0E0F0F0F101011113B
:1001E00011121213131414151516161717181819BF
:1001F000191A1A1B1B1C1D1D1E1E1F202021222226
:10020000232424252626272829292A2B2C2D2D2E68
:100210002F30313232333435363738393A3B3C3D82
:100220003E3F404142434445464748494A4C4D4E73
:100230004F50515354555658595A5B5D5E5F616239
:1002400064656668696B6C6D6F7072737577787AC8
:100250007B7D7E8082838587888A8C8E8F91939523
:1002600096989A9C9EA0A2A3A5A7A9ABADAFB1B347
:10027000B5B7BABCBEC0C2C4C6C9CBCDCFD1D4D627
:10028000D8DBDDDFE2E4E7E9EBEEF0F3F5F8FAFDC9
:10029000FF00AE00AF00DA0281FFD9F1DB20A4A697
:1002A0002EAF00A0C000A1C800AED580A81FD3000B
:1002B000408D1420000000000000003E5B4F5B3EBC
:1002C000003E6B4F6B3E001C3E7C3E1C00183C7E8B
:1002D0003C18001C577D571C001C5E7F5E1C0000F4
:1002E000183C180000FFE7C3E7FF000018241800BF
:1002F00000FFE7DBE7FF0030483A060E00262979C9
:10030000292600407F05050700407F05253F005A4C
:100310003CE73C5A007F3E1C1C0800081C1C3E7F2A
:100320000014227F2214005F5F005F5F0006097FD8
:10033000017F00006689956A0060606060600094DB
:10034000A2FFA2940008047E04080010207E201062
:100350000008082A1C0800081C2A0808001E1010A3
:100360001010000C1E0C1E0C0030383E38300006F9
:100370000E3E0E060000000000000000005F0000BE
:1003800000000700070000147F147F1400242A7F58
:100390002A120023130864620036495620500000D8
:1003A0000807030000001C224100000041221C003D
:1003B000002A1C7F1C2A0008083E080800008070E4
:1003C00030000008080808080000006060000020F5
:1003D00010080402003E5149453E0000427F4000A3
:1003E000007249494946002141494D330018141211
:1003F0007F10002745454539003C4A4949310041B5
:100400002111090700364949493600464949291E44
:100410000000001400000000403400000000081438
:100420002241001414141414000041221408000284
:1004300001590906003E415D594E007C1211127CA3
:10044000007F49494936003E41414122007F4141F8
:10045000413E007F49494941007F09090901003EA9
:1004600041415173007F0808087F0000417F41002F
:10047000002040413F01007F08142241007F40409E
:100480004040007F021C027F007F0408107F003E76
:100490004141413E007F09090906003E4151215E6C
:1004A000007F091929460026494949320003017F86
:1004B0000103003F4040403F001F2040201F003FFD
:1004C0004038403F006314081463000304780403B9
:1004D000006159494D4300007F4141410002040839
:1004E000102000004141417F00040201020400404D
:1004F000404040400000030708000020545478406A
:10050000007F284444380038444444280038444498
:10051000287F0038545454180000087E090200183F
:10052000A4A49C78007F080404780000447D400067
:10053000002040403D00007F102844000000417F23
:100540004000007C04780478007C080404780038BB
:100550004444443800FC182424180018242418FCAF
:10056000007C080404080048545454240004043F48
:100570004424003C4040207C001C2040201C003CC7
:100580004030403C004428102844004C9090907C1F
:10059000004464544C4400000836410000000077D9
:1005A0000000000041360800000201020402003C85
:1005B0002623263C00000000000000000000000090
:1005C0000000000000C0E0E0E0C08000007CFEFF12
:1005D000FFFE7C0000C0E0F0F0E0C0000000000082
:1005E000FEFEFEFEFEFE0000000000FEFEFEFEFE21
:1005F000FE0000FEFEFEFEFE000000FEFEFEFEFE11
:100600001E1EFEFEFEFCF800000000707078F8FC74
:10061000FEFEFEFE00000000E0F8FE7EFEFEFEFE96
:10062000FE000000000000000000000000000000CC
:10063000000000E0F0F0F0E0ECEEF7F37020007C5A
:100640007C7C7E007E7E7E7F7F7F000080C0E07E9F
:100650005B4F5BFEC00000C000DCD7DEDEDED7DC17
:1006600000C00000000000000000000000000000CA
:10067000000000000000000000000000000000007A
:10068000000080C0C0C3C7CF8F0F0F07E0F0F8F99C
:10069000F9F8F0E0E0C7CF8F0F070300000000007B
:1006A000FFFFFFFFFFFF0000000000FFFFFFFFFF55
:1006B000FF3E3EFFFFFFFFFF000000FFFFFFFFFFC9
:1006C0003C3C3F3F3F1F0F00000000000000FFFFC9
:1006D000FFFFFFFF0080F8FFFFFF8780FFFFFFFFA6
:1006E000FF8080000000000000000000000000000B
:1006F0000000000F1F3F7F7F7F7F7F3F1E0C001F8A
:100700001F1F3F003F3F3F7F7F7F00307B7F783060
:10071000202030787F3B0003000F7F0F0F0F7F0FEB
:1007200000030000000000000000000000000000C6
:1007300000000000000000000000000000000000B9
:10074000000003070F0F0F0F0703007FFFFFFFFFDE
:10075000FFFF7F3F3F3F1F1F07000000000000001A
:100760007F7F7F7F7F7F78787878007F7F7F7F7F34
:100770007F00007F7F7F7F7F0000007F7F7F7F7F04
:1007800000000000000000000000000000007F7F6B
:100790007F7F7F7F00070707070707077F7F7F7F30
:1007A0007F070700000000000000000000000000BC
:1007B0000000000000000000000000000000000039
:1007C0000000000000000000000000000000000029
:1007D0000000000000000000000000000000000019
:1007E0000000000000000000000000000000000009
:1007F00000000000000C034C0048005000310034A1
:1008000000000016034E0065006F0054007200697E
:10081000006E0069007400790000000403090409F7
:10082000023B00020100A0FA0904000001030101DB
:100830000009211101000122400007058103080081
:100840000A0904010001030000000921110100014F
:100850002230000705820308000A1201100100007F
:10086000000814FF0600010001020001050109044F
:10087000A101A1000501093009311581257F9502EB
:100880007508810205091901290115002501950145
:1008900075018102950775018101C0C00501090636
:1008A000A101050719E029E7150025019508750143
:1008B00081029501750881010507190029FF1500BE
:1008C00026FF009506750881000508190129059580
:1008D0000575019102950175039101C011241FBE98
:1008E000CFEFDAE0DEBFCDBF04B603FE27C08091B4
:1008F0008C0490918D04A0918E04B0918F04873068
:10090000904BA740B04BD1F410928C0410928D0400
:1009100010928E0410928F0414BE84B7877F84BF18
:100920000FB6F894A895809160008861809360006C
:10093000109260000FBEE0E0F8E3099511E0A0E03E
:10094000B1E0E8E8FFE402C005900D92AE34B107D3
:10095000D9F724E0AEE4B1E001C01D92AC38B20793
:10096000E1F70E9495210C9486270C9400008739AA
:1009700001F178F48633F9F030F48433F1F0853303
:10098000F1F08FE108958439E1F08639D1F781E201
:100990000895843FC1F030F4803FB9F0813F89F77A
:1009A00081E00895863F99F0A0F0873F51F787E0F6
:1009B000089582E2089585E2089583E2089584E22D
:1009C000089580E2089584E0089580E0089586E027
:1009D000089585E0089596E890937A00982F907294
:1009E000906890937B008F7190910001892B809388
:1009F0007C0080917A00806480937A0080917A00F4
:100A000086FDFCCF809178002091790090917A004A
:100A10009F7790937A00922F08950E94B7040C94C8
:100A2000EB0460E080E00E94A30E60E086E491E0C9
:100A30000C94860F89329D4541F4FB018281882305
:100A400021F00E94530A0E94CD0C81E0089563E0DA
:100A500080E00E94A30E60E08EEC90E00E94860F82
:100A60006091F5017091F6018091F7019091F80184
:100A70000E942406882339F0813051F060E08CEA2E
:100A800090E00C94980F60E084EC90E00C94860F5A
:100A900060E086EB90E0FACF0E9411050C942705E8
:100AA0000C94AB1084EF0E940D0597FD039695956D
:100AB000879595958795805891099093910180939A
:100AC000900184E90E940D0597FD03969595879501
:100AD0009595879580589109909393018093920101
:100AE0008FE891E00C948D2081E008950C941A0514
:100AF00008950C9478051F93CF93DF9300D000D016
:100B00000F92CDB7DEB749835A836B833091A8012A
:100B100089819A8131111DC06623B9F02223A9F081
:100B20000E940E1D182F682F89819A810E94BA1C7D
:100B300069817A81812F0F900F900F900F900F9005
:100B4000DF91CF911F910C9484060E94E61C182F10
:100B5000EFCF0E940E1D69817A81EDCFFC01262F17
:100B6000408151816281738184810C947B05CF9394
:100B7000DF93EC0160E00E94AE05BE01DF91CF91F2
:100B80000C9479050E94541E811102C00E94F81E27
:100B90000C946E080C94710808950E9424180E9409
:100BA000CC052FEF84E39CE0215080409040E1F79A
:100BB00000C000000C9422200F931F93CF93DF936B
:100BC000EC0161E00E94AE058C01BE010E94760539
:100BD000882389F1BE01C8010E943F11882359F181
:100BE000BE01C8010E949111882329F1BE01C801EC
:100BF0000E94B4128823F9F0BE01C8010E94960D2C
:100C00008823C9F0BE01C8010E940613882399F009
:100C10008A81882339F001158CE5180751F00F3DC2
:100C20001C4579F0CE01DF91CF911F910F910C946B
:100C300074050E94CD0580E0DF91CF911F910F9147
:100C400008950E94F81EF7CFCF92DF92EF92FF92A5
:100C50006C01EE24FF2420E0C114D104E104F1046E
:100C600019F0C701B60120E1C72ED82EE92EFF24C6
:100C7000C114D104E104F10419F0285FC701B601E1
:100C80006B017C0154E0F694E794D794C7945A958D
:100C9000D1F7C114D104E104F10419F02C5FC701AC
:100CA000B6016B017C0142E0F694E794D794C794B7
:100CB0004A95D1F7C114D104E104F10419F02E5F73
:100CC000C701B6019695879577956795672B682B31
:100CD000692B09F02F5F822FFF90EF90DF90CF906C
:100CE000089508950C94710681E008950C9474069B
:100CF000CF93C82F0E9472068C2FCF910C9476064A
:100D000090E080E008950895972F70E027E0929F8B
:100D1000600D711D1124FB019CE1899FE00DF11D07
:100D20001124EE0FFF1FEA52FF4F85919491089511
:100D3000FC01EE0FFF1FEA57FE4F85919491089535
:100D4000CF93DF930E9484060E949307EC018115E4
:100D500021E59207D0F5811530E5930708F096C09C
:100D600081159042F8F4C11581E0D807B8F4C03E6F
:100D7000D10588F4C03CD10508F07BC0C130D10555
:100D800069F0209759F0CE010497813A910530F02F
:100D9000D0E0C0E003C0C83ED105D0F7CE01DF915E
:100DA000CF910895C11590E4D90708F06CC0CE0129
:100DB0009F70C11520E3D20708F45EC0CE019927C9
:100DC000D3FF5EC0EC01D86CE9CF811535E5930700
:100DD00000F5811544E5940708F08DC0C11583E541
:100DE000D80708F074C0C11592E5D90708F46AC0A5
:100DF000CE018370992721E030E002C0220F331F1B
:100E00008A95E2F7C695C69580E2C89FE001112455
:100E100055C0811529E59207A0F4811538E593079F
:100E200008F06EC0811546E5940708F0B1CF0E9426
:100E30002A08C82FD0E0DC2FCC27CC27DF71D06266
:100E4000ADCFC1158AE5D80708F45FC0CE01905632
:100E50008115904208F09CCF8D2F8F710E942A0837
:100E600090E0982F882788279F719C012C2BE901FF
:100E7000E6CFCE01805C91090E949806EC018ECFEE
:100E8000EC01D06C8BCFDF70D06A88CFE4E0969510
:100E90008795EA95E1F783702C2F26952695237088
:100EA00040E2249F90011124382B8C2F8370C1E0E5
:100EB000D0E002C0CC0FDD1F8A95E2F7C22BD32B06
:100EC000DC686CCFDC2FCC27C16FD06A67CFCE0136
:100ED0008370992721E030E002C0220F331F8A95EA
:100EE000E2F7C695C69590E2C99FE0011124C22B96
:100EF000D32BDA6853CFD82FCC27C46FD06A4ECF0C
:100F0000D82FCC27C06FD06A49CF8C2F8F700E940A
:100F10002A0834E0D695C7953A95E1F7CF709C2F13
:100F2000EC01D0693BCF82389105B1F1B0F4813347
:100F3000910509F475C048F48932910509F469C036
:100F40008A32910509F473C008958533910509F437
:100F500059C08933910501F10895833E9105A9F1A6
:100F600038F4803E9105F9F0823E910549F10895EB
:100F7000863E9105A9F1873E9105C9F1843E910510
:100F800019F520917E0421FF1FC080917D0484FD0E
:100F900014C087EE90E0089520917D042370A1F0A5
:100FA00080EE90E0089520917D0420FD47C03091AF
:100FB0007E0430FF09C024FF44C090E080E004C0FC
:100FC00020917D0422FDF7CF089520917D0422FD1C
:100FD0003BC030917E0430FDE3CF24FFF5CFEDCF51
:100FE00020917D0423FFF0CF24FDE7CFD2CF2091C5
:100FF0007D0423FD2CC030917E0431FFEECF84EEC2
:1010000090E0089520917D0425FFDECF89E290E0F5
:10101000089520917D0425FFD7CF85E390E00895C2
:1010200020917D0426FFD0CF8AE290E008952091A0
:101030007D0426FFC9CF81E390E0089589E390E025
:10104000089583EE90E0089582EE90E0089586EE94
:1010500090E0089590917D0492FF06C0282F28719A
:101060002830F9F4877F846093FF06C0282F287109
:101070002831F1F4877E846120917E0420FF06C030
:10108000382F38713830D9F4877F816021FF06C04E
:10109000282F28712831D1F4877E816194FD877EC5
:1010A0000895282F24712430F9F68B7F8860DCCFD7
:1010B000282F2471243101F78B7E8861DDCF382FF2
:1010C0003171313019F78E7F8860E0CF282F217180
:1010D000213121F78E7E8861E1CF08950C946D084F
:1010E00008950C947008E82FF0E0E65EFD4F8081D3
:1010F0000895089580EA8A95F1F7089500C008954B
:101100000C947A08F894E82FE295EF70F0E031A1A2
:10111000282F2F7081E090E001C0880F2A95EAF710
:10112000982F9095932391A392A1892B82A37894D1
:101130000895CF93DF9387E90E94820886EC0E948E
:10114000820884E30E94820885E30E948208C5E247
:10115000D1E089910E94820881E0CC32D807C9F79A
:101160001092160210921A021092170210921B028D
:101170001092180210921C021092190210921D0275
:1011800084E00E944209DF91CF910C94C205BF9286
:10119000CF92DF92EF92FF920F931F93CF93DF9343
:1011A0000CE211E0C6E1D2E0C12CD12CEE24E39494
:1011B000F12CF80181918F01F894E82FE295EF70FE
:1011C000F0E021A18F70A70102C0440F551F8A953E
:1011D000E2F7CA01922F982B91A392A180958923BF
:1011E00082A378940E947E08E5E2F1E030E020E0FE
:1011F000B12C4191A42FA295AF70B0E090968C9144
:1012000090E04F7002C0959587954A95E2F780FD72
:1012100035C08E2D022E01C0880F0A94EAF7B82A35
:101220002F5F3F4F2730310521F7F801319780813B
:101230000E94820853E0C5120E9480088881B81677
:10124000F9F0B88281E0D82AC394219684E0C812CC
:10125000B0CF2D2D44E06AE172E086E192E00E9479
:1012600043090E94CA058D2DDF91CF911F910F91E7
:10127000FF90EF90DF90CF90BF90089580E0CFCFA8
:1012800080E0E1CF0895FF920F931F93CF93DF93F8
:10129000F82E092F162FD72FC42F222349F081E0D3
:1012A000809352010E94D71F909351018093500167
:1012B000809152018823A1F08091500190915101B9
:1012C0000E94EF1F069760F0EF2DF02FA12FBD2F8A
:1012D000CE0FDF2FD11DEC17FD0741F41092520104
:1012E000DF91CF911F910F91FF90089581918D9380
:1012F000F2CFEF92FF920F931F93CF93DF93EB0107
:10130000E82FD11110C0442321F0F0E0EF56FE4F3A
:10131000E4916E2F7E2F8E2FDF91CF911F910F9131
:10132000FF90EF9008950D2F10E0282F30E0442318
:1013300029F02F563E4FF901249130E0F6E0CF9F7F
:10134000C0011124EFEFF0E0BF010E94ED26AB01D8
:101350008C2F90E0880F991FA5E5A49FB001A59F51
:10136000700D1124861B970B982F990F980FBF01B2
:10137000601B710B629FD001639FB00D729FB00D17
:1013800011248B2F9D9FB0011124672F7727EF0128
:10139000C61BD70BBE01629FE001639FD00D729FF9
:1013A000D00D11247F01E91AF108E09EB001E19E01
:1013B000700DF09E700D1124672F7727E61BF70B39
:1013C000E29F8001E39F100DF29F100D1124E12F89
:1013D000722F4230510599F048F44115510569F0DA
:1013E0004130510581F0EB2F8D2F07C0443051055E
:1013F00069F080F046305105B1F76E2F8DCFE22FA6
:101400007B2F812FFACFE22F7D2FF7CFEB2F822F6B
:10141000712FF3CF7B2F822FED2FEFCF41E00C9474
:10142000790908950C940E0ACF93DF93762FE90182
:10143000682F842F0E94120A798368838A83DF9140
:10144000CF910895493708F048E70C94140A809129
:101450001E02982F9E7F61F48170826080931E022D
:1014600080912102893718F088E78093210208953E
:101470008A32B0F381708862F1CF88E090E00C94FA
:101480004627CF92DF92EF92FF926B017C010E9480
:10149000270AB701A60188E090E0FF90EF90DF9067
:1014A000CF900C946427EEE1F2E083E08083118218
:1014B0008FEF828388E783831482608171818281C8
:1014C00093810C94410A80911E0280FF02C0869590
:1014D000089580E0089590912202933018F49F5F60
:1014E00090932202882351F060911E0270911F0296
:1014F00080912002909121020C94410A089581E08C
:101500000C946B0A90912202992319F091509093B8
:101510002202882351F060911E0270911F02809177
:101520002002909121020C94410A089581E00C94CC
:10153000820A70E00C94F90D6091020180911E0204
:1015400080FF0AC08091010123E0829FC001112425
:101550008D5D9D4F0C94990A809103019091040137
:1015600023E0829FF0011124ED5DFD4F891750F7B4
:101570001182108212828F5F3396F8CF90911E02F3
:1015800090FF14C0909103012091040133E0939FD8
:10159000F0011124ED5DFD4F921710F00C949C0AA0
:1015A0008183608342839F5F3396F6CF0895CF9304
:1015B000DF9300D00F92CDB7DEB790911E0290FF5F
:1015C0000AC09E012F5F3F4F0E94220A4B81698112
:1015D0008A810E94BE0A0F900F900F90DF91CF91E9
:1015E0000895CF93DF93EC01EEE1F2E04381628155
:1015F0008C810E94D70A8C818F5F8C83DF91CF9181
:101600000895AF92BF92CF92DF92EF92FF920F9325
:101610001F93CF93DF9300D00F92CDB7DEB7182F73
:10162000F62E042FE22E80911E0280FF29C0E82FA3
:10163000E695AE2FB0E0A05DBE4F9C9190935C010B
:101640008E7F823059F59E012F5F3F4F812F0E9480
:10165000220A4B8169818A810E94BE0A10931F026F
:10166000F092200200932102EE2051F060911E02C0
:1016700070911F0280912002909121020E94410AE4
:101680000F900F900F90DF91CF911F910F91FF90CE
:10169000EF90DF90CF90BF90AF900895923019F403
:1016A00010911F02DBCF9530D9F39B30B9F6EB5088
:1016B0008E2F8170D82EE695F0E0E457FE4FA5906E
:1016C000B490C12CBB2460910501C61618F00E948D
:1016D0009C0AC4CF2C2D30E0A29EC001A39E900D89
:1016E000B29E900D112470E00E94ED26812FD11042
:1016F00013C0860F40910301420F532F511D9A01D1
:10170000220F331F240F351F2D5D3D4F402F6F2DAE
:101710000E94220AC394D7CF861BECCFEEE1F2E001
:101720009181282F4381628188E0890F0C94010BFD
:1017300081E00C948E0BEEE1F2E09181282F438141
:10174000628188EF890F0C94010B81E00C949B0B54
:10175000EEE1F2E0628128E0620F08F46FEF282FDB
:10176000438181810C94010B81E00C94A80BEEE184
:10177000F2E0628128E0621B08F460E0282F4381D8
:1017800081810C94010B81E00C94B70BEEE1F2E047
:10179000438128E0420F08F44FEF282F62818181B6
:1017A0000C94010B81E00C94C60BEEE1F2E0438156
:1017B00028E0421B08F440E0282F628181810C94CC
:1017C000010B81E00C94D50B20E00C94010BEF92FF
:1017D000FF921F93CF93DF93EC0110E0EE24EA9485
:1017E000F12C60910501161770F00E949C0A9A81F5
:1017F0008C8190FF27C08F5F8C83DF91CF911F91E9
:10180000FF90EF90089520910301422F410F55273B
:10181000551FCA019A01220F331F280F391F2D5D52
:101820003D4F70E0C7010E940127962F8C814091A7
:10183000210260912002199F800D11240E94220A2A
:101840001F5FCFCF8150D8CFEEE1F2E080818E7F55
:10185000808360817181828193810E94410A10920C
:101860005D012FEF80E792E0215080409040E1F74A
:1018700000C000000C949C0AEEE1F2E080818E7FB3
:10188000808310925D012FEF80E792E0215080402D
:101890009040E1F700C000000C949C0A10925D019A
:1018A00080915A0181110AC081E080935A01809190
:1018B0001E028170809359010C943C0C0895609134
:1018C0001E02669570E04BE050E086E091E00E94D9
:1018D0002427892B19F481E080935D010E94D71F92
:1018E0009093540180935301089590911E0290FFAC
:1018F00035C09170811128C0926090931E026623BA
:1019000051F060911E0270911F028091200290910F
:1019100021020E94410A60911E02669570E04BE030
:1019200050E086E091E00E942427892BA1F01092DC
:101930005D0181E080935601409121026091200277
:1019400080911F020C94E40B853110F09862D5CF82
:10195000880F982BD2CF0E945F0CEBCF0895682F91
:1019600090911E02969581E0890F853108F081E003
:101970000C94750C81E00C94AF0C682F90911E02B2
:1019800096958FEF890F09F484E10C94750C81E032
:101990000C94BD0C61E00C94750CEEE1F2E08081DA
:1019A0008160808386950C94CA0C80911E0280FD14
:1019B0000C94240C0C94CD0C60E00C94750C80916C
:1019C0005B0181112EC00E94541E811104C00E942F
:1019D000F81E0E94530A0E943D0A60931E027093F3
:1019E0001F0280932002909321026E7F61F40E9477
:1019F000530A0E943D0A60931E0270931F02809357
:101A00002002909321020E94270A10925D0180918A
:101A10001E0280FF03C086950E94DC0C81E080934B
:101A20005B010895EEE1F2E080818160808386951C
:101A30000C94DC0C10925A018091590181110E9482
:101A4000120D0C945F0C0F931F93CF93DF93809133
:101A50005D01882309F44BC080915C01E0911E0276
:101A6000E695E81BE0935501823089F5F0E0E757F1
:101A7000FE4FE491CE2FD0E001EF1AE080915601A5
:101A8000882361F0109256010E94D71F9093540151
:101A90008093530110925801109257010E94D71F52
:101AA000E0915301F09154018E1B9F0B8F3F9F4794
:101AB000F0F4CE0FDF1FD0935401C093530183E5A0
:101AC00091E0F801DF91CF911F910F910994C0ED42
:101AD000D7E001E11AE0853089F6E695F0E0EA57B3
:101AE000FE4FE491CE2FD0E007EE1BE0C7CFDF9191
:101AF000CF911F910F910895FA01811101C0FB014F
:101B00000994CF93DF93C82FD62F0E94630A8C17B6
:101B100040F00E94630A8D1720F4DF91CF910C945E
:101B2000BA0C8C2FDF91CF910C94CA0C0F931F939A
:101B3000CF938C01FB01C281CC2309F458C00E94D1
:101B4000A31D8272F801E35CFC45E431F10538F431
:101B5000E857F84D0C9415270E94D50CC0E08C2F47
:101B6000CF911F910F91089547EC5CE06AEB7CE008
:101B70000E947C0DF3CF4AEB5CE067EC7CE0F8CF91
:101B800045EA5BE068E97BE0F3CF48E95BE065EAC2
:101B90007BE0EECF43EC5BE064EB7BE0E9CF44EB32
:101BA0005BE063EC7BE0E4CF41EE5BE062ED7BE089
:101BB000DFCF42ED5BE061EE7BE0DACF46E95AE051
:101BC0006FE77AE0D5CF4FE75AE066E97AE0D0CF09
:101BD00081E00E94CA0CC2CF64E082E00E94810DC5
:101BE000BDCF6AE085E0FACF64E18BE0F7CFC1E0DA
:101BF000B6CF539A4BB1477F5BB15860EFB7F894BB
:101C00009B01220F331F260F371F280F391F28175C
:101C1000390741F4EFBF8FE594E00197F1F700C079
:101C200000000895DC016D91CD0178E05BB9000002
:101C300000C067FF4BB9660F000000C000C000C0C5
:101C40004BB900C07A9591F7E2CFCF92DF92EF9235
:101C5000FF920F931F93CF93DF936C017B0164E698
:101C600070E088E70E941F13EC0197FD12C010E09E
:101C700000E0F601E00FF11F849164E670E00E943D
:101C80007B13EC01892B29F40F5F1F4F0E151F05E5
:101C900081F70E94FE13CE01DF91CF911F910F912A
:101CA000FF90EF90DF90CF9008950895E7E7F2E07E
:101CB00080E092E0DF019C011D9221503040E1F76D
:101CC000F0937804E09377048FEF9FEF90938A016D
:101CD0008093890108950E94550E8093850180FDAF
:101CE0000FC080E8809384010E9419136DE070E0BA
:101CF00088EA92E00E94250E892B21F080E0089569
:101D000080E2F0CF8091850163E070E081FD18C032
:101D100085EA92E00E94250E892B81F76DE070E044
:101D200085E992E00E94250E892B41F70E94560E0C
:101D300081E0809388018093870110928601089545
:101D400082EA92E0E7CF2091840136E0839FC001D0
:101D50001124629F800D911D1124811522E09207AC
:101D600014F090E080E089589D4F90937804809320
:101D700077040895209177043091780421573240F8
:101D800040918401642F70E0C9010E94ED26481B38
:101D9000463010F4240F311D211582E0380710F071
:101DA00030E020E029583D4F3093780420937704A9
:101DB00008951F93CF93DF93162F8A3031F481E07B
:101DC000DF91CF911F910C94530F8D3011F480E06F
:101DD000F7CFC0917704D091780496E0FE01AEE58C
:101DE000B1E001900D929A95E1F7803EC8F086E04F
:101DF000FE0111928A95E9F711111EC0C091770476
:101E0000D091780446E050E0BE018EE591E00E945A
:101E10003127892BF9F4DF91CF911F910C94BA0EE1
:101E2000F6E08F9FB00111246B547D4F46E050E0E7
:101E3000CE010E941B27E0CFE0917704F091780457
:101E40009F012A5F3F4F2E173F07C1F28081809587
:101E50008193F9CFC757D240CE0125E0969587955B
:101E60002A95E1F721E030E0A90102C0440F551F97
:101E70008A95E2F7CA014091890150918A01842B29
:101E8000952B259645E0D695C7954A95E1F702C072
:101E9000220F331FCA95E2F7822B932B90938A016E
:101EA00080938901B8CFCF93382FE0917704F091D8
:101EB0007804E757F24020918401622F70E0CF014F
:101EC0000E94ED26281B822F332369F066E00E94D2
:101ED000E126C82FC15010F4CF91089560E080E250
:101EE0000E94D90EF7CF9F01280F311D21153240D6
:101EF00018F080E0F0E0E0E08E0F9F2F911D8958F0
:101F00009D4F9093780480937704E6CF1F93CF93EF
:101F1000DF93EC01162FFE018491811104C0DF9143
:101F2000CF911F910895612F0E94D90E2196F3CF72
:101F30000E94860F81E00C94530F8091870190914D
:101F40008801992361F0811108C062E070E083E9A3
:101F500092E00E94250E892B19F080918701089547
:101F600081E080938701F9CF2F923F925F926F9229
:101F70007F928F929F92AF92BF92CF92DF92EF9219
:101F8000FF920F931F93CF93DF9380918801882353
:101F900069F02091890130918A012115310531F0D4
:101FA0008091860161E070E0882399F0DF91CF9104
:101FB0001F910F91FF90EF90DF90CF90BF90AF9067
:101FC0009F908F907F906F905F903F902F9008959B
:101FD0008F5F082F10E01B01082E02C0220C331C5B
:101FE0000A94E2F7A90142215321452B89F39091EC
:101FF000850190FD44C08295880F807680931301FF
:102000009801369527953695279520931601815E80
:10201000809314011092170124E630E047E050E06D
:1020200061E171E088E70E94AA13892B09F0BECF15
:10203000A80125E0440F551F2A95E1F780918501FD
:1020400080FD2BC049585D4F04E610E020E230E0EF
:1020500060E488E70E94D113892B09F0A7CF0E9482
:102060009D0FE101C095D0958091890190918A01E1
:10207000C823D923D0938A01C093890197CF880FB1
:10208000880F880F8093130110921601895F809347
:10209000140183E080931701BFCFE4E6F1E080E212
:1020A000DF011D928A95E9F7A9E4B1E005E411E0AA
:1020B0008DE4C82E81E0D82E97E0592E77247394B2
:1020C0008D91E80129918E01240F352F311D29585A
:1020D0003D4FE82FF0E0EC59FE4F90E080E0652C9A
:1020E000681A872C082E01C0880C0A94EAF7790137
:1020F000A12CE701B9907E01B820662D6A1967709E
:10210000962E062E000C770BDB2D01C0DD0F9A9466
:10211000EAF77195619571096770772701C0B694E8
:102120006A95EAF7BD2A6081962E9B289082A39437
:1021300068E0A612DECF019631968830910579F6D7
:10214000CA16DB0609F0BCCF04E610E020E230E05E
:1021500044E651E07DCF80918701909188019111F3
:1021600003C091E089270895882369F062E070E058
:1021700081E992E00E94250E892B19F08091870158
:1021800008951092870180918701EBCF809188019B
:10219000882341F060E080E00E94A30E0E944C057D
:1021A0000C94B40F08950F931F93CF93DF93C42F14
:1021B000D22FFC0182818823C9F040938D010E94B7
:1021C000D71F90938C0180938B0180E28C0F883015
:1021D00008F050C0C77081E001C0880FCA95EAF7C7
:1021E000DF91CF911F910F910C94DE1510918D010D
:1021F000141335C080918B0190918C010E94EF1FC8
:10220000883C910560F5C0E2CD0F1D17B9F080E262
:10221000810F883040F4177081E001C0880F1A9553
:10222000EAF70E94E515C83048F481E09D2F9770C9
:1022300001C0880F9A95EAF70E94DE15802F0E9450
:10224000D615C830B8F4D77081E001C0880FDA9590
:10225000EAF7DF91CF911F910F910C94E51580E281
:102260008C0F883038F4C77081E001C0880FCA95A0
:10227000EAF7EFCFDF91CF911F910F9108950F9360
:102280009C01CB01243F4CE5340759F1A8F4293DCA
:10229000FCE53F0701F12A3D4CE53407D1F1283D2B
:1022A0003C4591F406E221EE41EE68ED7CE50E94AA
:1022B000D31080E00F910895263FFCE53F07E9F039
:1022C000B0F0273F3C45F9F0FC018281882339F1C9
:1022D00010928D01EFCF07E225EE45EE69ED7CE52A
:1022E000E6CF06E221EE40EE64EF7CE5E0CF07E2C8
:1022F00025EE44EE65EF7CE5DACF06E221EE42EE14
:1023000066EF7CE5D4CF07E225EE46EE67EF7CE58D
:10231000CECF08E221E045EE6AED7CE5C8CF81E052
:10232000C9CFCF93DF93EC01FB018281882309F4AD
:1023300019C1C230FCE5DF07C0F1C6319CE5D90701
:1023400030F09E012B5F3C452930310570F50E942D
:10235000671E90937E0480937D04C031ECE5DE0718
:1023600009F4CFC008F05BC0C8308CE5D80709F489
:10237000B6C088F5C430ECE5DE0709F4A8C0C0F4A7
:10238000C2308CE5D80709F49CC080917D0482603E
:10239000C330DC4509F498C080917D0490917E049F
:1023A0000E94751E0E94241880E0DF91CF9108954D
:1023B00080917D048061C630ECE5DE0709F484C0BD
:1023C00080917D048860C730DC4508F47DC0809131
:1023D0007D04806279C0CC308CE5D80709F489C0CF
:1023E00070F480917D048C60CA30ECE5DE0709F45E
:1023F0006BC008F478C080917D048E7F65C0CE30BC
:102400008CE5D80709F479C080917D048B7FCF30AB
:10241000DC4508F459C080917D048F7E55C0CC3FC7
:10242000ECE5DE0709F457C030F5C3318CE5D80779
:1024300009F46FC078F4C131ECE5DE0709F465C03A
:10244000C231DC4509F0A8CF0E94241880917D0498
:102450008F773AC0C5318CE5D80709F462C008F41B
:1024600076C080917E048160CB3FDC4509F094CF3B
:1024700080937E0491CFC115FDE5DF0709F44DC0BF
:1024800088F480917E048D7FCE3F9CE5D90781F34F
:1024900080917E048E7FCF3FDC4550F380917E0497
:1024A0008360E6CFC230FDE5DF0709F459C008F4C8
:1024B00044C080E0C330DD4509F06ECF0E94FA1EB3
:1024C0006BCF80917D04816080937D0465CF809186
:1024D0007D048460F9CF80917E048260C9CF8091B1
:1024E0007D048064F1CF0E94241880917D0480686F
:1024F000EBCF80917D048D7FE7CF80917D04877F36
:10250000E3CF80917D048F7DDFCF80917D048F7B31
:10251000DBCF80917D04837FD7CF80917E048C7F39
:10252000A7CF80917D0482FB992790F921E0922723
:1025300090FB82F990FB83F9C7CF80917E04982F9E
:10254000909591708E7F892B90FB81F991CF0E949D
:10255000241890917D04892F97FB87F98058B4CF78
:1025600081E0ACCF81E021CFCF93DF93EB018631C7
:102570009C4511F50E94A31D9A81992399F08A7AAE
:1025800091E009F490E090938E01811109C089E2F5
:102590000E947E1D0E94EF1D80E0DF91CF91089583
:1025A00085E3F6CF80918E01811104C089E20E94FB
:1025B000851DF0CF85E3FBCF81E0EFCFFC01E95033
:1025C000FD45E032F105E8F423E0F695E7952A951C
:1025D000E1F7E157FE4F2081AC014770552781E0BC
:1025E00090E001C0880F4A95EAF7DB0112963C9112
:1025F000332349F0822B8083809194018260809301
:10260000940181E0089580958223F5CF0E94DE1227
:10261000882369F08091940181FF09C08FE891E0DF
:102620000E948D20809194018D7F8093940181E0A0
:1026300008951092B9008CE08093B8000895EF924D
:10264000FF920F931F93CF93DF93182FEB011092FC
:10265000BC0084EA8093BC000E94D71F7C0180915B
:10266000BC0087FF27C08091B900887F883029F09F
:102670008091B900887F8031D9F51093BB0084E840
:102680008093BC000E94D71F8C018091BC0087FF03
:1026900024C02091B900287F90E080E02831B1F07B
:1026A00081E090E0203411F490E080E091958195F4
:1026B00091090CC0CF3FDC0791F20E94D71F8E1901
:1026C0009F098C179D0758F28EEF9FEFDF91CF91F6
:1026D0001F910F91FF90EF900895CF3FDC07A9F273
:1026E0000E94D71F801B910B8C179D0770F2ECCFB7
:1026F0008FEF9FEFEBCF0F931F93CF93DF93EB0100
:102700008093BB0084E88093BC000E94D71F8C019B
:102710008091BC0087FF11C02091B900287F81E023
:1027200090E0283211F490E080E091958195910934
:10273000DF91CF911F910F910895CF3FDC0741F3B7
:102740000E94D71F801B910B8C179D0708F38EEFFB
:102750009FEFEECFCF92DF92EF92FF920F931F93F6
:10276000CF93DF936B018A017901B9010E941F1396
:10277000E6010C0D1D1DC017D10761F424E920935B
:10278000BC00DF91CF911F910F91FF90EF90DF90F0
:10279000CF90089597FDF2CFB70189910E947B13E6
:1027A000EACFCF92DF92EF92FF920F931F93CF93D6
:1027B000DF93C62F6A017901B8010E941F1397FDAC
:1027C0000CC0B8018C2F0E947B13E601EC0CFD1CA1
:1027D000CE15DF0511F097FF0CC024E92093BC0053
:1027E000DF91CF911F910F91FF90EF90DF90CF90ED
:1027F0000895B80189910E947B13EACF84E9809300
:10280000BC00089590939A01809399010895E091F6
:102810009901F0919A01309721F00190F081E02D1B
:10282000099480E00895E0919901F0919A01309720
:1028300021F00280F381E02D099408952091970101
:10284000309198012817390771F09093980180937F
:102850009701E0919901F0919A01309721F006805B
:10286000F781E02D0994089520919501309196010A
:102870002817390771F09093960180939501E091A4
:102880009901F0919A01309721F00084F185E02DB3
:10289000099408950E94E31F6093A4017093A50119
:1028A0008093A6019093A7016093A0017093A1016A
:1028B0008093A2019093A301089585B7806885BF96
:1028C00085B7806885BF0895089508950C946414B1
:1028D00008950C9468140E945D1482E59EE10E94A4
:1028E00033200E9465140C94661481E008950C94C2
:1028F0007514089508950E94CE1F0E94990880E0E3
:102900000E946B0E0E9438200E94DF0C0C94691408
:102910009F92AF92BF92CF92DF92EF92FF920F936E
:102920001F93CF93DF93CDB7DEB72A970FB6F894F6
:10293000DEBF0FBECDBF0E9479140E947A140E94A0
:10294000C708C82E81110E944A148CE9A82E81E084
:10295000B82E10E000E0902E802F0E947308E82E21
:10296000F501F1905F01F81609F456C080910A0252
:1029700081FD0E9479088F2D8E25D12CFF24F394A0
:10298000982F9F2109F443C00E947714882399F05F
:10299000DE829F82EF2081E009F480E088870E9438
:1029A000D71F8160782F9A8789874E815F816885DC
:1029B0008A850E943515F801E456FE4F8081F8267D
:1029C000F0820E94230D0E94C610C1100E949D0F2C
:1029D0000E9452050E94071490919B01891799F15A
:1029E0000E94071480939B012A960FB6F894DEBFCD
:1029F0000FBECDBFDF91CF911F910F91FF90EF9050
:102A0000DF90CF90BF90AF909F900C947806D394B6
:102A1000FF0CF7E0DF12B4CF0F5F1F4F043011053A
:102A200009F099CF8FEF89838A831B820E94D71F79
:102A30008160782F9D838C8349815A816B818D8140
:102A40000E943515BECF2A960FB6F894DEBF0FBE92
:102A5000CDBFDF91CF911F910F91FF90EF90DF904D
:102A6000CF90BF90AF909F900895DF92EF92FF922A
:102A70000F931F93CF93DF93CDB7DEB72B970FB68E
:102A8000F894DEBF0FBECDBF7A878B87F42E052F5B
:102A9000162FE72ED82E61110E94C31D1E821D82A3
:102AA0007E2DEC82DD824F2D502F612F8D2D9E814A
:102AB0002B960FB6F894DEBF0FBECDBFDF91CF913E
:102AC0001F910F91FF90EF90DF900C949A1AFC01E8
:102AD000808191810C94501DCF93C82F882329F1B8
:102AE0008CEF8C0F813AA0F46C2F8091180190919B
:102AF00019010E94111F882329F08C2F0E94851D27
:102B00000E94EF1D8C2F0E947E1DCF910C94EF1D13
:102B100080E28C0F883048F4C77081E001C0880FD4
:102B2000CA95EAF70E94A61DF0CFCF910895882399
:102B300029F19CEF980F913A20F40E94851D0C9486
:102B4000EF1D90E2980F983050F4877091E001C02B
:102B5000990F8A95EAF7892F0E94AC1DF0CF9BE56B
:102B6000980F933020F490E080E00C941E14885A63
:102B7000873120F490E080E00C94341408951F9382
:102B8000CF93DF93182FEB010E946C15209731F43F
:102B9000812FDF91CF911F910C9497158FE99FE0C2
:102BA0000197F1F700C000002197F0CF70E060E0DE
:102BB000893311F460E570E00C94BF15882321F08F
:102BC0000E94A61D0C94EF1D0895882321F00E94F9
:102BD000AC1D0C94EF1D0895BF92CF92DF92EF923F
:102BE000FF920F931F93CF93DF936C01D62FC72FC4
:102BF000FC010281158112951F700E949C1DE82E18
:102C00008823A1F0E02E002389F08C2F807F803470
:102C100029F080E28D0FE12C883040F082E00E94A4
:102C20003A1E0E949C1D91E0E82EE926BC2EB2942B
:102C30009FE0B922EB2DF0E0E456F84D0C941527F7
:102C40001C2F1F70C07F11F01295107F0023A9F078
:102C5000112359F080E28D0F883010F0D11109C096
:102C6000812F0E94A61D0E94EF1D8D2F0E946C15C2
:102C700014C0812F0E94B61DF6CF8D2F0E9497158C
:102C8000112359F080E28D0F883010F0D1112CC043
:102C9000812F0E94AC1D0E94EF1D2B2D2850330B5D
:102CA0002430310520F40E9407140E947806EE209B
:102CB00009F477C10E94981D80FD73C1F60112824C
:102CC0000E94921D0E941E1CC6010E94F2170E94C3
:102CD000921DDF91CF911F910F91FF90EF90DF90A8
:102CE000CF90BF900C943F1C812F0E94BC1DD3CF6E
:102CF000FC2FFF70FF2EC07FC03219F0F29480EFDE
:102D0000F822DD2369F0D13049F1002391F111233C
:102D100051F1F601858180FFA8CF8F70858323C094
:102D2000002381F0111106C00E94D61D8F290E9438
:102D3000DE15B3CF1130C1F70E94D61D8F290E9436
:102D4000DC1DABCF111106C00E94E51D8F2D0E9426
:102D5000E515A3CF113009F4A0CFF6CF002329F059
:102D6000163008F09ACF8F2DE2CF153008F095CFAE
:102D7000EDCF112359F3D93349F4FFEF27EE33E0B8
:102D8000F15020403040E1F700C000008D2F0E943C
:102D9000971583CF8C2F837009F041C001117DCF2F
:102DA0004D2F429546954770440F440F0D2F0F70DD
:102DB00010E030E020E0042E04C0000F111F221F9D
:102DC000331F0A94D2F760E070E0CB01D4FF0FC04C
:102DD0006FE070E080E090E004C0660F771F881F0E
:102DE000991F4A95D2F76095709580959095C695F4
:102DF000C695C370602B712B822B932BC23049F088
:102E000058F4C13019F00E94D01B47CF0E94BE1B5E
:102E100044CF0E94E21B41CF0E94BC1B3ECF86954F
:102E2000002311F08C2F8170882309F436CF4D2FA9
:102E3000429546954770440F440F0D2F0F7010E0D8
:102E400030E020E0042E04C0000F111F221F331FAA
:102E50000A94D2F760E070E0CB01D4FF0FC06FE0BE
:102E600070E080E090E004C0660F771F881F991F14
:102E70004A95D2F76095709580959095C695C695C0
:102E8000C370602B712B822B932BC23049F058F406
:102E9000C13019F00E94951C00CF0E94831CFDCE0A
:102EA0000E94A71CFACE0E94F81BF7CECF70002319
:102EB00029F08C2F0E941E1C8D2F39CF8D2F0E9440
:102EC000E5158C2F0E943F1CE8CED23F89F160F4BB
:102ED000D03FC9F0D13F29F1002309F442C01111BC
:102EE000C4CE8C2F8F7121C0D33F39F1D43FA1F7CD
:102EF000002369F1CF718C2F0E941E1C63E08C2F80
:102F00000E94251ECACE002341F0153008F0C5CE20
:102F10008C2F8F710E94621CC0CE163008F0BDCE7F
:102F2000F7CF8C2F8F71002369F20E941E1CB5CE43
:102F30008C2F8F710023C9F3C5CF002329F08C2F6C
:102F40008F710E94091CA9CE0E94041CA6CE81E0AC
:102F50000E943A1E123008F4A0CE82E00E943A1E6F
:102F60009CCE112359F0D93309F010CF8FEF97EE93
:102F7000E3E081509040E040E1F706CF8C2F8F7165
:102F8000A1CF4C2F4F706D2FC6010E9480060E946A
:102F9000341B83CE4C2F4F706D2FC6010E948306C9
:102FA0007CCEDF91CF911F910F91FF90EF90DF903A
:102FB000CF90BF9008950F931F93CF93DF93EC01B1
:102FC000688179818A810E945A1D8C010E94B91CF6
:102FD0000E94BB1BB801CE01DF91CF911F910F91D1
:102FE0000C94EC15CF93DF93EC018B819C81892BA2
:102FF00029F08881998189238F3F59F4DF91CF91FE
:103000000895CE010E94DB17CE01DF91CF910C9481
:10301000B705CE010E94DC058111F3CF0E949C1DF3
:10302000882361F38A81882349F382E0DF91CF917D
:103030000C943A1E0E94C31D0E94D31D0C94EF1DD8
:103040000E948C1D0C941A180E94B31D0C94201819
:10305000E92FE295EF70E250EE3070F4F0E0E455C5
:10306000F84D0C941527803F19F020F4883E20F489
:1030700081E00895843FE1F380E00895883EC0F345
:10308000813FD1F7F5CF93FB882780F908950E94FF
:10309000501D0C942818CF93DF9300D000D00F92CE
:1030A000CDB7DEB70F900F900F900F900F90DF917C
:1030B000CF910895CF93DF9300D000D000D0CDB74B
:1030C000DEB726960FB6F894DEBF0FBECDBFDF91F8
:1030D000CF9108951F93CF93DF93C091A90116E07C
:1030E0008091AA018C1304C0DF91CF911F910895A4
:1030F000D0E01C9FF0011D9FF00D1124E555FE4FFF
:103100004081518162817381848195810E945A1826
:103110002196C770E5CF4091DB015091DC016091B1
:10312000DD017091DE018091DF019091E0010C944E
:103130005A181F93CF93DF938091E001807FA9F409
:103140008091DD01882389F08091A901C091AA01B5
:103150006091DB017091DC01A091DE01B091DF0193
:10316000D62FD72316E0C81304C0DF91CF911F914B
:10317000089590E0109711F0DF3F19F401968770E1
:10318000F2CF189F9001199F300D1124F901E555D8
:10319000FE4F41814713F2CF40814613EFCF42816A
:1031A0004111ECCF438154814A1B5B0B483C5105D4
:1031B00028F78091E0018F7080618093E001F90130
:1031C000E055FE4F80818F70806180838BED91E0B0
:1031D0000E94F217DF91CF911F910C946A18AF9261
:1031E000BF92CF92DF92EF92FF920F931F93CF93F4
:1031F000DF93CDB7DEB761970FB6F894DEBF0FBE91
:10320000CDBF8C0185E0F801DE011D9601900D9285
:103210008A95E1F7F80140815181E2808BEDC82E5B
:1032200081E0D82E6091DE017091DF01611571059A
:1032300009F461C19091DB012091DC01892F822387
:103240008F3F09F458C1A380B480F090DD01F501EF
:10325000E61BF70BFF2009F4FCC08091E001382F3A
:10326000307FE83CF10508F0B2C0311179C0FE2C86
:10327000251323C0941321C0E1101FC08F708061FB
:103280008093E0010E948B18C6010E94F217809182
:10329000E001F80185838F2D61960FB6F894DEBFAB
:1032A0000FBECDBFDF91CF911F910F91FF90EF9097
:1032B000DF90CF90BF90AF900895AB2829F0842F76
:1032C00085238F3F09F033C180E0F82FF170DF2EA6
:1032D00080FF3CC08091A9012091AA0136E08213B1
:1032E00015C04D875E878D859E850E94501D292FB4
:1032F00022952F702230F0F0243018F59F70F1F0F5
:10330000F8019581907FD1F4D12C1EC090E0389FB8
:10331000F001399FF00D1124E555FE4F61816513D1
:1033200006C06081641303C062816E110FC00196F4
:103330008770D5CF9F7011F0882331F3805E88307D
:1033400018F3C8010E94F217FD2CA5CFEE2009F456
:10335000A2CF8091E00181608093E001F12C9BCFAE
:10336000251306C0941304C0F801EE2009F48DC0A3
:103370004D875E878D859E850E944718882319F1A9
:10338000EE2009F18091E001803270F02091DB01A4
:103390003091DC0138872F831986BB86AA868C87FB
:1033A000CE0107960E94F21786E0F801ABEDB1E07E
:1033B00001900D928A95E1F70E9499180E948B184E
:1033C000FF24F39468CFC8010E94F217F9CF31119E
:1033D00013C07A2DB98AA88A6E2D89890E944B184C
:1033E0008BED91E00E94F21786E0F60111928A952A
:1033F000E9F70E948B18B2CF25130FC094130DC0AC
:10340000E1100BC0F8018583C8010E94F21786E025
:10341000F60111928A95E9F73ECF4D875E878D853B
:103420009E850E944718882371F2EE2061F28091F8
:10343000E001803208F4B8CF2091DB013091DC014B
:103440003A8329831B82BD82AC828E83CE01019692
:10345000A9CFE83CF10508F041C0FE2CEE2009F4AC
:10346000B2CF25132AC0941328C08091E00180FDBB
:103470001BC0982F907FC1F0F8018583903F31F0F9
:10348000982F907F905F8F70892B8583C8010E9451
:10349000F21786E0F801ABEDB1E001900D928A954C
:1034A000E1F70E948B18F7CE86E0F801ABEDB1E0B2
:1034B00001900D928A95E1F7EECE4D875E878D855E
:1034C0009E850E94471881116FCF8091E001816035
:1034D0008093E001C8010E94F217DDCE7A2DB98AEF
:1034E000A88A6E2D89890E944B1886E0F6011192F8
:1034F0008A95E9F7D6CFEE2009F465CF4D875E8730
:103500008D859E850E944718F82E882309F45BCF8D
:1035100086E0F801ABEDB1E001900D928A95E1F7FC
:103520008BED91E00E9467150E949918BACF81E057
:103530008E25CBCE1F93CF93DF93CDB7DEB72C97DD
:103540000FB6F894DEBF0FBECDBF4F835887698793
:103550007A878B879C87CE0107960E94EF18882375
:1035600069F08A859B85892B39F04F815885842F96
:1035700085238F3F09F071C016E05FC086E0FE0131
:103580003796DE01119601900D928A95E1F78A85B2
:103590009B85892B89F38F81988589238F3F61F3E0
:1035A0002091AA0130E0C9010196877099274091C6
:1035B000A9014817190671F40E9424181092AA0153
:1035C0001092A90186E0EBEDF1E0DF011D928A95F2
:1035D000E9F7D2CF96E0929FD001939FB00D1124CE
:1035E000A555BE4FFE01319601900D929A95E1F7D7
:1035F0008093AA010E946A18BFCF819FC001112445
:1036000085559E4F0E94EF188823E9F0E091A901AB
:103610001E9FF0011124E555FE4F408151816281CA
:103620007381848195810E945A188091A90190E04C
:103630000196877099278093A9018091A9019091A3
:10364000AA018913DACF2C960FB6F894DEBF0FBE0D
:10365000CDBFDF91CF911F91089569857A858B85C4
:103660009C850E945A1888CFEF92FF920F931F9368
:10367000CF93DF938C01892B81F0F12CEE24E3941E
:10368000E8012196F8018491843770F4843008F0C1
:103690005FC08130B1F08230A1F1DF91CF911F91F5
:1036A0000F91FF90EF900895853709F44CC008F40E
:1036B0003DC09CE7980F903780F78F770E94971551
:1036C00049C00E5F1F4FFE01849190E2980F983021
:1036D00060F48770FE2D01C0FF0F8A95EAF78F2FE7
:1036E0000E94C61D0E94EF1D02C00E946C158F2D06
:1036F000815030F2EFE9FFE03197F1F700C00000B0
:10370000F7CF0E5F1F4FFE01849190E2980F983023
:1037100050F48770FE2D01C0FF0F8A95EAF78F2FB6
:103720000E94CC1DDFCF0E949715E1CF0E5F1F4F87
:10373000FE01C491C150D8F28FE99FE00197F1F7E3
:1037400000C00000F7CF0E5F1F4FFE01F490CFCFF7
:103750000E946C158E01CBCF08950C94AC1B0E9477
:10376000AD1B6093F9017093FA018093FB01909374
:10377000FC010C941A1808950C94AF1B0F931F931F
:103780000091F9011091FA012091FB013091FC01A7
:10379000602B712B822B932B1F910F910C94AF1BDD
:1037A0000F931F930091F9011091FA012091FB01F1
:1037B0003091FC0160237123822393231F910F9189
:1037C0000C94AF1B0F931F930091F9011091FA0114
:1037D0002091FB013091FC016027712782279327FC
:1037E0001F910F910C94AF1B0C94AC1B0C94F41B09
:1037F0000E94F61B6093F5017093F6018093F70128
:103800009093F8010C941A1860E070E0CB010C94CE
:10381000F81B0F931F9341E050E060E070E08A01D5
:103820009B0104C0000F111F221F331F8A95D2F77E
:10383000C901B8011F910F910C94F81B0F931F93AE
:1038400041E050E060E070E004C0440F551F661F87
:10385000771F8A95D2F78091F5019091F601A0919A
:10386000F701B091F8018A019B01082B192B2A2B33
:103870003B2BC901B8011F910F910C94F81B0F93BA
:103880001F9341E050E060E070E004C0440F551F1A
:10389000661F771F8A95D2F7CB01BA0160957095A4
:1038A000809590950091F5011091F6012091F70116
:1038B0003091F80160237123822393231F910F918C
:1038C0000C94F81B0F931F9341E050E060E070E010
:1038D00004C0440F551F661F771F8A95D2F7809149
:1038E000F5019091F601A091F701B091F8018A01DC
:1038F0009B01082719272A273B27C901B8011F91D7
:103900000F910C94F81B0F931F930091F5011091E8
:10391000F6012091F7013091F801602B712B822B79
:10392000932B1F910F910C94F81B0F931F930091F1
:10393000F5011091F6012091F7013091F801602313
:103940007123822393231F910F910C94F81B0F93E3
:103950001F930091F5011091F6012091F70130912C
:10396000F80160277127822793271F910F910C94EC
:10397000F81B089527E0929F800D1124982F9770CF
:1039800041E001C0440F9A95EAF7869586958695A1
:1039900095E0899FF0011124EF51FE4F90E080E007
:1039A00070E05191DF0111979B01082E02C03695FE
:1039B00027950A94E2F721702195252724232527AE
:1039C0002C9301968530910561F7089527E0929F29
:1039D000800D1124982F977086958695869525E001
:1039E000829FF0011124EF51FE4F50E040E080E053
:1039F000219130E0092E02C0369527950A94E2F70E
:103A000021703327042E01C0220F0A94EAF7822B7B
:103A10004F5F5F4F4530510559F70895BF92CF92E0
:103A2000DF92EF92FF920F931F93CF93DF938C015E
:103A3000C090F501D090F601E090F701F090F80108
:103A40008091F9019091FA01A091FB01B091FC01E4
:103A5000C82AD92AEA2AFB2ACFE1D0E0BC2ED70116
:103A6000C6010C2E04C0B695A795979587950A9424
:103A7000D2F780FD0EC0219788F7B12C8B2DDF91F6
:103A8000CF911F910F91FF90EF90DF90CF90BF905B
:103A90000895B8018C2F0E94A006019761F3EECF24
:103AA000CF93DF93EC010E940E1DBE01DF91CF91F9
:103AB0000C94A0061F93CF93DF93EB019091A80184
:103AC000992331F0CB01DF91CF911F910C94501DC0
:103AD000882379F0CB010E940E1D182F682FCE018C
:103AE0000E94BA1CBE01812FDF91CF911F910C94CF
:103AF000A006CB010E94E61C182FF4CF682F8091FE
:103B00001801909119010C94471F682F809118019A
:103B1000909119010C94491F8091180190911901FD
:103B20000C944B1F8091FD01859585958595089591
:103B30008091FD01877008959091FD01977081E05B
:103B400009F480E008958091090208959091090296
:103B5000892B8093090208958095909109029823FA
:103B60009093090208951092090208959091080215
:103B7000892B8093080208958095909108029823DC
:103B800090930802089510920802089590910702F8
:103B9000892B8093070208958095909107029823BE
:103BA0009093070208951092070208958091FE01F4
:103BB000089508950C94D91D9091FE01981721F055
:103BC0008093FE010C94DA1D08958091FE018823F4
:103BD00029F01092FE0180E00C94DA1D0895E09126
:103BE0001801F0911901809109028083E091180178
:103BF000F0911901808190910802892B8083E091D6
:103C00001801F0911901808190910702892B80831E
:103C10009091FE01992381F0E0911801F091190132
:103C20008081892B808380911801909119010E94D5
:103C3000FF1E81110E94E51D8091180190911901CC
:103C40000C94131408950C94221E98E0899F9001FF
:103C50001124622B6093FD010E941E1C8091FD01C6
:103C60008595859585950C94231E1092FD0180E025
:103C70000C94231E9091FD01809589238093FD0172
:103C8000282F277071F4282F082E000C330B921761
:103C9000130639F08595859585950E943F1C0C94F7
:103CA000351E089580E0089590E080E00E944C2742
:103CB00021E08B3E9E4F09F020E0822F089582E0A4
:103CC00090E00C943E2783E090E00C943E27CF9345
:103CD00084E090E00E943E27C82F81E290E00E949D
:103CE0003E27982F8C2FCF910895CF93C92F682FFF
:103CF00084E090E00E9452276C2F81E290E0CF9107
:103D00000C945227AB01BC018FE090E00C94642727
:103D1000AB01BC0183E190E00C94642760E070E0AB
:103D2000CB010C94881E60E070E0CB010E94821EE3
:103D30000C948E1E6BEE7EEF90E080E00E94702768
:103D400060E082E090E00E94522760E083E090E033
:103D50000E9452271092F9011092FA011092FB0171
:103D60001092FC0160E084E090E00E94522760E045
:103D700081E290E00E94522760E085E090E00E949E
:103D8000522760E086E090E00E9452276FEF87E0C4
:103D900090E00E94522740E050E0BA0188E090E0B5
:103DA0000E94642760E08DE090E00E94522740E08E
:103DB00050E0BA0188E190E00E94642760E087E16A
:103DC00090E00E94522740E050E0BA018CE190E080
:103DD0000E94642760E080E290E00E94522740E069
:103DE00050E0BA0188E190E00E9464270C94931E91
:103DF0000C949A1E682F8EE090E00C9452279C0140
:103E00002E5F3F4FAC01485F5F4F80E024173507BE
:103E100009F40895F90191919F019923B9F38F5FF6
:103E2000F5CF662349F0FC013296089621912617BA
:103E300029F0E817F907D1F780E0089581E00895A7
:103E40009C01FC0132969FEF80E04191461751F0B2
:103E50009F3F19F4411101C0982F8F5F8630A9F759
:103E60009F3F09F40895290F311D97FD3A95F901F7
:103E700062830895FC01329608962191261303C0AF
:103E8000DF0111971C92E817F907B9F708950C9410
:103E9000201F0C943A1F029626E0FC0111922A95ED
:103EA000E9F7089508950C945005809183048430B7
:103EB00059F10E94531F80E00E9478060E944E0C28
:103EC00010920B0288E190E020E40FB6F894A895D8
:103ED000809360000FBE2093600083B7817F846071
:103EE00083BF83B7816083BF7894889583B78E7FC3
:103EF00083BF0FB6F894A895809160008861809385
:103F00006000109260000FBE08950895CF930E9444
:103F1000521F0E94C7080E94851FC0E08C2F0E947C
:103F20007308811105C0CF5FC430C1F7CF910895E8
:103F300081E0FCCF08950C949A1F0E9424180E94DF
:103F400007140E9478060E941A0D0C949B1F1F9262
:103F50001FB61F9211248F939F93AF93BF938091AD
:103F60000B02811113C08091790490917A04A09181
:103F70007B04B0917C044196A11DB11D809379040E
:103F800090937A04A0937B04B0937C04BF91AF918B
:103F90009F918F911F901FBE1F90189582E084BD46
:103FA00093E095BD9AEF97BD80936E0008952FB76B
:103FB000F8948091790490917A04A0917B04B09157
:103FC0007C042FBF08952FB7F89460917904709105
:103FD0007A0480917B0490917C042FBF08959C010A
:103FE0004FB7F8948091790490917A04A0917B0462
:103FF000B0917C044FBF821B930B089578941F925D
:104000001FB61F9211248F939F93AF93BF938091FC
:10401000790490917A04A0917B04B0917C0401967C
:10402000A11DB11D8093790490937A04A0937B0421
:10403000B0937C04BF91AF919F918F911F901FBE51
:104040001F90189587E797E79093010880930008E1
:1040500088E19AE00FB6F894A895809360000FBEAF
:1040600090936000FFCF90934F0180934E0108958D
:104070000E94541E811102C00E94F81E0E945F1E01
:1040800080930A020E94671E90937E0480937D04B1
:104090000E94631E682F70E090E080E00E94BC1BCD
:1040A0006091F5017091F6018091F7019091F8010E
:1040B0000C94F61B80911402089508950895CF93EF
:1040C000DF93EC0181E08093E9008FEF9091E800AD
:1040D000815095FD06C095ED9A95F1F7000081118C
:1040E000F5CF8091E80085FF14C050E040E068E023
:1040F00070E0CE010E9450228091E8008E7780937C
:10410000E80088E0FE01ACE0B2E001900D928A95F3
:10411000E1F7DF91CF9108950895CF93DF9300D019
:104120000F92CDB7DEB7FC018181898383818A83B9
:1041300080818B8382E08093E9008FEF9091E8008B
:10414000815095FD06C095ED9A95F1F7000081111B
:10415000F5CF8091E80085FF0DC050E040E063E0BE
:1041600070E0CE0101960E9450228091E8008E7787
:104170008093E8000F900F900F90DF91CF910895FA
:1041800080918204811109C00E94E0230E943D2495
:104190008091E20084608093E2000895109282048E
:1041A000089508950895089542E061EC81E00E9429
:1041B0005C2342E061EC82E00C945C2380918504F6
:1041C000833009F45FC030F48130C1F1823009F4EA
:1041D0009BC008958A3009F487C08B3009F46DC004
:1041E000893009F04EC080918404813209F049C0C1
:1041F0008091880490918904892B09F042C08091B4
:10420000E800877F8093E8008091E80082FF35C056
:104210009091F3008091F200029729F48091F100CF
:104220008B7F813021F48091F10080931402809182
:10423000E8008B778093E8000C94902380918404AD
:10424000813AF9F48091E800877F8093E8008091BB
:10425000880490918904892B61F468E08CE092E0F5
:1042600070E00E949F228091E8008B778093E800A5
:10427000089560E090E080E0F3CF809183048111A5
:10428000C3CF089580918404813AD9F7809188043E
:1042900090918904892BA9F78091E800877F80930A
:1042A000E8008091E80080FFFCCF8091240180939A
:1042B000F1008091E8008E77BDCF80918404813237
:1042C00001F78091880490918904892BD1F680911F
:1042D000E800877F8093E8000E9490238091860405
:1042E000809324010C94241880918404813249F62F
:1042F0008091E800877F8093E8000E94902380915E
:10430000870480931502089580918404813A09F00E
:10431000B8CF8091E800877F8093E8008091E80023
:1043200080FFFCCF80911502C2CF84B7877F84BF06
:104330000FB6F894A8958091600088618093600022
:10434000109260000FBE80E890E00FB6F894809362
:104350006100909361000FBE0E946B140E94E023E5
:104360000E943D248091E20084608093E200789472
:104370000E94C6260E947B148AE191E00E940214EA
:10438000809183048530A9F00E9488140E947914DA
:104390000E947A14F5CF0E94551F809181048823D2
:1043A00041F00E94861F882321F00E943A220E9439
:1043B000241880918304853071F30E949D1FE4CFFF
:1043C0000C94E221292F33272330310519F168F4A9
:1043D0002130310509F444C02230310509F445C0CB
:1043E00090E080E030E020E025C02132310549F145
:1043F00022323105A9F780E490E02CE938E061151C
:104400007105C1F080E390E02CE638E06130710581
:1044100089F0E6CF99278130910581F0009729F046
:104420000297F1F6E5EFF7E002C0EBE1F8E08491E6
:1044300090E09F01FA01318320830895E3E0F8E0E2
:10444000F6CF89E090E021E338E06115710591F342
:1044500089E090E02AE438E06130710559F3C0CF7B
:1044600082E190E02AE538E0E5CF8BE390E02FE1B0
:1044700038E0E0CF80E189BD82E189BD09B400FE6A
:10448000FDCF8091D8008F7D8093D8008091E0008F
:1044900082608093E0008091E00081FDFCCF089570
:1044A000AF92BF92CF92DF92FF920F931F93CF9361
:1044B000DF936C01EB018A010E94AF23F82E81117A
:1044C00023C00115110539F0F80180819181C81BC5
:1044D000D90BC80ED91EB12CA12C2097A9F0809120
:1044E000E80085FD22C08091E8008E778093E80087
:1044F00001151105A1F0F80180819181A80EB91E66
:10450000B182A08285E0F82E8F2DDF91CF911F918F
:104510000F91FF90DF90CF90BF90AF9008950E94D1
:10452000AF238823D1F2F82EEFCFF60181916F01EE
:104530008093F1002197FFEFAF1ABF0ACECFFC01A5
:1045400080918A0490918B0486179707A0F06115DB
:10455000710529F49091E8009E779093E80090E02F
:104560006115710551F4911108C08091E80082FF36
:1045700034C080E00895BC01F2CF80918304882389
:10458000C1F18530C1F18091E80083FD30C0809198
:10459000E80082FDEACF8091E80080FFE1CF8091C2
:1045A000F3002091F200382F6115710519F02830C1
:1045B000310558F091E02830310509F090E0209164
:1045C000E8002E772093E800CBCF81918093F10013
:1045D000615071092F5F3F4FE7CF8091830488239B
:1045E00041F0853041F08091E80083FFBECF81E04B
:1045F000089582E0089583E00895FC0180918A0483
:1046000090918B0486179707A0F06115710529F426
:104610008091E8008E778093E80090E06115710545
:1046200051F4911108C08091E80082FF35C080E00C
:104630000895BC01F2CF809183048823C9F18530AD
:10464000C9F18091E80083FD31C08091E80082FDCE
:10465000EACF8091E80080FFE1CF8091F3002091C4
:10466000F200382F6115710519F02830310558F026
:1046700091E02830310509F090E08091E8008E77D4
:104680008093E800CBCF84918093F1003196615004
:1046900071092F5F3F4FE6CF80918304882341F05B
:1046A000853041F08091E80083FFBDCF81E008951F
:1046B00082E0089583E00895982F973028F08F7056
:1046C0008093E90081E008959093E900242F762FEC
:1046D00050E0981731F07091EC002091ED0050916E
:1046E000F00021FD02C09F5FE8CF3091EB003E7FDC
:1046F0003093EB003091ED003D7F3093ED00309131
:10470000EB0031603093EB007093EC002093ED00F0
:104710005093F0002091EE0027FDE5CF80E0089552
:104720008091840487FF13C08091E80082FF06C057
:104730008091E8008B778093E80004C08091830427
:104740008111F2CF0895809183048823D9F3809159
:10475000E80080FFF8CF8091E8008E77ECCF2091C1
:10476000E4003091E50095E6A9012091EC00822F4C
:10477000817020FF06C08091E80080FF06C080E0C5
:1047800008952091E80022FD1AC0809183048823B7
:1047900089F0853089F08091EB0085FD0FC0209174
:1047A000E4003091E50042175307F9F29150E1F629
:1047B00084E0089582E0089583E0089581E00895FB
:1047C0000E944E240E945624E0EEF0E08081816039
:1047D0008083E8EDF0E080818F77808319BCA7EDBE
:1047E000B0E08C918E7F8C9380818F7E808310923D
:1047F000820408950F931F93CF93DF930E944E245A
:104800000E945624C8EDD0E088818F778883888104
:104810008068888388818F7D888319BC1092830487
:1048200010927F04109281041092800400EE10E038
:10483000F80180818B7F808388818160888342E05A
:1048400060E080E00E945C23E1EEF0E080818E7FFA
:104850008083E2EEF0E080818160808380818860E7
:104860008083F80180818E7F808388818061888346
:10487000DF91CF911F910F910895E8EDF0E08081D5
:104880008F7E8083E7EDF0E080818160808384E02B
:1048900082BF81E0809382040C94FA23E8EDF0E07B
:1048A00080818E7F80831092E20008951092DA005A
:1048B0001092E10008951F920F920FB60F921124EB
:1048C0002F933F934F935F936F937F938F939F9318
:1048D000AF93BF93EF93FF938091E10082FF0BC0F2
:1048E0008091E20082FF07C08091E1008B7F80937E
:1048F000E1000E94C5268091DA0080FF19C08091F6
:10490000D80080FF15C08091DA008E7F8093DA0096
:104910008091D90080FF96C080E189BD82E189BD88
:1049200009B400FEFDCF81E0809383040E94C02083
:104930008091E10080FF19C08091E20080FF15C0E6
:104940008091E2008E7F8093E2008091E20080619E
:104950008093E2008091D80080628093D80019BCD7
:1049600085E0809383040E94D2208091E10084FF3F
:104970002BC08091E20084FF27C080E189BD82E1E5
:1049800089BD89B5982F917080FFFBCF8091D800A9
:104990008F7D8093D8008091E1008F7E8093E1002D
:1049A0008091E2008F7E8093E2008091E20081603E
:1049B0008093E20080917F04882309F449C084E059
:1049C000809383040E94D3208091E10083FF29C05B
:1049D0008091E20083FF25C08091E100877F809372
:1049E000E10082E08093830410927F048091E100D3
:1049F0008E7F8093E1008091E2008E7F8093E200C1
:104A00008091E20080618093E20042E060E080E01B
:104A10000E945C238091F00088608093F0000E94E7
:104A2000D120FF91EF91BF91AF919F918F917F9195
:104A30006F915F914F913F912F910F900FBE0F900B
:104A40001F90189519BC109283040E94CE2070CF3D
:104A50008091E30087FD93E090938304B3CF1F928E
:104A60000F920FB60F9211242F933F934F935F93A2
:104A70006F937F938F939F93AF93BF93CF93DF9366
:104A8000EF93FF93D091E900DF708091EC00C82F85
:104A9000C17080FDC0E81092E9008091F000877F2E
:104AA0008093F00078940E9473251092E900809121
:104AB000F00088608093F000CD2BCF70C093E900A8
:104AC000FF91EF91DF91CF91BF91AF919F918F9126
:104AD0007F916F915F914F913F912F910F900FBEFA
:104AE0000F901F9018951F93CF93DF93CDB7DEB72C
:104AF000AA970FB6F894DEBF0FBECDBF84E894E04E
:104B00002091F100FC012193CF01F4E08C389F0744
:104B1000B9F70E94DE208091E80083FF1EC18091DA
:104B20008404909185049A3008F017C1E92FF0E0D1
:104B3000E654F84D0C941527803899F0823809F026
:104B40000CC1809188048F70873008F006C1809373
:104B5000E9008091EB0085FB882780F91092E9003D
:104B600006C080918004909181049111826090919F
:104B7000E800977F9093E8008093F1001092F10095
:104B80008091E8008E77E5C0882309F4D3C0823095
:104B900009F0E3C0809186048111D6C08091880419
:104BA0008F702FEF280F263008F0D7C08093E900D0
:104BB0002091EB0020FFC8C0933031F48091EB00CE
:104BC00080628093EB00C0C09091EB009061909365
:104BD000EB0021E030E001C0220F8A95EAF7209334
:104BE000EA001092EA008091EB008860EACF811120
:104BF000B4C0109186041F778091E3008078812BE8
:104C00008093E3008091E800877F8093E8000E9412
:104C100090238091E80080FFFCCF8091E3008068C2
:104C20008093E30082E0111183E08093830495C0B8
:104C30008058823008F091C080918604909187045A
:104C40008C3D23E09207A1F583E08A838AE2898381
:104C50004FB7F894DE01139620E03EE051E2E32FD7
:104C6000F0E050935700E49120FF03C0E295EF700D
:104C70003F5FEF708E2F90E0EA30C0F0C7968D93C3
:104C80009D932F5F243159F74FBF8091E800877FB4
:104C90008093E8006AE270E0CE0101960E949F22B4
:104CA0008091E8008B778093E80057C0C096E7CFEB
:104CB0006091880470918904AE014F5F5F4F0E943C
:104CC000E021BC01892B09F448C09091E800977F4E
:104CD0009093E80089819A810E94FD22E1CF80387B
:104CE000E1F58091E800877F8093E80080917F0460
:104CF0008093F10045CF811130C0909186049230AD
:104D000060F58091E800877F8093E80090937F04AE
:104D10000E94902380917F04882311F084E005C0D5
:104D20008091E30087FDFACF81E0809383040E94A5
:104D3000D42013C080918604813079F481E09330CF
:104D400009F080E0809381041092E9008091E800EE
:104D5000877F8093E8000E9490238091E80083FF82
:104D60000AC08091E800877F8093E8008091EB0083
:104D700080628093EB00AA960FB6F894DEBF0FBE58
:104D8000CDBFDF91CF911F9108950895CF9380916A
:104D900083048823A1F0C091E900CF709091EC00CA
:104DA000892F817090FD80E8C82B1092E9008091D6
:104DB000E80083FD0E947325CF70C093E900CF9176
:104DC0000895991B79E004C0991F961708F0961B67
:104DD000881F7A95C9F780950895AA1BBB1B51E1DE
:104DE00007C0AA1FBB1FA617B70710F0A61BB70B5B
:104DF000881F991F5A95A9F780959095BC01CD0100
:104E0000089597FB072E16F4009407D077FD09D07C
:104E10000E94ED2607FC05D03EF4909581959F4FAA
:104E20000895709561957F4F0895EE0FFF1F0590CF
:104E3000F491E02D0994FB01DC0102C005900D9274
:104E400041505040D8F70895FC014150504030F097
:104E500001900616D1F73197CF0108958827992739
:104E60000895FB01DC0104C08D910190801921F4AB
:104E700041505040C8F7881B990B0895F999FECF0F
:104E800092BD81BDF89A992780B50895A6E1B0E05A
:104E900044E050E00C947827A8E1B0E042E050E014
:104EA0000C947827262FF999FECF92BD81BDF89AF0
:104EB000019700B4021639F01FBA20BD0FB6F8945E
:104EC000FA9AF99A0FBE08950396272F0E94532746
:104ED0000E945227252F0E945327242F0C945327DA
:104EE0000196272F0E9453270C945227DC01CB01F7
:104EF000FC01F999FECF06C0F2BDE1BDF89A3196EA
:104F000000B40D9241505040B8F70895F894FFCF87
:104F1000AC0DB40DBB0DC00DC50DCA0DCF0DD40D1C
:104F2000D90DDE0DE30DE80DAE0DEC0DF10DAE0D5E
:104F3000AE0DAE0DF40DAE0D2016201678167816B7
:104F40004D164D164D164D16CA1656176517651790
:104F5000C1174D164D16CA17331833183C183C1894
:104F60003E183C183C183C183318331843183C18AA
:104F70003C1843189C25C425AD26C425AD26F7252D
:084F80001826AD266F267B26E2
:104F880040001C001C1C010B0C0D0E0F10111213FD
:104F9800140021007F220003FF015A205F205D20BA
:104FA8005E208C2001F5F6F73133323697C634355A
:104FB80000010202020505050505050B0B0B0B0B8D
:0E4FC8000B0B0B0B0B00081018181008000044
:00000001FF
